{
	"CrowdFunding/CorwdFunding.sol": {
		"CrowdFunding": {
			"abi": [
				{
					"inputs": [
						{
							"internalType": "uint256",
							"name": "_target",
							"type": "uint256"
						},
						{
							"internalType": "uint256",
							"name": "_deadline",
							"type": "uint256"
						}
					],
					"stateMutability": "nonpayable",
					"type": "constructor"
				},
				{
					"inputs": [],
					"name": "contributions",
					"outputs": [],
					"stateMutability": "payable",
					"type": "function"
				},
				{
					"inputs": [
						{
							"internalType": "address",
							"name": "",
							"type": "address"
						}
					],
					"name": "contributors",
					"outputs": [
						{
							"internalType": "uint256",
							"name": "",
							"type": "uint256"
						}
					],
					"stateMutability": "view",
					"type": "function"
				},
				{
					"inputs": [
						{
							"internalType": "string",
							"name": "_description",
							"type": "string"
						},
						{
							"internalType": "address payable",
							"name": "_recipient",
							"type": "address"
						},
						{
							"internalType": "uint256",
							"name": "_value",
							"type": "uint256"
						}
					],
					"name": "createRequests",
					"outputs": [],
					"stateMutability": "nonpayable",
					"type": "function"
				},
				{
					"inputs": [],
					"name": "deadline",
					"outputs": [
						{
							"internalType": "uint256",
							"name": "",
							"type": "uint256"
						}
					],
					"stateMutability": "view",
					"type": "function"
				},
				{
					"inputs": [],
					"name": "getContractBalance",
					"outputs": [
						{
							"internalType": "uint256",
							"name": "",
							"type": "uint256"
						}
					],
					"stateMutability": "view",
					"type": "function"
				},
				{
					"inputs": [
						{
							"internalType": "uint256",
							"name": "_requestNO",
							"type": "uint256"
						}
					],
					"name": "makePayment",
					"outputs": [],
					"stateMutability": "nonpayable",
					"type": "function"
				},
				{
					"inputs": [],
					"name": "manager",
					"outputs": [
						{
							"internalType": "address",
							"name": "",
							"type": "address"
						}
					],
					"stateMutability": "view",
					"type": "function"
				},
				{
					"inputs": [],
					"name": "minimumContributions",
					"outputs": [
						{
							"internalType": "uint256",
							"name": "",
							"type": "uint256"
						}
					],
					"stateMutability": "view",
					"type": "function"
				},
				{
					"inputs": [],
					"name": "noOfContributers",
					"outputs": [
						{
							"internalType": "uint256",
							"name": "",
							"type": "uint256"
						}
					],
					"stateMutability": "view",
					"type": "function"
				},
				{
					"inputs": [],
					"name": "numRequests",
					"outputs": [
						{
							"internalType": "uint256",
							"name": "",
							"type": "uint256"
						}
					],
					"stateMutability": "view",
					"type": "function"
				},
				{
					"inputs": [],
					"name": "raisedAmount",
					"outputs": [
						{
							"internalType": "uint256",
							"name": "",
							"type": "uint256"
						}
					],
					"stateMutability": "view",
					"type": "function"
				},
				{
					"inputs": [],
					"name": "refund",
					"outputs": [],
					"stateMutability": "nonpayable",
					"type": "function"
				},
				{
					"inputs": [
						{
							"internalType": "uint256",
							"name": "",
							"type": "uint256"
						}
					],
					"name": "requests",
					"outputs": [
						{
							"internalType": "string",
							"name": "description",
							"type": "string"
						},
						{
							"internalType": "address payable",
							"name": "recipient",
							"type": "address"
						},
						{
							"internalType": "uint256",
							"name": "value",
							"type": "uint256"
						},
						{
							"internalType": "bool",
							"name": "completed",
							"type": "bool"
						},
						{
							"internalType": "uint256",
							"name": "noOfVoters",
							"type": "uint256"
						}
					],
					"stateMutability": "view",
					"type": "function"
				},
				{
					"inputs": [],
					"name": "target",
					"outputs": [
						{
							"internalType": "uint256",
							"name": "",
							"type": "uint256"
						}
					],
					"stateMutability": "view",
					"type": "function"
				},
				{
					"inputs": [
						{
							"internalType": "uint256",
							"name": "_requestNo",
							"type": "uint256"
						}
					],
					"name": "voteRequest",
					"outputs": [],
					"stateMutability": "nonpayable",
					"type": "function"
				}
			],
			"devdoc": {
				"kind": "dev",
				"methods": {},
				"version": 1
			},
			"evm": {
				"assembly": "    /* \"CrowdFunding/CorwdFunding.sol\":68:2973  contract CrowdFunding{... */\n  mstore(0x40, 0x80)\n    /* \"CrowdFunding/CorwdFunding.sol\":638:815  constructor(uint _target, uint _deadline){... */\n  callvalue\n  dup1\n  iszero\n  tag_1\n  jumpi\n  0x00\n  dup1\n  revert\ntag_1:\n  pop\n  mload(0x40)\n  sub(codesize, bytecodeSize)\n  dup1\n  bytecodeSize\n  dup4\n  codecopy\n  dup2\n  dup2\n  add\n  0x40\n  mstore\n  dup2\n  add\n  swap1\n  tag_2\n  swap2\n  swap1\n  tag_3\n  jump\t// in\ntag_2:\n    /* \"CrowdFunding/CorwdFunding.sol\":694:701  _target */\n  dup2\n    /* \"CrowdFunding/CorwdFunding.sol\":687:693  target */\n  0x06\n    /* \"CrowdFunding/CorwdFunding.sol\":687:701  target=_target */\n  dup2\n  swap1\n  sstore\n  pop\n    /* \"CrowdFunding/CorwdFunding.sol\":734:743  _deadline */\n  dup1\n    /* \"CrowdFunding/CorwdFunding.sol\":718:733  block.timestamp */\n  timestamp\n    /* \"CrowdFunding/CorwdFunding.sol\":718:743  block.timestamp+_deadline */\n  tag_6\n  swap2\n  swap1\n  tag_7\n  jump\t// in\ntag_6:\n    /* \"CrowdFunding/CorwdFunding.sol\":709:717  deadline */\n  0x05\n    /* \"CrowdFunding/CorwdFunding.sol\":709:743  deadline=block.timestamp+_deadline */\n  dup2\n  swap1\n  sstore\n  pop\n    /* \"CrowdFunding/CorwdFunding.sol\":773:780  100 wei */\n  0x64\n    /* \"CrowdFunding/CorwdFunding.sol\":751:771  minimumContributions */\n  0x04\n    /* \"CrowdFunding/CorwdFunding.sol\":751:780  minimumContributions= 100 wei */\n  dup2\n  swap1\n  sstore\n  pop\n    /* \"CrowdFunding/CorwdFunding.sol\":798:808  msg.sender */\n  caller\n    /* \"CrowdFunding/CorwdFunding.sol\":788:795  manager */\n  0x03\n  0x00\n    /* \"CrowdFunding/CorwdFunding.sol\":788:808  manager = msg.sender */\n  0x0100\n  exp\n  dup2\n  sload\n  dup2\n  0xffffffffffffffffffffffffffffffffffffffff\n  mul\n  not\n  and\n  swap1\n  dup4\n  0xffffffffffffffffffffffffffffffffffffffff\n  and\n  mul\n  or\n  swap1\n  sstore\n  pop\n    /* \"CrowdFunding/CorwdFunding.sol\":638:815  constructor(uint _target, uint _deadline){... */\n  pop\n  pop\n    /* \"CrowdFunding/CorwdFunding.sol\":68:2973  contract CrowdFunding{... */\n  jump(tag_8)\n    /* \"#utility.yul\":88:205   */\ntag_10:\n    /* \"#utility.yul\":197:198   */\n  0x00\n    /* \"#utility.yul\":194:195   */\n  dup1\n    /* \"#utility.yul\":187:199   */\n  revert\n    /* \"#utility.yul\":334:411   */\ntag_12:\n    /* \"#utility.yul\":371:378   */\n  0x00\n    /* \"#utility.yul\":400:405   */\n  dup2\n    /* \"#utility.yul\":389:405   */\n  swap1\n  pop\n    /* \"#utility.yul\":334:411   */\n  swap2\n  swap1\n  pop\n  jump\t// out\n    /* \"#utility.yul\":417:539   */\ntag_13:\n    /* \"#utility.yul\":490:514   */\n  tag_22\n    /* \"#utility.yul\":508:513   */\n  dup2\n    /* \"#utility.yul\":490:514   */\n  tag_12\n  jump\t// in\ntag_22:\n    /* \"#utility.yul\":483:488   */\n  dup2\n    /* \"#utility.yul\":480:515   */\n  eq\n    /* \"#utility.yul\":470:533   */\n  tag_23\n  jumpi\n    /* \"#utility.yul\":529:530   */\n  0x00\n    /* \"#utility.yul\":526:527   */\n  dup1\n    /* \"#utility.yul\":519:531   */\n  revert\n    /* \"#utility.yul\":470:533   */\ntag_23:\n    /* \"#utility.yul\":417:539   */\n  pop\n  jump\t// out\n    /* \"#utility.yul\":545:688   */\ntag_14:\n    /* \"#utility.yul\":602:607   */\n  0x00\n    /* \"#utility.yul\":633:639   */\n  dup2\n    /* \"#utility.yul\":627:640   */\n  mload\n    /* \"#utility.yul\":618:640   */\n  swap1\n  pop\n    /* \"#utility.yul\":649:682   */\n  tag_25\n    /* \"#utility.yul\":676:681   */\n  dup2\n    /* \"#utility.yul\":649:682   */\n  tag_13\n  jump\t// in\ntag_25:\n    /* \"#utility.yul\":545:688   */\n  swap3\n  swap2\n  pop\n  pop\n  jump\t// out\n    /* \"#utility.yul\":694:1201   */\ntag_3:\n    /* \"#utility.yul\":773:779   */\n  0x00\n    /* \"#utility.yul\":781:787   */\n  dup1\n    /* \"#utility.yul\":830:832   */\n  0x40\n    /* \"#utility.yul\":818:827   */\n  dup4\n    /* \"#utility.yul\":809:816   */\n  dup6\n    /* \"#utility.yul\":805:828   */\n  sub\n    /* \"#utility.yul\":801:833   */\n  slt\n    /* \"#utility.yul\":798:917   */\n  iszero\n  tag_27\n  jumpi\n    /* \"#utility.yul\":836:915   */\n  tag_28\n  tag_10\n  jump\t// in\ntag_28:\n    /* \"#utility.yul\":798:917   */\ntag_27:\n    /* \"#utility.yul\":956:957   */\n  0x00\n    /* \"#utility.yul\":981:1045   */\n  tag_29\n    /* \"#utility.yul\":1037:1044   */\n  dup6\n    /* \"#utility.yul\":1028:1034   */\n  dup3\n    /* \"#utility.yul\":1017:1026   */\n  dup7\n    /* \"#utility.yul\":1013:1035   */\n  add\n    /* \"#utility.yul\":981:1045   */\n  tag_14\n  jump\t// in\ntag_29:\n    /* \"#utility.yul\":971:1045   */\n  swap3\n  pop\n    /* \"#utility.yul\":927:1055   */\n  pop\n    /* \"#utility.yul\":1094:1096   */\n  0x20\n    /* \"#utility.yul\":1120:1184   */\n  tag_30\n    /* \"#utility.yul\":1176:1183   */\n  dup6\n    /* \"#utility.yul\":1167:1173   */\n  dup3\n    /* \"#utility.yul\":1156:1165   */\n  dup7\n    /* \"#utility.yul\":1152:1174   */\n  add\n    /* \"#utility.yul\":1120:1184   */\n  tag_14\n  jump\t// in\ntag_30:\n    /* \"#utility.yul\":1110:1184   */\n  swap2\n  pop\n    /* \"#utility.yul\":1065:1194   */\n  pop\n    /* \"#utility.yul\":694:1201   */\n  swap3\n  pop\n  swap3\n  swap1\n  pop\n  jump\t// out\n    /* \"#utility.yul\":1207:1387   */\ntag_15:\n    /* \"#utility.yul\":1255:1332   */\n  0x4e487b7100000000000000000000000000000000000000000000000000000000\n    /* \"#utility.yul\":1252:1253   */\n  0x00\n    /* \"#utility.yul\":1245:1333   */\n  mstore\n    /* \"#utility.yul\":1352:1356   */\n  0x11\n    /* \"#utility.yul\":1349:1350   */\n  0x04\n    /* \"#utility.yul\":1342:1357   */\n  mstore\n    /* \"#utility.yul\":1376:1380   */\n  0x24\n    /* \"#utility.yul\":1373:1374   */\n  0x00\n    /* \"#utility.yul\":1366:1381   */\n  revert\n    /* \"#utility.yul\":1393:1584   */\ntag_7:\n    /* \"#utility.yul\":1433:1436   */\n  0x00\n    /* \"#utility.yul\":1452:1472   */\n  tag_33\n    /* \"#utility.yul\":1470:1471   */\n  dup3\n    /* \"#utility.yul\":1452:1472   */\n  tag_12\n  jump\t// in\ntag_33:\n    /* \"#utility.yul\":1447:1472   */\n  swap2\n  pop\n    /* \"#utility.yul\":1486:1506   */\n  tag_34\n    /* \"#utility.yul\":1504:1505   */\n  dup4\n    /* \"#utility.yul\":1486:1506   */\n  tag_12\n  jump\t// in\ntag_34:\n    /* \"#utility.yul\":1481:1506   */\n  swap3\n  pop\n    /* \"#utility.yul\":1529:1530   */\n  dup3\n    /* \"#utility.yul\":1526:1527   */\n  dup3\n    /* \"#utility.yul\":1522:1531   */\n  add\n    /* \"#utility.yul\":1515:1531   */\n  swap1\n  pop\n    /* \"#utility.yul\":1550:1553   */\n  dup1\n    /* \"#utility.yul\":1547:1548   */\n  dup3\n    /* \"#utility.yul\":1544:1554   */\n  gt\n    /* \"#utility.yul\":1541:1577   */\n  iszero\n  tag_35\n  jumpi\n    /* \"#utility.yul\":1557:1575   */\n  tag_36\n  tag_15\n  jump\t// in\ntag_36:\n    /* \"#utility.yul\":1541:1577   */\ntag_35:\n    /* \"#utility.yul\":1393:1584   */\n  swap3\n  swap2\n  pop\n  pop\n  jump\t// out\n    /* \"CrowdFunding/CorwdFunding.sol\":68:2973  contract CrowdFunding{... */\ntag_8:\n  dataSize(sub_0)\n  dup1\n  dataOffset(sub_0)\n  0x00\n  codecopy\n  0x00\n  return\nstop\n\nsub_0: assembly {\n        /* \"CrowdFunding/CorwdFunding.sol\":68:2973  contract CrowdFunding{... */\n      mstore(0x40, 0x80)\n      jumpi(tag_1, lt(calldatasize, 0x04))\n      shr(0xe0, calldataload(0x00))\n      dup1\n      0x5114cb52\n      gt\n      tag_17\n      jumpi\n      dup1\n      0x9fb42b1f\n      gt\n      tag_18\n      jumpi\n      dup1\n      0x9fb42b1f\n      eq\n      tag_13\n      jumpi\n      dup1\n      0xc59ee1dc\n      eq\n      tag_14\n      jumpi\n      dup1\n      0xd4b83992\n      eq\n      tag_15\n      jumpi\n      dup1\n      0xdd27f68c\n      eq\n      tag_16\n      jumpi\n      jump(tag_1)\n    tag_18:\n      dup1\n      0x5114cb52\n      eq\n      tag_9\n      jumpi\n      dup1\n      0x590e1ae3\n      eq\n      tag_10\n      jumpi\n      dup1\n      0x6f9fb98a\n      eq\n      tag_11\n      jumpi\n      dup1\n      0x81d12c58\n      eq\n      tag_12\n      jumpi\n      jump(tag_1)\n    tag_17:\n      dup1\n      0x29dcb0cf\n      gt\n      tag_19\n      jumpi\n      dup1\n      0x29dcb0cf\n      eq\n      tag_5\n      jumpi\n      dup1\n      0x3eb7647b\n      eq\n      tag_6\n      jumpi\n      dup1\n      0x481c6a75\n      eq\n      tag_7\n      jumpi\n      dup1\n      0x4cb6f4a5\n      eq\n      tag_8\n      jumpi\n      jump(tag_1)\n    tag_19:\n      dup1\n      0x029eabcb\n      eq\n      tag_2\n      jumpi\n      dup1\n      0x1f6d4942\n      eq\n      tag_3\n      jumpi\n      dup1\n      0x24274ee9\n      eq\n      tag_4\n      jumpi\n    tag_1:\n      0x00\n      dup1\n      revert\n        /* \"CrowdFunding/CorwdFunding.sol\":1334:1700  function contributions() public payable{... */\n    tag_2:\n      tag_20\n      tag_21\n      jump\t// in\n    tag_20:\n      stop\n        /* \"CrowdFunding/CorwdFunding.sol\":287:329  mapping(address=>uint) public contributors */\n    tag_3:\n      callvalue\n      dup1\n      iszero\n      tag_22\n      jumpi\n      0x00\n      dup1\n      revert\n    tag_22:\n      pop\n      tag_23\n      0x04\n      dup1\n      calldatasize\n      sub\n      dup2\n      add\n      swap1\n      tag_24\n      swap2\n      swap1\n      tag_25\n      jump\t// in\n    tag_24:\n      tag_26\n      jump\t// in\n    tag_23:\n      mload(0x40)\n      tag_27\n      swap2\n      swap1\n      tag_28\n      jump\t// in\n    tag_27:\n      mload(0x40)\n      dup1\n      swap2\n      sub\n      swap1\n      return\n        /* \"CrowdFunding/CorwdFunding.sol\":600:628  uint public noOfContributers */\n    tag_4:\n      callvalue\n      dup1\n      iszero\n      tag_29\n      jumpi\n      0x00\n      dup1\n      revert\n    tag_29:\n      pop\n      tag_30\n      tag_31\n      jump\t// in\n    tag_30:\n      mload(0x40)\n      tag_32\n      swap2\n      swap1\n      tag_28\n      jump\t// in\n    tag_32:\n      mload(0x40)\n      dup1\n      swap2\n      sub\n      swap1\n      return\n        /* \"CrowdFunding/CorwdFunding.sol\":482:502  uint public deadline */\n    tag_5:\n      callvalue\n      dup1\n      iszero\n      tag_33\n      jumpi\n      0x00\n      dup1\n      revert\n    tag_33:\n      pop\n      tag_34\n      tag_35\n      jump\t// in\n    tag_34:\n      mload(0x40)\n      tag_36\n      swap2\n      swap1\n      tag_28\n      jump\t// in\n    tag_36:\n      mload(0x40)\n      dup1\n      swap2\n      sub\n      swap1\n      return\n        /* \"CrowdFunding/CorwdFunding.sol\":948:1328  function createRequests(string calldata _description, address payable _recipient, uint _value) public onlyManager {... */\n    tag_6:\n      callvalue\n      dup1\n      iszero\n      tag_37\n      jumpi\n      0x00\n      dup1\n      revert\n    tag_37:\n      pop\n      tag_38\n      0x04\n      dup1\n      calldatasize\n      sub\n      dup2\n      add\n      swap1\n      tag_39\n      swap2\n      swap1\n      tag_40\n      jump\t// in\n    tag_39:\n      tag_41\n      jump\t// in\n    tag_38:\n      stop\n        /* \"CrowdFunding/CorwdFunding.sol\":414:436  address public manager */\n    tag_7:\n      callvalue\n      dup1\n      iszero\n      tag_42\n      jumpi\n      0x00\n      dup1\n      revert\n    tag_42:\n      pop\n      tag_43\n      tag_44\n      jump\t// in\n    tag_43:\n      mload(0x40)\n      tag_45\n      swap2\n      swap1\n      tag_46\n      jump\t// in\n    tag_45:\n      mload(0x40)\n      dup1\n      swap2\n      sub\n      swap1\n      return\n        /* \"CrowdFunding/CorwdFunding.sol\":2119:2466  function voteRequest(uint _requestNo) public {... */\n    tag_8:\n      callvalue\n      dup1\n      iszero\n      tag_47\n      jumpi\n      0x00\n      dup1\n      revert\n    tag_47:\n      pop\n      tag_48\n      0x04\n      dup1\n      calldatasize\n      sub\n      dup2\n      add\n      swap1\n      tag_49\n      swap2\n      swap1\n      tag_50\n      jump\t// in\n    tag_49:\n      tag_51\n      jump\t// in\n    tag_48:\n      stop\n        /* \"CrowdFunding/CorwdFunding.sol\":2472:2968  function makePayment(uint _requestNO) public onlyManager {... */\n    tag_9:\n      callvalue\n      dup1\n      iszero\n      tag_52\n      jumpi\n      0x00\n      dup1\n      revert\n    tag_52:\n      pop\n      tag_53\n      0x04\n      dup1\n      calldatasize\n      sub\n      dup2\n      add\n      swap1\n      tag_54\n      swap2\n      swap1\n      tag_50\n      jump\t// in\n    tag_54:\n      tag_55\n      jump\t// in\n    tag_53:\n      stop\n        /* \"CrowdFunding/CorwdFunding.sol\":1811:2113  function refund() public {... */\n    tag_10:\n      callvalue\n      dup1\n      iszero\n      tag_56\n      jumpi\n      0x00\n      dup1\n      revert\n    tag_56:\n      pop\n      tag_57\n      tag_58\n      jump\t// in\n    tag_57:\n      stop\n        /* \"CrowdFunding/CorwdFunding.sol\":1708:1805  function getContractBalance() public view returns (uint){... */\n    tag_11:\n      callvalue\n      dup1\n      iszero\n      tag_59\n      jumpi\n      0x00\n      dup1\n      revert\n    tag_59:\n      pop\n      tag_60\n      tag_61\n      jump\t// in\n    tag_60:\n      mload(0x40)\n      tag_62\n      swap2\n      swap1\n      tag_28\n      jump\t// in\n    tag_62:\n      mload(0x40)\n      dup1\n      swap2\n      sub\n      swap1\n      return\n        /* \"CrowdFunding/CorwdFunding.sol\":336:375  mapping (uint=>Request) public requests */\n    tag_12:\n      callvalue\n      dup1\n      iszero\n      tag_63\n      jumpi\n      0x00\n      dup1\n      revert\n    tag_63:\n      pop\n      tag_64\n      0x04\n      dup1\n      calldatasize\n      sub\n      dup2\n      add\n      swap1\n      tag_65\n      swap2\n      swap1\n      tag_50\n      jump\t// in\n    tag_65:\n      tag_66\n      jump\t// in\n    tag_64:\n      mload(0x40)\n      tag_67\n      swap6\n      swap5\n      swap4\n      swap3\n      swap2\n      swap1\n      tag_68\n      jump\t// in\n    tag_67:\n      mload(0x40)\n      dup1\n      swap2\n      sub\n      swap1\n      return\n        /* \"CrowdFunding/CorwdFunding.sol\":382:405  uint public numRequests */\n    tag_13:\n      callvalue\n      dup1\n      iszero\n      tag_69\n      jumpi\n      0x00\n      dup1\n      revert\n    tag_69:\n      pop\n      tag_70\n      tag_71\n      jump\t// in\n    tag_70:\n      mload(0x40)\n      tag_72\n      swap2\n      swap1\n      tag_28\n      jump\t// in\n    tag_72:\n      mload(0x40)\n      dup1\n      swap2\n      sub\n      swap1\n      return\n        /* \"CrowdFunding/CorwdFunding.sol\":569:593  uint public raisedAmount */\n    tag_14:\n      callvalue\n      dup1\n      iszero\n      tag_73\n      jumpi\n      0x00\n      dup1\n      revert\n    tag_73:\n      pop\n      tag_74\n      tag_75\n      jump\t// in\n    tag_74:\n      mload(0x40)\n      tag_76\n      swap2\n      swap1\n      tag_28\n      jump\t// in\n    tag_76:\n      mload(0x40)\n      dup1\n      swap2\n      sub\n      swap1\n      return\n        /* \"CrowdFunding/CorwdFunding.sol\":509:527  uint public target */\n    tag_15:\n      callvalue\n      dup1\n      iszero\n      tag_77\n      jumpi\n      0x00\n      dup1\n      revert\n    tag_77:\n      pop\n      tag_78\n      tag_79\n      jump\t// in\n    tag_78:\n      mload(0x40)\n      tag_80\n      swap2\n      swap1\n      tag_28\n      jump\t// in\n    tag_80:\n      mload(0x40)\n      dup1\n      swap2\n      sub\n      swap1\n      return\n        /* \"CrowdFunding/CorwdFunding.sol\":443:475  uint public minimumContributions */\n    tag_16:\n      callvalue\n      dup1\n      iszero\n      tag_81\n      jumpi\n      0x00\n      dup1\n      revert\n    tag_81:\n      pop\n      tag_82\n      tag_83\n      jump\t// in\n    tag_82:\n      mload(0x40)\n      tag_84\n      swap2\n      swap1\n      tag_28\n      jump\t// in\n    tag_84:\n      mload(0x40)\n      dup1\n      swap2\n      sub\n      swap1\n      return\n        /* \"CrowdFunding/CorwdFunding.sol\":1334:1700  function contributions() public payable{... */\n    tag_21:\n        /* \"CrowdFunding/CorwdFunding.sol\":1405:1413  deadline */\n      sload(0x05)\n        /* \"CrowdFunding/CorwdFunding.sol\":1388:1403  block.timestamp */\n      timestamp\n        /* \"CrowdFunding/CorwdFunding.sol\":1388:1413  block.timestamp<=deadline */\n      gt\n      iszero\n        /* \"CrowdFunding/CorwdFunding.sol\":1380:1465  require(block.timestamp<=deadline, \"The deadline of the requests has been exceeded.\") */\n      tag_86\n      jumpi\n      mload(0x40)\n      0x08c379a000000000000000000000000000000000000000000000000000000000\n      dup2\n      mstore\n      0x04\n      add\n      tag_87\n      swap1\n      tag_88\n      jump\t// in\n    tag_87:\n      mload(0x40)\n      dup1\n      swap2\n      sub\n      swap1\n      revert\n    tag_86:\n        /* \"CrowdFunding/CorwdFunding.sol\":1491:1511  minimumContributions */\n      sload(0x04)\n        /* \"CrowdFunding/CorwdFunding.sol\":1480:1489  msg.value */\n      callvalue\n        /* \"CrowdFunding/CorwdFunding.sol\":1480:1511  msg.value>=minimumContributions */\n      lt\n      iszero\n        /* \"CrowdFunding/CorwdFunding.sol\":1472:1546  require(msg.value>=minimumContributions, \"Minimum conribution is 100 wei\") */\n      tag_89\n      jumpi\n      mload(0x40)\n      0x08c379a000000000000000000000000000000000000000000000000000000000\n      dup2\n      mstore\n      0x04\n      add\n      tag_90\n      swap1\n      tag_91\n      jump\t// in\n    tag_90:\n      mload(0x40)\n      dup1\n      swap2\n      sub\n      swap1\n      revert\n    tag_89:\n        /* \"CrowdFunding/CorwdFunding.sol\":1583:1584  0 */\n      0x00\n        /* \"CrowdFunding/CorwdFunding.sol\":1556:1568  contributors */\n      dup1\n        /* \"CrowdFunding/CorwdFunding.sol\":1556:1580  contributors[msg.sender] */\n      0x00\n        /* \"CrowdFunding/CorwdFunding.sol\":1569:1579  msg.sender */\n      caller\n        /* \"CrowdFunding/CorwdFunding.sol\":1556:1580  contributors[msg.sender] */\n      0xffffffffffffffffffffffffffffffffffffffff\n      and\n      0xffffffffffffffffffffffffffffffffffffffff\n      and\n      dup2\n      mstore\n      0x20\n      add\n      swap1\n      dup2\n      mstore\n      0x20\n      add\n      0x00\n      keccak256\n      sload\n        /* \"CrowdFunding/CorwdFunding.sol\":1556:1584  contributors[msg.sender]== 0 */\n      sub\n        /* \"CrowdFunding/CorwdFunding.sol\":1553:1622  if(contributors[msg.sender]== 0){... */\n      tag_92\n      jumpi\n        /* \"CrowdFunding/CorwdFunding.sol\":1596:1612  noOfContributers */\n      0x08\n      0x00\n        /* \"CrowdFunding/CorwdFunding.sol\":1596:1614  noOfContributers++ */\n      dup2\n      sload\n      dup1\n      swap3\n      swap2\n      swap1\n      tag_93\n      swap1\n      tag_94\n      jump\t// in\n    tag_93:\n      swap2\n      swap1\n      pop\n      sstore\n      pop\n        /* \"CrowdFunding/CorwdFunding.sol\":1553:1622  if(contributors[msg.sender]== 0){... */\n    tag_92:\n        /* \"CrowdFunding/CorwdFunding.sol\":1655:1664  msg.value */\n      callvalue\n        /* \"CrowdFunding/CorwdFunding.sol\":1628:1640  contributors */\n      0x00\n        /* \"CrowdFunding/CorwdFunding.sol\":1628:1652  contributors[msg.sender] */\n      dup1\n        /* \"CrowdFunding/CorwdFunding.sol\":1641:1651  msg.sender */\n      caller\n        /* \"CrowdFunding/CorwdFunding.sol\":1628:1652  contributors[msg.sender] */\n      0xffffffffffffffffffffffffffffffffffffffff\n      and\n      0xffffffffffffffffffffffffffffffffffffffff\n      and\n      dup2\n      mstore\n      0x20\n      add\n      swap1\n      dup2\n      mstore\n      0x20\n      add\n      0x00\n      keccak256\n      0x00\n        /* \"CrowdFunding/CorwdFunding.sol\":1628:1664  contributors[msg.sender]+= msg.value */\n      dup3\n      dup3\n      sload\n      tag_95\n      swap2\n      swap1\n      tag_96\n      jump\t// in\n    tag_95:\n      swap3\n      pop\n      pop\n      dup2\n      swap1\n      sstore\n      pop\n        /* \"CrowdFunding/CorwdFunding.sol\":1685:1694  msg.value */\n      callvalue\n        /* \"CrowdFunding/CorwdFunding.sol\":1671:1683  raisedAmount */\n      0x07\n      0x00\n        /* \"CrowdFunding/CorwdFunding.sol\":1671:1694  raisedAmount+=msg.value */\n      dup3\n      dup3\n      sload\n      tag_97\n      swap2\n      swap1\n      tag_96\n      jump\t// in\n    tag_97:\n      swap3\n      pop\n      pop\n      dup2\n      swap1\n      sstore\n      pop\n        /* \"CrowdFunding/CorwdFunding.sol\":1334:1700  function contributions() public payable{... */\n      jump\t// out\n        /* \"CrowdFunding/CorwdFunding.sol\":287:329  mapping(address=>uint) public contributors */\n    tag_26:\n      mstore(0x20, 0x00)\n      dup1\n      0x00\n      mstore\n      keccak256(0x00, 0x40)\n      0x00\n      swap2\n      pop\n      swap1\n      pop\n      sload\n      dup2\n      jump\t// out\n        /* \"CrowdFunding/CorwdFunding.sol\":600:628  uint public noOfContributers */\n    tag_31:\n      sload(0x08)\n      dup2\n      jump\t// out\n        /* \"CrowdFunding/CorwdFunding.sol\":482:502  uint public deadline */\n    tag_35:\n      sload(0x05)\n      dup2\n      jump\t// out\n        /* \"CrowdFunding/CorwdFunding.sol\":948:1328  function createRequests(string calldata _description, address payable _recipient, uint _value) public onlyManager {... */\n    tag_41:\n        /* \"CrowdFunding/CorwdFunding.sol\":872:879  manager */\n      0x03\n      0x00\n      swap1\n      sload\n      swap1\n      0x0100\n      exp\n      swap1\n      div\n      0xffffffffffffffffffffffffffffffffffffffff\n      and\n        /* \"CrowdFunding/CorwdFunding.sol\":860:879  msg.sender==manager */\n      0xffffffffffffffffffffffffffffffffffffffff\n      and\n        /* \"CrowdFunding/CorwdFunding.sol\":860:870  msg.sender */\n      caller\n        /* \"CrowdFunding/CorwdFunding.sol\":860:879  msg.sender==manager */\n      0xffffffffffffffffffffffffffffffffffffffff\n      and\n      eq\n        /* \"CrowdFunding/CorwdFunding.sol\":851:925  require (msg.sender==manager, \"Only the manager can perform this action.\") */\n      tag_99\n      jumpi\n      mload(0x40)\n      0x08c379a000000000000000000000000000000000000000000000000000000000\n      dup2\n      mstore\n      0x04\n      add\n      tag_100\n      swap1\n      tag_101\n      jump\t// in\n    tag_100:\n      mload(0x40)\n      dup1\n      swap2\n      sub\n      swap1\n      revert\n    tag_99:\n        /* \"CrowdFunding/CorwdFunding.sol\":1070:1096  Request storage newRequest */\n      0x00\n        /* \"CrowdFunding/CorwdFunding.sol\":1099:1107  requests */\n      0x01\n        /* \"CrowdFunding/CorwdFunding.sol\":1099:1120  requests[numRequests] */\n      0x00\n        /* \"CrowdFunding/CorwdFunding.sol\":1108:1119  numRequests */\n      sload(0x02)\n        /* \"CrowdFunding/CorwdFunding.sol\":1099:1120  requests[numRequests] */\n      dup2\n      mstore\n      0x20\n      add\n      swap1\n      dup2\n      mstore\n      0x20\n      add\n      0x00\n      keccak256\n        /* \"CrowdFunding/CorwdFunding.sol\":1070:1120  Request storage newRequest = requests[numRequests] */\n      swap1\n      pop\n        /* \"CrowdFunding/CorwdFunding.sol\":1128:1139  numRequests */\n      0x02\n      0x00\n        /* \"CrowdFunding/CorwdFunding.sol\":1128:1141  numRequests++ */\n      dup2\n      sload\n      dup1\n      swap3\n      swap2\n      swap1\n      tag_103\n      swap1\n      tag_94\n      jump\t// in\n    tag_103:\n      swap2\n      swap1\n      pop\n      sstore\n      pop\n        /* \"CrowdFunding/CorwdFunding.sol\":1174:1186  _description */\n      dup5\n      dup5\n        /* \"CrowdFunding/CorwdFunding.sol\":1149:1159  newRequest */\n      dup3\n        /* \"CrowdFunding/CorwdFunding.sol\":1149:1171  newRequest.description */\n      0x00\n      add\n        /* \"CrowdFunding/CorwdFunding.sol\":1149:1186  newRequest.description = _description */\n      swap2\n      dup3\n      tag_104\n      swap3\n      swap2\n      swap1\n      tag_105\n      jump\t// in\n    tag_104:\n      pop\n        /* \"CrowdFunding/CorwdFunding.sol\":1215:1225  _recipient */\n      dup3\n        /* \"CrowdFunding/CorwdFunding.sol\":1194:1204  newRequest */\n      dup2\n        /* \"CrowdFunding/CorwdFunding.sol\":1194:1214  newRequest.recipient */\n      0x01\n      add\n      0x00\n        /* \"CrowdFunding/CorwdFunding.sol\":1194:1225  newRequest.recipient=_recipient */\n      0x0100\n      exp\n      dup2\n      sload\n      dup2\n      0xffffffffffffffffffffffffffffffffffffffff\n      mul\n      not\n      and\n      swap1\n      dup4\n      0xffffffffffffffffffffffffffffffffffffffff\n      and\n      mul\n      or\n      swap1\n      sstore\n      pop\n        /* \"CrowdFunding/CorwdFunding.sol\":1250:1256  _value */\n      dup2\n        /* \"CrowdFunding/CorwdFunding.sol\":1233:1243  newRequest */\n      dup2\n        /* \"CrowdFunding/CorwdFunding.sol\":1233:1249  newRequest.value */\n      0x02\n      add\n        /* \"CrowdFunding/CorwdFunding.sol\":1233:1256  newRequest.value=_value */\n      dup2\n      swap1\n      sstore\n      pop\n        /* \"CrowdFunding/CorwdFunding.sol\":1285:1290  false */\n      0x00\n        /* \"CrowdFunding/CorwdFunding.sol\":1264:1274  newRequest */\n      dup2\n        /* \"CrowdFunding/CorwdFunding.sol\":1264:1284  newRequest.completed */\n      0x03\n      add\n      0x00\n        /* \"CrowdFunding/CorwdFunding.sol\":1264:1290  newRequest.completed=false */\n      0x0100\n      exp\n      dup2\n      sload\n      dup2\n      0xff\n      mul\n      not\n      and\n      swap1\n      dup4\n      iszero\n      iszero\n      mul\n      or\n      swap1\n      sstore\n      pop\n        /* \"CrowdFunding/CorwdFunding.sol\":1320:1321  0 */\n      0x00\n        /* \"CrowdFunding/CorwdFunding.sol\":1298:1308  newRequest */\n      dup2\n        /* \"CrowdFunding/CorwdFunding.sol\":1298:1319  newRequest.noOfVoters */\n      0x04\n      add\n        /* \"CrowdFunding/CorwdFunding.sol\":1298:1321  newRequest.noOfVoters=0 */\n      dup2\n      swap1\n      sstore\n      pop\n        /* \"CrowdFunding/CorwdFunding.sol\":1062:1328  {... */\n      pop\n        /* \"CrowdFunding/CorwdFunding.sol\":948:1328  function createRequests(string calldata _description, address payable _recipient, uint _value) public onlyManager {... */\n      pop\n      pop\n      pop\n      pop\n      jump\t// out\n        /* \"CrowdFunding/CorwdFunding.sol\":414:436  address public manager */\n    tag_44:\n      0x03\n      0x00\n      swap1\n      sload\n      swap1\n      0x0100\n      exp\n      swap1\n      div\n      0xffffffffffffffffffffffffffffffffffffffff\n      and\n      dup2\n      jump\t// out\n        /* \"CrowdFunding/CorwdFunding.sol\":2119:2466  function voteRequest(uint _requestNo) public {... */\n    tag_51:\n        /* \"CrowdFunding/CorwdFunding.sol\":2205:2206  0 */\n      0x00\n        /* \"CrowdFunding/CorwdFunding.sol\":2180:2192  contributors */\n      dup1\n        /* \"CrowdFunding/CorwdFunding.sol\":2180:2204  contributors[msg.sender] */\n      0x00\n        /* \"CrowdFunding/CorwdFunding.sol\":2193:2203  msg.sender */\n      caller\n        /* \"CrowdFunding/CorwdFunding.sol\":2180:2204  contributors[msg.sender] */\n      0xffffffffffffffffffffffffffffffffffffffff\n      and\n      0xffffffffffffffffffffffffffffffffffffffff\n      and\n      dup2\n      mstore\n      0x20\n      add\n      swap1\n      dup2\n      mstore\n      0x20\n      add\n      0x00\n      keccak256\n      sload\n        /* \"CrowdFunding/CorwdFunding.sol\":2180:2206  contributors[msg.sender]>0 */\n      gt\n        /* \"CrowdFunding/CorwdFunding.sol\":2172:2244  require(contributors[msg.sender]>0, \"You don't have any contributions.\") */\n      tag_107\n      jumpi\n      mload(0x40)\n      0x08c379a000000000000000000000000000000000000000000000000000000000\n      dup2\n      mstore\n      0x04\n      add\n      tag_108\n      swap1\n      tag_109\n      jump\t// in\n    tag_108:\n      mload(0x40)\n      dup1\n      swap2\n      sub\n      swap1\n      revert\n    tag_107:\n        /* \"CrowdFunding/CorwdFunding.sol\":2252:2279  Request storage thisRequest */\n      0x00\n        /* \"CrowdFunding/CorwdFunding.sol\":2282:2290  requests */\n      0x01\n        /* \"CrowdFunding/CorwdFunding.sol\":2282:2302  requests[_requestNo] */\n      0x00\n        /* \"CrowdFunding/CorwdFunding.sol\":2291:2301  _requestNo */\n      dup4\n        /* \"CrowdFunding/CorwdFunding.sol\":2282:2302  requests[_requestNo] */\n      dup2\n      mstore\n      0x20\n      add\n      swap1\n      dup2\n      mstore\n      0x20\n      add\n      0x00\n      keccak256\n        /* \"CrowdFunding/CorwdFunding.sol\":2252:2302  Request storage thisRequest = requests[_requestNo] */\n      swap1\n      pop\n        /* \"CrowdFunding/CorwdFunding.sol\":2350:2355  false */\n      0x00\n        /* \"CrowdFunding/CorwdFunding.sol\":2318:2355  thisRequest.voters[msg.sender]==false */\n      iszero\n      iszero\n        /* \"CrowdFunding/CorwdFunding.sol\":2318:2329  thisRequest */\n      dup2\n        /* \"CrowdFunding/CorwdFunding.sol\":2318:2336  thisRequest.voters */\n      0x05\n      add\n        /* \"CrowdFunding/CorwdFunding.sol\":2318:2348  thisRequest.voters[msg.sender] */\n      0x00\n        /* \"CrowdFunding/CorwdFunding.sol\":2337:2347  msg.sender */\n      caller\n        /* \"CrowdFunding/CorwdFunding.sol\":2318:2348  thisRequest.voters[msg.sender] */\n      0xffffffffffffffffffffffffffffffffffffffff\n      and\n      0xffffffffffffffffffffffffffffffffffffffff\n      and\n      dup2\n      mstore\n      0x20\n      add\n      swap1\n      dup2\n      mstore\n      0x20\n      add\n      0x00\n      keccak256\n      0x00\n      swap1\n      sload\n      swap1\n      0x0100\n      exp\n      swap1\n      div\n      0xff\n      and\n        /* \"CrowdFunding/CorwdFunding.sol\":2318:2355  thisRequest.voters[msg.sender]==false */\n      iszero\n      iszero\n      eq\n        /* \"CrowdFunding/CorwdFunding.sol\":2310:2384  require(thisRequest.voters[msg.sender]==false,\"You already voted for it!\") */\n      tag_110\n      jumpi\n      mload(0x40)\n      0x08c379a000000000000000000000000000000000000000000000000000000000\n      dup2\n      mstore\n      0x04\n      add\n      tag_111\n      swap1\n      tag_112\n      jump\t// in\n    tag_111:\n      mload(0x40)\n      dup1\n      swap2\n      sub\n      swap1\n      revert\n    tag_110:\n        /* \"CrowdFunding/CorwdFunding.sol\":2424:2428  true */\n      0x01\n        /* \"CrowdFunding/CorwdFunding.sol\":2392:2403  thisRequest */\n      dup2\n        /* \"CrowdFunding/CorwdFunding.sol\":2392:2410  thisRequest.voters */\n      0x05\n      add\n        /* \"CrowdFunding/CorwdFunding.sol\":2392:2422  thisRequest.voters[msg.sender] */\n      0x00\n        /* \"CrowdFunding/CorwdFunding.sol\":2411:2421  msg.sender */\n      caller\n        /* \"CrowdFunding/CorwdFunding.sol\":2392:2422  thisRequest.voters[msg.sender] */\n      0xffffffffffffffffffffffffffffffffffffffff\n      and\n      0xffffffffffffffffffffffffffffffffffffffff\n      and\n      dup2\n      mstore\n      0x20\n      add\n      swap1\n      dup2\n      mstore\n      0x20\n      add\n      0x00\n      keccak256\n      0x00\n        /* \"CrowdFunding/CorwdFunding.sol\":2392:2428  thisRequest.voters[msg.sender]= true */\n      0x0100\n      exp\n      dup2\n      sload\n      dup2\n      0xff\n      mul\n      not\n      and\n      swap1\n      dup4\n      iszero\n      iszero\n      mul\n      or\n      swap1\n      sstore\n      pop\n        /* \"CrowdFunding/CorwdFunding.sol\":2436:2447  thisRequest */\n      dup1\n        /* \"CrowdFunding/CorwdFunding.sol\":2436:2458  thisRequest.noOfVoters */\n      0x04\n      add\n      0x00\n        /* \"CrowdFunding/CorwdFunding.sol\":2436:2460  thisRequest.noOfVoters++ */\n      dup2\n      sload\n      dup1\n      swap3\n      swap2\n      swap1\n      tag_113\n      swap1\n      tag_94\n      jump\t// in\n    tag_113:\n      swap2\n      swap1\n      pop\n      sstore\n      pop\n        /* \"CrowdFunding/CorwdFunding.sol\":2164:2466  {... */\n      pop\n        /* \"CrowdFunding/CorwdFunding.sol\":2119:2466  function voteRequest(uint _requestNo) public {... */\n      pop\n      jump\t// out\n        /* \"CrowdFunding/CorwdFunding.sol\":2472:2968  function makePayment(uint _requestNO) public onlyManager {... */\n    tag_55:\n        /* \"CrowdFunding/CorwdFunding.sol\":872:879  manager */\n      0x03\n      0x00\n      swap1\n      sload\n      swap1\n      0x0100\n      exp\n      swap1\n      div\n      0xffffffffffffffffffffffffffffffffffffffff\n      and\n        /* \"CrowdFunding/CorwdFunding.sol\":860:879  msg.sender==manager */\n      0xffffffffffffffffffffffffffffffffffffffff\n      and\n        /* \"CrowdFunding/CorwdFunding.sol\":860:870  msg.sender */\n      caller\n        /* \"CrowdFunding/CorwdFunding.sol\":860:879  msg.sender==manager */\n      0xffffffffffffffffffffffffffffffffffffffff\n      and\n      eq\n        /* \"CrowdFunding/CorwdFunding.sol\":851:925  require (msg.sender==manager, \"Only the manager can perform this action.\") */\n      tag_115\n      jumpi\n      mload(0x40)\n      0x08c379a000000000000000000000000000000000000000000000000000000000\n      dup2\n      mstore\n      0x04\n      add\n      tag_116\n      swap1\n      tag_101\n      jump\t// in\n    tag_116:\n      mload(0x40)\n      dup1\n      swap2\n      sub\n      swap1\n      revert\n    tag_115:\n        /* \"CrowdFunding/CorwdFunding.sol\":2558:2564  target */\n      sload(0x06)\n        /* \"CrowdFunding/CorwdFunding.sol\":2544:2556  raisedAmount */\n      sload(0x07)\n        /* \"CrowdFunding/CorwdFunding.sol\":2544:2564  raisedAmount>=target */\n      lt\n      iszero\n        /* \"CrowdFunding/CorwdFunding.sol\":2536:2601  require(raisedAmount>=target, \"The target has not been reached.\") */\n      tag_118\n      jumpi\n      mload(0x40)\n      0x08c379a000000000000000000000000000000000000000000000000000000000\n      dup2\n      mstore\n      0x04\n      add\n      tag_119\n      swap1\n      tag_120\n      jump\t// in\n    tag_119:\n      mload(0x40)\n      dup1\n      swap2\n      sub\n      swap1\n      revert\n    tag_118:\n        /* \"CrowdFunding/CorwdFunding.sol\":2608:2635  Request storage thisRequest */\n      0x00\n        /* \"CrowdFunding/CorwdFunding.sol\":2638:2646  requests */\n      0x01\n        /* \"CrowdFunding/CorwdFunding.sol\":2638:2658  requests[_requestNO] */\n      0x00\n        /* \"CrowdFunding/CorwdFunding.sol\":2647:2657  _requestNO */\n      dup4\n        /* \"CrowdFunding/CorwdFunding.sol\":2638:2658  requests[_requestNO] */\n      dup2\n      mstore\n      0x20\n      add\n      swap1\n      dup2\n      mstore\n      0x20\n      add\n      0x00\n      keccak256\n        /* \"CrowdFunding/CorwdFunding.sol\":2608:2658  Request storage thisRequest = requests[_requestNO] */\n      swap1\n      pop\n        /* \"CrowdFunding/CorwdFunding.sol\":2696:2701  false */\n      0x00\n        /* \"CrowdFunding/CorwdFunding.sol\":2673:2701  thisRequest.completed==false */\n      iszero\n      iszero\n        /* \"CrowdFunding/CorwdFunding.sol\":2673:2684  thisRequest */\n      dup2\n        /* \"CrowdFunding/CorwdFunding.sol\":2673:2694  thisRequest.completed */\n      0x03\n      add\n      0x00\n      swap1\n      sload\n      swap1\n      0x0100\n      exp\n      swap1\n      div\n      0xff\n      and\n        /* \"CrowdFunding/CorwdFunding.sol\":2673:2701  thisRequest.completed==false */\n      iszero\n      iszero\n      eq\n        /* \"CrowdFunding/CorwdFunding.sol\":2665:2745  require(thisRequest.completed==false, \"This request has already been completed\") */\n      tag_121\n      jumpi\n      mload(0x40)\n      0x08c379a000000000000000000000000000000000000000000000000000000000\n      dup2\n      mstore\n      0x04\n      add\n      tag_122\n      swap1\n      tag_123\n      jump\t// in\n    tag_122:\n      mload(0x40)\n      dup1\n      swap2\n      sub\n      swap1\n      revert\n    tag_121:\n        /* \"CrowdFunding/CorwdFunding.sol\":2800:2801  2 */\n      0x02\n        /* \"CrowdFunding/CorwdFunding.sol\":2783:2799  noOfContributers */\n      sload(0x08)\n        /* \"CrowdFunding/CorwdFunding.sol\":2783:2801  noOfContributers/2 */\n      tag_124\n      swap2\n      swap1\n      tag_125\n      jump\t// in\n    tag_124:\n        /* \"CrowdFunding/CorwdFunding.sol\":2760:2771  thisRequest */\n      dup2\n        /* \"CrowdFunding/CorwdFunding.sol\":2760:2782  thisRequest.noOfVoters */\n      0x04\n      add\n      sload\n        /* \"CrowdFunding/CorwdFunding.sol\":2760:2801  thisRequest.noOfVoters>noOfContributers/2 */\n      gt\n        /* \"CrowdFunding/CorwdFunding.sol\":2752:2873  require(thisRequest.noOfVoters>noOfContributers/2, \"There must be more than half of the contributors to make a payment.\") */\n      tag_126\n      jumpi\n      mload(0x40)\n      0x08c379a000000000000000000000000000000000000000000000000000000000\n      dup2\n      mstore\n      0x04\n      add\n      tag_127\n      swap1\n      tag_128\n      jump\t// in\n    tag_127:\n      mload(0x40)\n      dup1\n      swap2\n      sub\n      swap1\n      revert\n    tag_126:\n        /* \"CrowdFunding/CorwdFunding.sol\":2880:2891  thisRequest */\n      dup1\n        /* \"CrowdFunding/CorwdFunding.sol\":2880:2901  thisRequest.recipient */\n      0x01\n      add\n      0x00\n      swap1\n      sload\n      swap1\n      0x0100\n      exp\n      swap1\n      div\n      0xffffffffffffffffffffffffffffffffffffffff\n      and\n        /* \"CrowdFunding/CorwdFunding.sol\":2880:2910  thisRequest.recipient.transfer */\n      0xffffffffffffffffffffffffffffffffffffffff\n      and\n        /* \"CrowdFunding/CorwdFunding.sol\":2880:2929  thisRequest.recipient.transfer(thisRequest.value) */\n      0x08fc\n        /* \"CrowdFunding/CorwdFunding.sol\":2911:2922  thisRequest */\n      dup3\n        /* \"CrowdFunding/CorwdFunding.sol\":2911:2928  thisRequest.value */\n      0x02\n      add\n      sload\n        /* \"CrowdFunding/CorwdFunding.sol\":2880:2929  thisRequest.recipient.transfer(thisRequest.value) */\n      swap1\n      dup2\n      iszero\n      mul\n      swap1\n      mload(0x40)\n      0x00\n      mload(0x40)\n      dup1\n      dup4\n      sub\n      dup2\n      dup6\n      dup9\n      dup9\n      call\n      swap4\n      pop\n      pop\n      pop\n      pop\n      iszero\n      dup1\n      iszero\n      tag_130\n      jumpi\n      returndatasize\n      0x00\n      dup1\n      returndatacopy\n      revert(0x00, returndatasize)\n    tag_130:\n      pop\n        /* \"CrowdFunding/CorwdFunding.sol\":2958:2962  true */\n      0x01\n        /* \"CrowdFunding/CorwdFunding.sol\":2936:2947  thisRequest */\n      dup2\n        /* \"CrowdFunding/CorwdFunding.sol\":2936:2957  thisRequest.completed */\n      0x03\n      add\n      0x00\n        /* \"CrowdFunding/CorwdFunding.sol\":2936:2962  thisRequest.completed=true */\n      0x0100\n      exp\n      dup2\n      sload\n      dup2\n      0xff\n      mul\n      not\n      and\n      swap1\n      dup4\n      iszero\n      iszero\n      mul\n      or\n      swap1\n      sstore\n      pop\n        /* \"CrowdFunding/CorwdFunding.sol\":2529:2968  {... */\n      pop\n        /* \"CrowdFunding/CorwdFunding.sol\":2472:2968  function makePayment(uint _requestNO) public onlyManager {... */\n      pop\n      jump\t// out\n        /* \"CrowdFunding/CorwdFunding.sol\":1811:2113  function refund() public {... */\n    tag_58:\n        /* \"CrowdFunding/CorwdFunding.sol\":1867:1875  deadline */\n      sload(0x05)\n        /* \"CrowdFunding/CorwdFunding.sol\":1851:1866  block.timestamp */\n      timestamp\n        /* \"CrowdFunding/CorwdFunding.sol\":1851:1875  block.timestamp>deadline */\n      gt\n        /* \"CrowdFunding/CorwdFunding.sol\":1851:1898  block.timestamp>deadline && raisedAmount<target */\n      dup1\n      iszero\n      tag_132\n      jumpi\n      pop\n        /* \"CrowdFunding/CorwdFunding.sol\":1892:1898  target */\n      sload(0x06)\n        /* \"CrowdFunding/CorwdFunding.sol\":1879:1891  raisedAmount */\n      sload(0x07)\n        /* \"CrowdFunding/CorwdFunding.sol\":1879:1898  raisedAmount<target */\n      lt\n        /* \"CrowdFunding/CorwdFunding.sol\":1851:1898  block.timestamp>deadline && raisedAmount<target */\n    tag_132:\n        /* \"CrowdFunding/CorwdFunding.sol\":1843:1935  require(block.timestamp>deadline && raisedAmount<target, \"Youa are not elgibile for refund\") */\n      tag_133\n      jumpi\n      mload(0x40)\n      0x08c379a000000000000000000000000000000000000000000000000000000000\n      dup2\n      mstore\n      0x04\n      add\n      tag_134\n      swap1\n      tag_135\n      jump\t// in\n    tag_134:\n      mload(0x40)\n      dup1\n      swap2\n      sub\n      swap1\n      revert\n    tag_133:\n        /* \"CrowdFunding/CorwdFunding.sol\":1975:1976  0 */\n      0x00\n        /* \"CrowdFunding/CorwdFunding.sol\":1950:1962  contributors */\n      dup1\n        /* \"CrowdFunding/CorwdFunding.sol\":1950:1974  contributors[msg.sender] */\n      0x00\n        /* \"CrowdFunding/CorwdFunding.sol\":1963:1973  msg.sender */\n      caller\n        /* \"CrowdFunding/CorwdFunding.sol\":1950:1974  contributors[msg.sender] */\n      0xffffffffffffffffffffffffffffffffffffffff\n      and\n      0xffffffffffffffffffffffffffffffffffffffff\n      and\n      dup2\n      mstore\n      0x20\n      add\n      swap1\n      dup2\n      mstore\n      0x20\n      add\n      0x00\n      keccak256\n      sload\n        /* \"CrowdFunding/CorwdFunding.sol\":1950:1976  contributors[msg.sender]>0 */\n      gt\n        /* \"CrowdFunding/CorwdFunding.sol\":1942:2013  require(contributors[msg.sender]>0, \"You don't have any contributions\") */\n      tag_136\n      jumpi\n      mload(0x40)\n      0x08c379a000000000000000000000000000000000000000000000000000000000\n      dup2\n      mstore\n      0x04\n      add\n      tag_137\n      swap1\n      tag_138\n      jump\t// in\n    tag_137:\n      mload(0x40)\n      dup1\n      swap2\n      sub\n      swap1\n      revert\n    tag_136:\n        /* \"CrowdFunding/CorwdFunding.sol\":2028:2038  msg.sender */\n      caller\n        /* \"CrowdFunding/CorwdFunding.sol\":2020:2048  payable(msg.sender).transfer */\n      0xffffffffffffffffffffffffffffffffffffffff\n      and\n        /* \"CrowdFunding/CorwdFunding.sol\":2020:2074  payable(msg.sender).transfer(contributors[msg.sender]) */\n      0x08fc\n        /* \"CrowdFunding/CorwdFunding.sol\":2049:2061  contributors */\n      0x00\n        /* \"CrowdFunding/CorwdFunding.sol\":2049:2073  contributors[msg.sender] */\n      dup1\n        /* \"CrowdFunding/CorwdFunding.sol\":2062:2072  msg.sender */\n      caller\n        /* \"CrowdFunding/CorwdFunding.sol\":2049:2073  contributors[msg.sender] */\n      0xffffffffffffffffffffffffffffffffffffffff\n      and\n      0xffffffffffffffffffffffffffffffffffffffff\n      and\n      dup2\n      mstore\n      0x20\n      add\n      swap1\n      dup2\n      mstore\n      0x20\n      add\n      0x00\n      keccak256\n      sload\n        /* \"CrowdFunding/CorwdFunding.sol\":2020:2074  payable(msg.sender).transfer(contributors[msg.sender]) */\n      swap1\n      dup2\n      iszero\n      mul\n      swap1\n      mload(0x40)\n      0x00\n      mload(0x40)\n      dup1\n      dup4\n      sub\n      dup2\n      dup6\n      dup9\n      dup9\n      call\n      swap4\n      pop\n      pop\n      pop\n      pop\n      iszero\n      dup1\n      iszero\n      tag_140\n      jumpi\n      returndatasize\n      0x00\n      dup1\n      returndatacopy\n      revert(0x00, returndatasize)\n    tag_140:\n      pop\n        /* \"CrowdFunding/CorwdFunding.sol\":2106:2107  0 */\n      0x00\n        /* \"CrowdFunding/CorwdFunding.sol\":2081:2093  contributors */\n      dup1\n        /* \"CrowdFunding/CorwdFunding.sol\":2081:2105  contributors[msg.sender] */\n      0x00\n        /* \"CrowdFunding/CorwdFunding.sol\":2094:2104  msg.sender */\n      caller\n        /* \"CrowdFunding/CorwdFunding.sol\":2081:2105  contributors[msg.sender] */\n      0xffffffffffffffffffffffffffffffffffffffff\n      and\n      0xffffffffffffffffffffffffffffffffffffffff\n      and\n      dup2\n      mstore\n      0x20\n      add\n      swap1\n      dup2\n      mstore\n      0x20\n      add\n      0x00\n      keccak256\n        /* \"CrowdFunding/CorwdFunding.sol\":2081:2107  contributors[msg.sender]=0 */\n      dup2\n      swap1\n      sstore\n      pop\n        /* \"CrowdFunding/CorwdFunding.sol\":1811:2113  function refund() public {... */\n      jump\t// out\n        /* \"CrowdFunding/CorwdFunding.sol\":1708:1805  function getContractBalance() public view returns (uint){... */\n    tag_61:\n        /* \"CrowdFunding/CorwdFunding.sol\":1759:1763  uint */\n      0x00\n        /* \"CrowdFunding/CorwdFunding.sol\":1778:1799  address(this).balance */\n      selfbalance\n        /* \"CrowdFunding/CorwdFunding.sol\":1771:1799  return address(this).balance */\n      swap1\n      pop\n        /* \"CrowdFunding/CorwdFunding.sol\":1708:1805  function getContractBalance() public view returns (uint){... */\n      swap1\n      jump\t// out\n        /* \"CrowdFunding/CorwdFunding.sol\":336:375  mapping (uint=>Request) public requests */\n    tag_66:\n      mstore(0x20, 0x01)\n      dup1\n      0x00\n      mstore\n      keccak256(0x00, 0x40)\n      0x00\n      swap2\n      pop\n      swap1\n      pop\n      dup1\n      0x00\n      add\n      dup1\n      sload\n      tag_142\n      swap1\n      tag_143\n      jump\t// in\n    tag_142:\n      dup1\n      0x1f\n      add\n      0x20\n      dup1\n      swap2\n      div\n      mul\n      0x20\n      add\n      mload(0x40)\n      swap1\n      dup2\n      add\n      0x40\n      mstore\n      dup1\n      swap3\n      swap2\n      swap1\n      dup2\n      dup2\n      mstore\n      0x20\n      add\n      dup3\n      dup1\n      sload\n      tag_144\n      swap1\n      tag_143\n      jump\t// in\n    tag_144:\n      dup1\n      iszero\n      tag_145\n      jumpi\n      dup1\n      0x1f\n      lt\n      tag_146\n      jumpi\n      0x0100\n      dup1\n      dup4\n      sload\n      div\n      mul\n      dup4\n      mstore\n      swap2\n      0x20\n      add\n      swap2\n      jump(tag_145)\n    tag_146:\n      dup3\n      add\n      swap2\n      swap1\n      0x00\n      mstore\n      keccak256(0x00, 0x20)\n      swap1\n    tag_147:\n      dup2\n      sload\n      dup2\n      mstore\n      swap1\n      0x01\n      add\n      swap1\n      0x20\n      add\n      dup1\n      dup4\n      gt\n      tag_147\n      jumpi\n      dup3\n      swap1\n      sub\n      0x1f\n      and\n      dup3\n      add\n      swap2\n    tag_145:\n      pop\n      pop\n      pop\n      pop\n      pop\n      swap1\n      dup1\n      0x01\n      add\n      0x00\n      swap1\n      sload\n      swap1\n      0x0100\n      exp\n      swap1\n      div\n      0xffffffffffffffffffffffffffffffffffffffff\n      and\n      swap1\n      dup1\n      0x02\n      add\n      sload\n      swap1\n      dup1\n      0x03\n      add\n      0x00\n      swap1\n      sload\n      swap1\n      0x0100\n      exp\n      swap1\n      div\n      0xff\n      and\n      swap1\n      dup1\n      0x04\n      add\n      sload\n      swap1\n      pop\n      dup6\n      jump\t// out\n        /* \"CrowdFunding/CorwdFunding.sol\":382:405  uint public numRequests */\n    tag_71:\n      sload(0x02)\n      dup2\n      jump\t// out\n        /* \"CrowdFunding/CorwdFunding.sol\":569:593  uint public raisedAmount */\n    tag_75:\n      sload(0x07)\n      dup2\n      jump\t// out\n        /* \"CrowdFunding/CorwdFunding.sol\":509:527  uint public target */\n    tag_79:\n      sload(0x06)\n      dup2\n      jump\t// out\n        /* \"CrowdFunding/CorwdFunding.sol\":443:475  uint public minimumContributions */\n    tag_83:\n      sload(0x04)\n      dup2\n      jump\t// out\n        /* \"#utility.yul\":88:205   */\n    tag_149:\n        /* \"#utility.yul\":197:198   */\n      0x00\n        /* \"#utility.yul\":194:195   */\n      dup1\n        /* \"#utility.yul\":187:199   */\n      revert\n        /* \"#utility.yul\":211:328   */\n    tag_150:\n        /* \"#utility.yul\":320:321   */\n      0x00\n        /* \"#utility.yul\":317:318   */\n      dup1\n        /* \"#utility.yul\":310:322   */\n      revert\n        /* \"#utility.yul\":334:460   */\n    tag_151:\n        /* \"#utility.yul\":371:378   */\n      0x00\n        /* \"#utility.yul\":411:453   */\n      0xffffffffffffffffffffffffffffffffffffffff\n        /* \"#utility.yul\":404:409   */\n      dup3\n        /* \"#utility.yul\":400:454   */\n      and\n        /* \"#utility.yul\":389:454   */\n      swap1\n      pop\n        /* \"#utility.yul\":334:460   */\n      swap2\n      swap1\n      pop\n      jump\t// out\n        /* \"#utility.yul\":466:562   */\n    tag_152:\n        /* \"#utility.yul\":503:510   */\n      0x00\n        /* \"#utility.yul\":532:556   */\n      tag_221\n        /* \"#utility.yul\":550:555   */\n      dup3\n        /* \"#utility.yul\":532:556   */\n      tag_151\n      jump\t// in\n    tag_221:\n        /* \"#utility.yul\":521:556   */\n      swap1\n      pop\n        /* \"#utility.yul\":466:562   */\n      swap2\n      swap1\n      pop\n      jump\t// out\n        /* \"#utility.yul\":568:690   */\n    tag_153:\n        /* \"#utility.yul\":641:665   */\n      tag_223\n        /* \"#utility.yul\":659:664   */\n      dup2\n        /* \"#utility.yul\":641:665   */\n      tag_152\n      jump\t// in\n    tag_223:\n        /* \"#utility.yul\":634:639   */\n      dup2\n        /* \"#utility.yul\":631:666   */\n      eq\n        /* \"#utility.yul\":621:684   */\n      tag_224\n      jumpi\n        /* \"#utility.yul\":680:681   */\n      0x00\n        /* \"#utility.yul\":677:678   */\n      dup1\n        /* \"#utility.yul\":670:682   */\n      revert\n        /* \"#utility.yul\":621:684   */\n    tag_224:\n        /* \"#utility.yul\":568:690   */\n      pop\n      jump\t// out\n        /* \"#utility.yul\":696:835   */\n    tag_154:\n        /* \"#utility.yul\":742:747   */\n      0x00\n        /* \"#utility.yul\":780:786   */\n      dup2\n        /* \"#utility.yul\":767:787   */\n      calldataload\n        /* \"#utility.yul\":758:787   */\n      swap1\n      pop\n        /* \"#utility.yul\":796:829   */\n      tag_226\n        /* \"#utility.yul\":823:828   */\n      dup2\n        /* \"#utility.yul\":796:829   */\n      tag_153\n      jump\t// in\n    tag_226:\n        /* \"#utility.yul\":696:835   */\n      swap3\n      swap2\n      pop\n      pop\n      jump\t// out\n        /* \"#utility.yul\":841:1170   */\n    tag_25:\n        /* \"#utility.yul\":900:906   */\n      0x00\n        /* \"#utility.yul\":949:951   */\n      0x20\n        /* \"#utility.yul\":937:946   */\n      dup3\n        /* \"#utility.yul\":928:935   */\n      dup5\n        /* \"#utility.yul\":924:947   */\n      sub\n        /* \"#utility.yul\":920:952   */\n      slt\n        /* \"#utility.yul\":917:1036   */\n      iszero\n      tag_228\n      jumpi\n        /* \"#utility.yul\":955:1034   */\n      tag_229\n      tag_149\n      jump\t// in\n    tag_229:\n        /* \"#utility.yul\":917:1036   */\n    tag_228:\n        /* \"#utility.yul\":1075:1076   */\n      0x00\n        /* \"#utility.yul\":1100:1153   */\n      tag_230\n        /* \"#utility.yul\":1145:1152   */\n      dup5\n        /* \"#utility.yul\":1136:1142   */\n      dup3\n        /* \"#utility.yul\":1125:1134   */\n      dup6\n        /* \"#utility.yul\":1121:1143   */\n      add\n        /* \"#utility.yul\":1100:1153   */\n      tag_154\n      jump\t// in\n    tag_230:\n        /* \"#utility.yul\":1090:1153   */\n      swap2\n      pop\n        /* \"#utility.yul\":1046:1163   */\n      pop\n        /* \"#utility.yul\":841:1170   */\n      swap3\n      swap2\n      pop\n      pop\n      jump\t// out\n        /* \"#utility.yul\":1176:1253   */\n    tag_155:\n        /* \"#utility.yul\":1213:1220   */\n      0x00\n        /* \"#utility.yul\":1242:1247   */\n      dup2\n        /* \"#utility.yul\":1231:1247   */\n      swap1\n      pop\n        /* \"#utility.yul\":1176:1253   */\n      swap2\n      swap1\n      pop\n      jump\t// out\n        /* \"#utility.yul\":1259:1377   */\n    tag_156:\n        /* \"#utility.yul\":1346:1370   */\n      tag_233\n        /* \"#utility.yul\":1364:1369   */\n      dup2\n        /* \"#utility.yul\":1346:1370   */\n      tag_155\n      jump\t// in\n    tag_233:\n        /* \"#utility.yul\":1341:1344   */\n      dup3\n        /* \"#utility.yul\":1334:1371   */\n      mstore\n        /* \"#utility.yul\":1259:1377   */\n      pop\n      pop\n      jump\t// out\n        /* \"#utility.yul\":1383:1605   */\n    tag_28:\n        /* \"#utility.yul\":1476:1480   */\n      0x00\n        /* \"#utility.yul\":1514:1516   */\n      0x20\n        /* \"#utility.yul\":1503:1512   */\n      dup3\n        /* \"#utility.yul\":1499:1517   */\n      add\n        /* \"#utility.yul\":1491:1517   */\n      swap1\n      pop\n        /* \"#utility.yul\":1527:1598   */\n      tag_235\n        /* \"#utility.yul\":1595:1596   */\n      0x00\n        /* \"#utility.yul\":1584:1593   */\n      dup4\n        /* \"#utility.yul\":1580:1597   */\n      add\n        /* \"#utility.yul\":1571:1577   */\n      dup5\n        /* \"#utility.yul\":1527:1598   */\n      tag_156\n      jump\t// in\n    tag_235:\n        /* \"#utility.yul\":1383:1605   */\n      swap3\n      swap2\n      pop\n      pop\n      jump\t// out\n        /* \"#utility.yul\":1611:1728   */\n    tag_157:\n        /* \"#utility.yul\":1720:1721   */\n      0x00\n        /* \"#utility.yul\":1717:1718   */\n      dup1\n        /* \"#utility.yul\":1710:1722   */\n      revert\n        /* \"#utility.yul\":1734:1851   */\n    tag_158:\n        /* \"#utility.yul\":1843:1844   */\n      0x00\n        /* \"#utility.yul\":1840:1841   */\n      dup1\n        /* \"#utility.yul\":1833:1845   */\n      revert\n        /* \"#utility.yul\":1857:1974   */\n    tag_159:\n        /* \"#utility.yul\":1966:1967   */\n      0x00\n        /* \"#utility.yul\":1963:1964   */\n      dup1\n        /* \"#utility.yul\":1956:1968   */\n      revert\n        /* \"#utility.yul\":1994:2547   */\n    tag_160:\n        /* \"#utility.yul\":2052:2060   */\n      0x00\n        /* \"#utility.yul\":2062:2068   */\n      dup1\n        /* \"#utility.yul\":2112:2115   */\n      dup4\n        /* \"#utility.yul\":2105:2109   */\n      0x1f\n        /* \"#utility.yul\":2097:2103   */\n      dup5\n        /* \"#utility.yul\":2093:2110   */\n      add\n        /* \"#utility.yul\":2089:2116   */\n      slt\n        /* \"#utility.yul\":2079:2201   */\n      tag_240\n      jumpi\n        /* \"#utility.yul\":2120:2199   */\n      tag_241\n      tag_157\n      jump\t// in\n    tag_241:\n        /* \"#utility.yul\":2079:2201   */\n    tag_240:\n        /* \"#utility.yul\":2233:2239   */\n      dup3\n        /* \"#utility.yul\":2220:2240   */\n      calldataload\n        /* \"#utility.yul\":2210:2240   */\n      swap1\n      pop\n        /* \"#utility.yul\":2263:2281   */\n      0xffffffffffffffff\n        /* \"#utility.yul\":2255:2261   */\n      dup2\n        /* \"#utility.yul\":2252:2282   */\n      gt\n        /* \"#utility.yul\":2249:2366   */\n      iszero\n      tag_242\n      jumpi\n        /* \"#utility.yul\":2285:2364   */\n      tag_243\n      tag_158\n      jump\t// in\n    tag_243:\n        /* \"#utility.yul\":2249:2366   */\n    tag_242:\n        /* \"#utility.yul\":2399:2403   */\n      0x20\n        /* \"#utility.yul\":2391:2397   */\n      dup4\n        /* \"#utility.yul\":2387:2404   */\n      add\n        /* \"#utility.yul\":2375:2404   */\n      swap2\n      pop\n        /* \"#utility.yul\":2453:2456   */\n      dup4\n        /* \"#utility.yul\":2445:2449   */\n      0x01\n        /* \"#utility.yul\":2437:2443   */\n      dup3\n        /* \"#utility.yul\":2433:2450   */\n      mul\n        /* \"#utility.yul\":2423:2431   */\n      dup4\n        /* \"#utility.yul\":2419:2451   */\n      add\n        /* \"#utility.yul\":2416:2457   */\n      gt\n        /* \"#utility.yul\":2413:2541   */\n      iszero\n      tag_244\n      jumpi\n        /* \"#utility.yul\":2460:2539   */\n      tag_245\n      tag_159\n      jump\t// in\n    tag_245:\n        /* \"#utility.yul\":2413:2541   */\n    tag_244:\n        /* \"#utility.yul\":1994:2547   */\n      swap3\n      pop\n      swap3\n      swap1\n      pop\n      jump\t// out\n        /* \"#utility.yul\":2553:2657   */\n    tag_161:\n        /* \"#utility.yul\":2598:2605   */\n      0x00\n        /* \"#utility.yul\":2627:2651   */\n      tag_247\n        /* \"#utility.yul\":2645:2650   */\n      dup3\n        /* \"#utility.yul\":2627:2651   */\n      tag_151\n      jump\t// in\n    tag_247:\n        /* \"#utility.yul\":2616:2651   */\n      swap1\n      pop\n        /* \"#utility.yul\":2553:2657   */\n      swap2\n      swap1\n      pop\n      jump\t// out\n        /* \"#utility.yul\":2663:2801   */\n    tag_162:\n        /* \"#utility.yul\":2744:2776   */\n      tag_249\n        /* \"#utility.yul\":2770:2775   */\n      dup2\n        /* \"#utility.yul\":2744:2776   */\n      tag_161\n      jump\t// in\n    tag_249:\n        /* \"#utility.yul\":2737:2742   */\n      dup2\n        /* \"#utility.yul\":2734:2777   */\n      eq\n        /* \"#utility.yul\":2724:2795   */\n      tag_250\n      jumpi\n        /* \"#utility.yul\":2791:2792   */\n      0x00\n        /* \"#utility.yul\":2788:2789   */\n      dup1\n        /* \"#utility.yul\":2781:2793   */\n      revert\n        /* \"#utility.yul\":2724:2795   */\n    tag_250:\n        /* \"#utility.yul\":2663:2801   */\n      pop\n      jump\t// out\n        /* \"#utility.yul\":2807:2962   */\n    tag_163:\n        /* \"#utility.yul\":2861:2866   */\n      0x00\n        /* \"#utility.yul\":2899:2905   */\n      dup2\n        /* \"#utility.yul\":2886:2906   */\n      calldataload\n        /* \"#utility.yul\":2877:2906   */\n      swap1\n      pop\n        /* \"#utility.yul\":2915:2956   */\n      tag_252\n        /* \"#utility.yul\":2950:2955   */\n      dup2\n        /* \"#utility.yul\":2915:2956   */\n      tag_162\n      jump\t// in\n    tag_252:\n        /* \"#utility.yul\":2807:2962   */\n      swap3\n      swap2\n      pop\n      pop\n      jump\t// out\n        /* \"#utility.yul\":2968:3090   */\n    tag_164:\n        /* \"#utility.yul\":3041:3065   */\n      tag_254\n        /* \"#utility.yul\":3059:3064   */\n      dup2\n        /* \"#utility.yul\":3041:3065   */\n      tag_155\n      jump\t// in\n    tag_254:\n        /* \"#utility.yul\":3034:3039   */\n      dup2\n        /* \"#utility.yul\":3031:3066   */\n      eq\n        /* \"#utility.yul\":3021:3084   */\n      tag_255\n      jumpi\n        /* \"#utility.yul\":3080:3081   */\n      0x00\n        /* \"#utility.yul\":3077:3078   */\n      dup1\n        /* \"#utility.yul\":3070:3082   */\n      revert\n        /* \"#utility.yul\":3021:3084   */\n    tag_255:\n        /* \"#utility.yul\":2968:3090   */\n      pop\n      jump\t// out\n        /* \"#utility.yul\":3096:3235   */\n    tag_165:\n        /* \"#utility.yul\":3142:3147   */\n      0x00\n        /* \"#utility.yul\":3180:3186   */\n      dup2\n        /* \"#utility.yul\":3167:3187   */\n      calldataload\n        /* \"#utility.yul\":3158:3187   */\n      swap1\n      pop\n        /* \"#utility.yul\":3196:3229   */\n      tag_257\n        /* \"#utility.yul\":3223:3228   */\n      dup2\n        /* \"#utility.yul\":3196:3229   */\n      tag_164\n      jump\t// in\n    tag_257:\n        /* \"#utility.yul\":3096:3235   */\n      swap3\n      swap2\n      pop\n      pop\n      jump\t// out\n        /* \"#utility.yul\":3241:4076   */\n    tag_40:\n        /* \"#utility.yul\":3338:3344   */\n      0x00\n        /* \"#utility.yul\":3346:3352   */\n      dup1\n        /* \"#utility.yul\":3354:3360   */\n      0x00\n        /* \"#utility.yul\":3362:3368   */\n      dup1\n        /* \"#utility.yul\":3411:3413   */\n      0x60\n        /* \"#utility.yul\":3399:3408   */\n      dup6\n        /* \"#utility.yul\":3390:3397   */\n      dup8\n        /* \"#utility.yul\":3386:3409   */\n      sub\n        /* \"#utility.yul\":3382:3414   */\n      slt\n        /* \"#utility.yul\":3379:3498   */\n      iszero\n      tag_259\n      jumpi\n        /* \"#utility.yul\":3417:3496   */\n      tag_260\n      tag_149\n      jump\t// in\n    tag_260:\n        /* \"#utility.yul\":3379:3498   */\n    tag_259:\n        /* \"#utility.yul\":3565:3566   */\n      0x00\n        /* \"#utility.yul\":3554:3563   */\n      dup6\n        /* \"#utility.yul\":3550:3567   */\n      add\n        /* \"#utility.yul\":3537:3568   */\n      calldataload\n        /* \"#utility.yul\":3595:3613   */\n      0xffffffffffffffff\n        /* \"#utility.yul\":3587:3593   */\n      dup2\n        /* \"#utility.yul\":3584:3614   */\n      gt\n        /* \"#utility.yul\":3581:3698   */\n      iszero\n      tag_261\n      jumpi\n        /* \"#utility.yul\":3617:3696   */\n      tag_262\n      tag_150\n      jump\t// in\n    tag_262:\n        /* \"#utility.yul\":3581:3698   */\n    tag_261:\n        /* \"#utility.yul\":3730:3795   */\n      tag_263\n        /* \"#utility.yul\":3787:3794   */\n      dup8\n        /* \"#utility.yul\":3778:3784   */\n      dup3\n        /* \"#utility.yul\":3767:3776   */\n      dup9\n        /* \"#utility.yul\":3763:3785   */\n      add\n        /* \"#utility.yul\":3730:3795   */\n      tag_160\n      jump\t// in\n    tag_263:\n        /* \"#utility.yul\":3712:3795   */\n      swap5\n      pop\n      swap5\n      pop\n        /* \"#utility.yul\":3508:3805   */\n      pop\n        /* \"#utility.yul\":3844:3846   */\n      0x20\n        /* \"#utility.yul\":3870:3931   */\n      tag_264\n        /* \"#utility.yul\":3923:3930   */\n      dup8\n        /* \"#utility.yul\":3914:3920   */\n      dup3\n        /* \"#utility.yul\":3903:3912   */\n      dup9\n        /* \"#utility.yul\":3899:3921   */\n      add\n        /* \"#utility.yul\":3870:3931   */\n      tag_163\n      jump\t// in\n    tag_264:\n        /* \"#utility.yul\":3860:3931   */\n      swap3\n      pop\n        /* \"#utility.yul\":3815:3941   */\n      pop\n        /* \"#utility.yul\":3980:3982   */\n      0x40\n        /* \"#utility.yul\":4006:4059   */\n      tag_265\n        /* \"#utility.yul\":4051:4058   */\n      dup8\n        /* \"#utility.yul\":4042:4048   */\n      dup3\n        /* \"#utility.yul\":4031:4040   */\n      dup9\n        /* \"#utility.yul\":4027:4049   */\n      add\n        /* \"#utility.yul\":4006:4059   */\n      tag_165\n      jump\t// in\n    tag_265:\n        /* \"#utility.yul\":3996:4059   */\n      swap2\n      pop\n        /* \"#utility.yul\":3951:4069   */\n      pop\n        /* \"#utility.yul\":3241:4076   */\n      swap3\n      swap6\n      swap2\n      swap5\n      pop\n      swap3\n      pop\n      jump\t// out\n        /* \"#utility.yul\":4082:4200   */\n    tag_166:\n        /* \"#utility.yul\":4169:4193   */\n      tag_267\n        /* \"#utility.yul\":4187:4192   */\n      dup2\n        /* \"#utility.yul\":4169:4193   */\n      tag_152\n      jump\t// in\n    tag_267:\n        /* \"#utility.yul\":4164:4167   */\n      dup3\n        /* \"#utility.yul\":4157:4194   */\n      mstore\n        /* \"#utility.yul\":4082:4200   */\n      pop\n      pop\n      jump\t// out\n        /* \"#utility.yul\":4206:4428   */\n    tag_46:\n        /* \"#utility.yul\":4299:4303   */\n      0x00\n        /* \"#utility.yul\":4337:4339   */\n      0x20\n        /* \"#utility.yul\":4326:4335   */\n      dup3\n        /* \"#utility.yul\":4322:4340   */\n      add\n        /* \"#utility.yul\":4314:4340   */\n      swap1\n      pop\n        /* \"#utility.yul\":4350:4421   */\n      tag_269\n        /* \"#utility.yul\":4418:4419   */\n      0x00\n        /* \"#utility.yul\":4407:4416   */\n      dup4\n        /* \"#utility.yul\":4403:4420   */\n      add\n        /* \"#utility.yul\":4394:4400   */\n      dup5\n        /* \"#utility.yul\":4350:4421   */\n      tag_166\n      jump\t// in\n    tag_269:\n        /* \"#utility.yul\":4206:4428   */\n      swap3\n      swap2\n      pop\n      pop\n      jump\t// out\n        /* \"#utility.yul\":4434:4763   */\n    tag_50:\n        /* \"#utility.yul\":4493:4499   */\n      0x00\n        /* \"#utility.yul\":4542:4544   */\n      0x20\n        /* \"#utility.yul\":4530:4539   */\n      dup3\n        /* \"#utility.yul\":4521:4528   */\n      dup5\n        /* \"#utility.yul\":4517:4540   */\n      sub\n        /* \"#utility.yul\":4513:4545   */\n      slt\n        /* \"#utility.yul\":4510:4629   */\n      iszero\n      tag_271\n      jumpi\n        /* \"#utility.yul\":4548:4627   */\n      tag_272\n      tag_149\n      jump\t// in\n    tag_272:\n        /* \"#utility.yul\":4510:4629   */\n    tag_271:\n        /* \"#utility.yul\":4668:4669   */\n      0x00\n        /* \"#utility.yul\":4693:4746   */\n      tag_273\n        /* \"#utility.yul\":4738:4745   */\n      dup5\n        /* \"#utility.yul\":4729:4735   */\n      dup3\n        /* \"#utility.yul\":4718:4727   */\n      dup6\n        /* \"#utility.yul\":4714:4736   */\n      add\n        /* \"#utility.yul\":4693:4746   */\n      tag_165\n      jump\t// in\n    tag_273:\n        /* \"#utility.yul\":4683:4746   */\n      swap2\n      pop\n        /* \"#utility.yul\":4639:4756   */\n      pop\n        /* \"#utility.yul\":4434:4763   */\n      swap3\n      swap2\n      pop\n      pop\n      jump\t// out\n        /* \"#utility.yul\":4769:4868   */\n    tag_167:\n        /* \"#utility.yul\":4821:4827   */\n      0x00\n        /* \"#utility.yul\":4855:4860   */\n      dup2\n        /* \"#utility.yul\":4849:4861   */\n      mload\n        /* \"#utility.yul\":4839:4861   */\n      swap1\n      pop\n        /* \"#utility.yul\":4769:4868   */\n      swap2\n      swap1\n      pop\n      jump\t// out\n        /* \"#utility.yul\":4874:5043   */\n    tag_168:\n        /* \"#utility.yul\":4958:4969   */\n      0x00\n        /* \"#utility.yul\":4992:4998   */\n      dup3\n        /* \"#utility.yul\":4987:4990   */\n      dup3\n        /* \"#utility.yul\":4980:4999   */\n      mstore\n        /* \"#utility.yul\":5032:5036   */\n      0x20\n        /* \"#utility.yul\":5027:5030   */\n      dup3\n        /* \"#utility.yul\":5023:5037   */\n      add\n        /* \"#utility.yul\":5008:5037   */\n      swap1\n      pop\n        /* \"#utility.yul\":4874:5043   */\n      swap3\n      swap2\n      pop\n      pop\n      jump\t// out\n        /* \"#utility.yul\":5049:5188   */\n    tag_169:\n        /* \"#utility.yul\":5138:5144   */\n      dup3\n        /* \"#utility.yul\":5133:5136   */\n      dup2\n        /* \"#utility.yul\":5128:5131   */\n      dup4\n        /* \"#utility.yul\":5122:5145   */\n      mcopy\n        /* \"#utility.yul\":5179:5180   */\n      0x00\n        /* \"#utility.yul\":5170:5176   */\n      dup4\n        /* \"#utility.yul\":5165:5168   */\n      dup4\n        /* \"#utility.yul\":5161:5177   */\n      add\n        /* \"#utility.yul\":5154:5181   */\n      mstore\n        /* \"#utility.yul\":5049:5188   */\n      pop\n      pop\n      pop\n      jump\t// out\n        /* \"#utility.yul\":5194:5296   */\n    tag_170:\n        /* \"#utility.yul\":5235:5241   */\n      0x00\n        /* \"#utility.yul\":5286:5288   */\n      0x1f\n        /* \"#utility.yul\":5282:5289   */\n      not\n        /* \"#utility.yul\":5277:5279   */\n      0x1f\n        /* \"#utility.yul\":5270:5275   */\n      dup4\n        /* \"#utility.yul\":5266:5280   */\n      add\n        /* \"#utility.yul\":5262:5290   */\n      and\n        /* \"#utility.yul\":5252:5290   */\n      swap1\n      pop\n        /* \"#utility.yul\":5194:5296   */\n      swap2\n      swap1\n      pop\n      jump\t// out\n        /* \"#utility.yul\":5302:5679   */\n    tag_171:\n        /* \"#utility.yul\":5390:5393   */\n      0x00\n        /* \"#utility.yul\":5418:5457   */\n      tag_279\n        /* \"#utility.yul\":5451:5456   */\n      dup3\n        /* \"#utility.yul\":5418:5457   */\n      tag_167\n      jump\t// in\n    tag_279:\n        /* \"#utility.yul\":5473:5544   */\n      tag_280\n        /* \"#utility.yul\":5537:5543   */\n      dup2\n        /* \"#utility.yul\":5532:5535   */\n      dup6\n        /* \"#utility.yul\":5473:5544   */\n      tag_168\n      jump\t// in\n    tag_280:\n        /* \"#utility.yul\":5466:5544   */\n      swap4\n      pop\n        /* \"#utility.yul\":5553:5618   */\n      tag_281\n        /* \"#utility.yul\":5611:5617   */\n      dup2\n        /* \"#utility.yul\":5606:5609   */\n      dup6\n        /* \"#utility.yul\":5599:5603   */\n      0x20\n        /* \"#utility.yul\":5592:5597   */\n      dup7\n        /* \"#utility.yul\":5588:5604   */\n      add\n        /* \"#utility.yul\":5553:5618   */\n      tag_169\n      jump\t// in\n    tag_281:\n        /* \"#utility.yul\":5643:5672   */\n      tag_282\n        /* \"#utility.yul\":5665:5671   */\n      dup2\n        /* \"#utility.yul\":5643:5672   */\n      tag_170\n      jump\t// in\n    tag_282:\n        /* \"#utility.yul\":5638:5641   */\n      dup5\n        /* \"#utility.yul\":5634:5673   */\n      add\n        /* \"#utility.yul\":5627:5673   */\n      swap2\n      pop\n        /* \"#utility.yul\":5394:5679   */\n      pop\n        /* \"#utility.yul\":5302:5679   */\n      swap3\n      swap2\n      pop\n      pop\n      jump\t// out\n        /* \"#utility.yul\":5685:5827   */\n    tag_172:\n        /* \"#utility.yul\":5788:5820   */\n      tag_284\n        /* \"#utility.yul\":5814:5819   */\n      dup2\n        /* \"#utility.yul\":5788:5820   */\n      tag_161\n      jump\t// in\n    tag_284:\n        /* \"#utility.yul\":5783:5786   */\n      dup3\n        /* \"#utility.yul\":5776:5821   */\n      mstore\n        /* \"#utility.yul\":5685:5827   */\n      pop\n      pop\n      jump\t// out\n        /* \"#utility.yul\":5833:5923   */\n    tag_173:\n        /* \"#utility.yul\":5867:5874   */\n      0x00\n        /* \"#utility.yul\":5910:5915   */\n      dup2\n        /* \"#utility.yul\":5903:5916   */\n      iszero\n        /* \"#utility.yul\":5896:5917   */\n      iszero\n        /* \"#utility.yul\":5885:5917   */\n      swap1\n      pop\n        /* \"#utility.yul\":5833:5923   */\n      swap2\n      swap1\n      pop\n      jump\t// out\n        /* \"#utility.yul\":5929:6038   */\n    tag_174:\n        /* \"#utility.yul\":6010:6031   */\n      tag_287\n        /* \"#utility.yul\":6025:6030   */\n      dup2\n        /* \"#utility.yul\":6010:6031   */\n      tag_173\n      jump\t// in\n    tag_287:\n        /* \"#utility.yul\":6005:6008   */\n      dup3\n        /* \"#utility.yul\":5998:6032   */\n      mstore\n        /* \"#utility.yul\":5929:6038   */\n      pop\n      pop\n      jump\t// out\n        /* \"#utility.yul\":6044:6819   */\n    tag_68:\n        /* \"#utility.yul\":6279:6283   */\n      0x00\n        /* \"#utility.yul\":6317:6320   */\n      0xa0\n        /* \"#utility.yul\":6306:6315   */\n      dup3\n        /* \"#utility.yul\":6302:6321   */\n      add\n        /* \"#utility.yul\":6294:6321   */\n      swap1\n      pop\n        /* \"#utility.yul\":6367:6376   */\n      dup2\n        /* \"#utility.yul\":6361:6365   */\n      dup2\n        /* \"#utility.yul\":6357:6377   */\n      sub\n        /* \"#utility.yul\":6353:6354   */\n      0x00\n        /* \"#utility.yul\":6342:6351   */\n      dup4\n        /* \"#utility.yul\":6338:6355   */\n      add\n        /* \"#utility.yul\":6331:6378   */\n      mstore\n        /* \"#utility.yul\":6395:6473   */\n      tag_289\n        /* \"#utility.yul\":6468:6472   */\n      dup2\n        /* \"#utility.yul\":6459:6465   */\n      dup9\n        /* \"#utility.yul\":6395:6473   */\n      tag_171\n      jump\t// in\n    tag_289:\n        /* \"#utility.yul\":6387:6473   */\n      swap1\n      pop\n        /* \"#utility.yul\":6483:6571   */\n      tag_290\n        /* \"#utility.yul\":6567:6569   */\n      0x20\n        /* \"#utility.yul\":6556:6565   */\n      dup4\n        /* \"#utility.yul\":6552:6570   */\n      add\n        /* \"#utility.yul\":6543:6549   */\n      dup8\n        /* \"#utility.yul\":6483:6571   */\n      tag_172\n      jump\t// in\n    tag_290:\n        /* \"#utility.yul\":6581:6653   */\n      tag_291\n        /* \"#utility.yul\":6649:6651   */\n      0x40\n        /* \"#utility.yul\":6638:6647   */\n      dup4\n        /* \"#utility.yul\":6634:6652   */\n      add\n        /* \"#utility.yul\":6625:6631   */\n      dup7\n        /* \"#utility.yul\":6581:6653   */\n      tag_156\n      jump\t// in\n    tag_291:\n        /* \"#utility.yul\":6663:6729   */\n      tag_292\n        /* \"#utility.yul\":6725:6727   */\n      0x60\n        /* \"#utility.yul\":6714:6723   */\n      dup4\n        /* \"#utility.yul\":6710:6728   */\n      add\n        /* \"#utility.yul\":6701:6707   */\n      dup6\n        /* \"#utility.yul\":6663:6729   */\n      tag_174\n      jump\t// in\n    tag_292:\n        /* \"#utility.yul\":6739:6812   */\n      tag_293\n        /* \"#utility.yul\":6807:6810   */\n      0x80\n        /* \"#utility.yul\":6796:6805   */\n      dup4\n        /* \"#utility.yul\":6792:6811   */\n      add\n        /* \"#utility.yul\":6783:6789   */\n      dup5\n        /* \"#utility.yul\":6739:6812   */\n      tag_156\n      jump\t// in\n    tag_293:\n        /* \"#utility.yul\":6044:6819   */\n      swap7\n      swap6\n      pop\n      pop\n      pop\n      pop\n      pop\n      pop\n      jump\t// out\n        /* \"#utility.yul\":6825:7059   */\n    tag_175:\n        /* \"#utility.yul\":6965:6999   */\n      0x54686520646561646c696e65206f662074686520726571756573747320686173\n        /* \"#utility.yul\":6961:6962   */\n      0x00\n        /* \"#utility.yul\":6953:6959   */\n      dup3\n        /* \"#utility.yul\":6949:6963   */\n      add\n        /* \"#utility.yul\":6942:7000   */\n      mstore\n        /* \"#utility.yul\":7034:7051   */\n      0x206265656e2065786365656465642e0000000000000000000000000000000000\n        /* \"#utility.yul\":7029:7031   */\n      0x20\n        /* \"#utility.yul\":7021:7027   */\n      dup3\n        /* \"#utility.yul\":7017:7032   */\n      add\n        /* \"#utility.yul\":7010:7052   */\n      mstore\n        /* \"#utility.yul\":6825:7059   */\n      pop\n      jump\t// out\n        /* \"#utility.yul\":7065:7431   */\n    tag_176:\n        /* \"#utility.yul\":7207:7210   */\n      0x00\n        /* \"#utility.yul\":7228:7295   */\n      tag_296\n        /* \"#utility.yul\":7292:7294   */\n      0x2f\n        /* \"#utility.yul\":7287:7290   */\n      dup4\n        /* \"#utility.yul\":7228:7295   */\n      tag_168\n      jump\t// in\n    tag_296:\n        /* \"#utility.yul\":7221:7295   */\n      swap2\n      pop\n        /* \"#utility.yul\":7304:7397   */\n      tag_297\n        /* \"#utility.yul\":7393:7396   */\n      dup3\n        /* \"#utility.yul\":7304:7397   */\n      tag_175\n      jump\t// in\n    tag_297:\n        /* \"#utility.yul\":7422:7424   */\n      0x40\n        /* \"#utility.yul\":7417:7420   */\n      dup3\n        /* \"#utility.yul\":7413:7425   */\n      add\n        /* \"#utility.yul\":7406:7425   */\n      swap1\n      pop\n        /* \"#utility.yul\":7065:7431   */\n      swap2\n      swap1\n      pop\n      jump\t// out\n        /* \"#utility.yul\":7437:7856   */\n    tag_88:\n        /* \"#utility.yul\":7603:7607   */\n      0x00\n        /* \"#utility.yul\":7641:7643   */\n      0x20\n        /* \"#utility.yul\":7630:7639   */\n      dup3\n        /* \"#utility.yul\":7626:7644   */\n      add\n        /* \"#utility.yul\":7618:7644   */\n      swap1\n      pop\n        /* \"#utility.yul\":7690:7699   */\n      dup2\n        /* \"#utility.yul\":7684:7688   */\n      dup2\n        /* \"#utility.yul\":7680:7700   */\n      sub\n        /* \"#utility.yul\":7676:7677   */\n      0x00\n        /* \"#utility.yul\":7665:7674   */\n      dup4\n        /* \"#utility.yul\":7661:7678   */\n      add\n        /* \"#utility.yul\":7654:7701   */\n      mstore\n        /* \"#utility.yul\":7718:7849   */\n      tag_299\n        /* \"#utility.yul\":7844:7848   */\n      dup2\n        /* \"#utility.yul\":7718:7849   */\n      tag_176\n      jump\t// in\n    tag_299:\n        /* \"#utility.yul\":7710:7849   */\n      swap1\n      pop\n        /* \"#utility.yul\":7437:7856   */\n      swap2\n      swap1\n      pop\n      jump\t// out\n        /* \"#utility.yul\":7862:8042   */\n    tag_177:\n        /* \"#utility.yul\":8002:8034   */\n      0x4d696e696d756d20636f6e7269627574696f6e20697320313030207765690000\n        /* \"#utility.yul\":7998:7999   */\n      0x00\n        /* \"#utility.yul\":7990:7996   */\n      dup3\n        /* \"#utility.yul\":7986:8000   */\n      add\n        /* \"#utility.yul\":7979:8035   */\n      mstore\n        /* \"#utility.yul\":7862:8042   */\n      pop\n      jump\t// out\n        /* \"#utility.yul\":8048:8414   */\n    tag_178:\n        /* \"#utility.yul\":8190:8193   */\n      0x00\n        /* \"#utility.yul\":8211:8278   */\n      tag_302\n        /* \"#utility.yul\":8275:8277   */\n      0x1e\n        /* \"#utility.yul\":8270:8273   */\n      dup4\n        /* \"#utility.yul\":8211:8278   */\n      tag_168\n      jump\t// in\n    tag_302:\n        /* \"#utility.yul\":8204:8278   */\n      swap2\n      pop\n        /* \"#utility.yul\":8287:8380   */\n      tag_303\n        /* \"#utility.yul\":8376:8379   */\n      dup3\n        /* \"#utility.yul\":8287:8380   */\n      tag_177\n      jump\t// in\n    tag_303:\n        /* \"#utility.yul\":8405:8407   */\n      0x20\n        /* \"#utility.yul\":8400:8403   */\n      dup3\n        /* \"#utility.yul\":8396:8408   */\n      add\n        /* \"#utility.yul\":8389:8408   */\n      swap1\n      pop\n        /* \"#utility.yul\":8048:8414   */\n      swap2\n      swap1\n      pop\n      jump\t// out\n        /* \"#utility.yul\":8420:8839   */\n    tag_91:\n        /* \"#utility.yul\":8586:8590   */\n      0x00\n        /* \"#utility.yul\":8624:8626   */\n      0x20\n        /* \"#utility.yul\":8613:8622   */\n      dup3\n        /* \"#utility.yul\":8609:8627   */\n      add\n        /* \"#utility.yul\":8601:8627   */\n      swap1\n      pop\n        /* \"#utility.yul\":8673:8682   */\n      dup2\n        /* \"#utility.yul\":8667:8671   */\n      dup2\n        /* \"#utility.yul\":8663:8683   */\n      sub\n        /* \"#utility.yul\":8659:8660   */\n      0x00\n        /* \"#utility.yul\":8648:8657   */\n      dup4\n        /* \"#utility.yul\":8644:8661   */\n      add\n        /* \"#utility.yul\":8637:8684   */\n      mstore\n        /* \"#utility.yul\":8701:8832   */\n      tag_305\n        /* \"#utility.yul\":8827:8831   */\n      dup2\n        /* \"#utility.yul\":8701:8832   */\n      tag_178\n      jump\t// in\n    tag_305:\n        /* \"#utility.yul\":8693:8832   */\n      swap1\n      pop\n        /* \"#utility.yul\":8420:8839   */\n      swap2\n      swap1\n      pop\n      jump\t// out\n        /* \"#utility.yul\":8845:9025   */\n    tag_179:\n        /* \"#utility.yul\":8893:8970   */\n      0x4e487b7100000000000000000000000000000000000000000000000000000000\n        /* \"#utility.yul\":8890:8891   */\n      0x00\n        /* \"#utility.yul\":8883:8971   */\n      mstore\n        /* \"#utility.yul\":8990:8994   */\n      0x11\n        /* \"#utility.yul\":8987:8988   */\n      0x04\n        /* \"#utility.yul\":8980:8995   */\n      mstore\n        /* \"#utility.yul\":9014:9018   */\n      0x24\n        /* \"#utility.yul\":9011:9012   */\n      0x00\n        /* \"#utility.yul\":9004:9019   */\n      revert\n        /* \"#utility.yul\":9031:9264   */\n    tag_94:\n        /* \"#utility.yul\":9070:9073   */\n      0x00\n        /* \"#utility.yul\":9093:9117   */\n      tag_308\n        /* \"#utility.yul\":9111:9116   */\n      dup3\n        /* \"#utility.yul\":9093:9117   */\n      tag_155\n      jump\t// in\n    tag_308:\n        /* \"#utility.yul\":9084:9117   */\n      swap2\n      pop\n        /* \"#utility.yul\":9139:9205   */\n      0xffffffffffffffffffffffffffffffffffffffffffffffffffffffffffffffff\n        /* \"#utility.yul\":9132:9137   */\n      dup3\n        /* \"#utility.yul\":9129:9206   */\n      sub\n        /* \"#utility.yul\":9126:9229   */\n      tag_309\n      jumpi\n        /* \"#utility.yul\":9209:9227   */\n      tag_310\n      tag_179\n      jump\t// in\n    tag_310:\n        /* \"#utility.yul\":9126:9229   */\n    tag_309:\n        /* \"#utility.yul\":9256:9257   */\n      0x01\n        /* \"#utility.yul\":9249:9254   */\n      dup3\n        /* \"#utility.yul\":9245:9258   */\n      add\n        /* \"#utility.yul\":9238:9258   */\n      swap1\n      pop\n        /* \"#utility.yul\":9031:9264   */\n      swap2\n      swap1\n      pop\n      jump\t// out\n        /* \"#utility.yul\":9270:9461   */\n    tag_96:\n        /* \"#utility.yul\":9310:9313   */\n      0x00\n        /* \"#utility.yul\":9329:9349   */\n      tag_312\n        /* \"#utility.yul\":9347:9348   */\n      dup3\n        /* \"#utility.yul\":9329:9349   */\n      tag_155\n      jump\t// in\n    tag_312:\n        /* \"#utility.yul\":9324:9349   */\n      swap2\n      pop\n        /* \"#utility.yul\":9363:9383   */\n      tag_313\n        /* \"#utility.yul\":9381:9382   */\n      dup4\n        /* \"#utility.yul\":9363:9383   */\n      tag_155\n      jump\t// in\n    tag_313:\n        /* \"#utility.yul\":9358:9383   */\n      swap3\n      pop\n        /* \"#utility.yul\":9406:9407   */\n      dup3\n        /* \"#utility.yul\":9403:9404   */\n      dup3\n        /* \"#utility.yul\":9399:9408   */\n      add\n        /* \"#utility.yul\":9392:9408   */\n      swap1\n      pop\n        /* \"#utility.yul\":9427:9430   */\n      dup1\n        /* \"#utility.yul\":9424:9425   */\n      dup3\n        /* \"#utility.yul\":9421:9431   */\n      gt\n        /* \"#utility.yul\":9418:9454   */\n      iszero\n      tag_314\n      jumpi\n        /* \"#utility.yul\":9434:9452   */\n      tag_315\n      tag_179\n      jump\t// in\n    tag_315:\n        /* \"#utility.yul\":9418:9454   */\n    tag_314:\n        /* \"#utility.yul\":9270:9461   */\n      swap3\n      swap2\n      pop\n      pop\n      jump\t// out\n        /* \"#utility.yul\":9467:9695   */\n    tag_180:\n        /* \"#utility.yul\":9607:9641   */\n      0x4f6e6c7920746865206d616e616765722063616e20706572666f726d20746869\n        /* \"#utility.yul\":9603:9604   */\n      0x00\n        /* \"#utility.yul\":9595:9601   */\n      dup3\n        /* \"#utility.yul\":9591:9605   */\n      add\n        /* \"#utility.yul\":9584:9642   */\n      mstore\n        /* \"#utility.yul\":9676:9687   */\n      0x7320616374696f6e2e0000000000000000000000000000000000000000000000\n        /* \"#utility.yul\":9671:9673   */\n      0x20\n        /* \"#utility.yul\":9663:9669   */\n      dup3\n        /* \"#utility.yul\":9659:9674   */\n      add\n        /* \"#utility.yul\":9652:9688   */\n      mstore\n        /* \"#utility.yul\":9467:9695   */\n      pop\n      jump\t// out\n        /* \"#utility.yul\":9701:10067   */\n    tag_181:\n        /* \"#utility.yul\":9843:9846   */\n      0x00\n        /* \"#utility.yul\":9864:9931   */\n      tag_318\n        /* \"#utility.yul\":9928:9930   */\n      0x29\n        /* \"#utility.yul\":9923:9926   */\n      dup4\n        /* \"#utility.yul\":9864:9931   */\n      tag_168\n      jump\t// in\n    tag_318:\n        /* \"#utility.yul\":9857:9931   */\n      swap2\n      pop\n        /* \"#utility.yul\":9940:10033   */\n      tag_319\n        /* \"#utility.yul\":10029:10032   */\n      dup3\n        /* \"#utility.yul\":9940:10033   */\n      tag_180\n      jump\t// in\n    tag_319:\n        /* \"#utility.yul\":10058:10060   */\n      0x40\n        /* \"#utility.yul\":10053:10056   */\n      dup3\n        /* \"#utility.yul\":10049:10061   */\n      add\n        /* \"#utility.yul\":10042:10061   */\n      swap1\n      pop\n        /* \"#utility.yul\":9701:10067   */\n      swap2\n      swap1\n      pop\n      jump\t// out\n        /* \"#utility.yul\":10073:10492   */\n    tag_101:\n        /* \"#utility.yul\":10239:10243   */\n      0x00\n        /* \"#utility.yul\":10277:10279   */\n      0x20\n        /* \"#utility.yul\":10266:10275   */\n      dup3\n        /* \"#utility.yul\":10262:10280   */\n      add\n        /* \"#utility.yul\":10254:10280   */\n      swap1\n      pop\n        /* \"#utility.yul\":10326:10335   */\n      dup2\n        /* \"#utility.yul\":10320:10324   */\n      dup2\n        /* \"#utility.yul\":10316:10336   */\n      sub\n        /* \"#utility.yul\":10312:10313   */\n      0x00\n        /* \"#utility.yul\":10301:10310   */\n      dup4\n        /* \"#utility.yul\":10297:10314   */\n      add\n        /* \"#utility.yul\":10290:10337   */\n      mstore\n        /* \"#utility.yul\":10354:10485   */\n      tag_321\n        /* \"#utility.yul\":10480:10484   */\n      dup2\n        /* \"#utility.yul\":10354:10485   */\n      tag_181\n      jump\t// in\n    tag_321:\n        /* \"#utility.yul\":10346:10485   */\n      swap1\n      pop\n        /* \"#utility.yul\":10073:10492   */\n      swap2\n      swap1\n      pop\n      jump\t// out\n        /* \"#utility.yul\":10498:10595   */\n    tag_182:\n        /* \"#utility.yul\":10557:10563   */\n      0x00\n        /* \"#utility.yul\":10585:10588   */\n      dup3\n        /* \"#utility.yul\":10575:10588   */\n      swap1\n      pop\n        /* \"#utility.yul\":10498:10595   */\n      swap3\n      swap2\n      pop\n      pop\n      jump\t// out\n        /* \"#utility.yul\":10601:10781   */\n    tag_183:\n        /* \"#utility.yul\":10649:10726   */\n      0x4e487b7100000000000000000000000000000000000000000000000000000000\n        /* \"#utility.yul\":10646:10647   */\n      0x00\n        /* \"#utility.yul\":10639:10727   */\n      mstore\n        /* \"#utility.yul\":10746:10750   */\n      0x41\n        /* \"#utility.yul\":10743:10744   */\n      0x04\n        /* \"#utility.yul\":10736:10751   */\n      mstore\n        /* \"#utility.yul\":10770:10774   */\n      0x24\n        /* \"#utility.yul\":10767:10768   */\n      0x00\n        /* \"#utility.yul\":10760:10775   */\n      revert\n        /* \"#utility.yul\":10787:10967   */\n    tag_184:\n        /* \"#utility.yul\":10835:10912   */\n      0x4e487b7100000000000000000000000000000000000000000000000000000000\n        /* \"#utility.yul\":10832:10833   */\n      0x00\n        /* \"#utility.yul\":10825:10913   */\n      mstore\n        /* \"#utility.yul\":10932:10936   */\n      0x22\n        /* \"#utility.yul\":10929:10930   */\n      0x04\n        /* \"#utility.yul\":10922:10937   */\n      mstore\n        /* \"#utility.yul\":10956:10960   */\n      0x24\n        /* \"#utility.yul\":10953:10954   */\n      0x00\n        /* \"#utility.yul\":10946:10961   */\n      revert\n        /* \"#utility.yul\":10973:11293   */\n    tag_143:\n        /* \"#utility.yul\":11017:11023   */\n      0x00\n        /* \"#utility.yul\":11054:11055   */\n      0x02\n        /* \"#utility.yul\":11048:11052   */\n      dup3\n        /* \"#utility.yul\":11044:11056   */\n      div\n        /* \"#utility.yul\":11034:11056   */\n      swap1\n      pop\n        /* \"#utility.yul\":11101:11102   */\n      0x01\n        /* \"#utility.yul\":11095:11099   */\n      dup3\n        /* \"#utility.yul\":11091:11103   */\n      and\n        /* \"#utility.yul\":11122:11140   */\n      dup1\n        /* \"#utility.yul\":11112:11193   */\n      tag_326\n      jumpi\n        /* \"#utility.yul\":11178:11182   */\n      0x7f\n        /* \"#utility.yul\":11170:11176   */\n      dup3\n        /* \"#utility.yul\":11166:11183   */\n      and\n        /* \"#utility.yul\":11156:11183   */\n      swap2\n      pop\n        /* \"#utility.yul\":11112:11193   */\n    tag_326:\n        /* \"#utility.yul\":11240:11242   */\n      0x20\n        /* \"#utility.yul\":11232:11238   */\n      dup3\n        /* \"#utility.yul\":11229:11243   */\n      lt\n        /* \"#utility.yul\":11209:11227   */\n      dup2\n        /* \"#utility.yul\":11206:11244   */\n      sub\n        /* \"#utility.yul\":11203:11287   */\n      tag_327\n      jumpi\n        /* \"#utility.yul\":11259:11277   */\n      tag_328\n      tag_184\n      jump\t// in\n    tag_328:\n        /* \"#utility.yul\":11203:11287   */\n    tag_327:\n        /* \"#utility.yul\":11024:11293   */\n      pop\n        /* \"#utility.yul\":10973:11293   */\n      swap2\n      swap1\n      pop\n      jump\t// out\n        /* \"#utility.yul\":11299:11440   */\n    tag_185:\n        /* \"#utility.yul\":11348:11352   */\n      0x00\n        /* \"#utility.yul\":11371:11374   */\n      dup2\n        /* \"#utility.yul\":11363:11374   */\n      swap1\n      pop\n        /* \"#utility.yul\":11394:11397   */\n      dup2\n        /* \"#utility.yul\":11391:11392   */\n      0x00\n        /* \"#utility.yul\":11384:11398   */\n      mstore\n        /* \"#utility.yul\":11428:11432   */\n      0x20\n        /* \"#utility.yul\":11425:11426   */\n      0x00\n        /* \"#utility.yul\":11415:11433   */\n      keccak256\n        /* \"#utility.yul\":11407:11433   */\n      swap1\n      pop\n        /* \"#utility.yul\":11299:11440   */\n      swap2\n      swap1\n      pop\n      jump\t// out\n        /* \"#utility.yul\":11446:11539   */\n    tag_186:\n        /* \"#utility.yul\":11483:11489   */\n      0x00\n        /* \"#utility.yul\":11530:11532   */\n      0x20\n        /* \"#utility.yul\":11525:11527   */\n      0x1f\n        /* \"#utility.yul\":11518:11523   */\n      dup4\n        /* \"#utility.yul\":11514:11528   */\n      add\n        /* \"#utility.yul\":11510:11533   */\n      div\n        /* \"#utility.yul\":11500:11533   */\n      swap1\n      pop\n        /* \"#utility.yul\":11446:11539   */\n      swap2\n      swap1\n      pop\n      jump\t// out\n        /* \"#utility.yul\":11545:11652   */\n    tag_187:\n        /* \"#utility.yul\":11589:11597   */\n      0x00\n        /* \"#utility.yul\":11639:11644   */\n      dup3\n        /* \"#utility.yul\":11633:11637   */\n      dup3\n        /* \"#utility.yul\":11629:11645   */\n      shl\n        /* \"#utility.yul\":11608:11645   */\n      swap1\n      pop\n        /* \"#utility.yul\":11545:11652   */\n      swap3\n      swap2\n      pop\n      pop\n      jump\t// out\n        /* \"#utility.yul\":11658:12051   */\n    tag_188:\n        /* \"#utility.yul\":11727:11733   */\n      0x00\n        /* \"#utility.yul\":11777:11778   */\n      0x08\n        /* \"#utility.yul\":11765:11775   */\n      dup4\n        /* \"#utility.yul\":11761:11779   */\n      mul\n        /* \"#utility.yul\":11800:11897   */\n      tag_333\n        /* \"#utility.yul\":11830:11896   */\n      0xffffffffffffffffffffffffffffffffffffffffffffffffffffffffffffffff\n        /* \"#utility.yul\":11819:11828   */\n      dup3\n        /* \"#utility.yul\":11800:11897   */\n      tag_187\n      jump\t// in\n    tag_333:\n        /* \"#utility.yul\":11918:11957   */\n      tag_334\n        /* \"#utility.yul\":11948:11956   */\n      dup7\n        /* \"#utility.yul\":11937:11946   */\n      dup4\n        /* \"#utility.yul\":11918:11957   */\n      tag_187\n      jump\t// in\n    tag_334:\n        /* \"#utility.yul\":11906:11957   */\n      swap6\n      pop\n        /* \"#utility.yul\":11990:11994   */\n      dup1\n        /* \"#utility.yul\":11986:11995   */\n      not\n        /* \"#utility.yul\":11979:11984   */\n      dup5\n        /* \"#utility.yul\":11975:11996   */\n      and\n        /* \"#utility.yul\":11966:11996   */\n      swap4\n      pop\n        /* \"#utility.yul\":12039:12043   */\n      dup1\n        /* \"#utility.yul\":12029:12037   */\n      dup7\n        /* \"#utility.yul\":12025:12044   */\n      and\n        /* \"#utility.yul\":12018:12023   */\n      dup5\n        /* \"#utility.yul\":12015:12045   */\n      or\n        /* \"#utility.yul\":12005:12045   */\n      swap3\n      pop\n        /* \"#utility.yul\":11734:12051   */\n      pop\n      pop\n        /* \"#utility.yul\":11658:12051   */\n      swap4\n      swap3\n      pop\n      pop\n      pop\n      jump\t// out\n        /* \"#utility.yul\":12057:12117   */\n    tag_189:\n        /* \"#utility.yul\":12085:12088   */\n      0x00\n        /* \"#utility.yul\":12106:12111   */\n      dup2\n        /* \"#utility.yul\":12099:12111   */\n      swap1\n      pop\n        /* \"#utility.yul\":12057:12117   */\n      swap2\n      swap1\n      pop\n      jump\t// out\n        /* \"#utility.yul\":12123:12265   */\n    tag_190:\n        /* \"#utility.yul\":12173:12182   */\n      0x00\n        /* \"#utility.yul\":12206:12259   */\n      tag_337\n        /* \"#utility.yul\":12224:12258   */\n      tag_338\n        /* \"#utility.yul\":12233:12257   */\n      tag_339\n        /* \"#utility.yul\":12251:12256   */\n      dup5\n        /* \"#utility.yul\":12233:12257   */\n      tag_155\n      jump\t// in\n    tag_339:\n        /* \"#utility.yul\":12224:12258   */\n      tag_189\n      jump\t// in\n    tag_338:\n        /* \"#utility.yul\":12206:12259   */\n      tag_155\n      jump\t// in\n    tag_337:\n        /* \"#utility.yul\":12193:12259   */\n      swap1\n      pop\n        /* \"#utility.yul\":12123:12265   */\n      swap2\n      swap1\n      pop\n      jump\t// out\n        /* \"#utility.yul\":12271:12346   */\n    tag_191:\n        /* \"#utility.yul\":12314:12317   */\n      0x00\n        /* \"#utility.yul\":12335:12340   */\n      dup2\n        /* \"#utility.yul\":12328:12340   */\n      swap1\n      pop\n        /* \"#utility.yul\":12271:12346   */\n      swap2\n      swap1\n      pop\n      jump\t// out\n        /* \"#utility.yul\":12352:12621   */\n    tag_192:\n        /* \"#utility.yul\":12462:12501   */\n      tag_342\n        /* \"#utility.yul\":12493:12500   */\n      dup4\n        /* \"#utility.yul\":12462:12501   */\n      tag_190\n      jump\t// in\n    tag_342:\n        /* \"#utility.yul\":12523:12614   */\n      tag_343\n        /* \"#utility.yul\":12572:12613   */\n      tag_344\n        /* \"#utility.yul\":12596:12612   */\n      dup3\n        /* \"#utility.yul\":12572:12613   */\n      tag_191\n      jump\t// in\n    tag_344:\n        /* \"#utility.yul\":12564:12570   */\n      dup5\n        /* \"#utility.yul\":12557:12561   */\n      dup5\n        /* \"#utility.yul\":12551:12562   */\n      sload\n        /* \"#utility.yul\":12523:12614   */\n      tag_188\n      jump\t// in\n    tag_343:\n        /* \"#utility.yul\":12517:12521   */\n      dup3\n        /* \"#utility.yul\":12510:12615   */\n      sstore\n        /* \"#utility.yul\":12428:12621   */\n      pop\n        /* \"#utility.yul\":12352:12621   */\n      pop\n      pop\n      pop\n      jump\t// out\n        /* \"#utility.yul\":12627:12700   */\n    tag_193:\n        /* \"#utility.yul\":12672:12675   */\n      0x00\n        /* \"#utility.yul\":12627:12700   */\n      swap1\n      jump\t// out\n        /* \"#utility.yul\":12706:12895   */\n    tag_194:\n        /* \"#utility.yul\":12783:12815   */\n      tag_347\n      tag_193\n      jump\t// in\n    tag_347:\n        /* \"#utility.yul\":12824:12889   */\n      tag_348\n        /* \"#utility.yul\":12882:12888   */\n      dup2\n        /* \"#utility.yul\":12874:12880   */\n      dup5\n        /* \"#utility.yul\":12868:12872   */\n      dup5\n        /* \"#utility.yul\":12824:12889   */\n      tag_192\n      jump\t// in\n    tag_348:\n        /* \"#utility.yul\":12759:12895   */\n      pop\n        /* \"#utility.yul\":12706:12895   */\n      pop\n      pop\n      jump\t// out\n        /* \"#utility.yul\":12901:13087   */\n    tag_195:\n        /* \"#utility.yul\":12961:13081   */\n    tag_350:\n        /* \"#utility.yul\":12978:12981   */\n      dup2\n        /* \"#utility.yul\":12971:12976   */\n      dup2\n        /* \"#utility.yul\":12968:12982   */\n      lt\n        /* \"#utility.yul\":12961:13081   */\n      iszero\n      tag_352\n      jumpi\n        /* \"#utility.yul\":13032:13071   */\n      tag_353\n        /* \"#utility.yul\":13069:13070   */\n      0x00\n        /* \"#utility.yul\":13062:13067   */\n      dup3\n        /* \"#utility.yul\":13032:13071   */\n      tag_194\n      jump\t// in\n    tag_353:\n        /* \"#utility.yul\":13005:13006   */\n      0x01\n        /* \"#utility.yul\":12998:13003   */\n      dup2\n        /* \"#utility.yul\":12994:13007   */\n      add\n        /* \"#utility.yul\":12985:13007   */\n      swap1\n      pop\n        /* \"#utility.yul\":12961:13081   */\n      jump(tag_350)\n    tag_352:\n        /* \"#utility.yul\":12901:13087   */\n      pop\n      pop\n      jump\t// out\n        /* \"#utility.yul\":13093:13636   */\n    tag_196:\n        /* \"#utility.yul\":13194:13196   */\n      0x1f\n        /* \"#utility.yul\":13189:13192   */\n      dup3\n        /* \"#utility.yul\":13186:13197   */\n      gt\n        /* \"#utility.yul\":13183:13629   */\n      iszero\n      tag_355\n      jumpi\n        /* \"#utility.yul\":13228:13266   */\n      tag_356\n        /* \"#utility.yul\":13260:13265   */\n      dup2\n        /* \"#utility.yul\":13228:13266   */\n      tag_185\n      jump\t// in\n    tag_356:\n        /* \"#utility.yul\":13312:13341   */\n      tag_357\n        /* \"#utility.yul\":13330:13340   */\n      dup5\n        /* \"#utility.yul\":13312:13341   */\n      tag_186\n      jump\t// in\n    tag_357:\n        /* \"#utility.yul\":13302:13310   */\n      dup2\n        /* \"#utility.yul\":13298:13342   */\n      add\n        /* \"#utility.yul\":13495:13497   */\n      0x20\n        /* \"#utility.yul\":13483:13493   */\n      dup6\n        /* \"#utility.yul\":13480:13498   */\n      lt\n        /* \"#utility.yul\":13477:13526   */\n      iszero\n      tag_358\n      jumpi\n        /* \"#utility.yul\":13516:13524   */\n      dup2\n        /* \"#utility.yul\":13501:13524   */\n      swap1\n      pop\n        /* \"#utility.yul\":13477:13526   */\n    tag_358:\n        /* \"#utility.yul\":13539:13619   */\n      tag_359\n        /* \"#utility.yul\":13595:13617   */\n      tag_360\n        /* \"#utility.yul\":13613:13616   */\n      dup6\n        /* \"#utility.yul\":13595:13617   */\n      tag_186\n      jump\t// in\n    tag_360:\n        /* \"#utility.yul\":13585:13593   */\n      dup4\n        /* \"#utility.yul\":13581:13618   */\n      add\n        /* \"#utility.yul\":13568:13579   */\n      dup3\n        /* \"#utility.yul\":13539:13619   */\n      tag_195\n      jump\t// in\n    tag_359:\n        /* \"#utility.yul\":13198:13629   */\n      pop\n      pop\n        /* \"#utility.yul\":13183:13629   */\n    tag_355:\n        /* \"#utility.yul\":13093:13636   */\n      pop\n      pop\n      pop\n      jump\t// out\n        /* \"#utility.yul\":13642:13759   */\n    tag_197:\n        /* \"#utility.yul\":13696:13704   */\n      0x00\n        /* \"#utility.yul\":13746:13751   */\n      dup3\n        /* \"#utility.yul\":13740:13744   */\n      dup3\n        /* \"#utility.yul\":13736:13752   */\n      shr\n        /* \"#utility.yul\":13715:13752   */\n      swap1\n      pop\n        /* \"#utility.yul\":13642:13759   */\n      swap3\n      swap2\n      pop\n      pop\n      jump\t// out\n        /* \"#utility.yul\":13765:13934   */\n    tag_198:\n        /* \"#utility.yul\":13809:13815   */\n      0x00\n        /* \"#utility.yul\":13842:13893   */\n      tag_363\n        /* \"#utility.yul\":13890:13891   */\n      0x00\n        /* \"#utility.yul\":13886:13892   */\n      not\n        /* \"#utility.yul\":13878:13883   */\n      dup5\n        /* \"#utility.yul\":13875:13876   */\n      0x08\n        /* \"#utility.yul\":13871:13884   */\n      mul\n        /* \"#utility.yul\":13842:13893   */\n      tag_197\n      jump\t// in\n    tag_363:\n        /* \"#utility.yul\":13838:13894   */\n      not\n        /* \"#utility.yul\":13923:13927   */\n      dup1\n        /* \"#utility.yul\":13917:13921   */\n      dup4\n        /* \"#utility.yul\":13913:13928   */\n      and\n        /* \"#utility.yul\":13903:13928   */\n      swap2\n      pop\n        /* \"#utility.yul\":13816:13934   */\n      pop\n        /* \"#utility.yul\":13765:13934   */\n      swap3\n      swap2\n      pop\n      pop\n      jump\t// out\n        /* \"#utility.yul\":13939:14234   */\n    tag_199:\n        /* \"#utility.yul\":14015:14019   */\n      0x00\n        /* \"#utility.yul\":14161:14190   */\n      tag_365\n        /* \"#utility.yul\":14186:14189   */\n      dup4\n        /* \"#utility.yul\":14180:14184   */\n      dup4\n        /* \"#utility.yul\":14161:14190   */\n      tag_198\n      jump\t// in\n    tag_365:\n        /* \"#utility.yul\":14153:14190   */\n      swap2\n      pop\n        /* \"#utility.yul\":14223:14226   */\n      dup3\n        /* \"#utility.yul\":14220:14221   */\n      0x02\n        /* \"#utility.yul\":14216:14227   */\n      mul\n        /* \"#utility.yul\":14210:14214   */\n      dup3\n        /* \"#utility.yul\":14207:14228   */\n      or\n        /* \"#utility.yul\":14199:14228   */\n      swap1\n      pop\n        /* \"#utility.yul\":13939:14234   */\n      swap3\n      swap2\n      pop\n      pop\n      jump\t// out\n        /* \"#utility.yul\":14239:15642   */\n    tag_105:\n        /* \"#utility.yul\":14363:14407   */\n      tag_367\n        /* \"#utility.yul\":14403:14406   */\n      dup4\n        /* \"#utility.yul\":14398:14401   */\n      dup4\n        /* \"#utility.yul\":14363:14407   */\n      tag_182\n      jump\t// in\n    tag_367:\n        /* \"#utility.yul\":14472:14490   */\n      0xffffffffffffffff\n        /* \"#utility.yul\":14464:14470   */\n      dup2\n        /* \"#utility.yul\":14461:14491   */\n      gt\n        /* \"#utility.yul\":14458:14514   */\n      iszero\n      tag_368\n      jumpi\n        /* \"#utility.yul\":14494:14512   */\n      tag_369\n      tag_183\n      jump\t// in\n    tag_369:\n        /* \"#utility.yul\":14458:14514   */\n    tag_368:\n        /* \"#utility.yul\":14538:14576   */\n      tag_370\n        /* \"#utility.yul\":14570:14574   */\n      dup3\n        /* \"#utility.yul\":14564:14575   */\n      sload\n        /* \"#utility.yul\":14538:14576   */\n      tag_143\n      jump\t// in\n    tag_370:\n        /* \"#utility.yul\":14623:14690   */\n      tag_371\n        /* \"#utility.yul\":14683:14689   */\n      dup3\n        /* \"#utility.yul\":14675:14681   */\n      dup3\n        /* \"#utility.yul\":14669:14673   */\n      dup6\n        /* \"#utility.yul\":14623:14690   */\n      tag_196\n      jump\t// in\n    tag_371:\n        /* \"#utility.yul\":14717:14718   */\n      0x00\n        /* \"#utility.yul\":14746:14748   */\n      0x1f\n        /* \"#utility.yul\":14738:14744   */\n      dup4\n        /* \"#utility.yul\":14735:14749   */\n      gt\n        /* \"#utility.yul\":14763:14764   */\n      0x01\n        /* \"#utility.yul\":14758:15390   */\n      dup2\n      eq\n      tag_373\n      jumpi\n        /* \"#utility.yul\":15434:15435   */\n      0x00\n        /* \"#utility.yul\":15451:15457   */\n      dup5\n        /* \"#utility.yul\":15448:15532   */\n      iszero\n      tag_374\n      jumpi\n        /* \"#utility.yul\":15507:15516   */\n      dup3\n        /* \"#utility.yul\":15502:15505   */\n      dup8\n        /* \"#utility.yul\":15498:15517   */\n      add\n        /* \"#utility.yul\":15485:15518   */\n      calldataload\n        /* \"#utility.yul\":15476:15518   */\n      swap1\n      pop\n        /* \"#utility.yul\":15448:15532   */\n    tag_374:\n        /* \"#utility.yul\":15558:15625   */\n      tag_375\n        /* \"#utility.yul\":15618:15624   */\n      dup6\n        /* \"#utility.yul\":15611:15616   */\n      dup3\n        /* \"#utility.yul\":15558:15625   */\n      tag_199\n      jump\t// in\n    tag_375:\n        /* \"#utility.yul\":15552:15556   */\n      dup7\n        /* \"#utility.yul\":15545:15626   */\n      sstore\n        /* \"#utility.yul\":15407:15636   */\n      pop\n        /* \"#utility.yul\":14728:15636   */\n      jump(tag_372)\n        /* \"#utility.yul\":14758:15390   */\n    tag_373:\n        /* \"#utility.yul\":14810:14814   */\n      0x1f\n        /* \"#utility.yul\":14806:14815   */\n      not\n        /* \"#utility.yul\":14798:14804   */\n      dup5\n        /* \"#utility.yul\":14794:14816   */\n      and\n        /* \"#utility.yul\":14844:14881   */\n      tag_376\n        /* \"#utility.yul\":14876:14880   */\n      dup7\n        /* \"#utility.yul\":14844:14881   */\n      tag_185\n      jump\t// in\n    tag_376:\n        /* \"#utility.yul\":14903:14904   */\n      0x00\n        /* \"#utility.yul\":14917:15132   */\n    tag_377:\n        /* \"#utility.yul\":14931:14938   */\n      dup3\n        /* \"#utility.yul\":14928:14929   */\n      dup2\n        /* \"#utility.yul\":14925:14939   */\n      lt\n        /* \"#utility.yul\":14917:15132   */\n      iszero\n      tag_379\n      jumpi\n        /* \"#utility.yul\":15017:15026   */\n      dup5\n        /* \"#utility.yul\":15012:15015   */\n      dup10\n        /* \"#utility.yul\":15008:15027   */\n      add\n        /* \"#utility.yul\":14995:15028   */\n      calldataload\n        /* \"#utility.yul\":14987:14993   */\n      dup3\n        /* \"#utility.yul\":14980:15029   */\n      sstore\n        /* \"#utility.yul\":15068:15069   */\n      0x01\n        /* \"#utility.yul\":15060:15066   */\n      dup3\n        /* \"#utility.yul\":15056:15070   */\n      add\n        /* \"#utility.yul\":15046:15070   */\n      swap2\n      pop\n        /* \"#utility.yul\":15115:15117   */\n      0x20\n        /* \"#utility.yul\":15104:15113   */\n      dup6\n        /* \"#utility.yul\":15100:15118   */\n      add\n        /* \"#utility.yul\":15087:15118   */\n      swap5\n      pop\n        /* \"#utility.yul\":14954:14958   */\n      0x20\n        /* \"#utility.yul\":14951:14952   */\n      dup2\n        /* \"#utility.yul\":14947:14959   */\n      add\n        /* \"#utility.yul\":14942:14959   */\n      swap1\n      pop\n        /* \"#utility.yul\":14917:15132   */\n      jump(tag_377)\n    tag_379:\n        /* \"#utility.yul\":15160:15166   */\n      dup7\n        /* \"#utility.yul\":15151:15158   */\n      dup4\n        /* \"#utility.yul\":15148:15167   */\n      lt\n        /* \"#utility.yul\":15145:15331   */\n      iszero\n      tag_380\n      jumpi\n        /* \"#utility.yul\":15225:15234   */\n      dup5\n        /* \"#utility.yul\":15220:15223   */\n      dup10\n        /* \"#utility.yul\":15216:15235   */\n      add\n        /* \"#utility.yul\":15203:15236   */\n      calldataload\n        /* \"#utility.yul\":15268:15316   */\n      tag_381\n        /* \"#utility.yul\":15310:15314   */\n      0x1f\n        /* \"#utility.yul\":15302:15308   */\n      dup10\n        /* \"#utility.yul\":15298:15315   */\n      and\n        /* \"#utility.yul\":15287:15296   */\n      dup3\n        /* \"#utility.yul\":15268:15316   */\n      tag_198\n      jump\t// in\n    tag_381:\n        /* \"#utility.yul\":15260:15266   */\n      dup4\n        /* \"#utility.yul\":15253:15317   */\n      sstore\n        /* \"#utility.yul\":15168:15331   */\n      pop\n        /* \"#utility.yul\":15145:15331   */\n    tag_380:\n        /* \"#utility.yul\":15377:15378   */\n      0x01\n        /* \"#utility.yul\":15373:15374   */\n      0x02\n        /* \"#utility.yul\":15365:15371   */\n      dup9\n        /* \"#utility.yul\":15361:15375   */\n      mul\n        /* \"#utility.yul\":15357:15379   */\n      add\n        /* \"#utility.yul\":15351:15355   */\n      dup9\n        /* \"#utility.yul\":15344:15380   */\n      sstore\n        /* \"#utility.yul\":14765:15390   */\n      pop\n      pop\n      pop\n        /* \"#utility.yul\":14728:15636   */\n    tag_372:\n      pop\n        /* \"#utility.yul\":14338:15642   */\n      pop\n      pop\n      pop\n        /* \"#utility.yul\":14239:15642   */\n      pop\n      pop\n      pop\n      jump\t// out\n        /* \"#utility.yul\":15648:15868   */\n    tag_200:\n        /* \"#utility.yul\":15788:15822   */\n      0x596f7520646f6e2774206861766520616e7920636f6e747269627574696f6e73\n        /* \"#utility.yul\":15784:15785   */\n      0x00\n        /* \"#utility.yul\":15776:15782   */\n      dup3\n        /* \"#utility.yul\":15772:15786   */\n      add\n        /* \"#utility.yul\":15765:15823   */\n      mstore\n        /* \"#utility.yul\":15857:15860   */\n      0x2e00000000000000000000000000000000000000000000000000000000000000\n        /* \"#utility.yul\":15852:15854   */\n      0x20\n        /* \"#utility.yul\":15844:15850   */\n      dup3\n        /* \"#utility.yul\":15840:15855   */\n      add\n        /* \"#utility.yul\":15833:15861   */\n      mstore\n        /* \"#utility.yul\":15648:15868   */\n      pop\n      jump\t// out\n        /* \"#utility.yul\":15874:16240   */\n    tag_201:\n        /* \"#utility.yul\":16016:16019   */\n      0x00\n        /* \"#utility.yul\":16037:16104   */\n      tag_384\n        /* \"#utility.yul\":16101:16103   */\n      0x21\n        /* \"#utility.yul\":16096:16099   */\n      dup4\n        /* \"#utility.yul\":16037:16104   */\n      tag_168\n      jump\t// in\n    tag_384:\n        /* \"#utility.yul\":16030:16104   */\n      swap2\n      pop\n        /* \"#utility.yul\":16113:16206   */\n      tag_385\n        /* \"#utility.yul\":16202:16205   */\n      dup3\n        /* \"#utility.yul\":16113:16206   */\n      tag_200\n      jump\t// in\n    tag_385:\n        /* \"#utility.yul\":16231:16233   */\n      0x40\n        /* \"#utility.yul\":16226:16229   */\n      dup3\n        /* \"#utility.yul\":16222:16234   */\n      add\n        /* \"#utility.yul\":16215:16234   */\n      swap1\n      pop\n        /* \"#utility.yul\":15874:16240   */\n      swap2\n      swap1\n      pop\n      jump\t// out\n        /* \"#utility.yul\":16246:16665   */\n    tag_109:\n        /* \"#utility.yul\":16412:16416   */\n      0x00\n        /* \"#utility.yul\":16450:16452   */\n      0x20\n        /* \"#utility.yul\":16439:16448   */\n      dup3\n        /* \"#utility.yul\":16435:16453   */\n      add\n        /* \"#utility.yul\":16427:16453   */\n      swap1\n      pop\n        /* \"#utility.yul\":16499:16508   */\n      dup2\n        /* \"#utility.yul\":16493:16497   */\n      dup2\n        /* \"#utility.yul\":16489:16509   */\n      sub\n        /* \"#utility.yul\":16485:16486   */\n      0x00\n        /* \"#utility.yul\":16474:16483   */\n      dup4\n        /* \"#utility.yul\":16470:16487   */\n      add\n        /* \"#utility.yul\":16463:16510   */\n      mstore\n        /* \"#utility.yul\":16527:16658   */\n      tag_387\n        /* \"#utility.yul\":16653:16657   */\n      dup2\n        /* \"#utility.yul\":16527:16658   */\n      tag_201\n      jump\t// in\n    tag_387:\n        /* \"#utility.yul\":16519:16658   */\n      swap1\n      pop\n        /* \"#utility.yul\":16246:16665   */\n      swap2\n      swap1\n      pop\n      jump\t// out\n        /* \"#utility.yul\":16671:16846   */\n    tag_202:\n        /* \"#utility.yul\":16811:16838   */\n      0x596f7520616c726561647920766f74656420666f722069742100000000000000\n        /* \"#utility.yul\":16807:16808   */\n      0x00\n        /* \"#utility.yul\":16799:16805   */\n      dup3\n        /* \"#utility.yul\":16795:16809   */\n      add\n        /* \"#utility.yul\":16788:16839   */\n      mstore\n        /* \"#utility.yul\":16671:16846   */\n      pop\n      jump\t// out\n        /* \"#utility.yul\":16852:17218   */\n    tag_203:\n        /* \"#utility.yul\":16994:16997   */\n      0x00\n        /* \"#utility.yul\":17015:17082   */\n      tag_390\n        /* \"#utility.yul\":17079:17081   */\n      0x19\n        /* \"#utility.yul\":17074:17077   */\n      dup4\n        /* \"#utility.yul\":17015:17082   */\n      tag_168\n      jump\t// in\n    tag_390:\n        /* \"#utility.yul\":17008:17082   */\n      swap2\n      pop\n        /* \"#utility.yul\":17091:17184   */\n      tag_391\n        /* \"#utility.yul\":17180:17183   */\n      dup3\n        /* \"#utility.yul\":17091:17184   */\n      tag_202\n      jump\t// in\n    tag_391:\n        /* \"#utility.yul\":17209:17211   */\n      0x20\n        /* \"#utility.yul\":17204:17207   */\n      dup3\n        /* \"#utility.yul\":17200:17212   */\n      add\n        /* \"#utility.yul\":17193:17212   */\n      swap1\n      pop\n        /* \"#utility.yul\":16852:17218   */\n      swap2\n      swap1\n      pop\n      jump\t// out\n        /* \"#utility.yul\":17224:17643   */\n    tag_112:\n        /* \"#utility.yul\":17390:17394   */\n      0x00\n        /* \"#utility.yul\":17428:17430   */\n      0x20\n        /* \"#utility.yul\":17417:17426   */\n      dup3\n        /* \"#utility.yul\":17413:17431   */\n      add\n        /* \"#utility.yul\":17405:17431   */\n      swap1\n      pop\n        /* \"#utility.yul\":17477:17486   */\n      dup2\n        /* \"#utility.yul\":17471:17475   */\n      dup2\n        /* \"#utility.yul\":17467:17487   */\n      sub\n        /* \"#utility.yul\":17463:17464   */\n      0x00\n        /* \"#utility.yul\":17452:17461   */\n      dup4\n        /* \"#utility.yul\":17448:17465   */\n      add\n        /* \"#utility.yul\":17441:17488   */\n      mstore\n        /* \"#utility.yul\":17505:17636   */\n      tag_393\n        /* \"#utility.yul\":17631:17635   */\n      dup2\n        /* \"#utility.yul\":17505:17636   */\n      tag_203\n      jump\t// in\n    tag_393:\n        /* \"#utility.yul\":17497:17636   */\n      swap1\n      pop\n        /* \"#utility.yul\":17224:17643   */\n      swap2\n      swap1\n      pop\n      jump\t// out\n        /* \"#utility.yul\":17649:17831   */\n    tag_204:\n        /* \"#utility.yul\":17789:17823   */\n      0x5468652074617267657420686173206e6f74206265656e20726561636865642e\n        /* \"#utility.yul\":17785:17786   */\n      0x00\n        /* \"#utility.yul\":17777:17783   */\n      dup3\n        /* \"#utility.yul\":17773:17787   */\n      add\n        /* \"#utility.yul\":17766:17824   */\n      mstore\n        /* \"#utility.yul\":17649:17831   */\n      pop\n      jump\t// out\n        /* \"#utility.yul\":17837:18203   */\n    tag_205:\n        /* \"#utility.yul\":17979:17982   */\n      0x00\n        /* \"#utility.yul\":18000:18067   */\n      tag_396\n        /* \"#utility.yul\":18064:18066   */\n      0x20\n        /* \"#utility.yul\":18059:18062   */\n      dup4\n        /* \"#utility.yul\":18000:18067   */\n      tag_168\n      jump\t// in\n    tag_396:\n        /* \"#utility.yul\":17993:18067   */\n      swap2\n      pop\n        /* \"#utility.yul\":18076:18169   */\n      tag_397\n        /* \"#utility.yul\":18165:18168   */\n      dup3\n        /* \"#utility.yul\":18076:18169   */\n      tag_204\n      jump\t// in\n    tag_397:\n        /* \"#utility.yul\":18194:18196   */\n      0x20\n        /* \"#utility.yul\":18189:18192   */\n      dup3\n        /* \"#utility.yul\":18185:18197   */\n      add\n        /* \"#utility.yul\":18178:18197   */\n      swap1\n      pop\n        /* \"#utility.yul\":17837:18203   */\n      swap2\n      swap1\n      pop\n      jump\t// out\n        /* \"#utility.yul\":18209:18628   */\n    tag_120:\n        /* \"#utility.yul\":18375:18379   */\n      0x00\n        /* \"#utility.yul\":18413:18415   */\n      0x20\n        /* \"#utility.yul\":18402:18411   */\n      dup3\n        /* \"#utility.yul\":18398:18416   */\n      add\n        /* \"#utility.yul\":18390:18416   */\n      swap1\n      pop\n        /* \"#utility.yul\":18462:18471   */\n      dup2\n        /* \"#utility.yul\":18456:18460   */\n      dup2\n        /* \"#utility.yul\":18452:18472   */\n      sub\n        /* \"#utility.yul\":18448:18449   */\n      0x00\n        /* \"#utility.yul\":18437:18446   */\n      dup4\n        /* \"#utility.yul\":18433:18450   */\n      add\n        /* \"#utility.yul\":18426:18473   */\n      mstore\n        /* \"#utility.yul\":18490:18621   */\n      tag_399\n        /* \"#utility.yul\":18616:18620   */\n      dup2\n        /* \"#utility.yul\":18490:18621   */\n      tag_205\n      jump\t// in\n    tag_399:\n        /* \"#utility.yul\":18482:18621   */\n      swap1\n      pop\n        /* \"#utility.yul\":18209:18628   */\n      swap2\n      swap1\n      pop\n      jump\t// out\n        /* \"#utility.yul\":18634:18860   */\n    tag_206:\n        /* \"#utility.yul\":18774:18808   */\n      0x5468697320726571756573742068617320616c7265616479206265656e20636f\n        /* \"#utility.yul\":18770:18771   */\n      0x00\n        /* \"#utility.yul\":18762:18768   */\n      dup3\n        /* \"#utility.yul\":18758:18772   */\n      add\n        /* \"#utility.yul\":18751:18809   */\n      mstore\n        /* \"#utility.yul\":18843:18852   */\n      0x6d706c6574656400000000000000000000000000000000000000000000000000\n        /* \"#utility.yul\":18838:18840   */\n      0x20\n        /* \"#utility.yul\":18830:18836   */\n      dup3\n        /* \"#utility.yul\":18826:18841   */\n      add\n        /* \"#utility.yul\":18819:18853   */\n      mstore\n        /* \"#utility.yul\":18634:18860   */\n      pop\n      jump\t// out\n        /* \"#utility.yul\":18866:19232   */\n    tag_207:\n        /* \"#utility.yul\":19008:19011   */\n      0x00\n        /* \"#utility.yul\":19029:19096   */\n      tag_402\n        /* \"#utility.yul\":19093:19095   */\n      0x27\n        /* \"#utility.yul\":19088:19091   */\n      dup4\n        /* \"#utility.yul\":19029:19096   */\n      tag_168\n      jump\t// in\n    tag_402:\n        /* \"#utility.yul\":19022:19096   */\n      swap2\n      pop\n        /* \"#utility.yul\":19105:19198   */\n      tag_403\n        /* \"#utility.yul\":19194:19197   */\n      dup3\n        /* \"#utility.yul\":19105:19198   */\n      tag_206\n      jump\t// in\n    tag_403:\n        /* \"#utility.yul\":19223:19225   */\n      0x40\n        /* \"#utility.yul\":19218:19221   */\n      dup3\n        /* \"#utility.yul\":19214:19226   */\n      add\n        /* \"#utility.yul\":19207:19226   */\n      swap1\n      pop\n        /* \"#utility.yul\":18866:19232   */\n      swap2\n      swap1\n      pop\n      jump\t// out\n        /* \"#utility.yul\":19238:19657   */\n    tag_123:\n        /* \"#utility.yul\":19404:19408   */\n      0x00\n        /* \"#utility.yul\":19442:19444   */\n      0x20\n        /* \"#utility.yul\":19431:19440   */\n      dup3\n        /* \"#utility.yul\":19427:19445   */\n      add\n        /* \"#utility.yul\":19419:19445   */\n      swap1\n      pop\n        /* \"#utility.yul\":19491:19500   */\n      dup2\n        /* \"#utility.yul\":19485:19489   */\n      dup2\n        /* \"#utility.yul\":19481:19501   */\n      sub\n        /* \"#utility.yul\":19477:19478   */\n      0x00\n        /* \"#utility.yul\":19466:19475   */\n      dup4\n        /* \"#utility.yul\":19462:19479   */\n      add\n        /* \"#utility.yul\":19455:19502   */\n      mstore\n        /* \"#utility.yul\":19519:19650   */\n      tag_405\n        /* \"#utility.yul\":19645:19649   */\n      dup2\n        /* \"#utility.yul\":19519:19650   */\n      tag_207\n      jump\t// in\n    tag_405:\n        /* \"#utility.yul\":19511:19650   */\n      swap1\n      pop\n        /* \"#utility.yul\":19238:19657   */\n      swap2\n      swap1\n      pop\n      jump\t// out\n        /* \"#utility.yul\":19663:19843   */\n    tag_208:\n        /* \"#utility.yul\":19711:19788   */\n      0x4e487b7100000000000000000000000000000000000000000000000000000000\n        /* \"#utility.yul\":19708:19709   */\n      0x00\n        /* \"#utility.yul\":19701:19789   */\n      mstore\n        /* \"#utility.yul\":19808:19812   */\n      0x12\n        /* \"#utility.yul\":19805:19806   */\n      0x04\n        /* \"#utility.yul\":19798:19813   */\n      mstore\n        /* \"#utility.yul\":19832:19836   */\n      0x24\n        /* \"#utility.yul\":19829:19830   */\n      0x00\n        /* \"#utility.yul\":19822:19837   */\n      revert\n        /* \"#utility.yul\":19849:20034   */\n    tag_125:\n        /* \"#utility.yul\":19889:19890   */\n      0x00\n        /* \"#utility.yul\":19906:19926   */\n      tag_408\n        /* \"#utility.yul\":19924:19925   */\n      dup3\n        /* \"#utility.yul\":19906:19926   */\n      tag_155\n      jump\t// in\n    tag_408:\n        /* \"#utility.yul\":19901:19926   */\n      swap2\n      pop\n        /* \"#utility.yul\":19940:19960   */\n      tag_409\n        /* \"#utility.yul\":19958:19959   */\n      dup4\n        /* \"#utility.yul\":19940:19960   */\n      tag_155\n      jump\t// in\n    tag_409:\n        /* \"#utility.yul\":19935:19960   */\n      swap3\n      pop\n        /* \"#utility.yul\":19979:19980   */\n      dup3\n        /* \"#utility.yul\":19969:20004   */\n      tag_410\n      jumpi\n        /* \"#utility.yul\":19984:20002   */\n      tag_411\n      tag_208\n      jump\t// in\n    tag_411:\n        /* \"#utility.yul\":19969:20004   */\n    tag_410:\n        /* \"#utility.yul\":20026:20027   */\n      dup3\n        /* \"#utility.yul\":20023:20024   */\n      dup3\n        /* \"#utility.yul\":20019:20028   */\n      div\n        /* \"#utility.yul\":20014:20028   */\n      swap1\n      pop\n        /* \"#utility.yul\":19849:20034   */\n      swap3\n      swap2\n      pop\n      pop\n      jump\t// out\n        /* \"#utility.yul\":20040:20331   */\n    tag_209:\n        /* \"#utility.yul\":20180:20214   */\n      0x5468657265206d757374206265206d6f7265207468616e2068616c66206f6620\n        /* \"#utility.yul\":20176:20177   */\n      0x00\n        /* \"#utility.yul\":20168:20174   */\n      dup3\n        /* \"#utility.yul\":20164:20178   */\n      add\n        /* \"#utility.yul\":20157:20215   */\n      mstore\n        /* \"#utility.yul\":20249:20283   */\n      0x74686520636f6e7472696275746f727320746f206d616b652061207061796d65\n        /* \"#utility.yul\":20244:20246   */\n      0x20\n        /* \"#utility.yul\":20236:20242   */\n      dup3\n        /* \"#utility.yul\":20232:20247   */\n      add\n        /* \"#utility.yul\":20225:20284   */\n      mstore\n        /* \"#utility.yul\":20318:20323   */\n      0x6e742e0000000000000000000000000000000000000000000000000000000000\n        /* \"#utility.yul\":20313:20315   */\n      0x40\n        /* \"#utility.yul\":20305:20311   */\n      dup3\n        /* \"#utility.yul\":20301:20316   */\n      add\n        /* \"#utility.yul\":20294:20324   */\n      mstore\n        /* \"#utility.yul\":20040:20331   */\n      pop\n      jump\t// out\n        /* \"#utility.yul\":20337:20703   */\n    tag_210:\n        /* \"#utility.yul\":20479:20482   */\n      0x00\n        /* \"#utility.yul\":20500:20567   */\n      tag_414\n        /* \"#utility.yul\":20564:20566   */\n      0x43\n        /* \"#utility.yul\":20559:20562   */\n      dup4\n        /* \"#utility.yul\":20500:20567   */\n      tag_168\n      jump\t// in\n    tag_414:\n        /* \"#utility.yul\":20493:20567   */\n      swap2\n      pop\n        /* \"#utility.yul\":20576:20669   */\n      tag_415\n        /* \"#utility.yul\":20665:20668   */\n      dup3\n        /* \"#utility.yul\":20576:20669   */\n      tag_209\n      jump\t// in\n    tag_415:\n        /* \"#utility.yul\":20694:20696   */\n      0x60\n        /* \"#utility.yul\":20689:20692   */\n      dup3\n        /* \"#utility.yul\":20685:20697   */\n      add\n        /* \"#utility.yul\":20678:20697   */\n      swap1\n      pop\n        /* \"#utility.yul\":20337:20703   */\n      swap2\n      swap1\n      pop\n      jump\t// out\n        /* \"#utility.yul\":20709:21128   */\n    tag_128:\n        /* \"#utility.yul\":20875:20879   */\n      0x00\n        /* \"#utility.yul\":20913:20915   */\n      0x20\n        /* \"#utility.yul\":20902:20911   */\n      dup3\n        /* \"#utility.yul\":20898:20916   */\n      add\n        /* \"#utility.yul\":20890:20916   */\n      swap1\n      pop\n        /* \"#utility.yul\":20962:20971   */\n      dup2\n        /* \"#utility.yul\":20956:20960   */\n      dup2\n        /* \"#utility.yul\":20952:20972   */\n      sub\n        /* \"#utility.yul\":20948:20949   */\n      0x00\n        /* \"#utility.yul\":20937:20946   */\n      dup4\n        /* \"#utility.yul\":20933:20950   */\n      add\n        /* \"#utility.yul\":20926:20973   */\n      mstore\n        /* \"#utility.yul\":20990:21121   */\n      tag_417\n        /* \"#utility.yul\":21116:21120   */\n      dup2\n        /* \"#utility.yul\":20990:21121   */\n      tag_210\n      jump\t// in\n    tag_417:\n        /* \"#utility.yul\":20982:21121   */\n      swap1\n      pop\n        /* \"#utility.yul\":20709:21128   */\n      swap2\n      swap1\n      pop\n      jump\t// out\n        /* \"#utility.yul\":21134:21316   */\n    tag_211:\n        /* \"#utility.yul\":21274:21308   */\n      0x596f756120617265206e6f7420656c676962696c6520666f7220726566756e64\n        /* \"#utility.yul\":21270:21271   */\n      0x00\n        /* \"#utility.yul\":21262:21268   */\n      dup3\n        /* \"#utility.yul\":21258:21272   */\n      add\n        /* \"#utility.yul\":21251:21309   */\n      mstore\n        /* \"#utility.yul\":21134:21316   */\n      pop\n      jump\t// out\n        /* \"#utility.yul\":21322:21688   */\n    tag_212:\n        /* \"#utility.yul\":21464:21467   */\n      0x00\n        /* \"#utility.yul\":21485:21552   */\n      tag_420\n        /* \"#utility.yul\":21549:21551   */\n      0x20\n        /* \"#utility.yul\":21544:21547   */\n      dup4\n        /* \"#utility.yul\":21485:21552   */\n      tag_168\n      jump\t// in\n    tag_420:\n        /* \"#utility.yul\":21478:21552   */\n      swap2\n      pop\n        /* \"#utility.yul\":21561:21654   */\n      tag_421\n        /* \"#utility.yul\":21650:21653   */\n      dup3\n        /* \"#utility.yul\":21561:21654   */\n      tag_211\n      jump\t// in\n    tag_421:\n        /* \"#utility.yul\":21679:21681   */\n      0x20\n        /* \"#utility.yul\":21674:21677   */\n      dup3\n        /* \"#utility.yul\":21670:21682   */\n      add\n        /* \"#utility.yul\":21663:21682   */\n      swap1\n      pop\n        /* \"#utility.yul\":21322:21688   */\n      swap2\n      swap1\n      pop\n      jump\t// out\n        /* \"#utility.yul\":21694:22113   */\n    tag_135:\n        /* \"#utility.yul\":21860:21864   */\n      0x00\n        /* \"#utility.yul\":21898:21900   */\n      0x20\n        /* \"#utility.yul\":21887:21896   */\n      dup3\n        /* \"#utility.yul\":21883:21901   */\n      add\n        /* \"#utility.yul\":21875:21901   */\n      swap1\n      pop\n        /* \"#utility.yul\":21947:21956   */\n      dup2\n        /* \"#utility.yul\":21941:21945   */\n      dup2\n        /* \"#utility.yul\":21937:21957   */\n      sub\n        /* \"#utility.yul\":21933:21934   */\n      0x00\n        /* \"#utility.yul\":21922:21931   */\n      dup4\n        /* \"#utility.yul\":21918:21935   */\n      add\n        /* \"#utility.yul\":21911:21958   */\n      mstore\n        /* \"#utility.yul\":21975:22106   */\n      tag_423\n        /* \"#utility.yul\":22101:22105   */\n      dup2\n        /* \"#utility.yul\":21975:22106   */\n      tag_212\n      jump\t// in\n    tag_423:\n        /* \"#utility.yul\":21967:22106   */\n      swap1\n      pop\n        /* \"#utility.yul\":21694:22113   */\n      swap2\n      swap1\n      pop\n      jump\t// out\n        /* \"#utility.yul\":22119:22301   */\n    tag_213:\n        /* \"#utility.yul\":22259:22293   */\n      0x596f7520646f6e2774206861766520616e7920636f6e747269627574696f6e73\n        /* \"#utility.yul\":22255:22256   */\n      0x00\n        /* \"#utility.yul\":22247:22253   */\n      dup3\n        /* \"#utility.yul\":22243:22257   */\n      add\n        /* \"#utility.yul\":22236:22294   */\n      mstore\n        /* \"#utility.yul\":22119:22301   */\n      pop\n      jump\t// out\n        /* \"#utility.yul\":22307:22673   */\n    tag_214:\n        /* \"#utility.yul\":22449:22452   */\n      0x00\n        /* \"#utility.yul\":22470:22537   */\n      tag_426\n        /* \"#utility.yul\":22534:22536   */\n      0x20\n        /* \"#utility.yul\":22529:22532   */\n      dup4\n        /* \"#utility.yul\":22470:22537   */\n      tag_168\n      jump\t// in\n    tag_426:\n        /* \"#utility.yul\":22463:22537   */\n      swap2\n      pop\n        /* \"#utility.yul\":22546:22639   */\n      tag_427\n        /* \"#utility.yul\":22635:22638   */\n      dup3\n        /* \"#utility.yul\":22546:22639   */\n      tag_213\n      jump\t// in\n    tag_427:\n        /* \"#utility.yul\":22664:22666   */\n      0x20\n        /* \"#utility.yul\":22659:22662   */\n      dup3\n        /* \"#utility.yul\":22655:22667   */\n      add\n        /* \"#utility.yul\":22648:22667   */\n      swap1\n      pop\n        /* \"#utility.yul\":22307:22673   */\n      swap2\n      swap1\n      pop\n      jump\t// out\n        /* \"#utility.yul\":22679:23098   */\n    tag_138:\n        /* \"#utility.yul\":22845:22849   */\n      0x00\n        /* \"#utility.yul\":22883:22885   */\n      0x20\n        /* \"#utility.yul\":22872:22881   */\n      dup3\n        /* \"#utility.yul\":22868:22886   */\n      add\n        /* \"#utility.yul\":22860:22886   */\n      swap1\n      pop\n        /* \"#utility.yul\":22932:22941   */\n      dup2\n        /* \"#utility.yul\":22926:22930   */\n      dup2\n        /* \"#utility.yul\":22922:22942   */\n      sub\n        /* \"#utility.yul\":22918:22919   */\n      0x00\n        /* \"#utility.yul\":22907:22916   */\n      dup4\n        /* \"#utility.yul\":22903:22920   */\n      add\n        /* \"#utility.yul\":22896:22943   */\n      mstore\n        /* \"#utility.yul\":22960:23091   */\n      tag_429\n        /* \"#utility.yul\":23086:23090   */\n      dup2\n        /* \"#utility.yul\":22960:23091   */\n      tag_214\n      jump\t// in\n    tag_429:\n        /* \"#utility.yul\":22952:23091   */\n      swap1\n      pop\n        /* \"#utility.yul\":22679:23098   */\n      swap2\n      swap1\n      pop\n      jump\t// out\n\n    auxdata: 0xa26469706673582212209da1371b65e38ae0d1dfdebee9d9eb9388721f84d01ad3c33659b1ab647d34a964736f6c634300081a0033\n}\n",
				"bytecode": {
					"linkReferences": {},
					"object": "608060405234801561000f575f80fd5b50604051611a56380380611a56833981810160405281019061003191906100d0565b816006819055508042610044919061013b565b60058190555060646004819055503360035f6101000a81548173ffffffffffffffffffffffffffffffffffffffff021916908373ffffffffffffffffffffffffffffffffffffffff160217905550505061016e565b5f80fd5b5f819050919050565b6100af8161009d565b81146100b9575f80fd5b50565b5f815190506100ca816100a6565b92915050565b5f80604083850312156100e6576100e5610099565b5b5f6100f3858286016100bc565b9250506020610104858286016100bc565b9150509250929050565b7f4e487b71000000000000000000000000000000000000000000000000000000005f52601160045260245ffd5b5f6101458261009d565b91506101508361009d565b92508282019050808211156101685761016761010e565b5b92915050565b6118db8061017b5f395ff3fe6080604052600436106100e7575f3560e01c80635114cb52116100895780639fb42b1f116100585780639fb42b1f146102a7578063c59ee1dc146102d1578063d4b83992146102fb578063dd27f68c14610325576100e7565b80635114cb52146101ff578063590e1ae3146102275780636f9fb98a1461023d57806381d12c5814610267576100e7565b806329dcb0cf116100c557806329dcb0cf1461015b5780633eb7647b14610185578063481c6a75146101ad5780634cb6f4a5146101d7576100e7565b8063029eabcb146100eb5780631f6d4942146100f557806324274ee914610131575b5f80fd5b6100f361034f565b005b348015610100575f80fd5b5061011b60048036038101906101169190610cd8565b6104a0565b6040516101289190610d1b565b60405180910390f35b34801561013c575f80fd5b506101456104b4565b6040516101529190610d1b565b60405180910390f35b348015610166575f80fd5b5061016f6104ba565b60405161017c9190610d1b565b60405180910390f35b348015610190575f80fd5b506101ab60048036038101906101a69190610dfa565b6104c0565b005b3480156101b8575f80fd5b506101c1610605565b6040516101ce9190610e7a565b60405180910390f35b3480156101e2575f80fd5b506101fd60048036038101906101f89190610e93565b61062a565b005b34801561020a575f80fd5b5061022560048036038101906102209190610e93565b6107c1565b005b348015610232575f80fd5b5061023b6109e0565b005b348015610248575f80fd5b50610251610b74565b60405161025e9190610d1b565b60405180910390f35b348015610272575f80fd5b5061028d60048036038101906102889190610e93565b610b7b565b60405161029e959493929190610f57565b60405180910390f35b3480156102b2575f80fd5b506102bb610c5e565b6040516102c89190610d1b565b60405180910390f35b3480156102dc575f80fd5b506102e5610c64565b6040516102f29190610d1b565b60405180910390f35b348015610306575f80fd5b5061030f610c6a565b60405161031c9190610d1b565b60405180910390f35b348015610330575f80fd5b50610339610c70565b6040516103469190610d1b565b60405180910390f35b600554421115610394576040517f08c379a000000000000000000000000000000000000000000000000000000000815260040161038b9061101f565b60405180910390fd5b6004543410156103d9576040517f08c379a00000000000000000000000000000000000000000000000000000000081526004016103d090611087565b60405180910390fd5b5f805f3373ffffffffffffffffffffffffffffffffffffffff1673ffffffffffffffffffffffffffffffffffffffff1681526020019081526020015f2054036104345760085f81548092919061042e906110d2565b91905055505b345f803373ffffffffffffffffffffffffffffffffffffffff1673ffffffffffffffffffffffffffffffffffffffff1681526020019081526020015f205f82825461047f9190611119565b925050819055503460075f8282546104979190611119565b92505081905550565b5f602052805f5260405f205f915090505481565b60085481565b60055481565b60035f9054906101000a900473ffffffffffffffffffffffffffffffffffffffff1673ffffffffffffffffffffffffffffffffffffffff163373ffffffffffffffffffffffffffffffffffffffff161461054f576040517f08c379a0000000000000000000000000000000000000000000000000000000008152600401610546906111bc565b60405180910390fd5b5f60015f60025481526020019081526020015f20905060025f815480929190610577906110d2565b91905055508484825f01918261058e92919061140b565b5082816001015f6101000a81548173ffffffffffffffffffffffffffffffffffffffff021916908373ffffffffffffffffffffffffffffffffffffffff1602179055508181600201819055505f816003015f6101000a81548160ff0219169083151502179055505f81600401819055505050505050565b60035f9054906101000a900473ffffffffffffffffffffffffffffffffffffffff1681565b5f805f3373ffffffffffffffffffffffffffffffffffffffff1673ffffffffffffffffffffffffffffffffffffffff1681526020019081526020015f2054116106a8576040517f08c379a000000000000000000000000000000000000000000000000000000000815260040161069f90611548565b60405180910390fd5b5f60015f8381526020019081526020015f2090505f1515816005015f3373ffffffffffffffffffffffffffffffffffffffff1673ffffffffffffffffffffffffffffffffffffffff1681526020019081526020015f205f9054906101000a900460ff1615151461074d576040517f08c379a0000000000000000000000000000000000000000000000000000000008152600401610744906115b0565b60405180910390fd5b6001816005015f3373ffffffffffffffffffffffffffffffffffffffff1673ffffffffffffffffffffffffffffffffffffffff1681526020019081526020015f205f6101000a81548160ff021916908315150217905550806004015f8154809291906107b8906110d2565b91905055505050565b60035f9054906101000a900473ffffffffffffffffffffffffffffffffffffffff1673ffffffffffffffffffffffffffffffffffffffff163373ffffffffffffffffffffffffffffffffffffffff1614610850576040517f08c379a0000000000000000000000000000000000000000000000000000000008152600401610847906111bc565b60405180910390fd5b6006546007541015610897576040517f08c379a000000000000000000000000000000000000000000000000000000000815260040161088e90611618565b60405180910390fd5b5f60015f8381526020019081526020015f2090505f1515816003015f9054906101000a900460ff16151514610901576040517f08c379a00000000000000000000000000000000000000000000000000000000081526004016108f8906116a6565b60405180910390fd5b600260085461091091906116f1565b816004015411610955576040517f08c379a000000000000000000000000000000000000000000000000000000000815260040161094c906117b7565b60405180910390fd5b806001015f9054906101000a900473ffffffffffffffffffffffffffffffffffffffff1673ffffffffffffffffffffffffffffffffffffffff166108fc826002015490811502906040515f60405180830381858888f193505050501580156109bf573d5f803e3d5ffd5b506001816003015f6101000a81548160ff0219169083151502179055505050565b600554421180156109f45750600654600754105b610a33576040517f08c379a0000000000000000000000000000000000000000000000000000000008152600401610a2a9061181f565b60405180910390fd5b5f805f3373ffffffffffffffffffffffffffffffffffffffff1673ffffffffffffffffffffffffffffffffffffffff1681526020019081526020015f205411610ab1576040517f08c379a0000000000000000000000000000000000000000000000000000000008152600401610aa890611887565b60405180910390fd5b3373ffffffffffffffffffffffffffffffffffffffff166108fc5f803373ffffffffffffffffffffffffffffffffffffffff1673ffffffffffffffffffffffffffffffffffffffff1681526020019081526020015f205490811502906040515f60405180830381858888f19350505050158015610b30573d5f803e3d5ffd5b505f805f3373ffffffffffffffffffffffffffffffffffffffff1673ffffffffffffffffffffffffffffffffffffffff1681526020019081526020015f2081905550565b5f47905090565b6001602052805f5260405f205f91509050805f018054610b9a9061123e565b80601f0160208091040260200160405190810160405280929190818152602001828054610bc69061123e565b8015610c115780601f10610be857610100808354040283529160200191610c11565b820191905f5260205f20905b815481529060010190602001808311610bf457829003601f168201915b505050505090806001015f9054906101000a900473ffffffffffffffffffffffffffffffffffffffff1690806002015490806003015f9054906101000a900460ff16908060040154905085565b60025481565b60075481565b60065481565b60045481565b5f80fd5b5f80fd5b5f73ffffffffffffffffffffffffffffffffffffffff82169050919050565b5f610ca782610c7e565b9050919050565b610cb781610c9d565b8114610cc1575f80fd5b50565b5f81359050610cd281610cae565b92915050565b5f60208284031215610ced57610cec610c76565b5b5f610cfa84828501610cc4565b91505092915050565b5f819050919050565b610d1581610d03565b82525050565b5f602082019050610d2e5f830184610d0c565b92915050565b5f80fd5b5f80fd5b5f80fd5b5f8083601f840112610d5557610d54610d34565b5b8235905067ffffffffffffffff811115610d7257610d71610d38565b5b602083019150836001820283011115610d8e57610d8d610d3c565b5b9250929050565b5f610d9f82610c7e565b9050919050565b610daf81610d95565b8114610db9575f80fd5b50565b5f81359050610dca81610da6565b92915050565b610dd981610d03565b8114610de3575f80fd5b50565b5f81359050610df481610dd0565b92915050565b5f805f8060608587031215610e1257610e11610c76565b5b5f85013567ffffffffffffffff811115610e2f57610e2e610c7a565b5b610e3b87828801610d40565b94509450506020610e4e87828801610dbc565b9250506040610e5f87828801610de6565b91505092959194509250565b610e7481610c9d565b82525050565b5f602082019050610e8d5f830184610e6b565b92915050565b5f60208284031215610ea857610ea7610c76565b5b5f610eb584828501610de6565b91505092915050565b5f81519050919050565b5f82825260208201905092915050565b8281835e5f83830152505050565b5f601f19601f8301169050919050565b5f610f0082610ebe565b610f0a8185610ec8565b9350610f1a818560208601610ed8565b610f2381610ee6565b840191505092915050565b610f3781610d95565b82525050565b5f8115159050919050565b610f5181610f3d565b82525050565b5f60a0820190508181035f830152610f6f8188610ef6565b9050610f7e6020830187610f2e565b610f8b6040830186610d0c565b610f986060830185610f48565b610fa56080830184610d0c565b9695505050505050565b7f54686520646561646c696e65206f6620746865207265717565737473206861735f8201527f206265656e2065786365656465642e0000000000000000000000000000000000602082015250565b5f611009602f83610ec8565b915061101482610faf565b604082019050919050565b5f6020820190508181035f83015261103681610ffd565b9050919050565b7f4d696e696d756d20636f6e7269627574696f6e206973203130302077656900005f82015250565b5f611071601e83610ec8565b915061107c8261103d565b602082019050919050565b5f6020820190508181035f83015261109e81611065565b9050919050565b7f4e487b71000000000000000000000000000000000000000000000000000000005f52601160045260245ffd5b5f6110dc82610d03565b91507fffffffffffffffffffffffffffffffffffffffffffffffffffffffffffffffff820361110e5761110d6110a5565b5b600182019050919050565b5f61112382610d03565b915061112e83610d03565b9250828201905080821115611146576111456110a5565b5b92915050565b7f4f6e6c7920746865206d616e616765722063616e20706572666f726d207468695f8201527f7320616374696f6e2e0000000000000000000000000000000000000000000000602082015250565b5f6111a6602983610ec8565b91506111b18261114c565b604082019050919050565b5f6020820190508181035f8301526111d38161119a565b9050919050565b5f82905092915050565b7f4e487b71000000000000000000000000000000000000000000000000000000005f52604160045260245ffd5b7f4e487b71000000000000000000000000000000000000000000000000000000005f52602260045260245ffd5b5f600282049050600182168061125557607f821691505b60208210810361126857611267611211565b5b50919050565b5f819050815f5260205f209050919050565b5f6020601f8301049050919050565b5f82821b905092915050565b5f600883026112ca7fffffffffffffffffffffffffffffffffffffffffffffffffffffffffffffffff8261128f565b6112d4868361128f565b95508019841693508086168417925050509392505050565b5f819050919050565b5f61130f61130a61130584610d03565b6112ec565b610d03565b9050919050565b5f819050919050565b611328836112f5565b61133c61133482611316565b84845461129b565b825550505050565b5f90565b611350611344565b61135b81848461131f565b505050565b5b8181101561137e576113735f82611348565b600181019050611361565b5050565b601f8211156113c3576113948161126e565b61139d84611280565b810160208510156113ac578190505b6113c06113b885611280565b830182611360565b50505b505050565b5f82821c905092915050565b5f6113e35f19846008026113c8565b1980831691505092915050565b5f6113fb83836113d4565b9150826002028217905092915050565b61141583836111da565b67ffffffffffffffff81111561142e5761142d6111e4565b5b611438825461123e565b611443828285611382565b5f601f831160018114611470575f841561145e578287013590505b61146885826113f0565b8655506114cf565b601f19841661147e8661126e565b5f5b828110156114a557848901358255600182019150602085019450602081019050611480565b868310156114c257848901356114be601f8916826113d4565b8355505b6001600288020188555050505b50505050505050565b7f596f7520646f6e2774206861766520616e7920636f6e747269627574696f6e735f8201527f2e00000000000000000000000000000000000000000000000000000000000000602082015250565b5f611532602183610ec8565b915061153d826114d8565b604082019050919050565b5f6020820190508181035f83015261155f81611526565b9050919050565b7f596f7520616c726561647920766f74656420666f7220697421000000000000005f82015250565b5f61159a601983610ec8565b91506115a582611566565b602082019050919050565b5f6020820190508181035f8301526115c78161158e565b9050919050565b7f5468652074617267657420686173206e6f74206265656e20726561636865642e5f82015250565b5f611602602083610ec8565b915061160d826115ce565b602082019050919050565b5f6020820190508181035f83015261162f816115f6565b9050919050565b7f5468697320726571756573742068617320616c7265616479206265656e20636f5f8201527f6d706c6574656400000000000000000000000000000000000000000000000000602082015250565b5f611690602783610ec8565b915061169b82611636565b604082019050919050565b5f6020820190508181035f8301526116bd81611684565b9050919050565b7f4e487b71000000000000000000000000000000000000000000000000000000005f52601260045260245ffd5b5f6116fb82610d03565b915061170683610d03565b925082611716576117156116c4565b5b828204905092915050565b7f5468657265206d757374206265206d6f7265207468616e2068616c66206f66205f8201527f74686520636f6e7472696275746f727320746f206d616b652061207061796d6560208201527f6e742e0000000000000000000000000000000000000000000000000000000000604082015250565b5f6117a1604383610ec8565b91506117ac82611721565b606082019050919050565b5f6020820190508181035f8301526117ce81611795565b9050919050565b7f596f756120617265206e6f7420656c676962696c6520666f7220726566756e645f82015250565b5f611809602083610ec8565b9150611814826117d5565b602082019050919050565b5f6020820190508181035f830152611836816117fd565b9050919050565b7f596f7520646f6e2774206861766520616e7920636f6e747269627574696f6e735f82015250565b5f611871602083610ec8565b915061187c8261183d565b602082019050919050565b5f6020820190508181035f83015261189e81611865565b905091905056fea26469706673582212209da1371b65e38ae0d1dfdebee9d9eb9388721f84d01ad3c33659b1ab647d34a964736f6c634300081a0033",
					"opcodes": "PUSH1 0x80 PUSH1 0x40 MSTORE CALLVALUE DUP1 ISZERO PUSH2 0xF JUMPI PUSH0 DUP1 REVERT JUMPDEST POP PUSH1 0x40 MLOAD PUSH2 0x1A56 CODESIZE SUB DUP1 PUSH2 0x1A56 DUP4 CODECOPY DUP2 DUP2 ADD PUSH1 0x40 MSTORE DUP2 ADD SWAP1 PUSH2 0x31 SWAP2 SWAP1 PUSH2 0xD0 JUMP JUMPDEST DUP2 PUSH1 0x6 DUP2 SWAP1 SSTORE POP DUP1 TIMESTAMP PUSH2 0x44 SWAP2 SWAP1 PUSH2 0x13B JUMP JUMPDEST PUSH1 0x5 DUP2 SWAP1 SSTORE POP PUSH1 0x64 PUSH1 0x4 DUP2 SWAP1 SSTORE POP CALLER PUSH1 0x3 PUSH0 PUSH2 0x100 EXP DUP2 SLOAD DUP2 PUSH20 0xFFFFFFFFFFFFFFFFFFFFFFFFFFFFFFFFFFFFFFFF MUL NOT AND SWAP1 DUP4 PUSH20 0xFFFFFFFFFFFFFFFFFFFFFFFFFFFFFFFFFFFFFFFF AND MUL OR SWAP1 SSTORE POP POP POP PUSH2 0x16E JUMP JUMPDEST PUSH0 DUP1 REVERT JUMPDEST PUSH0 DUP2 SWAP1 POP SWAP2 SWAP1 POP JUMP JUMPDEST PUSH2 0xAF DUP2 PUSH2 0x9D JUMP JUMPDEST DUP2 EQ PUSH2 0xB9 JUMPI PUSH0 DUP1 REVERT JUMPDEST POP JUMP JUMPDEST PUSH0 DUP2 MLOAD SWAP1 POP PUSH2 0xCA DUP2 PUSH2 0xA6 JUMP JUMPDEST SWAP3 SWAP2 POP POP JUMP JUMPDEST PUSH0 DUP1 PUSH1 0x40 DUP4 DUP6 SUB SLT ISZERO PUSH2 0xE6 JUMPI PUSH2 0xE5 PUSH2 0x99 JUMP JUMPDEST JUMPDEST PUSH0 PUSH2 0xF3 DUP6 DUP3 DUP7 ADD PUSH2 0xBC JUMP JUMPDEST SWAP3 POP POP PUSH1 0x20 PUSH2 0x104 DUP6 DUP3 DUP7 ADD PUSH2 0xBC JUMP JUMPDEST SWAP2 POP POP SWAP3 POP SWAP3 SWAP1 POP JUMP JUMPDEST PUSH32 0x4E487B7100000000000000000000000000000000000000000000000000000000 PUSH0 MSTORE PUSH1 0x11 PUSH1 0x4 MSTORE PUSH1 0x24 PUSH0 REVERT JUMPDEST PUSH0 PUSH2 0x145 DUP3 PUSH2 0x9D JUMP JUMPDEST SWAP2 POP PUSH2 0x150 DUP4 PUSH2 0x9D JUMP JUMPDEST SWAP3 POP DUP3 DUP3 ADD SWAP1 POP DUP1 DUP3 GT ISZERO PUSH2 0x168 JUMPI PUSH2 0x167 PUSH2 0x10E JUMP JUMPDEST JUMPDEST SWAP3 SWAP2 POP POP JUMP JUMPDEST PUSH2 0x18DB DUP1 PUSH2 0x17B PUSH0 CODECOPY PUSH0 RETURN INVALID PUSH1 0x80 PUSH1 0x40 MSTORE PUSH1 0x4 CALLDATASIZE LT PUSH2 0xE7 JUMPI PUSH0 CALLDATALOAD PUSH1 0xE0 SHR DUP1 PUSH4 0x5114CB52 GT PUSH2 0x89 JUMPI DUP1 PUSH4 0x9FB42B1F GT PUSH2 0x58 JUMPI DUP1 PUSH4 0x9FB42B1F EQ PUSH2 0x2A7 JUMPI DUP1 PUSH4 0xC59EE1DC EQ PUSH2 0x2D1 JUMPI DUP1 PUSH4 0xD4B83992 EQ PUSH2 0x2FB JUMPI DUP1 PUSH4 0xDD27F68C EQ PUSH2 0x325 JUMPI PUSH2 0xE7 JUMP JUMPDEST DUP1 PUSH4 0x5114CB52 EQ PUSH2 0x1FF JUMPI DUP1 PUSH4 0x590E1AE3 EQ PUSH2 0x227 JUMPI DUP1 PUSH4 0x6F9FB98A EQ PUSH2 0x23D JUMPI DUP1 PUSH4 0x81D12C58 EQ PUSH2 0x267 JUMPI PUSH2 0xE7 JUMP JUMPDEST DUP1 PUSH4 0x29DCB0CF GT PUSH2 0xC5 JUMPI DUP1 PUSH4 0x29DCB0CF EQ PUSH2 0x15B JUMPI DUP1 PUSH4 0x3EB7647B EQ PUSH2 0x185 JUMPI DUP1 PUSH4 0x481C6A75 EQ PUSH2 0x1AD JUMPI DUP1 PUSH4 0x4CB6F4A5 EQ PUSH2 0x1D7 JUMPI PUSH2 0xE7 JUMP JUMPDEST DUP1 PUSH4 0x29EABCB EQ PUSH2 0xEB JUMPI DUP1 PUSH4 0x1F6D4942 EQ PUSH2 0xF5 JUMPI DUP1 PUSH4 0x24274EE9 EQ PUSH2 0x131 JUMPI JUMPDEST PUSH0 DUP1 REVERT JUMPDEST PUSH2 0xF3 PUSH2 0x34F JUMP JUMPDEST STOP JUMPDEST CALLVALUE DUP1 ISZERO PUSH2 0x100 JUMPI PUSH0 DUP1 REVERT JUMPDEST POP PUSH2 0x11B PUSH1 0x4 DUP1 CALLDATASIZE SUB DUP2 ADD SWAP1 PUSH2 0x116 SWAP2 SWAP1 PUSH2 0xCD8 JUMP JUMPDEST PUSH2 0x4A0 JUMP JUMPDEST PUSH1 0x40 MLOAD PUSH2 0x128 SWAP2 SWAP1 PUSH2 0xD1B JUMP JUMPDEST PUSH1 0x40 MLOAD DUP1 SWAP2 SUB SWAP1 RETURN JUMPDEST CALLVALUE DUP1 ISZERO PUSH2 0x13C JUMPI PUSH0 DUP1 REVERT JUMPDEST POP PUSH2 0x145 PUSH2 0x4B4 JUMP JUMPDEST PUSH1 0x40 MLOAD PUSH2 0x152 SWAP2 SWAP1 PUSH2 0xD1B JUMP JUMPDEST PUSH1 0x40 MLOAD DUP1 SWAP2 SUB SWAP1 RETURN JUMPDEST CALLVALUE DUP1 ISZERO PUSH2 0x166 JUMPI PUSH0 DUP1 REVERT JUMPDEST POP PUSH2 0x16F PUSH2 0x4BA JUMP JUMPDEST PUSH1 0x40 MLOAD PUSH2 0x17C SWAP2 SWAP1 PUSH2 0xD1B JUMP JUMPDEST PUSH1 0x40 MLOAD DUP1 SWAP2 SUB SWAP1 RETURN JUMPDEST CALLVALUE DUP1 ISZERO PUSH2 0x190 JUMPI PUSH0 DUP1 REVERT JUMPDEST POP PUSH2 0x1AB PUSH1 0x4 DUP1 CALLDATASIZE SUB DUP2 ADD SWAP1 PUSH2 0x1A6 SWAP2 SWAP1 PUSH2 0xDFA JUMP JUMPDEST PUSH2 0x4C0 JUMP JUMPDEST STOP JUMPDEST CALLVALUE DUP1 ISZERO PUSH2 0x1B8 JUMPI PUSH0 DUP1 REVERT JUMPDEST POP PUSH2 0x1C1 PUSH2 0x605 JUMP JUMPDEST PUSH1 0x40 MLOAD PUSH2 0x1CE SWAP2 SWAP1 PUSH2 0xE7A JUMP JUMPDEST PUSH1 0x40 MLOAD DUP1 SWAP2 SUB SWAP1 RETURN JUMPDEST CALLVALUE DUP1 ISZERO PUSH2 0x1E2 JUMPI PUSH0 DUP1 REVERT JUMPDEST POP PUSH2 0x1FD PUSH1 0x4 DUP1 CALLDATASIZE SUB DUP2 ADD SWAP1 PUSH2 0x1F8 SWAP2 SWAP1 PUSH2 0xE93 JUMP JUMPDEST PUSH2 0x62A JUMP JUMPDEST STOP JUMPDEST CALLVALUE DUP1 ISZERO PUSH2 0x20A JUMPI PUSH0 DUP1 REVERT JUMPDEST POP PUSH2 0x225 PUSH1 0x4 DUP1 CALLDATASIZE SUB DUP2 ADD SWAP1 PUSH2 0x220 SWAP2 SWAP1 PUSH2 0xE93 JUMP JUMPDEST PUSH2 0x7C1 JUMP JUMPDEST STOP JUMPDEST CALLVALUE DUP1 ISZERO PUSH2 0x232 JUMPI PUSH0 DUP1 REVERT JUMPDEST POP PUSH2 0x23B PUSH2 0x9E0 JUMP JUMPDEST STOP JUMPDEST CALLVALUE DUP1 ISZERO PUSH2 0x248 JUMPI PUSH0 DUP1 REVERT JUMPDEST POP PUSH2 0x251 PUSH2 0xB74 JUMP JUMPDEST PUSH1 0x40 MLOAD PUSH2 0x25E SWAP2 SWAP1 PUSH2 0xD1B JUMP JUMPDEST PUSH1 0x40 MLOAD DUP1 SWAP2 SUB SWAP1 RETURN JUMPDEST CALLVALUE DUP1 ISZERO PUSH2 0x272 JUMPI PUSH0 DUP1 REVERT JUMPDEST POP PUSH2 0x28D PUSH1 0x4 DUP1 CALLDATASIZE SUB DUP2 ADD SWAP1 PUSH2 0x288 SWAP2 SWAP1 PUSH2 0xE93 JUMP JUMPDEST PUSH2 0xB7B JUMP JUMPDEST PUSH1 0x40 MLOAD PUSH2 0x29E SWAP6 SWAP5 SWAP4 SWAP3 SWAP2 SWAP1 PUSH2 0xF57 JUMP JUMPDEST PUSH1 0x40 MLOAD DUP1 SWAP2 SUB SWAP1 RETURN JUMPDEST CALLVALUE DUP1 ISZERO PUSH2 0x2B2 JUMPI PUSH0 DUP1 REVERT JUMPDEST POP PUSH2 0x2BB PUSH2 0xC5E JUMP JUMPDEST PUSH1 0x40 MLOAD PUSH2 0x2C8 SWAP2 SWAP1 PUSH2 0xD1B JUMP JUMPDEST PUSH1 0x40 MLOAD DUP1 SWAP2 SUB SWAP1 RETURN JUMPDEST CALLVALUE DUP1 ISZERO PUSH2 0x2DC JUMPI PUSH0 DUP1 REVERT JUMPDEST POP PUSH2 0x2E5 PUSH2 0xC64 JUMP JUMPDEST PUSH1 0x40 MLOAD PUSH2 0x2F2 SWAP2 SWAP1 PUSH2 0xD1B JUMP JUMPDEST PUSH1 0x40 MLOAD DUP1 SWAP2 SUB SWAP1 RETURN JUMPDEST CALLVALUE DUP1 ISZERO PUSH2 0x306 JUMPI PUSH0 DUP1 REVERT JUMPDEST POP PUSH2 0x30F PUSH2 0xC6A JUMP JUMPDEST PUSH1 0x40 MLOAD PUSH2 0x31C SWAP2 SWAP1 PUSH2 0xD1B JUMP JUMPDEST PUSH1 0x40 MLOAD DUP1 SWAP2 SUB SWAP1 RETURN JUMPDEST CALLVALUE DUP1 ISZERO PUSH2 0x330 JUMPI PUSH0 DUP1 REVERT JUMPDEST POP PUSH2 0x339 PUSH2 0xC70 JUMP JUMPDEST PUSH1 0x40 MLOAD PUSH2 0x346 SWAP2 SWAP1 PUSH2 0xD1B JUMP JUMPDEST PUSH1 0x40 MLOAD DUP1 SWAP2 SUB SWAP1 RETURN JUMPDEST PUSH1 0x5 SLOAD TIMESTAMP GT ISZERO PUSH2 0x394 JUMPI PUSH1 0x40 MLOAD PUSH32 0x8C379A000000000000000000000000000000000000000000000000000000000 DUP2 MSTORE PUSH1 0x4 ADD PUSH2 0x38B SWAP1 PUSH2 0x101F JUMP JUMPDEST PUSH1 0x40 MLOAD DUP1 SWAP2 SUB SWAP1 REVERT JUMPDEST PUSH1 0x4 SLOAD CALLVALUE LT ISZERO PUSH2 0x3D9 JUMPI PUSH1 0x40 MLOAD PUSH32 0x8C379A000000000000000000000000000000000000000000000000000000000 DUP2 MSTORE PUSH1 0x4 ADD PUSH2 0x3D0 SWAP1 PUSH2 0x1087 JUMP JUMPDEST PUSH1 0x40 MLOAD DUP1 SWAP2 SUB SWAP1 REVERT JUMPDEST PUSH0 DUP1 PUSH0 CALLER PUSH20 0xFFFFFFFFFFFFFFFFFFFFFFFFFFFFFFFFFFFFFFFF AND PUSH20 0xFFFFFFFFFFFFFFFFFFFFFFFFFFFFFFFFFFFFFFFF AND DUP2 MSTORE PUSH1 0x20 ADD SWAP1 DUP2 MSTORE PUSH1 0x20 ADD PUSH0 KECCAK256 SLOAD SUB PUSH2 0x434 JUMPI PUSH1 0x8 PUSH0 DUP2 SLOAD DUP1 SWAP3 SWAP2 SWAP1 PUSH2 0x42E SWAP1 PUSH2 0x10D2 JUMP JUMPDEST SWAP2 SWAP1 POP SSTORE POP JUMPDEST CALLVALUE PUSH0 DUP1 CALLER PUSH20 0xFFFFFFFFFFFFFFFFFFFFFFFFFFFFFFFFFFFFFFFF AND PUSH20 0xFFFFFFFFFFFFFFFFFFFFFFFFFFFFFFFFFFFFFFFF AND DUP2 MSTORE PUSH1 0x20 ADD SWAP1 DUP2 MSTORE PUSH1 0x20 ADD PUSH0 KECCAK256 PUSH0 DUP3 DUP3 SLOAD PUSH2 0x47F SWAP2 SWAP1 PUSH2 0x1119 JUMP JUMPDEST SWAP3 POP POP DUP2 SWAP1 SSTORE POP CALLVALUE PUSH1 0x7 PUSH0 DUP3 DUP3 SLOAD PUSH2 0x497 SWAP2 SWAP1 PUSH2 0x1119 JUMP JUMPDEST SWAP3 POP POP DUP2 SWAP1 SSTORE POP JUMP JUMPDEST PUSH0 PUSH1 0x20 MSTORE DUP1 PUSH0 MSTORE PUSH1 0x40 PUSH0 KECCAK256 PUSH0 SWAP2 POP SWAP1 POP SLOAD DUP2 JUMP JUMPDEST PUSH1 0x8 SLOAD DUP2 JUMP JUMPDEST PUSH1 0x5 SLOAD DUP2 JUMP JUMPDEST PUSH1 0x3 PUSH0 SWAP1 SLOAD SWAP1 PUSH2 0x100 EXP SWAP1 DIV PUSH20 0xFFFFFFFFFFFFFFFFFFFFFFFFFFFFFFFFFFFFFFFF AND PUSH20 0xFFFFFFFFFFFFFFFFFFFFFFFFFFFFFFFFFFFFFFFF AND CALLER PUSH20 0xFFFFFFFFFFFFFFFFFFFFFFFFFFFFFFFFFFFFFFFF AND EQ PUSH2 0x54F JUMPI PUSH1 0x40 MLOAD PUSH32 0x8C379A000000000000000000000000000000000000000000000000000000000 DUP2 MSTORE PUSH1 0x4 ADD PUSH2 0x546 SWAP1 PUSH2 0x11BC JUMP JUMPDEST PUSH1 0x40 MLOAD DUP1 SWAP2 SUB SWAP1 REVERT JUMPDEST PUSH0 PUSH1 0x1 PUSH0 PUSH1 0x2 SLOAD DUP2 MSTORE PUSH1 0x20 ADD SWAP1 DUP2 MSTORE PUSH1 0x20 ADD PUSH0 KECCAK256 SWAP1 POP PUSH1 0x2 PUSH0 DUP2 SLOAD DUP1 SWAP3 SWAP2 SWAP1 PUSH2 0x577 SWAP1 PUSH2 0x10D2 JUMP JUMPDEST SWAP2 SWAP1 POP SSTORE POP DUP5 DUP5 DUP3 PUSH0 ADD SWAP2 DUP3 PUSH2 0x58E SWAP3 SWAP2 SWAP1 PUSH2 0x140B JUMP JUMPDEST POP DUP3 DUP2 PUSH1 0x1 ADD PUSH0 PUSH2 0x100 EXP DUP2 SLOAD DUP2 PUSH20 0xFFFFFFFFFFFFFFFFFFFFFFFFFFFFFFFFFFFFFFFF MUL NOT AND SWAP1 DUP4 PUSH20 0xFFFFFFFFFFFFFFFFFFFFFFFFFFFFFFFFFFFFFFFF AND MUL OR SWAP1 SSTORE POP DUP2 DUP2 PUSH1 0x2 ADD DUP2 SWAP1 SSTORE POP PUSH0 DUP2 PUSH1 0x3 ADD PUSH0 PUSH2 0x100 EXP DUP2 SLOAD DUP2 PUSH1 0xFF MUL NOT AND SWAP1 DUP4 ISZERO ISZERO MUL OR SWAP1 SSTORE POP PUSH0 DUP2 PUSH1 0x4 ADD DUP2 SWAP1 SSTORE POP POP POP POP POP POP JUMP JUMPDEST PUSH1 0x3 PUSH0 SWAP1 SLOAD SWAP1 PUSH2 0x100 EXP SWAP1 DIV PUSH20 0xFFFFFFFFFFFFFFFFFFFFFFFFFFFFFFFFFFFFFFFF AND DUP2 JUMP JUMPDEST PUSH0 DUP1 PUSH0 CALLER PUSH20 0xFFFFFFFFFFFFFFFFFFFFFFFFFFFFFFFFFFFFFFFF AND PUSH20 0xFFFFFFFFFFFFFFFFFFFFFFFFFFFFFFFFFFFFFFFF AND DUP2 MSTORE PUSH1 0x20 ADD SWAP1 DUP2 MSTORE PUSH1 0x20 ADD PUSH0 KECCAK256 SLOAD GT PUSH2 0x6A8 JUMPI PUSH1 0x40 MLOAD PUSH32 0x8C379A000000000000000000000000000000000000000000000000000000000 DUP2 MSTORE PUSH1 0x4 ADD PUSH2 0x69F SWAP1 PUSH2 0x1548 JUMP JUMPDEST PUSH1 0x40 MLOAD DUP1 SWAP2 SUB SWAP1 REVERT JUMPDEST PUSH0 PUSH1 0x1 PUSH0 DUP4 DUP2 MSTORE PUSH1 0x20 ADD SWAP1 DUP2 MSTORE PUSH1 0x20 ADD PUSH0 KECCAK256 SWAP1 POP PUSH0 ISZERO ISZERO DUP2 PUSH1 0x5 ADD PUSH0 CALLER PUSH20 0xFFFFFFFFFFFFFFFFFFFFFFFFFFFFFFFFFFFFFFFF AND PUSH20 0xFFFFFFFFFFFFFFFFFFFFFFFFFFFFFFFFFFFFFFFF AND DUP2 MSTORE PUSH1 0x20 ADD SWAP1 DUP2 MSTORE PUSH1 0x20 ADD PUSH0 KECCAK256 PUSH0 SWAP1 SLOAD SWAP1 PUSH2 0x100 EXP SWAP1 DIV PUSH1 0xFF AND ISZERO ISZERO EQ PUSH2 0x74D JUMPI PUSH1 0x40 MLOAD PUSH32 0x8C379A000000000000000000000000000000000000000000000000000000000 DUP2 MSTORE PUSH1 0x4 ADD PUSH2 0x744 SWAP1 PUSH2 0x15B0 JUMP JUMPDEST PUSH1 0x40 MLOAD DUP1 SWAP2 SUB SWAP1 REVERT JUMPDEST PUSH1 0x1 DUP2 PUSH1 0x5 ADD PUSH0 CALLER PUSH20 0xFFFFFFFFFFFFFFFFFFFFFFFFFFFFFFFFFFFFFFFF AND PUSH20 0xFFFFFFFFFFFFFFFFFFFFFFFFFFFFFFFFFFFFFFFF AND DUP2 MSTORE PUSH1 0x20 ADD SWAP1 DUP2 MSTORE PUSH1 0x20 ADD PUSH0 KECCAK256 PUSH0 PUSH2 0x100 EXP DUP2 SLOAD DUP2 PUSH1 0xFF MUL NOT AND SWAP1 DUP4 ISZERO ISZERO MUL OR SWAP1 SSTORE POP DUP1 PUSH1 0x4 ADD PUSH0 DUP2 SLOAD DUP1 SWAP3 SWAP2 SWAP1 PUSH2 0x7B8 SWAP1 PUSH2 0x10D2 JUMP JUMPDEST SWAP2 SWAP1 POP SSTORE POP POP POP JUMP JUMPDEST PUSH1 0x3 PUSH0 SWAP1 SLOAD SWAP1 PUSH2 0x100 EXP SWAP1 DIV PUSH20 0xFFFFFFFFFFFFFFFFFFFFFFFFFFFFFFFFFFFFFFFF AND PUSH20 0xFFFFFFFFFFFFFFFFFFFFFFFFFFFFFFFFFFFFFFFF AND CALLER PUSH20 0xFFFFFFFFFFFFFFFFFFFFFFFFFFFFFFFFFFFFFFFF AND EQ PUSH2 0x850 JUMPI PUSH1 0x40 MLOAD PUSH32 0x8C379A000000000000000000000000000000000000000000000000000000000 DUP2 MSTORE PUSH1 0x4 ADD PUSH2 0x847 SWAP1 PUSH2 0x11BC JUMP JUMPDEST PUSH1 0x40 MLOAD DUP1 SWAP2 SUB SWAP1 REVERT JUMPDEST PUSH1 0x6 SLOAD PUSH1 0x7 SLOAD LT ISZERO PUSH2 0x897 JUMPI PUSH1 0x40 MLOAD PUSH32 0x8C379A000000000000000000000000000000000000000000000000000000000 DUP2 MSTORE PUSH1 0x4 ADD PUSH2 0x88E SWAP1 PUSH2 0x1618 JUMP JUMPDEST PUSH1 0x40 MLOAD DUP1 SWAP2 SUB SWAP1 REVERT JUMPDEST PUSH0 PUSH1 0x1 PUSH0 DUP4 DUP2 MSTORE PUSH1 0x20 ADD SWAP1 DUP2 MSTORE PUSH1 0x20 ADD PUSH0 KECCAK256 SWAP1 POP PUSH0 ISZERO ISZERO DUP2 PUSH1 0x3 ADD PUSH0 SWAP1 SLOAD SWAP1 PUSH2 0x100 EXP SWAP1 DIV PUSH1 0xFF AND ISZERO ISZERO EQ PUSH2 0x901 JUMPI PUSH1 0x40 MLOAD PUSH32 0x8C379A000000000000000000000000000000000000000000000000000000000 DUP2 MSTORE PUSH1 0x4 ADD PUSH2 0x8F8 SWAP1 PUSH2 0x16A6 JUMP JUMPDEST PUSH1 0x40 MLOAD DUP1 SWAP2 SUB SWAP1 REVERT JUMPDEST PUSH1 0x2 PUSH1 0x8 SLOAD PUSH2 0x910 SWAP2 SWAP1 PUSH2 0x16F1 JUMP JUMPDEST DUP2 PUSH1 0x4 ADD SLOAD GT PUSH2 0x955 JUMPI PUSH1 0x40 MLOAD PUSH32 0x8C379A000000000000000000000000000000000000000000000000000000000 DUP2 MSTORE PUSH1 0x4 ADD PUSH2 0x94C SWAP1 PUSH2 0x17B7 JUMP JUMPDEST PUSH1 0x40 MLOAD DUP1 SWAP2 SUB SWAP1 REVERT JUMPDEST DUP1 PUSH1 0x1 ADD PUSH0 SWAP1 SLOAD SWAP1 PUSH2 0x100 EXP SWAP1 DIV PUSH20 0xFFFFFFFFFFFFFFFFFFFFFFFFFFFFFFFFFFFFFFFF AND PUSH20 0xFFFFFFFFFFFFFFFFFFFFFFFFFFFFFFFFFFFFFFFF AND PUSH2 0x8FC DUP3 PUSH1 0x2 ADD SLOAD SWAP1 DUP2 ISZERO MUL SWAP1 PUSH1 0x40 MLOAD PUSH0 PUSH1 0x40 MLOAD DUP1 DUP4 SUB DUP2 DUP6 DUP9 DUP9 CALL SWAP4 POP POP POP POP ISZERO DUP1 ISZERO PUSH2 0x9BF JUMPI RETURNDATASIZE PUSH0 DUP1 RETURNDATACOPY RETURNDATASIZE PUSH0 REVERT JUMPDEST POP PUSH1 0x1 DUP2 PUSH1 0x3 ADD PUSH0 PUSH2 0x100 EXP DUP2 SLOAD DUP2 PUSH1 0xFF MUL NOT AND SWAP1 DUP4 ISZERO ISZERO MUL OR SWAP1 SSTORE POP POP POP JUMP JUMPDEST PUSH1 0x5 SLOAD TIMESTAMP GT DUP1 ISZERO PUSH2 0x9F4 JUMPI POP PUSH1 0x6 SLOAD PUSH1 0x7 SLOAD LT JUMPDEST PUSH2 0xA33 JUMPI PUSH1 0x40 MLOAD PUSH32 0x8C379A000000000000000000000000000000000000000000000000000000000 DUP2 MSTORE PUSH1 0x4 ADD PUSH2 0xA2A SWAP1 PUSH2 0x181F JUMP JUMPDEST PUSH1 0x40 MLOAD DUP1 SWAP2 SUB SWAP1 REVERT JUMPDEST PUSH0 DUP1 PUSH0 CALLER PUSH20 0xFFFFFFFFFFFFFFFFFFFFFFFFFFFFFFFFFFFFFFFF AND PUSH20 0xFFFFFFFFFFFFFFFFFFFFFFFFFFFFFFFFFFFFFFFF AND DUP2 MSTORE PUSH1 0x20 ADD SWAP1 DUP2 MSTORE PUSH1 0x20 ADD PUSH0 KECCAK256 SLOAD GT PUSH2 0xAB1 JUMPI PUSH1 0x40 MLOAD PUSH32 0x8C379A000000000000000000000000000000000000000000000000000000000 DUP2 MSTORE PUSH1 0x4 ADD PUSH2 0xAA8 SWAP1 PUSH2 0x1887 JUMP JUMPDEST PUSH1 0x40 MLOAD DUP1 SWAP2 SUB SWAP1 REVERT JUMPDEST CALLER PUSH20 0xFFFFFFFFFFFFFFFFFFFFFFFFFFFFFFFFFFFFFFFF AND PUSH2 0x8FC PUSH0 DUP1 CALLER PUSH20 0xFFFFFFFFFFFFFFFFFFFFFFFFFFFFFFFFFFFFFFFF AND PUSH20 0xFFFFFFFFFFFFFFFFFFFFFFFFFFFFFFFFFFFFFFFF AND DUP2 MSTORE PUSH1 0x20 ADD SWAP1 DUP2 MSTORE PUSH1 0x20 ADD PUSH0 KECCAK256 SLOAD SWAP1 DUP2 ISZERO MUL SWAP1 PUSH1 0x40 MLOAD PUSH0 PUSH1 0x40 MLOAD DUP1 DUP4 SUB DUP2 DUP6 DUP9 DUP9 CALL SWAP4 POP POP POP POP ISZERO DUP1 ISZERO PUSH2 0xB30 JUMPI RETURNDATASIZE PUSH0 DUP1 RETURNDATACOPY RETURNDATASIZE PUSH0 REVERT JUMPDEST POP PUSH0 DUP1 PUSH0 CALLER PUSH20 0xFFFFFFFFFFFFFFFFFFFFFFFFFFFFFFFFFFFFFFFF AND PUSH20 0xFFFFFFFFFFFFFFFFFFFFFFFFFFFFFFFFFFFFFFFF AND DUP2 MSTORE PUSH1 0x20 ADD SWAP1 DUP2 MSTORE PUSH1 0x20 ADD PUSH0 KECCAK256 DUP2 SWAP1 SSTORE POP JUMP JUMPDEST PUSH0 SELFBALANCE SWAP1 POP SWAP1 JUMP JUMPDEST PUSH1 0x1 PUSH1 0x20 MSTORE DUP1 PUSH0 MSTORE PUSH1 0x40 PUSH0 KECCAK256 PUSH0 SWAP2 POP SWAP1 POP DUP1 PUSH0 ADD DUP1 SLOAD PUSH2 0xB9A SWAP1 PUSH2 0x123E JUMP JUMPDEST DUP1 PUSH1 0x1F ADD PUSH1 0x20 DUP1 SWAP2 DIV MUL PUSH1 0x20 ADD PUSH1 0x40 MLOAD SWAP1 DUP2 ADD PUSH1 0x40 MSTORE DUP1 SWAP3 SWAP2 SWAP1 DUP2 DUP2 MSTORE PUSH1 0x20 ADD DUP3 DUP1 SLOAD PUSH2 0xBC6 SWAP1 PUSH2 0x123E JUMP JUMPDEST DUP1 ISZERO PUSH2 0xC11 JUMPI DUP1 PUSH1 0x1F LT PUSH2 0xBE8 JUMPI PUSH2 0x100 DUP1 DUP4 SLOAD DIV MUL DUP4 MSTORE SWAP2 PUSH1 0x20 ADD SWAP2 PUSH2 0xC11 JUMP JUMPDEST DUP3 ADD SWAP2 SWAP1 PUSH0 MSTORE PUSH1 0x20 PUSH0 KECCAK256 SWAP1 JUMPDEST DUP2 SLOAD DUP2 MSTORE SWAP1 PUSH1 0x1 ADD SWAP1 PUSH1 0x20 ADD DUP1 DUP4 GT PUSH2 0xBF4 JUMPI DUP3 SWAP1 SUB PUSH1 0x1F AND DUP3 ADD SWAP2 JUMPDEST POP POP POP POP POP SWAP1 DUP1 PUSH1 0x1 ADD PUSH0 SWAP1 SLOAD SWAP1 PUSH2 0x100 EXP SWAP1 DIV PUSH20 0xFFFFFFFFFFFFFFFFFFFFFFFFFFFFFFFFFFFFFFFF AND SWAP1 DUP1 PUSH1 0x2 ADD SLOAD SWAP1 DUP1 PUSH1 0x3 ADD PUSH0 SWAP1 SLOAD SWAP1 PUSH2 0x100 EXP SWAP1 DIV PUSH1 0xFF AND SWAP1 DUP1 PUSH1 0x4 ADD SLOAD SWAP1 POP DUP6 JUMP JUMPDEST PUSH1 0x2 SLOAD DUP2 JUMP JUMPDEST PUSH1 0x7 SLOAD DUP2 JUMP JUMPDEST PUSH1 0x6 SLOAD DUP2 JUMP JUMPDEST PUSH1 0x4 SLOAD DUP2 JUMP JUMPDEST PUSH0 DUP1 REVERT JUMPDEST PUSH0 DUP1 REVERT JUMPDEST PUSH0 PUSH20 0xFFFFFFFFFFFFFFFFFFFFFFFFFFFFFFFFFFFFFFFF DUP3 AND SWAP1 POP SWAP2 SWAP1 POP JUMP JUMPDEST PUSH0 PUSH2 0xCA7 DUP3 PUSH2 0xC7E JUMP JUMPDEST SWAP1 POP SWAP2 SWAP1 POP JUMP JUMPDEST PUSH2 0xCB7 DUP2 PUSH2 0xC9D JUMP JUMPDEST DUP2 EQ PUSH2 0xCC1 JUMPI PUSH0 DUP1 REVERT JUMPDEST POP JUMP JUMPDEST PUSH0 DUP2 CALLDATALOAD SWAP1 POP PUSH2 0xCD2 DUP2 PUSH2 0xCAE JUMP JUMPDEST SWAP3 SWAP2 POP POP JUMP JUMPDEST PUSH0 PUSH1 0x20 DUP3 DUP5 SUB SLT ISZERO PUSH2 0xCED JUMPI PUSH2 0xCEC PUSH2 0xC76 JUMP JUMPDEST JUMPDEST PUSH0 PUSH2 0xCFA DUP5 DUP3 DUP6 ADD PUSH2 0xCC4 JUMP JUMPDEST SWAP2 POP POP SWAP3 SWAP2 POP POP JUMP JUMPDEST PUSH0 DUP2 SWAP1 POP SWAP2 SWAP1 POP JUMP JUMPDEST PUSH2 0xD15 DUP2 PUSH2 0xD03 JUMP JUMPDEST DUP3 MSTORE POP POP JUMP JUMPDEST PUSH0 PUSH1 0x20 DUP3 ADD SWAP1 POP PUSH2 0xD2E PUSH0 DUP4 ADD DUP5 PUSH2 0xD0C JUMP JUMPDEST SWAP3 SWAP2 POP POP JUMP JUMPDEST PUSH0 DUP1 REVERT JUMPDEST PUSH0 DUP1 REVERT JUMPDEST PUSH0 DUP1 REVERT JUMPDEST PUSH0 DUP1 DUP4 PUSH1 0x1F DUP5 ADD SLT PUSH2 0xD55 JUMPI PUSH2 0xD54 PUSH2 0xD34 JUMP JUMPDEST JUMPDEST DUP3 CALLDATALOAD SWAP1 POP PUSH8 0xFFFFFFFFFFFFFFFF DUP2 GT ISZERO PUSH2 0xD72 JUMPI PUSH2 0xD71 PUSH2 0xD38 JUMP JUMPDEST JUMPDEST PUSH1 0x20 DUP4 ADD SWAP2 POP DUP4 PUSH1 0x1 DUP3 MUL DUP4 ADD GT ISZERO PUSH2 0xD8E JUMPI PUSH2 0xD8D PUSH2 0xD3C JUMP JUMPDEST JUMPDEST SWAP3 POP SWAP3 SWAP1 POP JUMP JUMPDEST PUSH0 PUSH2 0xD9F DUP3 PUSH2 0xC7E JUMP JUMPDEST SWAP1 POP SWAP2 SWAP1 POP JUMP JUMPDEST PUSH2 0xDAF DUP2 PUSH2 0xD95 JUMP JUMPDEST DUP2 EQ PUSH2 0xDB9 JUMPI PUSH0 DUP1 REVERT JUMPDEST POP JUMP JUMPDEST PUSH0 DUP2 CALLDATALOAD SWAP1 POP PUSH2 0xDCA DUP2 PUSH2 0xDA6 JUMP JUMPDEST SWAP3 SWAP2 POP POP JUMP JUMPDEST PUSH2 0xDD9 DUP2 PUSH2 0xD03 JUMP JUMPDEST DUP2 EQ PUSH2 0xDE3 JUMPI PUSH0 DUP1 REVERT JUMPDEST POP JUMP JUMPDEST PUSH0 DUP2 CALLDATALOAD SWAP1 POP PUSH2 0xDF4 DUP2 PUSH2 0xDD0 JUMP JUMPDEST SWAP3 SWAP2 POP POP JUMP JUMPDEST PUSH0 DUP1 PUSH0 DUP1 PUSH1 0x60 DUP6 DUP8 SUB SLT ISZERO PUSH2 0xE12 JUMPI PUSH2 0xE11 PUSH2 0xC76 JUMP JUMPDEST JUMPDEST PUSH0 DUP6 ADD CALLDATALOAD PUSH8 0xFFFFFFFFFFFFFFFF DUP2 GT ISZERO PUSH2 0xE2F JUMPI PUSH2 0xE2E PUSH2 0xC7A JUMP JUMPDEST JUMPDEST PUSH2 0xE3B DUP8 DUP3 DUP9 ADD PUSH2 0xD40 JUMP JUMPDEST SWAP5 POP SWAP5 POP POP PUSH1 0x20 PUSH2 0xE4E DUP8 DUP3 DUP9 ADD PUSH2 0xDBC JUMP JUMPDEST SWAP3 POP POP PUSH1 0x40 PUSH2 0xE5F DUP8 DUP3 DUP9 ADD PUSH2 0xDE6 JUMP JUMPDEST SWAP2 POP POP SWAP3 SWAP6 SWAP2 SWAP5 POP SWAP3 POP JUMP JUMPDEST PUSH2 0xE74 DUP2 PUSH2 0xC9D JUMP JUMPDEST DUP3 MSTORE POP POP JUMP JUMPDEST PUSH0 PUSH1 0x20 DUP3 ADD SWAP1 POP PUSH2 0xE8D PUSH0 DUP4 ADD DUP5 PUSH2 0xE6B JUMP JUMPDEST SWAP3 SWAP2 POP POP JUMP JUMPDEST PUSH0 PUSH1 0x20 DUP3 DUP5 SUB SLT ISZERO PUSH2 0xEA8 JUMPI PUSH2 0xEA7 PUSH2 0xC76 JUMP JUMPDEST JUMPDEST PUSH0 PUSH2 0xEB5 DUP5 DUP3 DUP6 ADD PUSH2 0xDE6 JUMP JUMPDEST SWAP2 POP POP SWAP3 SWAP2 POP POP JUMP JUMPDEST PUSH0 DUP2 MLOAD SWAP1 POP SWAP2 SWAP1 POP JUMP JUMPDEST PUSH0 DUP3 DUP3 MSTORE PUSH1 0x20 DUP3 ADD SWAP1 POP SWAP3 SWAP2 POP POP JUMP JUMPDEST DUP3 DUP2 DUP4 MCOPY PUSH0 DUP4 DUP4 ADD MSTORE POP POP POP JUMP JUMPDEST PUSH0 PUSH1 0x1F NOT PUSH1 0x1F DUP4 ADD AND SWAP1 POP SWAP2 SWAP1 POP JUMP JUMPDEST PUSH0 PUSH2 0xF00 DUP3 PUSH2 0xEBE JUMP JUMPDEST PUSH2 0xF0A DUP2 DUP6 PUSH2 0xEC8 JUMP JUMPDEST SWAP4 POP PUSH2 0xF1A DUP2 DUP6 PUSH1 0x20 DUP7 ADD PUSH2 0xED8 JUMP JUMPDEST PUSH2 0xF23 DUP2 PUSH2 0xEE6 JUMP JUMPDEST DUP5 ADD SWAP2 POP POP SWAP3 SWAP2 POP POP JUMP JUMPDEST PUSH2 0xF37 DUP2 PUSH2 0xD95 JUMP JUMPDEST DUP3 MSTORE POP POP JUMP JUMPDEST PUSH0 DUP2 ISZERO ISZERO SWAP1 POP SWAP2 SWAP1 POP JUMP JUMPDEST PUSH2 0xF51 DUP2 PUSH2 0xF3D JUMP JUMPDEST DUP3 MSTORE POP POP JUMP JUMPDEST PUSH0 PUSH1 0xA0 DUP3 ADD SWAP1 POP DUP2 DUP2 SUB PUSH0 DUP4 ADD MSTORE PUSH2 0xF6F DUP2 DUP9 PUSH2 0xEF6 JUMP JUMPDEST SWAP1 POP PUSH2 0xF7E PUSH1 0x20 DUP4 ADD DUP8 PUSH2 0xF2E JUMP JUMPDEST PUSH2 0xF8B PUSH1 0x40 DUP4 ADD DUP7 PUSH2 0xD0C JUMP JUMPDEST PUSH2 0xF98 PUSH1 0x60 DUP4 ADD DUP6 PUSH2 0xF48 JUMP JUMPDEST PUSH2 0xFA5 PUSH1 0x80 DUP4 ADD DUP5 PUSH2 0xD0C JUMP JUMPDEST SWAP7 SWAP6 POP POP POP POP POP POP JUMP JUMPDEST PUSH32 0x54686520646561646C696E65206F662074686520726571756573747320686173 PUSH0 DUP3 ADD MSTORE PUSH32 0x206265656E2065786365656465642E0000000000000000000000000000000000 PUSH1 0x20 DUP3 ADD MSTORE POP JUMP JUMPDEST PUSH0 PUSH2 0x1009 PUSH1 0x2F DUP4 PUSH2 0xEC8 JUMP JUMPDEST SWAP2 POP PUSH2 0x1014 DUP3 PUSH2 0xFAF JUMP JUMPDEST PUSH1 0x40 DUP3 ADD SWAP1 POP SWAP2 SWAP1 POP JUMP JUMPDEST PUSH0 PUSH1 0x20 DUP3 ADD SWAP1 POP DUP2 DUP2 SUB PUSH0 DUP4 ADD MSTORE PUSH2 0x1036 DUP2 PUSH2 0xFFD JUMP JUMPDEST SWAP1 POP SWAP2 SWAP1 POP JUMP JUMPDEST PUSH32 0x4D696E696D756D20636F6E7269627574696F6E20697320313030207765690000 PUSH0 DUP3 ADD MSTORE POP JUMP JUMPDEST PUSH0 PUSH2 0x1071 PUSH1 0x1E DUP4 PUSH2 0xEC8 JUMP JUMPDEST SWAP2 POP PUSH2 0x107C DUP3 PUSH2 0x103D JUMP JUMPDEST PUSH1 0x20 DUP3 ADD SWAP1 POP SWAP2 SWAP1 POP JUMP JUMPDEST PUSH0 PUSH1 0x20 DUP3 ADD SWAP1 POP DUP2 DUP2 SUB PUSH0 DUP4 ADD MSTORE PUSH2 0x109E DUP2 PUSH2 0x1065 JUMP JUMPDEST SWAP1 POP SWAP2 SWAP1 POP JUMP JUMPDEST PUSH32 0x4E487B7100000000000000000000000000000000000000000000000000000000 PUSH0 MSTORE PUSH1 0x11 PUSH1 0x4 MSTORE PUSH1 0x24 PUSH0 REVERT JUMPDEST PUSH0 PUSH2 0x10DC DUP3 PUSH2 0xD03 JUMP JUMPDEST SWAP2 POP PUSH32 0xFFFFFFFFFFFFFFFFFFFFFFFFFFFFFFFFFFFFFFFFFFFFFFFFFFFFFFFFFFFFFFFF DUP3 SUB PUSH2 0x110E JUMPI PUSH2 0x110D PUSH2 0x10A5 JUMP JUMPDEST JUMPDEST PUSH1 0x1 DUP3 ADD SWAP1 POP SWAP2 SWAP1 POP JUMP JUMPDEST PUSH0 PUSH2 0x1123 DUP3 PUSH2 0xD03 JUMP JUMPDEST SWAP2 POP PUSH2 0x112E DUP4 PUSH2 0xD03 JUMP JUMPDEST SWAP3 POP DUP3 DUP3 ADD SWAP1 POP DUP1 DUP3 GT ISZERO PUSH2 0x1146 JUMPI PUSH2 0x1145 PUSH2 0x10A5 JUMP JUMPDEST JUMPDEST SWAP3 SWAP2 POP POP JUMP JUMPDEST PUSH32 0x4F6E6C7920746865206D616E616765722063616E20706572666F726D20746869 PUSH0 DUP3 ADD MSTORE PUSH32 0x7320616374696F6E2E0000000000000000000000000000000000000000000000 PUSH1 0x20 DUP3 ADD MSTORE POP JUMP JUMPDEST PUSH0 PUSH2 0x11A6 PUSH1 0x29 DUP4 PUSH2 0xEC8 JUMP JUMPDEST SWAP2 POP PUSH2 0x11B1 DUP3 PUSH2 0x114C JUMP JUMPDEST PUSH1 0x40 DUP3 ADD SWAP1 POP SWAP2 SWAP1 POP JUMP JUMPDEST PUSH0 PUSH1 0x20 DUP3 ADD SWAP1 POP DUP2 DUP2 SUB PUSH0 DUP4 ADD MSTORE PUSH2 0x11D3 DUP2 PUSH2 0x119A JUMP JUMPDEST SWAP1 POP SWAP2 SWAP1 POP JUMP JUMPDEST PUSH0 DUP3 SWAP1 POP SWAP3 SWAP2 POP POP JUMP JUMPDEST PUSH32 0x4E487B7100000000000000000000000000000000000000000000000000000000 PUSH0 MSTORE PUSH1 0x41 PUSH1 0x4 MSTORE PUSH1 0x24 PUSH0 REVERT JUMPDEST PUSH32 0x4E487B7100000000000000000000000000000000000000000000000000000000 PUSH0 MSTORE PUSH1 0x22 PUSH1 0x4 MSTORE PUSH1 0x24 PUSH0 REVERT JUMPDEST PUSH0 PUSH1 0x2 DUP3 DIV SWAP1 POP PUSH1 0x1 DUP3 AND DUP1 PUSH2 0x1255 JUMPI PUSH1 0x7F DUP3 AND SWAP2 POP JUMPDEST PUSH1 0x20 DUP3 LT DUP2 SUB PUSH2 0x1268 JUMPI PUSH2 0x1267 PUSH2 0x1211 JUMP JUMPDEST JUMPDEST POP SWAP2 SWAP1 POP JUMP JUMPDEST PUSH0 DUP2 SWAP1 POP DUP2 PUSH0 MSTORE PUSH1 0x20 PUSH0 KECCAK256 SWAP1 POP SWAP2 SWAP1 POP JUMP JUMPDEST PUSH0 PUSH1 0x20 PUSH1 0x1F DUP4 ADD DIV SWAP1 POP SWAP2 SWAP1 POP JUMP JUMPDEST PUSH0 DUP3 DUP3 SHL SWAP1 POP SWAP3 SWAP2 POP POP JUMP JUMPDEST PUSH0 PUSH1 0x8 DUP4 MUL PUSH2 0x12CA PUSH32 0xFFFFFFFFFFFFFFFFFFFFFFFFFFFFFFFFFFFFFFFFFFFFFFFFFFFFFFFFFFFFFFFF DUP3 PUSH2 0x128F JUMP JUMPDEST PUSH2 0x12D4 DUP7 DUP4 PUSH2 0x128F JUMP JUMPDEST SWAP6 POP DUP1 NOT DUP5 AND SWAP4 POP DUP1 DUP7 AND DUP5 OR SWAP3 POP POP POP SWAP4 SWAP3 POP POP POP JUMP JUMPDEST PUSH0 DUP2 SWAP1 POP SWAP2 SWAP1 POP JUMP JUMPDEST PUSH0 PUSH2 0x130F PUSH2 0x130A PUSH2 0x1305 DUP5 PUSH2 0xD03 JUMP JUMPDEST PUSH2 0x12EC JUMP JUMPDEST PUSH2 0xD03 JUMP JUMPDEST SWAP1 POP SWAP2 SWAP1 POP JUMP JUMPDEST PUSH0 DUP2 SWAP1 POP SWAP2 SWAP1 POP JUMP JUMPDEST PUSH2 0x1328 DUP4 PUSH2 0x12F5 JUMP JUMPDEST PUSH2 0x133C PUSH2 0x1334 DUP3 PUSH2 0x1316 JUMP JUMPDEST DUP5 DUP5 SLOAD PUSH2 0x129B JUMP JUMPDEST DUP3 SSTORE POP POP POP POP JUMP JUMPDEST PUSH0 SWAP1 JUMP JUMPDEST PUSH2 0x1350 PUSH2 0x1344 JUMP JUMPDEST PUSH2 0x135B DUP2 DUP5 DUP5 PUSH2 0x131F JUMP JUMPDEST POP POP POP JUMP JUMPDEST JUMPDEST DUP2 DUP2 LT ISZERO PUSH2 0x137E JUMPI PUSH2 0x1373 PUSH0 DUP3 PUSH2 0x1348 JUMP JUMPDEST PUSH1 0x1 DUP2 ADD SWAP1 POP PUSH2 0x1361 JUMP JUMPDEST POP POP JUMP JUMPDEST PUSH1 0x1F DUP3 GT ISZERO PUSH2 0x13C3 JUMPI PUSH2 0x1394 DUP2 PUSH2 0x126E JUMP JUMPDEST PUSH2 0x139D DUP5 PUSH2 0x1280 JUMP JUMPDEST DUP2 ADD PUSH1 0x20 DUP6 LT ISZERO PUSH2 0x13AC JUMPI DUP2 SWAP1 POP JUMPDEST PUSH2 0x13C0 PUSH2 0x13B8 DUP6 PUSH2 0x1280 JUMP JUMPDEST DUP4 ADD DUP3 PUSH2 0x1360 JUMP JUMPDEST POP POP JUMPDEST POP POP POP JUMP JUMPDEST PUSH0 DUP3 DUP3 SHR SWAP1 POP SWAP3 SWAP2 POP POP JUMP JUMPDEST PUSH0 PUSH2 0x13E3 PUSH0 NOT DUP5 PUSH1 0x8 MUL PUSH2 0x13C8 JUMP JUMPDEST NOT DUP1 DUP4 AND SWAP2 POP POP SWAP3 SWAP2 POP POP JUMP JUMPDEST PUSH0 PUSH2 0x13FB DUP4 DUP4 PUSH2 0x13D4 JUMP JUMPDEST SWAP2 POP DUP3 PUSH1 0x2 MUL DUP3 OR SWAP1 POP SWAP3 SWAP2 POP POP JUMP JUMPDEST PUSH2 0x1415 DUP4 DUP4 PUSH2 0x11DA JUMP JUMPDEST PUSH8 0xFFFFFFFFFFFFFFFF DUP2 GT ISZERO PUSH2 0x142E JUMPI PUSH2 0x142D PUSH2 0x11E4 JUMP JUMPDEST JUMPDEST PUSH2 0x1438 DUP3 SLOAD PUSH2 0x123E JUMP JUMPDEST PUSH2 0x1443 DUP3 DUP3 DUP6 PUSH2 0x1382 JUMP JUMPDEST PUSH0 PUSH1 0x1F DUP4 GT PUSH1 0x1 DUP2 EQ PUSH2 0x1470 JUMPI PUSH0 DUP5 ISZERO PUSH2 0x145E JUMPI DUP3 DUP8 ADD CALLDATALOAD SWAP1 POP JUMPDEST PUSH2 0x1468 DUP6 DUP3 PUSH2 0x13F0 JUMP JUMPDEST DUP7 SSTORE POP PUSH2 0x14CF JUMP JUMPDEST PUSH1 0x1F NOT DUP5 AND PUSH2 0x147E DUP7 PUSH2 0x126E JUMP JUMPDEST PUSH0 JUMPDEST DUP3 DUP2 LT ISZERO PUSH2 0x14A5 JUMPI DUP5 DUP10 ADD CALLDATALOAD DUP3 SSTORE PUSH1 0x1 DUP3 ADD SWAP2 POP PUSH1 0x20 DUP6 ADD SWAP5 POP PUSH1 0x20 DUP2 ADD SWAP1 POP PUSH2 0x1480 JUMP JUMPDEST DUP7 DUP4 LT ISZERO PUSH2 0x14C2 JUMPI DUP5 DUP10 ADD CALLDATALOAD PUSH2 0x14BE PUSH1 0x1F DUP10 AND DUP3 PUSH2 0x13D4 JUMP JUMPDEST DUP4 SSTORE POP JUMPDEST PUSH1 0x1 PUSH1 0x2 DUP9 MUL ADD DUP9 SSTORE POP POP POP JUMPDEST POP POP POP POP POP POP POP JUMP JUMPDEST PUSH32 0x596F7520646F6E2774206861766520616E7920636F6E747269627574696F6E73 PUSH0 DUP3 ADD MSTORE PUSH32 0x2E00000000000000000000000000000000000000000000000000000000000000 PUSH1 0x20 DUP3 ADD MSTORE POP JUMP JUMPDEST PUSH0 PUSH2 0x1532 PUSH1 0x21 DUP4 PUSH2 0xEC8 JUMP JUMPDEST SWAP2 POP PUSH2 0x153D DUP3 PUSH2 0x14D8 JUMP JUMPDEST PUSH1 0x40 DUP3 ADD SWAP1 POP SWAP2 SWAP1 POP JUMP JUMPDEST PUSH0 PUSH1 0x20 DUP3 ADD SWAP1 POP DUP2 DUP2 SUB PUSH0 DUP4 ADD MSTORE PUSH2 0x155F DUP2 PUSH2 0x1526 JUMP JUMPDEST SWAP1 POP SWAP2 SWAP1 POP JUMP JUMPDEST PUSH32 0x596F7520616C726561647920766F74656420666F722069742100000000000000 PUSH0 DUP3 ADD MSTORE POP JUMP JUMPDEST PUSH0 PUSH2 0x159A PUSH1 0x19 DUP4 PUSH2 0xEC8 JUMP JUMPDEST SWAP2 POP PUSH2 0x15A5 DUP3 PUSH2 0x1566 JUMP JUMPDEST PUSH1 0x20 DUP3 ADD SWAP1 POP SWAP2 SWAP1 POP JUMP JUMPDEST PUSH0 PUSH1 0x20 DUP3 ADD SWAP1 POP DUP2 DUP2 SUB PUSH0 DUP4 ADD MSTORE PUSH2 0x15C7 DUP2 PUSH2 0x158E JUMP JUMPDEST SWAP1 POP SWAP2 SWAP1 POP JUMP JUMPDEST PUSH32 0x5468652074617267657420686173206E6F74206265656E20726561636865642E PUSH0 DUP3 ADD MSTORE POP JUMP JUMPDEST PUSH0 PUSH2 0x1602 PUSH1 0x20 DUP4 PUSH2 0xEC8 JUMP JUMPDEST SWAP2 POP PUSH2 0x160D DUP3 PUSH2 0x15CE JUMP JUMPDEST PUSH1 0x20 DUP3 ADD SWAP1 POP SWAP2 SWAP1 POP JUMP JUMPDEST PUSH0 PUSH1 0x20 DUP3 ADD SWAP1 POP DUP2 DUP2 SUB PUSH0 DUP4 ADD MSTORE PUSH2 0x162F DUP2 PUSH2 0x15F6 JUMP JUMPDEST SWAP1 POP SWAP2 SWAP1 POP JUMP JUMPDEST PUSH32 0x5468697320726571756573742068617320616C7265616479206265656E20636F PUSH0 DUP3 ADD MSTORE PUSH32 0x6D706C6574656400000000000000000000000000000000000000000000000000 PUSH1 0x20 DUP3 ADD MSTORE POP JUMP JUMPDEST PUSH0 PUSH2 0x1690 PUSH1 0x27 DUP4 PUSH2 0xEC8 JUMP JUMPDEST SWAP2 POP PUSH2 0x169B DUP3 PUSH2 0x1636 JUMP JUMPDEST PUSH1 0x40 DUP3 ADD SWAP1 POP SWAP2 SWAP1 POP JUMP JUMPDEST PUSH0 PUSH1 0x20 DUP3 ADD SWAP1 POP DUP2 DUP2 SUB PUSH0 DUP4 ADD MSTORE PUSH2 0x16BD DUP2 PUSH2 0x1684 JUMP JUMPDEST SWAP1 POP SWAP2 SWAP1 POP JUMP JUMPDEST PUSH32 0x4E487B7100000000000000000000000000000000000000000000000000000000 PUSH0 MSTORE PUSH1 0x12 PUSH1 0x4 MSTORE PUSH1 0x24 PUSH0 REVERT JUMPDEST PUSH0 PUSH2 0x16FB DUP3 PUSH2 0xD03 JUMP JUMPDEST SWAP2 POP PUSH2 0x1706 DUP4 PUSH2 0xD03 JUMP JUMPDEST SWAP3 POP DUP3 PUSH2 0x1716 JUMPI PUSH2 0x1715 PUSH2 0x16C4 JUMP JUMPDEST JUMPDEST DUP3 DUP3 DIV SWAP1 POP SWAP3 SWAP2 POP POP JUMP JUMPDEST PUSH32 0x5468657265206D757374206265206D6F7265207468616E2068616C66206F6620 PUSH0 DUP3 ADD MSTORE PUSH32 0x74686520636F6E7472696275746F727320746F206D616B652061207061796D65 PUSH1 0x20 DUP3 ADD MSTORE PUSH32 0x6E742E0000000000000000000000000000000000000000000000000000000000 PUSH1 0x40 DUP3 ADD MSTORE POP JUMP JUMPDEST PUSH0 PUSH2 0x17A1 PUSH1 0x43 DUP4 PUSH2 0xEC8 JUMP JUMPDEST SWAP2 POP PUSH2 0x17AC DUP3 PUSH2 0x1721 JUMP JUMPDEST PUSH1 0x60 DUP3 ADD SWAP1 POP SWAP2 SWAP1 POP JUMP JUMPDEST PUSH0 PUSH1 0x20 DUP3 ADD SWAP1 POP DUP2 DUP2 SUB PUSH0 DUP4 ADD MSTORE PUSH2 0x17CE DUP2 PUSH2 0x1795 JUMP JUMPDEST SWAP1 POP SWAP2 SWAP1 POP JUMP JUMPDEST PUSH32 0x596F756120617265206E6F7420656C676962696C6520666F7220726566756E64 PUSH0 DUP3 ADD MSTORE POP JUMP JUMPDEST PUSH0 PUSH2 0x1809 PUSH1 0x20 DUP4 PUSH2 0xEC8 JUMP JUMPDEST SWAP2 POP PUSH2 0x1814 DUP3 PUSH2 0x17D5 JUMP JUMPDEST PUSH1 0x20 DUP3 ADD SWAP1 POP SWAP2 SWAP1 POP JUMP JUMPDEST PUSH0 PUSH1 0x20 DUP3 ADD SWAP1 POP DUP2 DUP2 SUB PUSH0 DUP4 ADD MSTORE PUSH2 0x1836 DUP2 PUSH2 0x17FD JUMP JUMPDEST SWAP1 POP SWAP2 SWAP1 POP JUMP JUMPDEST PUSH32 0x596F7520646F6E2774206861766520616E7920636F6E747269627574696F6E73 PUSH0 DUP3 ADD MSTORE POP JUMP JUMPDEST PUSH0 PUSH2 0x1871 PUSH1 0x20 DUP4 PUSH2 0xEC8 JUMP JUMPDEST SWAP2 POP PUSH2 0x187C DUP3 PUSH2 0x183D JUMP JUMPDEST PUSH1 0x20 DUP3 ADD SWAP1 POP SWAP2 SWAP1 POP JUMP JUMPDEST PUSH0 PUSH1 0x20 DUP3 ADD SWAP1 POP DUP2 DUP2 SUB PUSH0 DUP4 ADD MSTORE PUSH2 0x189E DUP2 PUSH2 0x1865 JUMP JUMPDEST SWAP1 POP SWAP2 SWAP1 POP JUMP INVALID LOG2 PUSH5 0x6970667358 0x22 SLT KECCAK256 SWAP14 LOG1 CALLDATACOPY SHL PUSH6 0xE38AE0D1DFDE 0xBE 0xE9 0xD9 0xEB SWAP4 DUP9 PUSH19 0x1F84D01AD3C33659B1AB647D34A964736F6C63 NUMBER STOP ADDMOD BYTE STOP CALLER "
				},
				"gasEstimates": {
					"creation": {
						"codeDepositCost": "1272600",
						"executionCost": "infinite",
						"totalCost": "infinite"
					},
					"external": {
						"contributions()": "infinite",
						"contributors(address)": "2847",
						"createRequests(string,address,uint256)": "infinite",
						"deadline()": "2448",
						"getContractBalance()": "401",
						"makePayment(uint256)": "infinite",
						"manager()": "2575",
						"minimumContributions()": "2513",
						"noOfContributers()": "2493",
						"numRequests()": "2447",
						"raisedAmount()": "2469",
						"refund()": "infinite",
						"requests(uint256)": "infinite",
						"target()": "2491",
						"voteRequest(uint256)": "infinite"
					}
				},
				"methodIdentifiers": {
					"contributions()": "029eabcb",
					"contributors(address)": "1f6d4942",
					"createRequests(string,address,uint256)": "3eb7647b",
					"deadline()": "29dcb0cf",
					"getContractBalance()": "6f9fb98a",
					"makePayment(uint256)": "5114cb52",
					"manager()": "481c6a75",
					"minimumContributions()": "dd27f68c",
					"noOfContributers()": "24274ee9",
					"numRequests()": "9fb42b1f",
					"raisedAmount()": "c59ee1dc",
					"refund()": "590e1ae3",
					"requests(uint256)": "81d12c58",
					"target()": "d4b83992",
					"voteRequest(uint256)": "4cb6f4a5"
				}
			},
			"storageLayout": {
				"storage": [
					{
						"astId": 20,
						"contract": "CrowdFunding/CorwdFunding.sol:CrowdFunding",
						"label": "contributors",
						"offset": 0,
						"slot": "0",
						"type": "t_mapping(t_address,t_uint256)"
					},
					{
						"astId": 25,
						"contract": "CrowdFunding/CorwdFunding.sol:CrowdFunding",
						"label": "requests",
						"offset": 0,
						"slot": "1",
						"type": "t_mapping(t_uint256,t_struct(Request)16_storage)"
					},
					{
						"astId": 27,
						"contract": "CrowdFunding/CorwdFunding.sol:CrowdFunding",
						"label": "numRequests",
						"offset": 0,
						"slot": "2",
						"type": "t_uint256"
					},
					{
						"astId": 29,
						"contract": "CrowdFunding/CorwdFunding.sol:CrowdFunding",
						"label": "manager",
						"offset": 0,
						"slot": "3",
						"type": "t_address"
					},
					{
						"astId": 31,
						"contract": "CrowdFunding/CorwdFunding.sol:CrowdFunding",
						"label": "minimumContributions",
						"offset": 0,
						"slot": "4",
						"type": "t_uint256"
					},
					{
						"astId": 33,
						"contract": "CrowdFunding/CorwdFunding.sol:CrowdFunding",
						"label": "deadline",
						"offset": 0,
						"slot": "5",
						"type": "t_uint256"
					},
					{
						"astId": 35,
						"contract": "CrowdFunding/CorwdFunding.sol:CrowdFunding",
						"label": "target",
						"offset": 0,
						"slot": "6",
						"type": "t_uint256"
					},
					{
						"astId": 37,
						"contract": "CrowdFunding/CorwdFunding.sol:CrowdFunding",
						"label": "raisedAmount",
						"offset": 0,
						"slot": "7",
						"type": "t_uint256"
					},
					{
						"astId": 39,
						"contract": "CrowdFunding/CorwdFunding.sol:CrowdFunding",
						"label": "noOfContributers",
						"offset": 0,
						"slot": "8",
						"type": "t_uint256"
					}
				],
				"types": {
					"t_address": {
						"encoding": "inplace",
						"label": "address",
						"numberOfBytes": "20"
					},
					"t_address_payable": {
						"encoding": "inplace",
						"label": "address payable",
						"numberOfBytes": "20"
					},
					"t_bool": {
						"encoding": "inplace",
						"label": "bool",
						"numberOfBytes": "1"
					},
					"t_mapping(t_address,t_bool)": {
						"encoding": "mapping",
						"key": "t_address",
						"label": "mapping(address => bool)",
						"numberOfBytes": "32",
						"value": "t_bool"
					},
					"t_mapping(t_address,t_uint256)": {
						"encoding": "mapping",
						"key": "t_address",
						"label": "mapping(address => uint256)",
						"numberOfBytes": "32",
						"value": "t_uint256"
					},
					"t_mapping(t_uint256,t_struct(Request)16_storage)": {
						"encoding": "mapping",
						"key": "t_uint256",
						"label": "mapping(uint256 => struct CrowdFunding.Request)",
						"numberOfBytes": "32",
						"value": "t_struct(Request)16_storage"
					},
					"t_string_storage": {
						"encoding": "bytes",
						"label": "string",
						"numberOfBytes": "32"
					},
					"t_struct(Request)16_storage": {
						"encoding": "inplace",
						"label": "struct CrowdFunding.Request",
						"members": [
							{
								"astId": 3,
								"contract": "CrowdFunding/CorwdFunding.sol:CrowdFunding",
								"label": "description",
								"offset": 0,
								"slot": "0",
								"type": "t_string_storage"
							},
							{
								"astId": 5,
								"contract": "CrowdFunding/CorwdFunding.sol:CrowdFunding",
								"label": "recipient",
								"offset": 0,
								"slot": "1",
								"type": "t_address_payable"
							},
							{
								"astId": 7,
								"contract": "CrowdFunding/CorwdFunding.sol:CrowdFunding",
								"label": "value",
								"offset": 0,
								"slot": "2",
								"type": "t_uint256"
							},
							{
								"astId": 9,
								"contract": "CrowdFunding/CorwdFunding.sol:CrowdFunding",
								"label": "completed",
								"offset": 0,
								"slot": "3",
								"type": "t_bool"
							},
							{
								"astId": 11,
								"contract": "CrowdFunding/CorwdFunding.sol:CrowdFunding",
								"label": "noOfVoters",
								"offset": 0,
								"slot": "4",
								"type": "t_uint256"
							},
							{
								"astId": 15,
								"contract": "CrowdFunding/CorwdFunding.sol:CrowdFunding",
								"label": "voters",
								"offset": 0,
								"slot": "5",
								"type": "t_mapping(t_address,t_bool)"
							}
						],
						"numberOfBytes": "192"
					},
					"t_uint256": {
						"encoding": "inplace",
						"label": "uint256",
						"numberOfBytes": "32"
					}
				}
			},
			"userdoc": {
				"kind": "user",
				"methods": {},
				"version": 1
			}
		}
	}
}