{
	"Pledge Board/contract.sol": {
		"Pledge": {
			"abi": [
				{
					"anonymous": false,
					"inputs": [
						{
							"indexed": false,
							"internalType": "string",
							"name": "name",
							"type": "string"
						},
						{
							"indexed": false,
							"internalType": "string",
							"name": "message",
							"type": "string"
						},
						{
							"indexed": false,
							"internalType": "uint256",
							"name": "amount",
							"type": "uint256"
						},
						{
							"indexed": false,
							"internalType": "uint256",
							"name": "time",
							"type": "uint256"
						}
					],
					"name": "NewPledge",
					"type": "event"
				},
				{
					"inputs": [
						{
							"internalType": "string",
							"name": "_name",
							"type": "string"
						},
						{
							"internalType": "string",
							"name": "_msg",
							"type": "string"
						}
					],
					"name": "addPledge",
					"outputs": [],
					"stateMutability": "payable",
					"type": "function"
				},
				{
					"inputs": [],
					"name": "numRequests",
					"outputs": [
						{
							"internalType": "uint256",
							"name": "",
							"type": "uint256"
						}
					],
					"stateMutability": "view",
					"type": "function"
				},
				{
					"inputs": [
						{
							"internalType": "uint256",
							"name": "",
							"type": "uint256"
						}
					],
					"name": "pledges",
					"outputs": [
						{
							"internalType": "string",
							"name": "name",
							"type": "string"
						},
						{
							"internalType": "string",
							"name": "message",
							"type": "string"
						},
						{
							"internalType": "uint256",
							"name": "amount",
							"type": "uint256"
						},
						{
							"internalType": "uint256",
							"name": "time",
							"type": "uint256"
						}
					],
					"stateMutability": "view",
					"type": "function"
				}
			],
			"devdoc": {
				"kind": "dev",
				"methods": {},
				"version": 1
			},
			"evm": {
				"assembly": "    /* \"Pledge Board/contract.sol\":69:755  contract Pledge {... */\n  mstore(0x40, 0x80)\n  callvalue\n  dup1\n  iszero\n  tag_1\n  jumpi\n  0x00\n  dup1\n  revert\ntag_1:\n  pop\n  dataSize(sub_0)\n  dup1\n  dataOffset(sub_0)\n  0x00\n  codecopy\n  0x00\n  return\nstop\n\nsub_0: assembly {\n        /* \"Pledge Board/contract.sol\":69:755  contract Pledge {... */\n      mstore(0x40, 0x80)\n      jumpi(tag_1, lt(calldatasize, 0x04))\n      shr(0xe0, calldataload(0x00))\n      dup1\n      0x9fb42b1f\n      eq\n      tag_2\n      jumpi\n      dup1\n      0xac124081\n      eq\n      tag_3\n      jumpi\n      dup1\n      0xbbf3fbe6\n      eq\n      tag_4\n      jumpi\n    tag_1:\n      0x00\n      dup1\n      revert\n        /* \"Pledge Board/contract.sol\":249:272  uint public numRequests */\n    tag_2:\n      callvalue\n      dup1\n      iszero\n      tag_5\n      jumpi\n      0x00\n      dup1\n      revert\n    tag_5:\n      pop\n      tag_6\n      tag_7\n      jump\t// in\n    tag_6:\n      mload(0x40)\n      tag_8\n      swap2\n      swap1\n      tag_9\n      jump\t// in\n    tag_8:\n      mload(0x40)\n      dup1\n      swap2\n      sub\n      swap1\n      return\n        /* \"Pledge Board/contract.sol\":198:242  mapping(uint => PledgeStruct) public pledges */\n    tag_3:\n      callvalue\n      dup1\n      iszero\n      tag_10\n      jumpi\n      0x00\n      dup1\n      revert\n    tag_10:\n      pop\n      tag_11\n      0x04\n      dup1\n      calldatasize\n      sub\n      dup2\n      add\n      swap1\n      tag_12\n      swap2\n      swap1\n      tag_13\n      jump\t// in\n    tag_12:\n      tag_14\n      jump\t// in\n    tag_11:\n      mload(0x40)\n      tag_15\n      swap5\n      swap4\n      swap3\n      swap2\n      swap1\n      tag_16\n      jump\t// in\n    tag_15:\n      mload(0x40)\n      dup1\n      swap2\n      sub\n      swap1\n      return\n        /* \"Pledge Board/contract.sol\":361:752  function addPledge(string calldata _name, string calldata _msg) public payable {... */\n    tag_4:\n      tag_17\n      0x04\n      dup1\n      calldatasize\n      sub\n      dup2\n      add\n      swap1\n      tag_18\n      swap2\n      swap1\n      tag_19\n      jump\t// in\n    tag_18:\n      tag_20\n      jump\t// in\n    tag_17:\n      stop\n        /* \"Pledge Board/contract.sol\":249:272  uint public numRequests */\n    tag_7:\n      sload(0x01)\n      dup2\n      jump\t// out\n        /* \"Pledge Board/contract.sol\":198:242  mapping(uint => PledgeStruct) public pledges */\n    tag_14:\n      mstore(0x20, 0x00)\n      dup1\n      0x00\n      mstore\n      keccak256(0x00, 0x40)\n      0x00\n      swap2\n      pop\n      swap1\n      pop\n      dup1\n      0x00\n      add\n      dup1\n      sload\n      tag_21\n      swap1\n      tag_22\n      jump\t// in\n    tag_21:\n      dup1\n      0x1f\n      add\n      0x20\n      dup1\n      swap2\n      div\n      mul\n      0x20\n      add\n      mload(0x40)\n      swap1\n      dup2\n      add\n      0x40\n      mstore\n      dup1\n      swap3\n      swap2\n      swap1\n      dup2\n      dup2\n      mstore\n      0x20\n      add\n      dup3\n      dup1\n      sload\n      tag_23\n      swap1\n      tag_22\n      jump\t// in\n    tag_23:\n      dup1\n      iszero\n      tag_24\n      jumpi\n      dup1\n      0x1f\n      lt\n      tag_25\n      jumpi\n      0x0100\n      dup1\n      dup4\n      sload\n      div\n      mul\n      dup4\n      mstore\n      swap2\n      0x20\n      add\n      swap2\n      jump(tag_24)\n    tag_25:\n      dup3\n      add\n      swap2\n      swap1\n      0x00\n      mstore\n      keccak256(0x00, 0x20)\n      swap1\n    tag_26:\n      dup2\n      sload\n      dup2\n      mstore\n      swap1\n      0x01\n      add\n      swap1\n      0x20\n      add\n      dup1\n      dup4\n      gt\n      tag_26\n      jumpi\n      dup3\n      swap1\n      sub\n      0x1f\n      and\n      dup3\n      add\n      swap2\n    tag_24:\n      pop\n      pop\n      pop\n      pop\n      pop\n      swap1\n      dup1\n      0x01\n      add\n      dup1\n      sload\n      tag_27\n      swap1\n      tag_22\n      jump\t// in\n    tag_27:\n      dup1\n      0x1f\n      add\n      0x20\n      dup1\n      swap2\n      div\n      mul\n      0x20\n      add\n      mload(0x40)\n      swap1\n      dup2\n      add\n      0x40\n      mstore\n      dup1\n      swap3\n      swap2\n      swap1\n      dup2\n      dup2\n      mstore\n      0x20\n      add\n      dup3\n      dup1\n      sload\n      tag_28\n      swap1\n      tag_22\n      jump\t// in\n    tag_28:\n      dup1\n      iszero\n      tag_29\n      jumpi\n      dup1\n      0x1f\n      lt\n      tag_30\n      jumpi\n      0x0100\n      dup1\n      dup4\n      sload\n      div\n      mul\n      dup4\n      mstore\n      swap2\n      0x20\n      add\n      swap2\n      jump(tag_29)\n    tag_30:\n      dup3\n      add\n      swap2\n      swap1\n      0x00\n      mstore\n      keccak256(0x00, 0x20)\n      swap1\n    tag_31:\n      dup2\n      sload\n      dup2\n      mstore\n      swap1\n      0x01\n      add\n      swap1\n      0x20\n      add\n      dup1\n      dup4\n      gt\n      tag_31\n      jumpi\n      dup3\n      swap1\n      sub\n      0x1f\n      and\n      dup3\n      add\n      swap2\n    tag_29:\n      pop\n      pop\n      pop\n      pop\n      pop\n      swap1\n      dup1\n      0x02\n      add\n      sload\n      swap1\n      dup1\n      0x03\n      add\n      sload\n      swap1\n      pop\n      dup5\n      jump\t// out\n        /* \"Pledge Board/contract.sol\":361:752  function addPledge(string calldata _name, string calldata _msg) public payable {... */\n    tag_20:\n        /* \"Pledge Board/contract.sol\":471:472  0 */\n      0x00\n        /* \"Pledge Board/contract.sol\":459:468  msg.value */\n      callvalue\n        /* \"Pledge Board/contract.sol\":459:472  msg.value > 0 */\n      gt\n        /* \"Pledge Board/contract.sol\":451:473  require(msg.value > 0) */\n      tag_33\n      jumpi\n      0x00\n      dup1\n      revert\n    tag_33:\n        /* \"Pledge Board/contract.sol\":507:654  PledgeStruct({... */\n      mload(0x40)\n      dup1\n      0x80\n      add\n      0x40\n      mstore\n      dup1\n        /* \"Pledge Board/contract.sol\":541:546  _name */\n      dup6\n      dup6\n        /* \"Pledge Board/contract.sol\":507:654  PledgeStruct({... */\n      dup1\n      dup1\n      0x1f\n      add\n      0x20\n      dup1\n      swap2\n      div\n      mul\n      0x20\n      add\n      mload(0x40)\n      swap1\n      dup2\n      add\n      0x40\n      mstore\n      dup1\n      swap4\n      swap3\n      swap2\n      swap1\n      dup2\n      dup2\n      mstore\n      0x20\n      add\n      dup4\n      dup4\n      dup1\n      dup3\n      dup5\n      calldatacopy\n      0x00\n      dup2\n      dup5\n      add\n      mstore\n      not(0x1f)\n      0x1f\n      dup3\n      add\n      and\n      swap1\n      pop\n      dup1\n      dup4\n      add\n      swap3\n      pop\n      pop\n      pop\n      pop\n      pop\n      pop\n      pop\n      dup2\n      mstore\n      0x20\n      add\n        /* \"Pledge Board/contract.sol\":570:574  _msg */\n      dup4\n      dup4\n        /* \"Pledge Board/contract.sol\":507:654  PledgeStruct({... */\n      dup1\n      dup1\n      0x1f\n      add\n      0x20\n      dup1\n      swap2\n      div\n      mul\n      0x20\n      add\n      mload(0x40)\n      swap1\n      dup2\n      add\n      0x40\n      mstore\n      dup1\n      swap4\n      swap3\n      swap2\n      swap1\n      dup2\n      dup2\n      mstore\n      0x20\n      add\n      dup4\n      dup4\n      dup1\n      dup3\n      dup5\n      calldatacopy\n      0x00\n      dup2\n      dup5\n      add\n      mstore\n      not(0x1f)\n      0x1f\n      dup3\n      add\n      and\n      swap1\n      pop\n      dup1\n      dup4\n      add\n      swap3\n      pop\n      pop\n      pop\n      pop\n      pop\n      pop\n      pop\n      dup2\n      mstore\n      0x20\n      add\n        /* \"Pledge Board/contract.sol\":597:606  msg.value */\n      callvalue\n        /* \"Pledge Board/contract.sol\":507:654  PledgeStruct({... */\n      dup2\n      mstore\n      0x20\n      add\n        /* \"Pledge Board/contract.sol\":627:642  block.timestamp */\n      timestamp\n        /* \"Pledge Board/contract.sol\":507:654  PledgeStruct({... */\n      dup2\n      mstore\n      pop\n        /* \"Pledge Board/contract.sol\":484:491  pledges */\n      0x00\n        /* \"Pledge Board/contract.sol\":484:504  pledges[numRequests] */\n      dup1\n        /* \"Pledge Board/contract.sol\":492:503  numRequests */\n      sload(0x01)\n        /* \"Pledge Board/contract.sol\":484:504  pledges[numRequests] */\n      dup2\n      mstore\n      0x20\n      add\n      swap1\n      dup2\n      mstore\n      0x20\n      add\n      0x00\n      keccak256\n        /* \"Pledge Board/contract.sol\":484:654  pledges[numRequests] = PledgeStruct({... */\n      0x00\n      dup3\n      add\n      mload\n      dup2\n      0x00\n      add\n      swap1\n      dup2\n      tag_34\n      swap2\n      swap1\n      tag_35\n      jump\t// in\n    tag_34:\n      pop\n      0x20\n      dup3\n      add\n      mload\n      dup2\n      0x01\n      add\n      swap1\n      dup2\n      tag_36\n      swap2\n      swap1\n      tag_35\n      jump\t// in\n    tag_36:\n      pop\n      0x40\n      dup3\n      add\n      mload\n      dup2\n      0x02\n      add\n      sstore\n      0x60\n      dup3\n      add\n      mload\n      dup2\n      0x03\n      add\n      sstore\n      swap1\n      pop\n      pop\n        /* \"Pledge Board/contract.sol\":670:720  NewPledge(_name ,_msg,(msg.value),block.timestamp) */\n      0x46bf4ef0f6d29d132bdb325d59cb612e4764977945a61ad13dd3beb5c75d3d44\n        /* \"Pledge Board/contract.sol\":680:685  _name */\n      dup5\n      dup5\n        /* \"Pledge Board/contract.sol\":687:691  _msg */\n      dup5\n      dup5\n        /* \"Pledge Board/contract.sol\":693:702  msg.value */\n      callvalue\n        /* \"Pledge Board/contract.sol\":704:719  block.timestamp */\n      timestamp\n        /* \"Pledge Board/contract.sol\":670:720  NewPledge(_name ,_msg,(msg.value),block.timestamp) */\n      mload(0x40)\n      tag_37\n      swap7\n      swap6\n      swap5\n      swap4\n      swap3\n      swap2\n      swap1\n      tag_38\n      jump\t// in\n    tag_37:\n      mload(0x40)\n      dup1\n      swap2\n      sub\n      swap1\n      log1\n        /* \"Pledge Board/contract.sol\":731:742  numRequests */\n      0x01\n      0x00\n        /* \"Pledge Board/contract.sol\":731:744  numRequests++ */\n      dup2\n      sload\n      dup1\n      swap3\n      swap2\n      swap1\n      tag_39\n      swap1\n      tag_40\n      jump\t// in\n    tag_39:\n      swap2\n      swap1\n      pop\n      sstore\n      pop\n        /* \"Pledge Board/contract.sol\":361:752  function addPledge(string calldata _name, string calldata _msg) public payable {... */\n      pop\n      pop\n      pop\n      pop\n      jump\t// out\n        /* \"#utility.yul\":7:84   */\n    tag_41:\n        /* \"#utility.yul\":44:51   */\n      0x00\n        /* \"#utility.yul\":73:78   */\n      dup2\n        /* \"#utility.yul\":62:78   */\n      swap1\n      pop\n        /* \"#utility.yul\":7:84   */\n      swap2\n      swap1\n      pop\n      jump\t// out\n        /* \"#utility.yul\":90:208   */\n    tag_42:\n        /* \"#utility.yul\":177:201   */\n      tag_80\n        /* \"#utility.yul\":195:200   */\n      dup2\n        /* \"#utility.yul\":177:201   */\n      tag_41\n      jump\t// in\n    tag_80:\n        /* \"#utility.yul\":172:175   */\n      dup3\n        /* \"#utility.yul\":165:202   */\n      mstore\n        /* \"#utility.yul\":90:208   */\n      pop\n      pop\n      jump\t// out\n        /* \"#utility.yul\":214:436   */\n    tag_9:\n        /* \"#utility.yul\":307:311   */\n      0x00\n        /* \"#utility.yul\":345:347   */\n      0x20\n        /* \"#utility.yul\":334:343   */\n      dup3\n        /* \"#utility.yul\":330:348   */\n      add\n        /* \"#utility.yul\":322:348   */\n      swap1\n      pop\n        /* \"#utility.yul\":358:429   */\n      tag_82\n        /* \"#utility.yul\":426:427   */\n      0x00\n        /* \"#utility.yul\":415:424   */\n      dup4\n        /* \"#utility.yul\":411:428   */\n      add\n        /* \"#utility.yul\":402:408   */\n      dup5\n        /* \"#utility.yul\":358:429   */\n      tag_42\n      jump\t// in\n    tag_82:\n        /* \"#utility.yul\":214:436   */\n      swap3\n      swap2\n      pop\n      pop\n      jump\t// out\n        /* \"#utility.yul\":523:640   */\n    tag_44:\n        /* \"#utility.yul\":632:633   */\n      0x00\n        /* \"#utility.yul\":629:630   */\n      dup1\n        /* \"#utility.yul\":622:634   */\n      revert\n        /* \"#utility.yul\":646:763   */\n    tag_45:\n        /* \"#utility.yul\":755:756   */\n      0x00\n        /* \"#utility.yul\":752:753   */\n      dup1\n        /* \"#utility.yul\":745:757   */\n      revert\n        /* \"#utility.yul\":769:891   */\n    tag_46:\n        /* \"#utility.yul\":842:866   */\n      tag_87\n        /* \"#utility.yul\":860:865   */\n      dup2\n        /* \"#utility.yul\":842:866   */\n      tag_41\n      jump\t// in\n    tag_87:\n        /* \"#utility.yul\":835:840   */\n      dup2\n        /* \"#utility.yul\":832:867   */\n      eq\n        /* \"#utility.yul\":822:885   */\n      tag_88\n      jumpi\n        /* \"#utility.yul\":881:882   */\n      0x00\n        /* \"#utility.yul\":878:879   */\n      dup1\n        /* \"#utility.yul\":871:883   */\n      revert\n        /* \"#utility.yul\":822:885   */\n    tag_88:\n        /* \"#utility.yul\":769:891   */\n      pop\n      jump\t// out\n        /* \"#utility.yul\":897:1036   */\n    tag_47:\n        /* \"#utility.yul\":943:948   */\n      0x00\n        /* \"#utility.yul\":981:987   */\n      dup2\n        /* \"#utility.yul\":968:988   */\n      calldataload\n        /* \"#utility.yul\":959:988   */\n      swap1\n      pop\n        /* \"#utility.yul\":997:1030   */\n      tag_90\n        /* \"#utility.yul\":1024:1029   */\n      dup2\n        /* \"#utility.yul\":997:1030   */\n      tag_46\n      jump\t// in\n    tag_90:\n        /* \"#utility.yul\":897:1036   */\n      swap3\n      swap2\n      pop\n      pop\n      jump\t// out\n        /* \"#utility.yul\":1042:1371   */\n    tag_13:\n        /* \"#utility.yul\":1101:1107   */\n      0x00\n        /* \"#utility.yul\":1150:1152   */\n      0x20\n        /* \"#utility.yul\":1138:1147   */\n      dup3\n        /* \"#utility.yul\":1129:1136   */\n      dup5\n        /* \"#utility.yul\":1125:1148   */\n      sub\n        /* \"#utility.yul\":1121:1153   */\n      slt\n        /* \"#utility.yul\":1118:1237   */\n      iszero\n      tag_92\n      jumpi\n        /* \"#utility.yul\":1156:1235   */\n      tag_93\n      tag_44\n      jump\t// in\n    tag_93:\n        /* \"#utility.yul\":1118:1237   */\n    tag_92:\n        /* \"#utility.yul\":1276:1277   */\n      0x00\n        /* \"#utility.yul\":1301:1354   */\n      tag_94\n        /* \"#utility.yul\":1346:1353   */\n      dup5\n        /* \"#utility.yul\":1337:1343   */\n      dup3\n        /* \"#utility.yul\":1326:1335   */\n      dup6\n        /* \"#utility.yul\":1322:1344   */\n      add\n        /* \"#utility.yul\":1301:1354   */\n      tag_47\n      jump\t// in\n    tag_94:\n        /* \"#utility.yul\":1291:1354   */\n      swap2\n      pop\n        /* \"#utility.yul\":1247:1364   */\n      pop\n        /* \"#utility.yul\":1042:1371   */\n      swap3\n      swap2\n      pop\n      pop\n      jump\t// out\n        /* \"#utility.yul\":1377:1476   */\n    tag_48:\n        /* \"#utility.yul\":1429:1435   */\n      0x00\n        /* \"#utility.yul\":1463:1468   */\n      dup2\n        /* \"#utility.yul\":1457:1469   */\n      mload\n        /* \"#utility.yul\":1447:1469   */\n      swap1\n      pop\n        /* \"#utility.yul\":1377:1476   */\n      swap2\n      swap1\n      pop\n      jump\t// out\n        /* \"#utility.yul\":1482:1651   */\n    tag_49:\n        /* \"#utility.yul\":1566:1577   */\n      0x00\n        /* \"#utility.yul\":1600:1606   */\n      dup3\n        /* \"#utility.yul\":1595:1598   */\n      dup3\n        /* \"#utility.yul\":1588:1607   */\n      mstore\n        /* \"#utility.yul\":1640:1644   */\n      0x20\n        /* \"#utility.yul\":1635:1638   */\n      dup3\n        /* \"#utility.yul\":1631:1645   */\n      add\n        /* \"#utility.yul\":1616:1645   */\n      swap1\n      pop\n        /* \"#utility.yul\":1482:1651   */\n      swap3\n      swap2\n      pop\n      pop\n      jump\t// out\n        /* \"#utility.yul\":1657:1796   */\n    tag_50:\n        /* \"#utility.yul\":1746:1752   */\n      dup3\n        /* \"#utility.yul\":1741:1744   */\n      dup2\n        /* \"#utility.yul\":1736:1739   */\n      dup4\n        /* \"#utility.yul\":1730:1753   */\n      mcopy\n        /* \"#utility.yul\":1787:1788   */\n      0x00\n        /* \"#utility.yul\":1778:1784   */\n      dup4\n        /* \"#utility.yul\":1773:1776   */\n      dup4\n        /* \"#utility.yul\":1769:1785   */\n      add\n        /* \"#utility.yul\":1762:1789   */\n      mstore\n        /* \"#utility.yul\":1657:1796   */\n      pop\n      pop\n      pop\n      jump\t// out\n        /* \"#utility.yul\":1802:1904   */\n    tag_51:\n        /* \"#utility.yul\":1843:1849   */\n      0x00\n        /* \"#utility.yul\":1894:1896   */\n      0x1f\n        /* \"#utility.yul\":1890:1897   */\n      not\n        /* \"#utility.yul\":1885:1887   */\n      0x1f\n        /* \"#utility.yul\":1878:1883   */\n      dup4\n        /* \"#utility.yul\":1874:1888   */\n      add\n        /* \"#utility.yul\":1870:1898   */\n      and\n        /* \"#utility.yul\":1860:1898   */\n      swap1\n      pop\n        /* \"#utility.yul\":1802:1904   */\n      swap2\n      swap1\n      pop\n      jump\t// out\n        /* \"#utility.yul\":1910:2287   */\n    tag_52:\n        /* \"#utility.yul\":1998:2001   */\n      0x00\n        /* \"#utility.yul\":2026:2065   */\n      tag_100\n        /* \"#utility.yul\":2059:2064   */\n      dup3\n        /* \"#utility.yul\":2026:2065   */\n      tag_48\n      jump\t// in\n    tag_100:\n        /* \"#utility.yul\":2081:2152   */\n      tag_101\n        /* \"#utility.yul\":2145:2151   */\n      dup2\n        /* \"#utility.yul\":2140:2143   */\n      dup6\n        /* \"#utility.yul\":2081:2152   */\n      tag_49\n      jump\t// in\n    tag_101:\n        /* \"#utility.yul\":2074:2152   */\n      swap4\n      pop\n        /* \"#utility.yul\":2161:2226   */\n      tag_102\n        /* \"#utility.yul\":2219:2225   */\n      dup2\n        /* \"#utility.yul\":2214:2217   */\n      dup6\n        /* \"#utility.yul\":2207:2211   */\n      0x20\n        /* \"#utility.yul\":2200:2205   */\n      dup7\n        /* \"#utility.yul\":2196:2212   */\n      add\n        /* \"#utility.yul\":2161:2226   */\n      tag_50\n      jump\t// in\n    tag_102:\n        /* \"#utility.yul\":2251:2280   */\n      tag_103\n        /* \"#utility.yul\":2273:2279   */\n      dup2\n        /* \"#utility.yul\":2251:2280   */\n      tag_51\n      jump\t// in\n    tag_103:\n        /* \"#utility.yul\":2246:2249   */\n      dup5\n        /* \"#utility.yul\":2242:2281   */\n      add\n        /* \"#utility.yul\":2235:2281   */\n      swap2\n      pop\n        /* \"#utility.yul\":2002:2287   */\n      pop\n        /* \"#utility.yul\":1910:2287   */\n      swap3\n      swap2\n      pop\n      pop\n      jump\t// out\n        /* \"#utility.yul\":2293:3028   */\n    tag_16:\n        /* \"#utility.yul\":2510:2514   */\n      0x00\n        /* \"#utility.yul\":2548:2551   */\n      0x80\n        /* \"#utility.yul\":2537:2546   */\n      dup3\n        /* \"#utility.yul\":2533:2552   */\n      add\n        /* \"#utility.yul\":2525:2552   */\n      swap1\n      pop\n        /* \"#utility.yul\":2598:2607   */\n      dup2\n        /* \"#utility.yul\":2592:2596   */\n      dup2\n        /* \"#utility.yul\":2588:2608   */\n      sub\n        /* \"#utility.yul\":2584:2585   */\n      0x00\n        /* \"#utility.yul\":2573:2582   */\n      dup4\n        /* \"#utility.yul\":2569:2586   */\n      add\n        /* \"#utility.yul\":2562:2609   */\n      mstore\n        /* \"#utility.yul\":2626:2704   */\n      tag_105\n        /* \"#utility.yul\":2699:2703   */\n      dup2\n        /* \"#utility.yul\":2690:2696   */\n      dup8\n        /* \"#utility.yul\":2626:2704   */\n      tag_52\n      jump\t// in\n    tag_105:\n        /* \"#utility.yul\":2618:2704   */\n      swap1\n      pop\n        /* \"#utility.yul\":2751:2760   */\n      dup2\n        /* \"#utility.yul\":2745:2749   */\n      dup2\n        /* \"#utility.yul\":2741:2761   */\n      sub\n        /* \"#utility.yul\":2736:2738   */\n      0x20\n        /* \"#utility.yul\":2725:2734   */\n      dup4\n        /* \"#utility.yul\":2721:2739   */\n      add\n        /* \"#utility.yul\":2714:2762   */\n      mstore\n        /* \"#utility.yul\":2779:2857   */\n      tag_106\n        /* \"#utility.yul\":2852:2856   */\n      dup2\n        /* \"#utility.yul\":2843:2849   */\n      dup7\n        /* \"#utility.yul\":2779:2857   */\n      tag_52\n      jump\t// in\n    tag_106:\n        /* \"#utility.yul\":2771:2857   */\n      swap1\n      pop\n        /* \"#utility.yul\":2867:2939   */\n      tag_107\n        /* \"#utility.yul\":2935:2937   */\n      0x40\n        /* \"#utility.yul\":2924:2933   */\n      dup4\n        /* \"#utility.yul\":2920:2938   */\n      add\n        /* \"#utility.yul\":2911:2917   */\n      dup6\n        /* \"#utility.yul\":2867:2939   */\n      tag_42\n      jump\t// in\n    tag_107:\n        /* \"#utility.yul\":2949:3021   */\n      tag_108\n        /* \"#utility.yul\":3017:3019   */\n      0x60\n        /* \"#utility.yul\":3006:3015   */\n      dup4\n        /* \"#utility.yul\":3002:3020   */\n      add\n        /* \"#utility.yul\":2993:2999   */\n      dup5\n        /* \"#utility.yul\":2949:3021   */\n      tag_42\n      jump\t// in\n    tag_108:\n        /* \"#utility.yul\":2293:3028   */\n      swap6\n      swap5\n      pop\n      pop\n      pop\n      pop\n      pop\n      jump\t// out\n        /* \"#utility.yul\":3034:3151   */\n    tag_53:\n        /* \"#utility.yul\":3143:3144   */\n      0x00\n        /* \"#utility.yul\":3140:3141   */\n      dup1\n        /* \"#utility.yul\":3133:3145   */\n      revert\n        /* \"#utility.yul\":3157:3274   */\n    tag_54:\n        /* \"#utility.yul\":3266:3267   */\n      0x00\n        /* \"#utility.yul\":3263:3264   */\n      dup1\n        /* \"#utility.yul\":3256:3268   */\n      revert\n        /* \"#utility.yul\":3280:3397   */\n    tag_55:\n        /* \"#utility.yul\":3389:3390   */\n      0x00\n        /* \"#utility.yul\":3386:3387   */\n      dup1\n        /* \"#utility.yul\":3379:3391   */\n      revert\n        /* \"#utility.yul\":3417:3970   */\n    tag_56:\n        /* \"#utility.yul\":3475:3483   */\n      0x00\n        /* \"#utility.yul\":3485:3491   */\n      dup1\n        /* \"#utility.yul\":3535:3538   */\n      dup4\n        /* \"#utility.yul\":3528:3532   */\n      0x1f\n        /* \"#utility.yul\":3520:3526   */\n      dup5\n        /* \"#utility.yul\":3516:3533   */\n      add\n        /* \"#utility.yul\":3512:3539   */\n      slt\n        /* \"#utility.yul\":3502:3624   */\n      tag_113\n      jumpi\n        /* \"#utility.yul\":3543:3622   */\n      tag_114\n      tag_53\n      jump\t// in\n    tag_114:\n        /* \"#utility.yul\":3502:3624   */\n    tag_113:\n        /* \"#utility.yul\":3656:3662   */\n      dup3\n        /* \"#utility.yul\":3643:3663   */\n      calldataload\n        /* \"#utility.yul\":3633:3663   */\n      swap1\n      pop\n        /* \"#utility.yul\":3686:3704   */\n      0xffffffffffffffff\n        /* \"#utility.yul\":3678:3684   */\n      dup2\n        /* \"#utility.yul\":3675:3705   */\n      gt\n        /* \"#utility.yul\":3672:3789   */\n      iszero\n      tag_115\n      jumpi\n        /* \"#utility.yul\":3708:3787   */\n      tag_116\n      tag_54\n      jump\t// in\n    tag_116:\n        /* \"#utility.yul\":3672:3789   */\n    tag_115:\n        /* \"#utility.yul\":3822:3826   */\n      0x20\n        /* \"#utility.yul\":3814:3820   */\n      dup4\n        /* \"#utility.yul\":3810:3827   */\n      add\n        /* \"#utility.yul\":3798:3827   */\n      swap2\n      pop\n        /* \"#utility.yul\":3876:3879   */\n      dup4\n        /* \"#utility.yul\":3868:3872   */\n      0x01\n        /* \"#utility.yul\":3860:3866   */\n      dup3\n        /* \"#utility.yul\":3856:3873   */\n      mul\n        /* \"#utility.yul\":3846:3854   */\n      dup4\n        /* \"#utility.yul\":3842:3874   */\n      add\n        /* \"#utility.yul\":3839:3880   */\n      gt\n        /* \"#utility.yul\":3836:3964   */\n      iszero\n      tag_117\n      jumpi\n        /* \"#utility.yul\":3883:3962   */\n      tag_118\n      tag_55\n      jump\t// in\n    tag_118:\n        /* \"#utility.yul\":3836:3964   */\n    tag_117:\n        /* \"#utility.yul\":3417:3970   */\n      swap3\n      pop\n      swap3\n      swap1\n      pop\n      jump\t// out\n        /* \"#utility.yul\":3976:4850   */\n    tag_19:\n        /* \"#utility.yul\":4068:4074   */\n      0x00\n        /* \"#utility.yul\":4076:4082   */\n      dup1\n        /* \"#utility.yul\":4084:4090   */\n      0x00\n        /* \"#utility.yul\":4092:4098   */\n      dup1\n        /* \"#utility.yul\":4141:4143   */\n      0x40\n        /* \"#utility.yul\":4129:4138   */\n      dup6\n        /* \"#utility.yul\":4120:4127   */\n      dup8\n        /* \"#utility.yul\":4116:4139   */\n      sub\n        /* \"#utility.yul\":4112:4144   */\n      slt\n        /* \"#utility.yul\":4109:4228   */\n      iszero\n      tag_120\n      jumpi\n        /* \"#utility.yul\":4147:4226   */\n      tag_121\n      tag_44\n      jump\t// in\n    tag_121:\n        /* \"#utility.yul\":4109:4228   */\n    tag_120:\n        /* \"#utility.yul\":4295:4296   */\n      0x00\n        /* \"#utility.yul\":4284:4293   */\n      dup6\n        /* \"#utility.yul\":4280:4297   */\n      add\n        /* \"#utility.yul\":4267:4298   */\n      calldataload\n        /* \"#utility.yul\":4325:4343   */\n      0xffffffffffffffff\n        /* \"#utility.yul\":4317:4323   */\n      dup2\n        /* \"#utility.yul\":4314:4344   */\n      gt\n        /* \"#utility.yul\":4311:4428   */\n      iszero\n      tag_122\n      jumpi\n        /* \"#utility.yul\":4347:4426   */\n      tag_123\n      tag_45\n      jump\t// in\n    tag_123:\n        /* \"#utility.yul\":4311:4428   */\n    tag_122:\n        /* \"#utility.yul\":4460:4525   */\n      tag_124\n        /* \"#utility.yul\":4517:4524   */\n      dup8\n        /* \"#utility.yul\":4508:4514   */\n      dup3\n        /* \"#utility.yul\":4497:4506   */\n      dup9\n        /* \"#utility.yul\":4493:4515   */\n      add\n        /* \"#utility.yul\":4460:4525   */\n      tag_56\n      jump\t// in\n    tag_124:\n        /* \"#utility.yul\":4442:4525   */\n      swap5\n      pop\n      swap5\n      pop\n        /* \"#utility.yul\":4238:4535   */\n      pop\n        /* \"#utility.yul\":4602:4604   */\n      0x20\n        /* \"#utility.yul\":4591:4600   */\n      dup6\n        /* \"#utility.yul\":4587:4605   */\n      add\n        /* \"#utility.yul\":4574:4606   */\n      calldataload\n        /* \"#utility.yul\":4633:4651   */\n      0xffffffffffffffff\n        /* \"#utility.yul\":4625:4631   */\n      dup2\n        /* \"#utility.yul\":4622:4652   */\n      gt\n        /* \"#utility.yul\":4619:4736   */\n      iszero\n      tag_125\n      jumpi\n        /* \"#utility.yul\":4655:4734   */\n      tag_126\n      tag_45\n      jump\t// in\n    tag_126:\n        /* \"#utility.yul\":4619:4736   */\n    tag_125:\n        /* \"#utility.yul\":4768:4833   */\n      tag_127\n        /* \"#utility.yul\":4825:4832   */\n      dup8\n        /* \"#utility.yul\":4816:4822   */\n      dup3\n        /* \"#utility.yul\":4805:4814   */\n      dup9\n        /* \"#utility.yul\":4801:4823   */\n      add\n        /* \"#utility.yul\":4768:4833   */\n      tag_56\n      jump\t// in\n    tag_127:\n        /* \"#utility.yul\":4750:4833   */\n      swap3\n      pop\n      swap3\n      pop\n        /* \"#utility.yul\":4545:4843   */\n      pop\n        /* \"#utility.yul\":3976:4850   */\n      swap3\n      swap6\n      swap2\n      swap5\n      pop\n      swap3\n      pop\n      jump\t// out\n        /* \"#utility.yul\":4856:5036   */\n    tag_57:\n        /* \"#utility.yul\":4904:4981   */\n      0x4e487b7100000000000000000000000000000000000000000000000000000000\n        /* \"#utility.yul\":4901:4902   */\n      0x00\n        /* \"#utility.yul\":4894:4982   */\n      mstore\n        /* \"#utility.yul\":5001:5005   */\n      0x22\n        /* \"#utility.yul\":4998:4999   */\n      0x04\n        /* \"#utility.yul\":4991:5006   */\n      mstore\n        /* \"#utility.yul\":5025:5029   */\n      0x24\n        /* \"#utility.yul\":5022:5023   */\n      0x00\n        /* \"#utility.yul\":5015:5030   */\n      revert\n        /* \"#utility.yul\":5042:5362   */\n    tag_22:\n        /* \"#utility.yul\":5086:5092   */\n      0x00\n        /* \"#utility.yul\":5123:5124   */\n      0x02\n        /* \"#utility.yul\":5117:5121   */\n      dup3\n        /* \"#utility.yul\":5113:5125   */\n      div\n        /* \"#utility.yul\":5103:5125   */\n      swap1\n      pop\n        /* \"#utility.yul\":5170:5171   */\n      0x01\n        /* \"#utility.yul\":5164:5168   */\n      dup3\n        /* \"#utility.yul\":5160:5172   */\n      and\n        /* \"#utility.yul\":5191:5209   */\n      dup1\n        /* \"#utility.yul\":5181:5262   */\n      tag_130\n      jumpi\n        /* \"#utility.yul\":5247:5251   */\n      0x7f\n        /* \"#utility.yul\":5239:5245   */\n      dup3\n        /* \"#utility.yul\":5235:5252   */\n      and\n        /* \"#utility.yul\":5225:5252   */\n      swap2\n      pop\n        /* \"#utility.yul\":5181:5262   */\n    tag_130:\n        /* \"#utility.yul\":5309:5311   */\n      0x20\n        /* \"#utility.yul\":5301:5307   */\n      dup3\n        /* \"#utility.yul\":5298:5312   */\n      lt\n        /* \"#utility.yul\":5278:5296   */\n      dup2\n        /* \"#utility.yul\":5275:5313   */\n      sub\n        /* \"#utility.yul\":5272:5356   */\n      tag_131\n      jumpi\n        /* \"#utility.yul\":5328:5346   */\n      tag_132\n      tag_57\n      jump\t// in\n    tag_132:\n        /* \"#utility.yul\":5272:5356   */\n    tag_131:\n        /* \"#utility.yul\":5093:5362   */\n      pop\n        /* \"#utility.yul\":5042:5362   */\n      swap2\n      swap1\n      pop\n      jump\t// out\n        /* \"#utility.yul\":5368:5548   */\n    tag_58:\n        /* \"#utility.yul\":5416:5493   */\n      0x4e487b7100000000000000000000000000000000000000000000000000000000\n        /* \"#utility.yul\":5413:5414   */\n      0x00\n        /* \"#utility.yul\":5406:5494   */\n      mstore\n        /* \"#utility.yul\":5513:5517   */\n      0x41\n        /* \"#utility.yul\":5510:5511   */\n      0x04\n        /* \"#utility.yul\":5503:5518   */\n      mstore\n        /* \"#utility.yul\":5537:5541   */\n      0x24\n        /* \"#utility.yul\":5534:5535   */\n      0x00\n        /* \"#utility.yul\":5527:5542   */\n      revert\n        /* \"#utility.yul\":5554:5695   */\n    tag_59:\n        /* \"#utility.yul\":5603:5607   */\n      0x00\n        /* \"#utility.yul\":5626:5629   */\n      dup2\n        /* \"#utility.yul\":5618:5629   */\n      swap1\n      pop\n        /* \"#utility.yul\":5649:5652   */\n      dup2\n        /* \"#utility.yul\":5646:5647   */\n      0x00\n        /* \"#utility.yul\":5639:5653   */\n      mstore\n        /* \"#utility.yul\":5683:5687   */\n      0x20\n        /* \"#utility.yul\":5680:5681   */\n      0x00\n        /* \"#utility.yul\":5670:5688   */\n      keccak256\n        /* \"#utility.yul\":5662:5688   */\n      swap1\n      pop\n        /* \"#utility.yul\":5554:5695   */\n      swap2\n      swap1\n      pop\n      jump\t// out\n        /* \"#utility.yul\":5701:5794   */\n    tag_60:\n        /* \"#utility.yul\":5738:5744   */\n      0x00\n        /* \"#utility.yul\":5785:5787   */\n      0x20\n        /* \"#utility.yul\":5780:5782   */\n      0x1f\n        /* \"#utility.yul\":5773:5778   */\n      dup4\n        /* \"#utility.yul\":5769:5783   */\n      add\n        /* \"#utility.yul\":5765:5788   */\n      div\n        /* \"#utility.yul\":5755:5788   */\n      swap1\n      pop\n        /* \"#utility.yul\":5701:5794   */\n      swap2\n      swap1\n      pop\n      jump\t// out\n        /* \"#utility.yul\":5800:5907   */\n    tag_61:\n        /* \"#utility.yul\":5844:5852   */\n      0x00\n        /* \"#utility.yul\":5894:5899   */\n      dup3\n        /* \"#utility.yul\":5888:5892   */\n      dup3\n        /* \"#utility.yul\":5884:5900   */\n      shl\n        /* \"#utility.yul\":5863:5900   */\n      swap1\n      pop\n        /* \"#utility.yul\":5800:5907   */\n      swap3\n      swap2\n      pop\n      pop\n      jump\t// out\n        /* \"#utility.yul\":5913:6306   */\n    tag_62:\n        /* \"#utility.yul\":5982:5988   */\n      0x00\n        /* \"#utility.yul\":6032:6033   */\n      0x08\n        /* \"#utility.yul\":6020:6030   */\n      dup4\n        /* \"#utility.yul\":6016:6034   */\n      mul\n        /* \"#utility.yul\":6055:6152   */\n      tag_138\n        /* \"#utility.yul\":6085:6151   */\n      0xffffffffffffffffffffffffffffffffffffffffffffffffffffffffffffffff\n        /* \"#utility.yul\":6074:6083   */\n      dup3\n        /* \"#utility.yul\":6055:6152   */\n      tag_61\n      jump\t// in\n    tag_138:\n        /* \"#utility.yul\":6173:6212   */\n      tag_139\n        /* \"#utility.yul\":6203:6211   */\n      dup7\n        /* \"#utility.yul\":6192:6201   */\n      dup4\n        /* \"#utility.yul\":6173:6212   */\n      tag_61\n      jump\t// in\n    tag_139:\n        /* \"#utility.yul\":6161:6212   */\n      swap6\n      pop\n        /* \"#utility.yul\":6245:6249   */\n      dup1\n        /* \"#utility.yul\":6241:6250   */\n      not\n        /* \"#utility.yul\":6234:6239   */\n      dup5\n        /* \"#utility.yul\":6230:6251   */\n      and\n        /* \"#utility.yul\":6221:6251   */\n      swap4\n      pop\n        /* \"#utility.yul\":6294:6298   */\n      dup1\n        /* \"#utility.yul\":6284:6292   */\n      dup7\n        /* \"#utility.yul\":6280:6299   */\n      and\n        /* \"#utility.yul\":6273:6278   */\n      dup5\n        /* \"#utility.yul\":6270:6300   */\n      or\n        /* \"#utility.yul\":6260:6300   */\n      swap3\n      pop\n        /* \"#utility.yul\":5989:6306   */\n      pop\n      pop\n        /* \"#utility.yul\":5913:6306   */\n      swap4\n      swap3\n      pop\n      pop\n      pop\n      jump\t// out\n        /* \"#utility.yul\":6312:6372   */\n    tag_63:\n        /* \"#utility.yul\":6340:6343   */\n      0x00\n        /* \"#utility.yul\":6361:6366   */\n      dup2\n        /* \"#utility.yul\":6354:6366   */\n      swap1\n      pop\n        /* \"#utility.yul\":6312:6372   */\n      swap2\n      swap1\n      pop\n      jump\t// out\n        /* \"#utility.yul\":6378:6520   */\n    tag_64:\n        /* \"#utility.yul\":6428:6437   */\n      0x00\n        /* \"#utility.yul\":6461:6514   */\n      tag_142\n        /* \"#utility.yul\":6479:6513   */\n      tag_143\n        /* \"#utility.yul\":6488:6512   */\n      tag_144\n        /* \"#utility.yul\":6506:6511   */\n      dup5\n        /* \"#utility.yul\":6488:6512   */\n      tag_41\n      jump\t// in\n    tag_144:\n        /* \"#utility.yul\":6479:6513   */\n      tag_63\n      jump\t// in\n    tag_143:\n        /* \"#utility.yul\":6461:6514   */\n      tag_41\n      jump\t// in\n    tag_142:\n        /* \"#utility.yul\":6448:6514   */\n      swap1\n      pop\n        /* \"#utility.yul\":6378:6520   */\n      swap2\n      swap1\n      pop\n      jump\t// out\n        /* \"#utility.yul\":6526:6601   */\n    tag_65:\n        /* \"#utility.yul\":6569:6572   */\n      0x00\n        /* \"#utility.yul\":6590:6595   */\n      dup2\n        /* \"#utility.yul\":6583:6595   */\n      swap1\n      pop\n        /* \"#utility.yul\":6526:6601   */\n      swap2\n      swap1\n      pop\n      jump\t// out\n        /* \"#utility.yul\":6607:6876   */\n    tag_66:\n        /* \"#utility.yul\":6717:6756   */\n      tag_147\n        /* \"#utility.yul\":6748:6755   */\n      dup4\n        /* \"#utility.yul\":6717:6756   */\n      tag_64\n      jump\t// in\n    tag_147:\n        /* \"#utility.yul\":6778:6869   */\n      tag_148\n        /* \"#utility.yul\":6827:6868   */\n      tag_149\n        /* \"#utility.yul\":6851:6867   */\n      dup3\n        /* \"#utility.yul\":6827:6868   */\n      tag_65\n      jump\t// in\n    tag_149:\n        /* \"#utility.yul\":6819:6825   */\n      dup5\n        /* \"#utility.yul\":6812:6816   */\n      dup5\n        /* \"#utility.yul\":6806:6817   */\n      sload\n        /* \"#utility.yul\":6778:6869   */\n      tag_62\n      jump\t// in\n    tag_148:\n        /* \"#utility.yul\":6772:6776   */\n      dup3\n        /* \"#utility.yul\":6765:6870   */\n      sstore\n        /* \"#utility.yul\":6683:6876   */\n      pop\n        /* \"#utility.yul\":6607:6876   */\n      pop\n      pop\n      pop\n      jump\t// out\n        /* \"#utility.yul\":6882:6955   */\n    tag_67:\n        /* \"#utility.yul\":6927:6930   */\n      0x00\n        /* \"#utility.yul\":6882:6955   */\n      swap1\n      jump\t// out\n        /* \"#utility.yul\":6961:7150   */\n    tag_68:\n        /* \"#utility.yul\":7038:7070   */\n      tag_152\n      tag_67\n      jump\t// in\n    tag_152:\n        /* \"#utility.yul\":7079:7144   */\n      tag_153\n        /* \"#utility.yul\":7137:7143   */\n      dup2\n        /* \"#utility.yul\":7129:7135   */\n      dup5\n        /* \"#utility.yul\":7123:7127   */\n      dup5\n        /* \"#utility.yul\":7079:7144   */\n      tag_66\n      jump\t// in\n    tag_153:\n        /* \"#utility.yul\":7014:7150   */\n      pop\n        /* \"#utility.yul\":6961:7150   */\n      pop\n      pop\n      jump\t// out\n        /* \"#utility.yul\":7156:7342   */\n    tag_69:\n        /* \"#utility.yul\":7216:7336   */\n    tag_155:\n        /* \"#utility.yul\":7233:7236   */\n      dup2\n        /* \"#utility.yul\":7226:7231   */\n      dup2\n        /* \"#utility.yul\":7223:7237   */\n      lt\n        /* \"#utility.yul\":7216:7336   */\n      iszero\n      tag_157\n      jumpi\n        /* \"#utility.yul\":7287:7326   */\n      tag_158\n        /* \"#utility.yul\":7324:7325   */\n      0x00\n        /* \"#utility.yul\":7317:7322   */\n      dup3\n        /* \"#utility.yul\":7287:7326   */\n      tag_68\n      jump\t// in\n    tag_158:\n        /* \"#utility.yul\":7260:7261   */\n      0x01\n        /* \"#utility.yul\":7253:7258   */\n      dup2\n        /* \"#utility.yul\":7249:7262   */\n      add\n        /* \"#utility.yul\":7240:7262   */\n      swap1\n      pop\n        /* \"#utility.yul\":7216:7336   */\n      jump(tag_155)\n    tag_157:\n        /* \"#utility.yul\":7156:7342   */\n      pop\n      pop\n      jump\t// out\n        /* \"#utility.yul\":7348:7891   */\n    tag_70:\n        /* \"#utility.yul\":7449:7451   */\n      0x1f\n        /* \"#utility.yul\":7444:7447   */\n      dup3\n        /* \"#utility.yul\":7441:7452   */\n      gt\n        /* \"#utility.yul\":7438:7884   */\n      iszero\n      tag_160\n      jumpi\n        /* \"#utility.yul\":7483:7521   */\n      tag_161\n        /* \"#utility.yul\":7515:7520   */\n      dup2\n        /* \"#utility.yul\":7483:7521   */\n      tag_59\n      jump\t// in\n    tag_161:\n        /* \"#utility.yul\":7567:7596   */\n      tag_162\n        /* \"#utility.yul\":7585:7595   */\n      dup5\n        /* \"#utility.yul\":7567:7596   */\n      tag_60\n      jump\t// in\n    tag_162:\n        /* \"#utility.yul\":7557:7565   */\n      dup2\n        /* \"#utility.yul\":7553:7597   */\n      add\n        /* \"#utility.yul\":7750:7752   */\n      0x20\n        /* \"#utility.yul\":7738:7748   */\n      dup6\n        /* \"#utility.yul\":7735:7753   */\n      lt\n        /* \"#utility.yul\":7732:7781   */\n      iszero\n      tag_163\n      jumpi\n        /* \"#utility.yul\":7771:7779   */\n      dup2\n        /* \"#utility.yul\":7756:7779   */\n      swap1\n      pop\n        /* \"#utility.yul\":7732:7781   */\n    tag_163:\n        /* \"#utility.yul\":7794:7874   */\n      tag_164\n        /* \"#utility.yul\":7850:7872   */\n      tag_165\n        /* \"#utility.yul\":7868:7871   */\n      dup6\n        /* \"#utility.yul\":7850:7872   */\n      tag_60\n      jump\t// in\n    tag_165:\n        /* \"#utility.yul\":7840:7848   */\n      dup4\n        /* \"#utility.yul\":7836:7873   */\n      add\n        /* \"#utility.yul\":7823:7834   */\n      dup3\n        /* \"#utility.yul\":7794:7874   */\n      tag_69\n      jump\t// in\n    tag_164:\n        /* \"#utility.yul\":7453:7884   */\n      pop\n      pop\n        /* \"#utility.yul\":7438:7884   */\n    tag_160:\n        /* \"#utility.yul\":7348:7891   */\n      pop\n      pop\n      pop\n      jump\t// out\n        /* \"#utility.yul\":7897:8014   */\n    tag_71:\n        /* \"#utility.yul\":7951:7959   */\n      0x00\n        /* \"#utility.yul\":8001:8006   */\n      dup3\n        /* \"#utility.yul\":7995:7999   */\n      dup3\n        /* \"#utility.yul\":7991:8007   */\n      shr\n        /* \"#utility.yul\":7970:8007   */\n      swap1\n      pop\n        /* \"#utility.yul\":7897:8014   */\n      swap3\n      swap2\n      pop\n      pop\n      jump\t// out\n        /* \"#utility.yul\":8020:8189   */\n    tag_72:\n        /* \"#utility.yul\":8064:8070   */\n      0x00\n        /* \"#utility.yul\":8097:8148   */\n      tag_168\n        /* \"#utility.yul\":8145:8146   */\n      0x00\n        /* \"#utility.yul\":8141:8147   */\n      not\n        /* \"#utility.yul\":8133:8138   */\n      dup5\n        /* \"#utility.yul\":8130:8131   */\n      0x08\n        /* \"#utility.yul\":8126:8139   */\n      mul\n        /* \"#utility.yul\":8097:8148   */\n      tag_71\n      jump\t// in\n    tag_168:\n        /* \"#utility.yul\":8093:8149   */\n      not\n        /* \"#utility.yul\":8178:8182   */\n      dup1\n        /* \"#utility.yul\":8172:8176   */\n      dup4\n        /* \"#utility.yul\":8168:8183   */\n      and\n        /* \"#utility.yul\":8158:8183   */\n      swap2\n      pop\n        /* \"#utility.yul\":8071:8189   */\n      pop\n        /* \"#utility.yul\":8020:8189   */\n      swap3\n      swap2\n      pop\n      pop\n      jump\t// out\n        /* \"#utility.yul\":8194:8489   */\n    tag_73:\n        /* \"#utility.yul\":8270:8274   */\n      0x00\n        /* \"#utility.yul\":8416:8445   */\n      tag_170\n        /* \"#utility.yul\":8441:8444   */\n      dup4\n        /* \"#utility.yul\":8435:8439   */\n      dup4\n        /* \"#utility.yul\":8416:8445   */\n      tag_72\n      jump\t// in\n    tag_170:\n        /* \"#utility.yul\":8408:8445   */\n      swap2\n      pop\n        /* \"#utility.yul\":8478:8481   */\n      dup3\n        /* \"#utility.yul\":8475:8476   */\n      0x02\n        /* \"#utility.yul\":8471:8482   */\n      mul\n        /* \"#utility.yul\":8465:8469   */\n      dup3\n        /* \"#utility.yul\":8462:8483   */\n      or\n        /* \"#utility.yul\":8454:8483   */\n      swap1\n      pop\n        /* \"#utility.yul\":8194:8489   */\n      swap3\n      swap2\n      pop\n      pop\n      jump\t// out\n        /* \"#utility.yul\":8494:9889   */\n    tag_35:\n        /* \"#utility.yul\":8611:8648   */\n      tag_172\n        /* \"#utility.yul\":8644:8647   */\n      dup3\n        /* \"#utility.yul\":8611:8648   */\n      tag_48\n      jump\t// in\n    tag_172:\n        /* \"#utility.yul\":8713:8731   */\n      0xffffffffffffffff\n        /* \"#utility.yul\":8705:8711   */\n      dup2\n        /* \"#utility.yul\":8702:8732   */\n      gt\n        /* \"#utility.yul\":8699:8755   */\n      iszero\n      tag_173\n      jumpi\n        /* \"#utility.yul\":8735:8753   */\n      tag_174\n      tag_58\n      jump\t// in\n    tag_174:\n        /* \"#utility.yul\":8699:8755   */\n    tag_173:\n        /* \"#utility.yul\":8779:8817   */\n      tag_175\n        /* \"#utility.yul\":8811:8815   */\n      dup3\n        /* \"#utility.yul\":8805:8816   */\n      sload\n        /* \"#utility.yul\":8779:8817   */\n      tag_22\n      jump\t// in\n    tag_175:\n        /* \"#utility.yul\":8864:8931   */\n      tag_176\n        /* \"#utility.yul\":8924:8930   */\n      dup3\n        /* \"#utility.yul\":8916:8922   */\n      dup3\n        /* \"#utility.yul\":8910:8914   */\n      dup6\n        /* \"#utility.yul\":8864:8931   */\n      tag_70\n      jump\t// in\n    tag_176:\n        /* \"#utility.yul\":8958:8959   */\n      0x00\n        /* \"#utility.yul\":8982:8986   */\n      0x20\n        /* \"#utility.yul\":8969:8986   */\n      swap1\n      pop\n        /* \"#utility.yul\":9014:9016   */\n      0x1f\n        /* \"#utility.yul\":9006:9012   */\n      dup4\n        /* \"#utility.yul\":9003:9017   */\n      gt\n        /* \"#utility.yul\":9031:9032   */\n      0x01\n        /* \"#utility.yul\":9026:9644   */\n      dup2\n      eq\n      tag_178\n      jumpi\n        /* \"#utility.yul\":9688:9689   */\n      0x00\n        /* \"#utility.yul\":9705:9711   */\n      dup5\n        /* \"#utility.yul\":9702:9779   */\n      iszero\n      tag_179\n      jumpi\n        /* \"#utility.yul\":9754:9763   */\n      dup3\n        /* \"#utility.yul\":9749:9752   */\n      dup8\n        /* \"#utility.yul\":9745:9764   */\n      add\n        /* \"#utility.yul\":9739:9765   */\n      mload\n        /* \"#utility.yul\":9730:9765   */\n      swap1\n      pop\n        /* \"#utility.yul\":9702:9779   */\n    tag_179:\n        /* \"#utility.yul\":9805:9872   */\n      tag_180\n        /* \"#utility.yul\":9865:9871   */\n      dup6\n        /* \"#utility.yul\":9858:9863   */\n      dup3\n        /* \"#utility.yul\":9805:9872   */\n      tag_73\n      jump\t// in\n    tag_180:\n        /* \"#utility.yul\":9799:9803   */\n      dup7\n        /* \"#utility.yul\":9792:9873   */\n      sstore\n        /* \"#utility.yul\":9661:9883   */\n      pop\n        /* \"#utility.yul\":8996:9883   */\n      jump(tag_177)\n        /* \"#utility.yul\":9026:9644   */\n    tag_178:\n        /* \"#utility.yul\":9078:9082   */\n      0x1f\n        /* \"#utility.yul\":9074:9083   */\n      not\n        /* \"#utility.yul\":9066:9072   */\n      dup5\n        /* \"#utility.yul\":9062:9084   */\n      and\n        /* \"#utility.yul\":9112:9149   */\n      tag_181\n        /* \"#utility.yul\":9144:9148   */\n      dup7\n        /* \"#utility.yul\":9112:9149   */\n      tag_59\n      jump\t// in\n    tag_181:\n        /* \"#utility.yul\":9171:9172   */\n      0x00\n        /* \"#utility.yul\":9185:9393   */\n    tag_182:\n        /* \"#utility.yul\":9199:9206   */\n      dup3\n        /* \"#utility.yul\":9196:9197   */\n      dup2\n        /* \"#utility.yul\":9193:9207   */\n      lt\n        /* \"#utility.yul\":9185:9393   */\n      iszero\n      tag_184\n      jumpi\n        /* \"#utility.yul\":9278:9287   */\n      dup5\n        /* \"#utility.yul\":9273:9276   */\n      dup10\n        /* \"#utility.yul\":9269:9288   */\n      add\n        /* \"#utility.yul\":9263:9289   */\n      mload\n        /* \"#utility.yul\":9255:9261   */\n      dup3\n        /* \"#utility.yul\":9248:9290   */\n      sstore\n        /* \"#utility.yul\":9329:9330   */\n      0x01\n        /* \"#utility.yul\":9321:9327   */\n      dup3\n        /* \"#utility.yul\":9317:9331   */\n      add\n        /* \"#utility.yul\":9307:9331   */\n      swap2\n      pop\n        /* \"#utility.yul\":9376:9378   */\n      0x20\n        /* \"#utility.yul\":9365:9374   */\n      dup6\n        /* \"#utility.yul\":9361:9379   */\n      add\n        /* \"#utility.yul\":9348:9379   */\n      swap5\n      pop\n        /* \"#utility.yul\":9222:9226   */\n      0x20\n        /* \"#utility.yul\":9219:9220   */\n      dup2\n        /* \"#utility.yul\":9215:9227   */\n      add\n        /* \"#utility.yul\":9210:9227   */\n      swap1\n      pop\n        /* \"#utility.yul\":9185:9393   */\n      jump(tag_182)\n    tag_184:\n        /* \"#utility.yul\":9421:9427   */\n      dup7\n        /* \"#utility.yul\":9412:9419   */\n      dup4\n        /* \"#utility.yul\":9409:9428   */\n      lt\n        /* \"#utility.yul\":9406:9585   */\n      iszero\n      tag_185\n      jumpi\n        /* \"#utility.yul\":9479:9488   */\n      dup5\n        /* \"#utility.yul\":9474:9477   */\n      dup10\n        /* \"#utility.yul\":9470:9489   */\n      add\n        /* \"#utility.yul\":9464:9490   */\n      mload\n        /* \"#utility.yul\":9522:9570   */\n      tag_186\n        /* \"#utility.yul\":9564:9568   */\n      0x1f\n        /* \"#utility.yul\":9556:9562   */\n      dup10\n        /* \"#utility.yul\":9552:9569   */\n      and\n        /* \"#utility.yul\":9541:9550   */\n      dup3\n        /* \"#utility.yul\":9522:9570   */\n      tag_72\n      jump\t// in\n    tag_186:\n        /* \"#utility.yul\":9514:9520   */\n      dup4\n        /* \"#utility.yul\":9507:9571   */\n      sstore\n        /* \"#utility.yul\":9429:9585   */\n      pop\n        /* \"#utility.yul\":9406:9585   */\n    tag_185:\n        /* \"#utility.yul\":9631:9632   */\n      0x01\n        /* \"#utility.yul\":9627:9628   */\n      0x02\n        /* \"#utility.yul\":9619:9625   */\n      dup9\n        /* \"#utility.yul\":9615:9629   */\n      mul\n        /* \"#utility.yul\":9611:9633   */\n      add\n        /* \"#utility.yul\":9605:9609   */\n      dup9\n        /* \"#utility.yul\":9598:9634   */\n      sstore\n        /* \"#utility.yul\":9033:9644   */\n      pop\n      pop\n      pop\n        /* \"#utility.yul\":8996:9883   */\n    tag_177:\n      pop\n        /* \"#utility.yul\":8586:9889   */\n      pop\n      pop\n      pop\n        /* \"#utility.yul\":8494:9889   */\n      pop\n      pop\n      jump\t// out\n        /* \"#utility.yul\":9895:10043   */\n    tag_74:\n        /* \"#utility.yul\":9993:9999   */\n      dup3\n        /* \"#utility.yul\":9988:9991   */\n      dup2\n        /* \"#utility.yul\":9983:9986   */\n      dup4\n        /* \"#utility.yul\":9970:10000   */\n      calldatacopy\n        /* \"#utility.yul\":10034:10035   */\n      0x00\n        /* \"#utility.yul\":10025:10031   */\n      dup4\n        /* \"#utility.yul\":10020:10023   */\n      dup4\n        /* \"#utility.yul\":10016:10032   */\n      add\n        /* \"#utility.yul\":10009:10036   */\n      mstore\n        /* \"#utility.yul\":9895:10043   */\n      pop\n      pop\n      pop\n      jump\t// out\n        /* \"#utility.yul\":10073:10390   */\n    tag_75:\n        /* \"#utility.yul\":10171:10174   */\n      0x00\n        /* \"#utility.yul\":10192:10263   */\n      tag_189\n        /* \"#utility.yul\":10256:10262   */\n      dup4\n        /* \"#utility.yul\":10251:10254   */\n      dup6\n        /* \"#utility.yul\":10192:10263   */\n      tag_49\n      jump\t// in\n    tag_189:\n        /* \"#utility.yul\":10185:10263   */\n      swap4\n      pop\n        /* \"#utility.yul\":10273:10329   */\n      tag_190\n        /* \"#utility.yul\":10322:10328   */\n      dup4\n        /* \"#utility.yul\":10317:10320   */\n      dup6\n        /* \"#utility.yul\":10310:10315   */\n      dup5\n        /* \"#utility.yul\":10273:10329   */\n      tag_74\n      jump\t// in\n    tag_190:\n        /* \"#utility.yul\":10354:10383   */\n      tag_191\n        /* \"#utility.yul\":10376:10382   */\n      dup4\n        /* \"#utility.yul\":10354:10383   */\n      tag_51\n      jump\t// in\n    tag_191:\n        /* \"#utility.yul\":10349:10352   */\n      dup5\n        /* \"#utility.yul\":10345:10384   */\n      add\n        /* \"#utility.yul\":10338:10384   */\n      swap1\n      pop\n        /* \"#utility.yul\":10073:10390   */\n      swap4\n      swap3\n      pop\n      pop\n      pop\n      jump\t// out\n        /* \"#utility.yul\":10396:11171   */\n    tag_38:\n        /* \"#utility.yul\":10633:10637   */\n      0x00\n        /* \"#utility.yul\":10671:10674   */\n      0x80\n        /* \"#utility.yul\":10660:10669   */\n      dup3\n        /* \"#utility.yul\":10656:10675   */\n      add\n        /* \"#utility.yul\":10648:10675   */\n      swap1\n      pop\n        /* \"#utility.yul\":10721:10730   */\n      dup2\n        /* \"#utility.yul\":10715:10719   */\n      dup2\n        /* \"#utility.yul\":10711:10731   */\n      sub\n        /* \"#utility.yul\":10707:10708   */\n      0x00\n        /* \"#utility.yul\":10696:10705   */\n      dup4\n        /* \"#utility.yul\":10692:10709   */\n      add\n        /* \"#utility.yul\":10685:10732   */\n      mstore\n        /* \"#utility.yul\":10749:10837   */\n      tag_193\n        /* \"#utility.yul\":10832:10836   */\n      dup2\n        /* \"#utility.yul\":10823:10829   */\n      dup9\n        /* \"#utility.yul\":10815:10821   */\n      dup11\n        /* \"#utility.yul\":10749:10837   */\n      tag_75\n      jump\t// in\n    tag_193:\n        /* \"#utility.yul\":10741:10837   */\n      swap1\n      pop\n        /* \"#utility.yul\":10884:10893   */\n      dup2\n        /* \"#utility.yul\":10878:10882   */\n      dup2\n        /* \"#utility.yul\":10874:10894   */\n      sub\n        /* \"#utility.yul\":10869:10871   */\n      0x20\n        /* \"#utility.yul\":10858:10867   */\n      dup4\n        /* \"#utility.yul\":10854:10872   */\n      add\n        /* \"#utility.yul\":10847:10895   */\n      mstore\n        /* \"#utility.yul\":10912:11000   */\n      tag_194\n        /* \"#utility.yul\":10995:10999   */\n      dup2\n        /* \"#utility.yul\":10986:10992   */\n      dup7\n        /* \"#utility.yul\":10978:10984   */\n      dup9\n        /* \"#utility.yul\":10912:11000   */\n      tag_75\n      jump\t// in\n    tag_194:\n        /* \"#utility.yul\":10904:11000   */\n      swap1\n      pop\n        /* \"#utility.yul\":11010:11082   */\n      tag_195\n        /* \"#utility.yul\":11078:11080   */\n      0x40\n        /* \"#utility.yul\":11067:11076   */\n      dup4\n        /* \"#utility.yul\":11063:11081   */\n      add\n        /* \"#utility.yul\":11054:11060   */\n      dup6\n        /* \"#utility.yul\":11010:11082   */\n      tag_42\n      jump\t// in\n    tag_195:\n        /* \"#utility.yul\":11092:11164   */\n      tag_196\n        /* \"#utility.yul\":11160:11162   */\n      0x60\n        /* \"#utility.yul\":11149:11158   */\n      dup4\n        /* \"#utility.yul\":11145:11163   */\n      add\n        /* \"#utility.yul\":11136:11142   */\n      dup5\n        /* \"#utility.yul\":11092:11164   */\n      tag_42\n      jump\t// in\n    tag_196:\n        /* \"#utility.yul\":10396:11171   */\n      swap8\n      swap7\n      pop\n      pop\n      pop\n      pop\n      pop\n      pop\n      pop\n      jump\t// out\n        /* \"#utility.yul\":11177:11357   */\n    tag_76:\n        /* \"#utility.yul\":11225:11302   */\n      0x4e487b7100000000000000000000000000000000000000000000000000000000\n        /* \"#utility.yul\":11222:11223   */\n      0x00\n        /* \"#utility.yul\":11215:11303   */\n      mstore\n        /* \"#utility.yul\":11322:11326   */\n      0x11\n        /* \"#utility.yul\":11319:11320   */\n      0x04\n        /* \"#utility.yul\":11312:11327   */\n      mstore\n        /* \"#utility.yul\":11346:11350   */\n      0x24\n        /* \"#utility.yul\":11343:11344   */\n      0x00\n        /* \"#utility.yul\":11336:11351   */\n      revert\n        /* \"#utility.yul\":11363:11596   */\n    tag_40:\n        /* \"#utility.yul\":11402:11405   */\n      0x00\n        /* \"#utility.yul\":11425:11449   */\n      tag_199\n        /* \"#utility.yul\":11443:11448   */\n      dup3\n        /* \"#utility.yul\":11425:11449   */\n      tag_41\n      jump\t// in\n    tag_199:\n        /* \"#utility.yul\":11416:11449   */\n      swap2\n      pop\n        /* \"#utility.yul\":11471:11537   */\n      0xffffffffffffffffffffffffffffffffffffffffffffffffffffffffffffffff\n        /* \"#utility.yul\":11464:11469   */\n      dup3\n        /* \"#utility.yul\":11461:11538   */\n      sub\n        /* \"#utility.yul\":11458:11561   */\n      tag_200\n      jumpi\n        /* \"#utility.yul\":11541:11559   */\n      tag_201\n      tag_76\n      jump\t// in\n    tag_201:\n        /* \"#utility.yul\":11458:11561   */\n    tag_200:\n        /* \"#utility.yul\":11588:11589   */\n      0x01\n        /* \"#utility.yul\":11581:11586   */\n      dup3\n        /* \"#utility.yul\":11577:11590   */\n      add\n        /* \"#utility.yul\":11570:11590   */\n      swap1\n      pop\n        /* \"#utility.yul\":11363:11596   */\n      swap2\n      swap1\n      pop\n      jump\t// out\n\n    auxdata: 0xa2646970667358221220a17a68ce7724cd65a3b33079f719ae6527055567eff7d5b4de18cdd1f3933b0064736f6c634300081a0033\n}\n",
				"bytecode": {
					"linkReferences": {},
					"object": "6080604052348015600e575f80fd5b506109b98061001c5f395ff3fe608060405260043610610033575f3560e01c80639fb42b1f14610037578063ac12408114610061578063bbf3fbe6146100a0575b5f80fd5b348015610042575f80fd5b5061004b6100bc565b6040516100589190610374565b60405180910390f35b34801561006c575f80fd5b50610087600480360381019061008291906103bf565b6100c2565b604051610097949392919061045a565b60405180910390f35b6100ba60048036038101906100b5919061050c565b6101f9565b005b60015481565b5f602052805f5260405f205f91509050805f0180546100e0906105b7565b80601f016020809104026020016040519081016040528092919081815260200182805461010c906105b7565b80156101575780601f1061012e57610100808354040283529160200191610157565b820191905f5260205f20905b81548152906001019060200180831161013a57829003601f168201915b50505050509080600101805461016c906105b7565b80601f0160208091040260200160405190810160405280929190818152602001828054610198906105b7565b80156101e35780601f106101ba576101008083540402835291602001916101e3565b820191905f5260205f20905b8154815290600101906020018083116101c657829003601f168201915b5050505050908060020154908060030154905084565b5f3411610204575f80fd5b604051806080016040528085858080601f0160208091040260200160405190810160405280939291908181526020018383808284375f81840152601f19601f82011690508083019250505050505050815260200183838080601f0160208091040260200160405190810160405280939291908181526020018383808284375f81840152601f19601f820116905080830192505050505050508152602001348152602001428152505f8060015481526020019081526020015f205f820151815f0190816102d091906107b1565b5060208201518160010190816102e691906107b1565b5060408201518160020155606082015181600301559050507f46bf4ef0f6d29d132bdb325d59cb612e4764977945a61ad13dd3beb5c75d3d44848484843442604051610337969594939291906108ba565b60405180910390a160015f8154809291906103519061093c565b919050555050505050565b5f819050919050565b61036e8161035c565b82525050565b5f6020820190506103875f830184610365565b92915050565b5f80fd5b5f80fd5b61039e8161035c565b81146103a8575f80fd5b50565b5f813590506103b981610395565b92915050565b5f602082840312156103d4576103d361038d565b5b5f6103e1848285016103ab565b91505092915050565b5f81519050919050565b5f82825260208201905092915050565b8281835e5f83830152505050565b5f601f19601f8301169050919050565b5f61042c826103ea565b61043681856103f4565b9350610446818560208601610404565b61044f81610412565b840191505092915050565b5f6080820190508181035f8301526104728187610422565b905081810360208301526104868186610422565b90506104956040830185610365565b6104a26060830184610365565b95945050505050565b5f80fd5b5f80fd5b5f80fd5b5f8083601f8401126104cc576104cb6104ab565b5b8235905067ffffffffffffffff8111156104e9576104e86104af565b5b602083019150836001820283011115610505576105046104b3565b5b9250929050565b5f805f80604085870312156105245761052361038d565b5b5f85013567ffffffffffffffff81111561054157610540610391565b5b61054d878288016104b7565b9450945050602085013567ffffffffffffffff8111156105705761056f610391565b5b61057c878288016104b7565b925092505092959194509250565b7f4e487b71000000000000000000000000000000000000000000000000000000005f52602260045260245ffd5b5f60028204905060018216806105ce57607f821691505b6020821081036105e1576105e061058a565b5b50919050565b7f4e487b71000000000000000000000000000000000000000000000000000000005f52604160045260245ffd5b5f819050815f5260205f209050919050565b5f6020601f8301049050919050565b5f82821b905092915050565b5f600883026106707fffffffffffffffffffffffffffffffffffffffffffffffffffffffffffffffff82610635565b61067a8683610635565b95508019841693508086168417925050509392505050565b5f819050919050565b5f6106b56106b06106ab8461035c565b610692565b61035c565b9050919050565b5f819050919050565b6106ce8361069b565b6106e26106da826106bc565b848454610641565b825550505050565b5f90565b6106f66106ea565b6107018184846106c5565b505050565b5b81811015610724576107195f826106ee565b600181019050610707565b5050565b601f8211156107695761073a81610614565b61074384610626565b81016020851015610752578190505b61076661075e85610626565b830182610706565b50505b505050565b5f82821c905092915050565b5f6107895f198460080261076e565b1980831691505092915050565b5f6107a1838361077a565b9150826002028217905092915050565b6107ba826103ea565b67ffffffffffffffff8111156107d3576107d26105e7565b5b6107dd82546105b7565b6107e8828285610728565b5f60209050601f831160018114610819575f8415610807578287015190505b6108118582610796565b865550610878565b601f19841661082786610614565b5f5b8281101561084e57848901518255600182019150602085019450602081019050610829565b8683101561086b5784890151610867601f89168261077a565b8355505b6001600288020188555050505b505050505050565b828183375f83830152505050565b5f61089983856103f4565b93506108a6838584610880565b6108af83610412565b840190509392505050565b5f6080820190508181035f8301526108d381888a61088e565b905081810360208301526108e881868861088e565b90506108f76040830185610365565b6109046060830184610365565b979650505050505050565b7f4e487b71000000000000000000000000000000000000000000000000000000005f52601160045260245ffd5b5f6109468261035c565b91507fffffffffffffffffffffffffffffffffffffffffffffffffffffffffffffffff82036109785761097761090f565b5b60018201905091905056fea2646970667358221220a17a68ce7724cd65a3b33079f719ae6527055567eff7d5b4de18cdd1f3933b0064736f6c634300081a0033",
					"opcodes": "PUSH1 0x80 PUSH1 0x40 MSTORE CALLVALUE DUP1 ISZERO PUSH1 0xE JUMPI PUSH0 DUP1 REVERT JUMPDEST POP PUSH2 0x9B9 DUP1 PUSH2 0x1C PUSH0 CODECOPY PUSH0 RETURN INVALID PUSH1 0x80 PUSH1 0x40 MSTORE PUSH1 0x4 CALLDATASIZE LT PUSH2 0x33 JUMPI PUSH0 CALLDATALOAD PUSH1 0xE0 SHR DUP1 PUSH4 0x9FB42B1F EQ PUSH2 0x37 JUMPI DUP1 PUSH4 0xAC124081 EQ PUSH2 0x61 JUMPI DUP1 PUSH4 0xBBF3FBE6 EQ PUSH2 0xA0 JUMPI JUMPDEST PUSH0 DUP1 REVERT JUMPDEST CALLVALUE DUP1 ISZERO PUSH2 0x42 JUMPI PUSH0 DUP1 REVERT JUMPDEST POP PUSH2 0x4B PUSH2 0xBC JUMP JUMPDEST PUSH1 0x40 MLOAD PUSH2 0x58 SWAP2 SWAP1 PUSH2 0x374 JUMP JUMPDEST PUSH1 0x40 MLOAD DUP1 SWAP2 SUB SWAP1 RETURN JUMPDEST CALLVALUE DUP1 ISZERO PUSH2 0x6C JUMPI PUSH0 DUP1 REVERT JUMPDEST POP PUSH2 0x87 PUSH1 0x4 DUP1 CALLDATASIZE SUB DUP2 ADD SWAP1 PUSH2 0x82 SWAP2 SWAP1 PUSH2 0x3BF JUMP JUMPDEST PUSH2 0xC2 JUMP JUMPDEST PUSH1 0x40 MLOAD PUSH2 0x97 SWAP5 SWAP4 SWAP3 SWAP2 SWAP1 PUSH2 0x45A JUMP JUMPDEST PUSH1 0x40 MLOAD DUP1 SWAP2 SUB SWAP1 RETURN JUMPDEST PUSH2 0xBA PUSH1 0x4 DUP1 CALLDATASIZE SUB DUP2 ADD SWAP1 PUSH2 0xB5 SWAP2 SWAP1 PUSH2 0x50C JUMP JUMPDEST PUSH2 0x1F9 JUMP JUMPDEST STOP JUMPDEST PUSH1 0x1 SLOAD DUP2 JUMP JUMPDEST PUSH0 PUSH1 0x20 MSTORE DUP1 PUSH0 MSTORE PUSH1 0x40 PUSH0 KECCAK256 PUSH0 SWAP2 POP SWAP1 POP DUP1 PUSH0 ADD DUP1 SLOAD PUSH2 0xE0 SWAP1 PUSH2 0x5B7 JUMP JUMPDEST DUP1 PUSH1 0x1F ADD PUSH1 0x20 DUP1 SWAP2 DIV MUL PUSH1 0x20 ADD PUSH1 0x40 MLOAD SWAP1 DUP2 ADD PUSH1 0x40 MSTORE DUP1 SWAP3 SWAP2 SWAP1 DUP2 DUP2 MSTORE PUSH1 0x20 ADD DUP3 DUP1 SLOAD PUSH2 0x10C SWAP1 PUSH2 0x5B7 JUMP JUMPDEST DUP1 ISZERO PUSH2 0x157 JUMPI DUP1 PUSH1 0x1F LT PUSH2 0x12E JUMPI PUSH2 0x100 DUP1 DUP4 SLOAD DIV MUL DUP4 MSTORE SWAP2 PUSH1 0x20 ADD SWAP2 PUSH2 0x157 JUMP JUMPDEST DUP3 ADD SWAP2 SWAP1 PUSH0 MSTORE PUSH1 0x20 PUSH0 KECCAK256 SWAP1 JUMPDEST DUP2 SLOAD DUP2 MSTORE SWAP1 PUSH1 0x1 ADD SWAP1 PUSH1 0x20 ADD DUP1 DUP4 GT PUSH2 0x13A JUMPI DUP3 SWAP1 SUB PUSH1 0x1F AND DUP3 ADD SWAP2 JUMPDEST POP POP POP POP POP SWAP1 DUP1 PUSH1 0x1 ADD DUP1 SLOAD PUSH2 0x16C SWAP1 PUSH2 0x5B7 JUMP JUMPDEST DUP1 PUSH1 0x1F ADD PUSH1 0x20 DUP1 SWAP2 DIV MUL PUSH1 0x20 ADD PUSH1 0x40 MLOAD SWAP1 DUP2 ADD PUSH1 0x40 MSTORE DUP1 SWAP3 SWAP2 SWAP1 DUP2 DUP2 MSTORE PUSH1 0x20 ADD DUP3 DUP1 SLOAD PUSH2 0x198 SWAP1 PUSH2 0x5B7 JUMP JUMPDEST DUP1 ISZERO PUSH2 0x1E3 JUMPI DUP1 PUSH1 0x1F LT PUSH2 0x1BA JUMPI PUSH2 0x100 DUP1 DUP4 SLOAD DIV MUL DUP4 MSTORE SWAP2 PUSH1 0x20 ADD SWAP2 PUSH2 0x1E3 JUMP JUMPDEST DUP3 ADD SWAP2 SWAP1 PUSH0 MSTORE PUSH1 0x20 PUSH0 KECCAK256 SWAP1 JUMPDEST DUP2 SLOAD DUP2 MSTORE SWAP1 PUSH1 0x1 ADD SWAP1 PUSH1 0x20 ADD DUP1 DUP4 GT PUSH2 0x1C6 JUMPI DUP3 SWAP1 SUB PUSH1 0x1F AND DUP3 ADD SWAP2 JUMPDEST POP POP POP POP POP SWAP1 DUP1 PUSH1 0x2 ADD SLOAD SWAP1 DUP1 PUSH1 0x3 ADD SLOAD SWAP1 POP DUP5 JUMP JUMPDEST PUSH0 CALLVALUE GT PUSH2 0x204 JUMPI PUSH0 DUP1 REVERT JUMPDEST PUSH1 0x40 MLOAD DUP1 PUSH1 0x80 ADD PUSH1 0x40 MSTORE DUP1 DUP6 DUP6 DUP1 DUP1 PUSH1 0x1F ADD PUSH1 0x20 DUP1 SWAP2 DIV MUL PUSH1 0x20 ADD PUSH1 0x40 MLOAD SWAP1 DUP2 ADD PUSH1 0x40 MSTORE DUP1 SWAP4 SWAP3 SWAP2 SWAP1 DUP2 DUP2 MSTORE PUSH1 0x20 ADD DUP4 DUP4 DUP1 DUP3 DUP5 CALLDATACOPY PUSH0 DUP2 DUP5 ADD MSTORE PUSH1 0x1F NOT PUSH1 0x1F DUP3 ADD AND SWAP1 POP DUP1 DUP4 ADD SWAP3 POP POP POP POP POP POP POP DUP2 MSTORE PUSH1 0x20 ADD DUP4 DUP4 DUP1 DUP1 PUSH1 0x1F ADD PUSH1 0x20 DUP1 SWAP2 DIV MUL PUSH1 0x20 ADD PUSH1 0x40 MLOAD SWAP1 DUP2 ADD PUSH1 0x40 MSTORE DUP1 SWAP4 SWAP3 SWAP2 SWAP1 DUP2 DUP2 MSTORE PUSH1 0x20 ADD DUP4 DUP4 DUP1 DUP3 DUP5 CALLDATACOPY PUSH0 DUP2 DUP5 ADD MSTORE PUSH1 0x1F NOT PUSH1 0x1F DUP3 ADD AND SWAP1 POP DUP1 DUP4 ADD SWAP3 POP POP POP POP POP POP POP DUP2 MSTORE PUSH1 0x20 ADD CALLVALUE DUP2 MSTORE PUSH1 0x20 ADD TIMESTAMP DUP2 MSTORE POP PUSH0 DUP1 PUSH1 0x1 SLOAD DUP2 MSTORE PUSH1 0x20 ADD SWAP1 DUP2 MSTORE PUSH1 0x20 ADD PUSH0 KECCAK256 PUSH0 DUP3 ADD MLOAD DUP2 PUSH0 ADD SWAP1 DUP2 PUSH2 0x2D0 SWAP2 SWAP1 PUSH2 0x7B1 JUMP JUMPDEST POP PUSH1 0x20 DUP3 ADD MLOAD DUP2 PUSH1 0x1 ADD SWAP1 DUP2 PUSH2 0x2E6 SWAP2 SWAP1 PUSH2 0x7B1 JUMP JUMPDEST POP PUSH1 0x40 DUP3 ADD MLOAD DUP2 PUSH1 0x2 ADD SSTORE PUSH1 0x60 DUP3 ADD MLOAD DUP2 PUSH1 0x3 ADD SSTORE SWAP1 POP POP PUSH32 0x46BF4EF0F6D29D132BDB325D59CB612E4764977945A61AD13DD3BEB5C75D3D44 DUP5 DUP5 DUP5 DUP5 CALLVALUE TIMESTAMP PUSH1 0x40 MLOAD PUSH2 0x337 SWAP7 SWAP6 SWAP5 SWAP4 SWAP3 SWAP2 SWAP1 PUSH2 0x8BA JUMP JUMPDEST PUSH1 0x40 MLOAD DUP1 SWAP2 SUB SWAP1 LOG1 PUSH1 0x1 PUSH0 DUP2 SLOAD DUP1 SWAP3 SWAP2 SWAP1 PUSH2 0x351 SWAP1 PUSH2 0x93C JUMP JUMPDEST SWAP2 SWAP1 POP SSTORE POP POP POP POP POP JUMP JUMPDEST PUSH0 DUP2 SWAP1 POP SWAP2 SWAP1 POP JUMP JUMPDEST PUSH2 0x36E DUP2 PUSH2 0x35C JUMP JUMPDEST DUP3 MSTORE POP POP JUMP JUMPDEST PUSH0 PUSH1 0x20 DUP3 ADD SWAP1 POP PUSH2 0x387 PUSH0 DUP4 ADD DUP5 PUSH2 0x365 JUMP JUMPDEST SWAP3 SWAP2 POP POP JUMP JUMPDEST PUSH0 DUP1 REVERT JUMPDEST PUSH0 DUP1 REVERT JUMPDEST PUSH2 0x39E DUP2 PUSH2 0x35C JUMP JUMPDEST DUP2 EQ PUSH2 0x3A8 JUMPI PUSH0 DUP1 REVERT JUMPDEST POP JUMP JUMPDEST PUSH0 DUP2 CALLDATALOAD SWAP1 POP PUSH2 0x3B9 DUP2 PUSH2 0x395 JUMP JUMPDEST SWAP3 SWAP2 POP POP JUMP JUMPDEST PUSH0 PUSH1 0x20 DUP3 DUP5 SUB SLT ISZERO PUSH2 0x3D4 JUMPI PUSH2 0x3D3 PUSH2 0x38D JUMP JUMPDEST JUMPDEST PUSH0 PUSH2 0x3E1 DUP5 DUP3 DUP6 ADD PUSH2 0x3AB JUMP JUMPDEST SWAP2 POP POP SWAP3 SWAP2 POP POP JUMP JUMPDEST PUSH0 DUP2 MLOAD SWAP1 POP SWAP2 SWAP1 POP JUMP JUMPDEST PUSH0 DUP3 DUP3 MSTORE PUSH1 0x20 DUP3 ADD SWAP1 POP SWAP3 SWAP2 POP POP JUMP JUMPDEST DUP3 DUP2 DUP4 MCOPY PUSH0 DUP4 DUP4 ADD MSTORE POP POP POP JUMP JUMPDEST PUSH0 PUSH1 0x1F NOT PUSH1 0x1F DUP4 ADD AND SWAP1 POP SWAP2 SWAP1 POP JUMP JUMPDEST PUSH0 PUSH2 0x42C DUP3 PUSH2 0x3EA JUMP JUMPDEST PUSH2 0x436 DUP2 DUP6 PUSH2 0x3F4 JUMP JUMPDEST SWAP4 POP PUSH2 0x446 DUP2 DUP6 PUSH1 0x20 DUP7 ADD PUSH2 0x404 JUMP JUMPDEST PUSH2 0x44F DUP2 PUSH2 0x412 JUMP JUMPDEST DUP5 ADD SWAP2 POP POP SWAP3 SWAP2 POP POP JUMP JUMPDEST PUSH0 PUSH1 0x80 DUP3 ADD SWAP1 POP DUP2 DUP2 SUB PUSH0 DUP4 ADD MSTORE PUSH2 0x472 DUP2 DUP8 PUSH2 0x422 JUMP JUMPDEST SWAP1 POP DUP2 DUP2 SUB PUSH1 0x20 DUP4 ADD MSTORE PUSH2 0x486 DUP2 DUP7 PUSH2 0x422 JUMP JUMPDEST SWAP1 POP PUSH2 0x495 PUSH1 0x40 DUP4 ADD DUP6 PUSH2 0x365 JUMP JUMPDEST PUSH2 0x4A2 PUSH1 0x60 DUP4 ADD DUP5 PUSH2 0x365 JUMP JUMPDEST SWAP6 SWAP5 POP POP POP POP POP JUMP JUMPDEST PUSH0 DUP1 REVERT JUMPDEST PUSH0 DUP1 REVERT JUMPDEST PUSH0 DUP1 REVERT JUMPDEST PUSH0 DUP1 DUP4 PUSH1 0x1F DUP5 ADD SLT PUSH2 0x4CC JUMPI PUSH2 0x4CB PUSH2 0x4AB JUMP JUMPDEST JUMPDEST DUP3 CALLDATALOAD SWAP1 POP PUSH8 0xFFFFFFFFFFFFFFFF DUP2 GT ISZERO PUSH2 0x4E9 JUMPI PUSH2 0x4E8 PUSH2 0x4AF JUMP JUMPDEST JUMPDEST PUSH1 0x20 DUP4 ADD SWAP2 POP DUP4 PUSH1 0x1 DUP3 MUL DUP4 ADD GT ISZERO PUSH2 0x505 JUMPI PUSH2 0x504 PUSH2 0x4B3 JUMP JUMPDEST JUMPDEST SWAP3 POP SWAP3 SWAP1 POP JUMP JUMPDEST PUSH0 DUP1 PUSH0 DUP1 PUSH1 0x40 DUP6 DUP8 SUB SLT ISZERO PUSH2 0x524 JUMPI PUSH2 0x523 PUSH2 0x38D JUMP JUMPDEST JUMPDEST PUSH0 DUP6 ADD CALLDATALOAD PUSH8 0xFFFFFFFFFFFFFFFF DUP2 GT ISZERO PUSH2 0x541 JUMPI PUSH2 0x540 PUSH2 0x391 JUMP JUMPDEST JUMPDEST PUSH2 0x54D DUP8 DUP3 DUP9 ADD PUSH2 0x4B7 JUMP JUMPDEST SWAP5 POP SWAP5 POP POP PUSH1 0x20 DUP6 ADD CALLDATALOAD PUSH8 0xFFFFFFFFFFFFFFFF DUP2 GT ISZERO PUSH2 0x570 JUMPI PUSH2 0x56F PUSH2 0x391 JUMP JUMPDEST JUMPDEST PUSH2 0x57C DUP8 DUP3 DUP9 ADD PUSH2 0x4B7 JUMP JUMPDEST SWAP3 POP SWAP3 POP POP SWAP3 SWAP6 SWAP2 SWAP5 POP SWAP3 POP JUMP JUMPDEST PUSH32 0x4E487B7100000000000000000000000000000000000000000000000000000000 PUSH0 MSTORE PUSH1 0x22 PUSH1 0x4 MSTORE PUSH1 0x24 PUSH0 REVERT JUMPDEST PUSH0 PUSH1 0x2 DUP3 DIV SWAP1 POP PUSH1 0x1 DUP3 AND DUP1 PUSH2 0x5CE JUMPI PUSH1 0x7F DUP3 AND SWAP2 POP JUMPDEST PUSH1 0x20 DUP3 LT DUP2 SUB PUSH2 0x5E1 JUMPI PUSH2 0x5E0 PUSH2 0x58A JUMP JUMPDEST JUMPDEST POP SWAP2 SWAP1 POP JUMP JUMPDEST PUSH32 0x4E487B7100000000000000000000000000000000000000000000000000000000 PUSH0 MSTORE PUSH1 0x41 PUSH1 0x4 MSTORE PUSH1 0x24 PUSH0 REVERT JUMPDEST PUSH0 DUP2 SWAP1 POP DUP2 PUSH0 MSTORE PUSH1 0x20 PUSH0 KECCAK256 SWAP1 POP SWAP2 SWAP1 POP JUMP JUMPDEST PUSH0 PUSH1 0x20 PUSH1 0x1F DUP4 ADD DIV SWAP1 POP SWAP2 SWAP1 POP JUMP JUMPDEST PUSH0 DUP3 DUP3 SHL SWAP1 POP SWAP3 SWAP2 POP POP JUMP JUMPDEST PUSH0 PUSH1 0x8 DUP4 MUL PUSH2 0x670 PUSH32 0xFFFFFFFFFFFFFFFFFFFFFFFFFFFFFFFFFFFFFFFFFFFFFFFFFFFFFFFFFFFFFFFF DUP3 PUSH2 0x635 JUMP JUMPDEST PUSH2 0x67A DUP7 DUP4 PUSH2 0x635 JUMP JUMPDEST SWAP6 POP DUP1 NOT DUP5 AND SWAP4 POP DUP1 DUP7 AND DUP5 OR SWAP3 POP POP POP SWAP4 SWAP3 POP POP POP JUMP JUMPDEST PUSH0 DUP2 SWAP1 POP SWAP2 SWAP1 POP JUMP JUMPDEST PUSH0 PUSH2 0x6B5 PUSH2 0x6B0 PUSH2 0x6AB DUP5 PUSH2 0x35C JUMP JUMPDEST PUSH2 0x692 JUMP JUMPDEST PUSH2 0x35C JUMP JUMPDEST SWAP1 POP SWAP2 SWAP1 POP JUMP JUMPDEST PUSH0 DUP2 SWAP1 POP SWAP2 SWAP1 POP JUMP JUMPDEST PUSH2 0x6CE DUP4 PUSH2 0x69B JUMP JUMPDEST PUSH2 0x6E2 PUSH2 0x6DA DUP3 PUSH2 0x6BC JUMP JUMPDEST DUP5 DUP5 SLOAD PUSH2 0x641 JUMP JUMPDEST DUP3 SSTORE POP POP POP POP JUMP JUMPDEST PUSH0 SWAP1 JUMP JUMPDEST PUSH2 0x6F6 PUSH2 0x6EA JUMP JUMPDEST PUSH2 0x701 DUP2 DUP5 DUP5 PUSH2 0x6C5 JUMP JUMPDEST POP POP POP JUMP JUMPDEST JUMPDEST DUP2 DUP2 LT ISZERO PUSH2 0x724 JUMPI PUSH2 0x719 PUSH0 DUP3 PUSH2 0x6EE JUMP JUMPDEST PUSH1 0x1 DUP2 ADD SWAP1 POP PUSH2 0x707 JUMP JUMPDEST POP POP JUMP JUMPDEST PUSH1 0x1F DUP3 GT ISZERO PUSH2 0x769 JUMPI PUSH2 0x73A DUP2 PUSH2 0x614 JUMP JUMPDEST PUSH2 0x743 DUP5 PUSH2 0x626 JUMP JUMPDEST DUP2 ADD PUSH1 0x20 DUP6 LT ISZERO PUSH2 0x752 JUMPI DUP2 SWAP1 POP JUMPDEST PUSH2 0x766 PUSH2 0x75E DUP6 PUSH2 0x626 JUMP JUMPDEST DUP4 ADD DUP3 PUSH2 0x706 JUMP JUMPDEST POP POP JUMPDEST POP POP POP JUMP JUMPDEST PUSH0 DUP3 DUP3 SHR SWAP1 POP SWAP3 SWAP2 POP POP JUMP JUMPDEST PUSH0 PUSH2 0x789 PUSH0 NOT DUP5 PUSH1 0x8 MUL PUSH2 0x76E JUMP JUMPDEST NOT DUP1 DUP4 AND SWAP2 POP POP SWAP3 SWAP2 POP POP JUMP JUMPDEST PUSH0 PUSH2 0x7A1 DUP4 DUP4 PUSH2 0x77A JUMP JUMPDEST SWAP2 POP DUP3 PUSH1 0x2 MUL DUP3 OR SWAP1 POP SWAP3 SWAP2 POP POP JUMP JUMPDEST PUSH2 0x7BA DUP3 PUSH2 0x3EA JUMP JUMPDEST PUSH8 0xFFFFFFFFFFFFFFFF DUP2 GT ISZERO PUSH2 0x7D3 JUMPI PUSH2 0x7D2 PUSH2 0x5E7 JUMP JUMPDEST JUMPDEST PUSH2 0x7DD DUP3 SLOAD PUSH2 0x5B7 JUMP JUMPDEST PUSH2 0x7E8 DUP3 DUP3 DUP6 PUSH2 0x728 JUMP JUMPDEST PUSH0 PUSH1 0x20 SWAP1 POP PUSH1 0x1F DUP4 GT PUSH1 0x1 DUP2 EQ PUSH2 0x819 JUMPI PUSH0 DUP5 ISZERO PUSH2 0x807 JUMPI DUP3 DUP8 ADD MLOAD SWAP1 POP JUMPDEST PUSH2 0x811 DUP6 DUP3 PUSH2 0x796 JUMP JUMPDEST DUP7 SSTORE POP PUSH2 0x878 JUMP JUMPDEST PUSH1 0x1F NOT DUP5 AND PUSH2 0x827 DUP7 PUSH2 0x614 JUMP JUMPDEST PUSH0 JUMPDEST DUP3 DUP2 LT ISZERO PUSH2 0x84E JUMPI DUP5 DUP10 ADD MLOAD DUP3 SSTORE PUSH1 0x1 DUP3 ADD SWAP2 POP PUSH1 0x20 DUP6 ADD SWAP5 POP PUSH1 0x20 DUP2 ADD SWAP1 POP PUSH2 0x829 JUMP JUMPDEST DUP7 DUP4 LT ISZERO PUSH2 0x86B JUMPI DUP5 DUP10 ADD MLOAD PUSH2 0x867 PUSH1 0x1F DUP10 AND DUP3 PUSH2 0x77A JUMP JUMPDEST DUP4 SSTORE POP JUMPDEST PUSH1 0x1 PUSH1 0x2 DUP9 MUL ADD DUP9 SSTORE POP POP POP JUMPDEST POP POP POP POP POP POP JUMP JUMPDEST DUP3 DUP2 DUP4 CALLDATACOPY PUSH0 DUP4 DUP4 ADD MSTORE POP POP POP JUMP JUMPDEST PUSH0 PUSH2 0x899 DUP4 DUP6 PUSH2 0x3F4 JUMP JUMPDEST SWAP4 POP PUSH2 0x8A6 DUP4 DUP6 DUP5 PUSH2 0x880 JUMP JUMPDEST PUSH2 0x8AF DUP4 PUSH2 0x412 JUMP JUMPDEST DUP5 ADD SWAP1 POP SWAP4 SWAP3 POP POP POP JUMP JUMPDEST PUSH0 PUSH1 0x80 DUP3 ADD SWAP1 POP DUP2 DUP2 SUB PUSH0 DUP4 ADD MSTORE PUSH2 0x8D3 DUP2 DUP9 DUP11 PUSH2 0x88E JUMP JUMPDEST SWAP1 POP DUP2 DUP2 SUB PUSH1 0x20 DUP4 ADD MSTORE PUSH2 0x8E8 DUP2 DUP7 DUP9 PUSH2 0x88E JUMP JUMPDEST SWAP1 POP PUSH2 0x8F7 PUSH1 0x40 DUP4 ADD DUP6 PUSH2 0x365 JUMP JUMPDEST PUSH2 0x904 PUSH1 0x60 DUP4 ADD DUP5 PUSH2 0x365 JUMP JUMPDEST SWAP8 SWAP7 POP POP POP POP POP POP POP JUMP JUMPDEST PUSH32 0x4E487B7100000000000000000000000000000000000000000000000000000000 PUSH0 MSTORE PUSH1 0x11 PUSH1 0x4 MSTORE PUSH1 0x24 PUSH0 REVERT JUMPDEST PUSH0 PUSH2 0x946 DUP3 PUSH2 0x35C JUMP JUMPDEST SWAP2 POP PUSH32 0xFFFFFFFFFFFFFFFFFFFFFFFFFFFFFFFFFFFFFFFFFFFFFFFFFFFFFFFFFFFFFFFF DUP3 SUB PUSH2 0x978 JUMPI PUSH2 0x977 PUSH2 0x90F JUMP JUMPDEST JUMPDEST PUSH1 0x1 DUP3 ADD SWAP1 POP SWAP2 SWAP1 POP JUMP INVALID LOG2 PUSH5 0x6970667358 0x22 SLT KECCAK256 LOG1 PUSH27 0x68CE7724CD65A3B33079F719AE6527055567EFF7D5B4DE18CDD1F3 SWAP4 EXTCODESIZE STOP PUSH5 0x736F6C6343 STOP ADDMOD BYTE STOP CALLER "
				},
				"gasEstimates": {
					"creation": {
						"codeDepositCost": "497800",
						"executionCost": "528",
						"totalCost": "498328"
					},
					"external": {
						"addPledge(string,string)": "infinite",
						"numRequests()": "2403",
						"pledges(uint256)": "infinite"
					}
				},
				"methodIdentifiers": {
					"addPledge(string,string)": "bbf3fbe6",
					"numRequests()": "9fb42b1f",
					"pledges(uint256)": "ac124081"
				}
			},
			"storageLayout": {
				"storage": [
					{
						"astId": 15,
						"contract": "Pledge Board/contract.sol:Pledge",
						"label": "pledges",
						"offset": 0,
						"slot": "0",
						"type": "t_mapping(t_uint256,t_struct(PledgeStruct)10_storage)"
					},
					{
						"astId": 17,
						"contract": "Pledge Board/contract.sol:Pledge",
						"label": "numRequests",
						"offset": 0,
						"slot": "1",
						"type": "t_uint256"
					}
				],
				"types": {
					"t_mapping(t_uint256,t_struct(PledgeStruct)10_storage)": {
						"encoding": "mapping",
						"key": "t_uint256",
						"label": "mapping(uint256 => struct Pledge.PledgeStruct)",
						"numberOfBytes": "32",
						"value": "t_struct(PledgeStruct)10_storage"
					},
					"t_string_storage": {
						"encoding": "bytes",
						"label": "string",
						"numberOfBytes": "32"
					},
					"t_struct(PledgeStruct)10_storage": {
						"encoding": "inplace",
						"label": "struct Pledge.PledgeStruct",
						"members": [
							{
								"astId": 3,
								"contract": "Pledge Board/contract.sol:Pledge",
								"label": "name",
								"offset": 0,
								"slot": "0",
								"type": "t_string_storage"
							},
							{
								"astId": 5,
								"contract": "Pledge Board/contract.sol:Pledge",
								"label": "message",
								"offset": 0,
								"slot": "1",
								"type": "t_string_storage"
							},
							{
								"astId": 7,
								"contract": "Pledge Board/contract.sol:Pledge",
								"label": "amount",
								"offset": 0,
								"slot": "2",
								"type": "t_uint256"
							},
							{
								"astId": 9,
								"contract": "Pledge Board/contract.sol:Pledge",
								"label": "time",
								"offset": 0,
								"slot": "3",
								"type": "t_uint256"
							}
						],
						"numberOfBytes": "128"
					},
					"t_uint256": {
						"encoding": "inplace",
						"label": "uint256",
						"numberOfBytes": "32"
					}
				}
			},
			"userdoc": {
				"kind": "user",
				"methods": {},
				"version": 1
			}
		}
	}
}