{
	"EventOrganization/EventOrganization.sol": {
		"EventOrganization": {
			"abi": [
				{
					"inputs": [
						{
							"internalType": "uint256",
							"name": "id",
							"type": "uint256"
						},
						{
							"internalType": "uint256",
							"name": "quantity",
							"type": "uint256"
						}
					],
					"name": "BuyTicket",
					"outputs": [],
					"stateMutability": "payable",
					"type": "function"
				},
				{
					"inputs": [
						{
							"internalType": "string",
							"name": "name",
							"type": "string"
						},
						{
							"internalType": "uint256",
							"name": "date",
							"type": "uint256"
						},
						{
							"internalType": "uint256",
							"name": "price",
							"type": "uint256"
						},
						{
							"internalType": "uint256",
							"name": "ticketCount",
							"type": "uint256"
						}
					],
					"name": "CreateEvent",
					"outputs": [],
					"stateMutability": "nonpayable",
					"type": "function"
				},
				{
					"inputs": [
						{
							"internalType": "uint256",
							"name": "",
							"type": "uint256"
						}
					],
					"name": "events",
					"outputs": [
						{
							"internalType": "address",
							"name": "organizer",
							"type": "address"
						},
						{
							"internalType": "string",
							"name": "name",
							"type": "string"
						},
						{
							"internalType": "uint256",
							"name": "date",
							"type": "uint256"
						},
						{
							"internalType": "uint256",
							"name": "price",
							"type": "uint256"
						},
						{
							"internalType": "uint256",
							"name": "ticketCount",
							"type": "uint256"
						},
						{
							"internalType": "uint256",
							"name": "ticketRemaining",
							"type": "uint256"
						}
					],
					"stateMutability": "view",
					"type": "function"
				},
				{
					"inputs": [],
					"name": "nextId",
					"outputs": [
						{
							"internalType": "uint256",
							"name": "",
							"type": "uint256"
						}
					],
					"stateMutability": "view",
					"type": "function"
				},
				{
					"inputs": [
						{
							"internalType": "address",
							"name": "",
							"type": "address"
						},
						{
							"internalType": "uint256",
							"name": "",
							"type": "uint256"
						}
					],
					"name": "tickets",
					"outputs": [
						{
							"internalType": "uint256",
							"name": "",
							"type": "uint256"
						}
					],
					"stateMutability": "view",
					"type": "function"
				},
				{
					"inputs": [
						{
							"internalType": "uint256",
							"name": "id",
							"type": "uint256"
						},
						{
							"internalType": "uint256",
							"name": "quantity",
							"type": "uint256"
						},
						{
							"internalType": "address",
							"name": "to",
							"type": "address"
						}
					],
					"name": "transferTickets",
					"outputs": [],
					"stateMutability": "nonpayable",
					"type": "function"
				}
			],
			"devdoc": {
				"kind": "dev",
				"methods": {},
				"version": 1
			},
			"evm": {
				"assembly": "    /* \"EventOrganization/EventOrganization.sol\":68:1650  contract EventOrganization{... */\n  mstore(0x40, 0x80)\n  callvalue\n  dup1\n  iszero\n  tag_1\n  jumpi\n  0x00\n  dup1\n  revert\ntag_1:\n  pop\n  dataSize(sub_0)\n  dup1\n  dataOffset(sub_0)\n  0x00\n  codecopy\n  0x00\n  return\nstop\n\nsub_0: assembly {\n        /* \"EventOrganization/EventOrganization.sol\":68:1650  contract EventOrganization{... */\n      mstore(0x40, 0x80)\n      jumpi(tag_1, lt(calldatasize, 0x04))\n      shr(0xe0, calldataload(0x00))\n      dup1\n      0x0b791430\n      eq\n      tag_2\n      jumpi\n      dup1\n      0x3d23eed9\n      eq\n      tag_3\n      jumpi\n      dup1\n      0x61b8ce8c\n      eq\n      tag_4\n      jumpi\n      dup1\n      0xa8445a1e\n      eq\n      tag_5\n      jumpi\n      dup1\n      0xdae7a13c\n      eq\n      tag_6\n      jumpi\n      dup1\n      0xe41bd06c\n      eq\n      tag_7\n      jumpi\n    tag_1:\n      0x00\n      dup1\n      revert\n        /* \"EventOrganization/EventOrganization.sol\":260:296  mapping(uint => Event) public events */\n    tag_2:\n      callvalue\n      dup1\n      iszero\n      tag_8\n      jumpi\n      0x00\n      dup1\n      revert\n    tag_8:\n      pop\n      tag_9\n      0x04\n      dup1\n      calldatasize\n      sub\n      dup2\n      add\n      swap1\n      tag_10\n      swap2\n      swap1\n      tag_11\n      jump\t// in\n    tag_10:\n      tag_12\n      jump\t// in\n    tag_9:\n      mload(0x40)\n      tag_13\n      swap7\n      swap6\n      swap5\n      swap4\n      swap3\n      swap2\n      swap1\n      tag_14\n      jump\t// in\n    tag_13:\n      mload(0x40)\n      dup1\n      swap2\n      sub\n      swap1\n      return\n        /* \"EventOrganization/EventOrganization.sol\":1264:1647  function transferTickets(uint id, uint quantity, address to) public {... */\n    tag_3:\n      callvalue\n      dup1\n      iszero\n      tag_15\n      jumpi\n      0x00\n      dup1\n      revert\n    tag_15:\n      pop\n      tag_16\n      0x04\n      dup1\n      calldatasize\n      sub\n      dup2\n      add\n      swap1\n      tag_17\n      swap2\n      swap1\n      tag_18\n      jump\t// in\n    tag_17:\n      tag_19\n      jump\t// in\n    tag_16:\n      stop\n        /* \"EventOrganization/EventOrganization.sol\":379:397  uint public nextId */\n    tag_4:\n      callvalue\n      dup1\n      iszero\n      tag_20\n      jumpi\n      0x00\n      dup1\n      revert\n    tag_20:\n      pop\n      tag_21\n      tag_22\n      jump\t// in\n    tag_21:\n      mload(0x40)\n      tag_23\n      swap2\n      swap1\n      tag_24\n      jump\t// in\n    tag_23:\n      mload(0x40)\n      dup1\n      swap2\n      sub\n      swap1\n      return\n        /* \"EventOrganization/EventOrganization.sol\":760:1252  function BuyTicket(uint id, uint quantity) public payable{... */\n    tag_5:\n      tag_25\n      0x04\n      dup1\n      calldatasize\n      sub\n      dup2\n      add\n      swap1\n      tag_26\n      swap2\n      swap1\n      tag_27\n      jump\t// in\n    tag_26:\n      tag_28\n      jump\t// in\n    tag_25:\n      stop\n        /* \"EventOrganization/EventOrganization.sol\":318:370  mapping(address=>mapping(uint=>uint)) public tickets */\n    tag_6:\n      callvalue\n      dup1\n      iszero\n      tag_29\n      jumpi\n      0x00\n      dup1\n      revert\n    tag_29:\n      pop\n      tag_30\n      0x04\n      dup1\n      calldatasize\n      sub\n      dup2\n      add\n      swap1\n      tag_31\n      swap2\n      swap1\n      tag_32\n      jump\t// in\n    tag_31:\n      tag_33\n      jump\t// in\n    tag_30:\n      mload(0x40)\n      tag_34\n      swap2\n      swap1\n      tag_24\n      jump\t// in\n    tag_34:\n      mload(0x40)\n      dup1\n      swap2\n      sub\n      swap1\n      return\n        /* \"EventOrganization/EventOrganization.sol\":408:752  function CreateEvent(string calldata name, uint date, uint price, uint ticketCount) public{... */\n    tag_7:\n      callvalue\n      dup1\n      iszero\n      tag_35\n      jumpi\n      0x00\n      dup1\n      revert\n    tag_35:\n      pop\n      tag_36\n      0x04\n      dup1\n      calldatasize\n      sub\n      dup2\n      add\n      swap1\n      tag_37\n      swap2\n      swap1\n      tag_38\n      jump\t// in\n    tag_37:\n      tag_39\n      jump\t// in\n    tag_36:\n      stop\n        /* \"EventOrganization/EventOrganization.sol\":260:296  mapping(uint => Event) public events */\n    tag_12:\n      mstore(0x20, 0x00)\n      dup1\n      0x00\n      mstore\n      keccak256(0x00, 0x40)\n      0x00\n      swap2\n      pop\n      swap1\n      pop\n      dup1\n      0x00\n      add\n      0x00\n      swap1\n      sload\n      swap1\n      0x0100\n      exp\n      swap1\n      div\n      0xffffffffffffffffffffffffffffffffffffffff\n      and\n      swap1\n      dup1\n      0x01\n      add\n      dup1\n      sload\n      tag_40\n      swap1\n      tag_41\n      jump\t// in\n    tag_40:\n      dup1\n      0x1f\n      add\n      0x20\n      dup1\n      swap2\n      div\n      mul\n      0x20\n      add\n      mload(0x40)\n      swap1\n      dup2\n      add\n      0x40\n      mstore\n      dup1\n      swap3\n      swap2\n      swap1\n      dup2\n      dup2\n      mstore\n      0x20\n      add\n      dup3\n      dup1\n      sload\n      tag_42\n      swap1\n      tag_41\n      jump\t// in\n    tag_42:\n      dup1\n      iszero\n      tag_43\n      jumpi\n      dup1\n      0x1f\n      lt\n      tag_44\n      jumpi\n      0x0100\n      dup1\n      dup4\n      sload\n      div\n      mul\n      dup4\n      mstore\n      swap2\n      0x20\n      add\n      swap2\n      jump(tag_43)\n    tag_44:\n      dup3\n      add\n      swap2\n      swap1\n      0x00\n      mstore\n      keccak256(0x00, 0x20)\n      swap1\n    tag_45:\n      dup2\n      sload\n      dup2\n      mstore\n      swap1\n      0x01\n      add\n      swap1\n      0x20\n      add\n      dup1\n      dup4\n      gt\n      tag_45\n      jumpi\n      dup3\n      swap1\n      sub\n      0x1f\n      and\n      dup3\n      add\n      swap2\n    tag_43:\n      pop\n      pop\n      pop\n      pop\n      pop\n      swap1\n      dup1\n      0x02\n      add\n      sload\n      swap1\n      dup1\n      0x03\n      add\n      sload\n      swap1\n      dup1\n      0x04\n      add\n      sload\n      swap1\n      dup1\n      0x05\n      add\n      sload\n      swap1\n      pop\n      dup7\n      jump\t// out\n        /* \"EventOrganization/EventOrganization.sol\":1264:1647  function transferTickets(uint id, uint quantity, address to) public {... */\n    tag_19:\n        /* \"EventOrganization/EventOrganization.sol\":1369:1370  0 */\n      0x00\n        /* \"EventOrganization/EventOrganization.sol\":1352:1358  events */\n      dup1\n        /* \"EventOrganization/EventOrganization.sol\":1352:1362  events[id] */\n      0x00\n        /* \"EventOrganization/EventOrganization.sol\":1359:1361  id */\n      dup6\n        /* \"EventOrganization/EventOrganization.sol\":1352:1362  events[id] */\n      dup2\n      mstore\n      0x20\n      add\n      swap1\n      dup2\n      mstore\n      0x20\n      add\n      0x00\n      keccak256\n        /* \"EventOrganization/EventOrganization.sol\":1352:1367  events[id].date */\n      0x02\n      add\n      sload\n        /* \"EventOrganization/EventOrganization.sol\":1352:1370  events[id].date!=0 */\n      sub\n        /* \"EventOrganization/EventOrganization.sol\":1344:1387  require(events[id].date!=0,\"invalid event\") */\n      tag_47\n      jumpi\n      mload(0x40)\n      0x08c379a000000000000000000000000000000000000000000000000000000000\n      dup2\n      mstore\n      0x04\n      add\n      tag_48\n      swap1\n      tag_49\n      jump\t// in\n    tag_48:\n      mload(0x40)\n      dup1\n      swap2\n      sub\n      swap1\n      revert\n    tag_47:\n        /* \"EventOrganization/EventOrganization.sol\":1422:1437  block.timestamp */\n      timestamp\n        /* \"EventOrganization/EventOrganization.sol\":1406:1412  events */\n      0x00\n        /* \"EventOrganization/EventOrganization.sol\":1406:1416  events[id] */\n      dup1\n        /* \"EventOrganization/EventOrganization.sol\":1413:1415  id */\n      dup6\n        /* \"EventOrganization/EventOrganization.sol\":1406:1416  events[id] */\n      dup2\n      mstore\n      0x20\n      add\n      swap1\n      dup2\n      mstore\n      0x20\n      add\n      0x00\n      keccak256\n        /* \"EventOrganization/EventOrganization.sol\":1406:1421  events[id].date */\n      0x02\n      add\n      sload\n        /* \"EventOrganization/EventOrganization.sol\":1406:1437  events[id].date>block.timestamp */\n      gt\n        /* \"EventOrganization/EventOrganization.sol\":1398:1471  require(events[id].date>block.timestamp, \"the event has already passed!\") */\n      tag_50\n      jumpi\n      mload(0x40)\n      0x08c379a000000000000000000000000000000000000000000000000000000000\n      dup2\n      mstore\n      0x04\n      add\n      tag_51\n      swap1\n      tag_52\n      jump\t// in\n    tag_51:\n      mload(0x40)\n      dup1\n      swap2\n      sub\n      swap1\n      revert\n    tag_50:\n        /* \"EventOrganization/EventOrganization.sol\":1515:1523  quantity */\n      dup2\n        /* \"EventOrganization/EventOrganization.sol\":1490:1497  tickets */\n      0x01\n        /* \"EventOrganization/EventOrganization.sol\":1490:1509  tickets[msg.sender] */\n      0x00\n        /* \"EventOrganization/EventOrganization.sol\":1498:1508  msg.sender */\n      caller\n        /* \"EventOrganization/EventOrganization.sol\":1490:1509  tickets[msg.sender] */\n      0xffffffffffffffffffffffffffffffffffffffff\n      and\n      0xffffffffffffffffffffffffffffffffffffffff\n      and\n      dup2\n      mstore\n      0x20\n      add\n      swap1\n      dup2\n      mstore\n      0x20\n      add\n      0x00\n      keccak256\n        /* \"EventOrganization/EventOrganization.sol\":1490:1513  tickets[msg.sender][id] */\n      0x00\n        /* \"EventOrganization/EventOrganization.sol\":1510:1512  id */\n      dup6\n        /* \"EventOrganization/EventOrganization.sol\":1490:1513  tickets[msg.sender][id] */\n      dup2\n      mstore\n      0x20\n      add\n      swap1\n      dup2\n      mstore\n      0x20\n      add\n      0x00\n      keccak256\n      sload\n        /* \"EventOrganization/EventOrganization.sol\":1490:1523  tickets[msg.sender][id]>=quantity */\n      lt\n      iszero\n        /* \"EventOrganization/EventOrganization.sol\":1482:1559  require(tickets[msg.sender][id]>=quantity, \"you do not have enough tickets!\") */\n      tag_53\n      jumpi\n      mload(0x40)\n      0x08c379a000000000000000000000000000000000000000000000000000000000\n      dup2\n      mstore\n      0x04\n      add\n      tag_54\n      swap1\n      tag_55\n      jump\t// in\n    tag_54:\n      mload(0x40)\n      dup1\n      swap2\n      sub\n      swap1\n      revert\n    tag_53:\n        /* \"EventOrganization/EventOrganization.sol\":1595:1603  quantity */\n      dup2\n        /* \"EventOrganization/EventOrganization.sol\":1570:1577  tickets */\n      0x01\n        /* \"EventOrganization/EventOrganization.sol\":1570:1589  tickets[msg.sender] */\n      0x00\n        /* \"EventOrganization/EventOrganization.sol\":1578:1588  msg.sender */\n      caller\n        /* \"EventOrganization/EventOrganization.sol\":1570:1589  tickets[msg.sender] */\n      0xffffffffffffffffffffffffffffffffffffffff\n      and\n      0xffffffffffffffffffffffffffffffffffffffff\n      and\n      dup2\n      mstore\n      0x20\n      add\n      swap1\n      dup2\n      mstore\n      0x20\n      add\n      0x00\n      keccak256\n        /* \"EventOrganization/EventOrganization.sol\":1570:1593  tickets[msg.sender][id] */\n      0x00\n        /* \"EventOrganization/EventOrganization.sol\":1590:1592  id */\n      dup6\n        /* \"EventOrganization/EventOrganization.sol\":1570:1593  tickets[msg.sender][id] */\n      dup2\n      mstore\n      0x20\n      add\n      swap1\n      dup2\n      mstore\n      0x20\n      add\n      0x00\n      keccak256\n      0x00\n        /* \"EventOrganization/EventOrganization.sol\":1570:1603  tickets[msg.sender][id]-=quantity */\n      dup3\n      dup3\n      sload\n      tag_56\n      swap2\n      swap1\n      tag_57\n      jump\t// in\n    tag_56:\n      swap3\n      pop\n      pop\n      dup2\n      swap1\n      sstore\n      pop\n        /* \"EventOrganization/EventOrganization.sol\":1631:1639  quantity */\n      dup2\n        /* \"EventOrganization/EventOrganization.sol\":1614:1621  tickets */\n      0x01\n        /* \"EventOrganization/EventOrganization.sol\":1614:1625  tickets[to] */\n      0x00\n        /* \"EventOrganization/EventOrganization.sol\":1622:1624  to */\n      dup4\n        /* \"EventOrganization/EventOrganization.sol\":1614:1625  tickets[to] */\n      0xffffffffffffffffffffffffffffffffffffffff\n      and\n      0xffffffffffffffffffffffffffffffffffffffff\n      and\n      dup2\n      mstore\n      0x20\n      add\n      swap1\n      dup2\n      mstore\n      0x20\n      add\n      0x00\n      keccak256\n        /* \"EventOrganization/EventOrganization.sol\":1614:1629  tickets[to][id] */\n      0x00\n        /* \"EventOrganization/EventOrganization.sol\":1626:1628  id */\n      dup6\n        /* \"EventOrganization/EventOrganization.sol\":1614:1629  tickets[to][id] */\n      dup2\n      mstore\n      0x20\n      add\n      swap1\n      dup2\n      mstore\n      0x20\n      add\n      0x00\n      keccak256\n      0x00\n        /* \"EventOrganization/EventOrganization.sol\":1614:1639  tickets[to][id]+=quantity */\n      dup3\n      dup3\n      sload\n      tag_58\n      swap2\n      swap1\n      tag_59\n      jump\t// in\n    tag_58:\n      swap3\n      pop\n      pop\n      dup2\n      swap1\n      sstore\n      pop\n        /* \"EventOrganization/EventOrganization.sol\":1264:1647  function transferTickets(uint id, uint quantity, address to) public {... */\n      pop\n      pop\n      pop\n      jump\t// out\n        /* \"EventOrganization/EventOrganization.sol\":379:397  uint public nextId */\n    tag_22:\n      sload(0x02)\n      dup2\n      jump\t// out\n        /* \"EventOrganization/EventOrganization.sol\":760:1252  function BuyTicket(uint id, uint quantity) public payable{... */\n    tag_28:\n        /* \"EventOrganization/EventOrganization.sol\":853:854  0 */\n      0x00\n        /* \"EventOrganization/EventOrganization.sol\":836:842  events */\n      dup1\n        /* \"EventOrganization/EventOrganization.sol\":836:846  events[id] */\n      0x00\n        /* \"EventOrganization/EventOrganization.sol\":843:845  id */\n      dup5\n        /* \"EventOrganization/EventOrganization.sol\":836:846  events[id] */\n      dup2\n      mstore\n      0x20\n      add\n      swap1\n      dup2\n      mstore\n      0x20\n      add\n      0x00\n      keccak256\n        /* \"EventOrganization/EventOrganization.sol\":836:851  events[id].date */\n      0x02\n      add\n      sload\n        /* \"EventOrganization/EventOrganization.sol\":836:854  events[id].date!=0 */\n      sub\n        /* \"EventOrganization/EventOrganization.sol\":828:871  require(events[id].date!=0,\"invalid event\") */\n      tag_61\n      jumpi\n      mload(0x40)\n      0x08c379a000000000000000000000000000000000000000000000000000000000\n      dup2\n      mstore\n      0x04\n      add\n      tag_62\n      swap1\n      tag_49\n      jump\t// in\n    tag_62:\n      mload(0x40)\n      dup1\n      swap2\n      sub\n      swap1\n      revert\n    tag_61:\n        /* \"EventOrganization/EventOrganization.sol\":906:921  block.timestamp */\n      timestamp\n        /* \"EventOrganization/EventOrganization.sol\":890:896  events */\n      0x00\n        /* \"EventOrganization/EventOrganization.sol\":890:900  events[id] */\n      dup1\n        /* \"EventOrganization/EventOrganization.sol\":897:899  id */\n      dup5\n        /* \"EventOrganization/EventOrganization.sol\":890:900  events[id] */\n      dup2\n      mstore\n      0x20\n      add\n      swap1\n      dup2\n      mstore\n      0x20\n      add\n      0x00\n      keccak256\n        /* \"EventOrganization/EventOrganization.sol\":890:905  events[id].date */\n      0x02\n      add\n      sload\n        /* \"EventOrganization/EventOrganization.sol\":890:921  events[id].date>block.timestamp */\n      gt\n        /* \"EventOrganization/EventOrganization.sol\":882:955  require(events[id].date>block.timestamp, \"the event has already passed!\") */\n      tag_63\n      jumpi\n      mload(0x40)\n      0x08c379a000000000000000000000000000000000000000000000000000000000\n      dup2\n      mstore\n      0x04\n      add\n      tag_64\n      swap1\n      tag_52\n      jump\t// in\n    tag_64:\n      mload(0x40)\n      dup1\n      swap2\n      sub\n      swap1\n      revert\n    tag_63:\n        /* \"EventOrganization/EventOrganization.sol\":966:986  Event storage _event */\n      0x00\n        /* \"EventOrganization/EventOrganization.sol\":989:995  events */\n      dup1\n        /* \"EventOrganization/EventOrganization.sol\":989:999  events[id] */\n      0x00\n        /* \"EventOrganization/EventOrganization.sol\":996:998  id */\n      dup5\n        /* \"EventOrganization/EventOrganization.sol\":989:999  events[id] */\n      dup2\n      mstore\n      0x20\n      add\n      swap1\n      dup2\n      mstore\n      0x20\n      add\n      0x00\n      keccak256\n        /* \"EventOrganization/EventOrganization.sol\":966:999  Event storage _event = events[id] */\n      swap1\n      pop\n        /* \"EventOrganization/EventOrganization.sol\":1046:1054  quantity */\n      dup2\n        /* \"EventOrganization/EventOrganization.sol\":1031:1037  _event */\n      dup2\n        /* \"EventOrganization/EventOrganization.sol\":1031:1043  _event.price */\n      0x03\n      add\n      sload\n        /* \"EventOrganization/EventOrganization.sol\":1031:1054  _event.price * quantity */\n      tag_65\n      swap2\n      swap1\n      tag_66\n      jump\t// in\n    tag_65:\n        /* \"EventOrganization/EventOrganization.sol\":1018:1027  msg.value */\n      callvalue\n        /* \"EventOrganization/EventOrganization.sol\":1018:1055  msg.value ==(_event.price * quantity) */\n      eq\n        /* \"EventOrganization/EventOrganization.sol\":1010:1070  require(msg.value ==(_event.price * quantity),\"wrong value\") */\n      tag_67\n      jumpi\n      mload(0x40)\n      0x08c379a000000000000000000000000000000000000000000000000000000000\n      dup2\n      mstore\n      0x04\n      add\n      tag_68\n      swap1\n      tag_69\n      jump\t// in\n    tag_68:\n      mload(0x40)\n      dup1\n      swap2\n      sub\n      swap1\n      revert\n    tag_67:\n        /* \"EventOrganization/EventOrganization.sol\":1113:1121  quantity */\n      dup2\n        /* \"EventOrganization/EventOrganization.sol\":1089:1095  _event */\n      dup2\n        /* \"EventOrganization/EventOrganization.sol\":1089:1111  _event.ticketRemaining */\n      0x05\n      add\n      sload\n        /* \"EventOrganization/EventOrganization.sol\":1089:1121  _event.ticketRemaining>=quantity */\n      lt\n      iszero\n        /* \"EventOrganization/EventOrganization.sol\":1081:1157  require(_event.ticketRemaining>=quantity, \"you do not have enough tickets!\") */\n      tag_70\n      jumpi\n      mload(0x40)\n      0x08c379a000000000000000000000000000000000000000000000000000000000\n      dup2\n      mstore\n      0x04\n      add\n      tag_71\n      swap1\n      tag_55\n      jump\t// in\n    tag_71:\n      mload(0x40)\n      dup1\n      swap2\n      sub\n      swap1\n      revert\n    tag_70:\n        /* \"EventOrganization/EventOrganization.sol\":1192:1200  quantity */\n      dup2\n        /* \"EventOrganization/EventOrganization.sol\":1168:1174  _event */\n      dup2\n        /* \"EventOrganization/EventOrganization.sol\":1168:1190  _event.ticketRemaining */\n      0x05\n      add\n      0x00\n        /* \"EventOrganization/EventOrganization.sol\":1168:1200  _event.ticketRemaining-=quantity */\n      dup3\n      dup3\n      sload\n      tag_72\n      swap2\n      swap1\n      tag_57\n      jump\t// in\n    tag_72:\n      swap3\n      pop\n      pop\n      dup2\n      swap1\n      sstore\n      pop\n        /* \"EventOrganization/EventOrganization.sol\":1236:1244  quantity */\n      dup2\n        /* \"EventOrganization/EventOrganization.sol\":1211:1218  tickets */\n      0x01\n        /* \"EventOrganization/EventOrganization.sol\":1211:1230  tickets[msg.sender] */\n      0x00\n        /* \"EventOrganization/EventOrganization.sol\":1219:1229  msg.sender */\n      caller\n        /* \"EventOrganization/EventOrganization.sol\":1211:1230  tickets[msg.sender] */\n      0xffffffffffffffffffffffffffffffffffffffff\n      and\n      0xffffffffffffffffffffffffffffffffffffffff\n      and\n      dup2\n      mstore\n      0x20\n      add\n      swap1\n      dup2\n      mstore\n      0x20\n      add\n      0x00\n      keccak256\n        /* \"EventOrganization/EventOrganization.sol\":1211:1234  tickets[msg.sender][id] */\n      0x00\n        /* \"EventOrganization/EventOrganization.sol\":1231:1233  id */\n      dup6\n        /* \"EventOrganization/EventOrganization.sol\":1211:1234  tickets[msg.sender][id] */\n      dup2\n      mstore\n      0x20\n      add\n      swap1\n      dup2\n      mstore\n      0x20\n      add\n      0x00\n      keccak256\n      0x00\n        /* \"EventOrganization/EventOrganization.sol\":1211:1244  tickets[msg.sender][id]+=quantity */\n      dup3\n      dup3\n      sload\n      tag_73\n      swap2\n      swap1\n      tag_59\n      jump\t// in\n    tag_73:\n      swap3\n      pop\n      pop\n      dup2\n      swap1\n      sstore\n      pop\n        /* \"EventOrganization/EventOrganization.sol\":817:1252  {... */\n      pop\n        /* \"EventOrganization/EventOrganization.sol\":760:1252  function BuyTicket(uint id, uint quantity) public payable{... */\n      pop\n      pop\n      jump\t// out\n        /* \"EventOrganization/EventOrganization.sol\":318:370  mapping(address=>mapping(uint=>uint)) public tickets */\n    tag_33:\n      mstore(0x20, 0x01)\n      dup2\n      0x00\n      mstore\n      mstore(0x20, keccak256(0x00, 0x40))\n      dup1\n      0x00\n      mstore\n      keccak256(0x00, 0x40)\n      0x00\n      swap2\n      pop\n      swap2\n      pop\n      pop\n      sload\n      dup2\n      jump\t// out\n        /* \"EventOrganization/EventOrganization.sol\":408:752  function CreateEvent(string calldata name, uint date, uint price, uint ticketCount) public{... */\n    tag_39:\n        /* \"EventOrganization/EventOrganization.sol\":533:537  date */\n      dup3\n        /* \"EventOrganization/EventOrganization.sol\":517:532  block.timestamp */\n      timestamp\n        /* \"EventOrganization/EventOrganization.sol\":517:537  block.timestamp<date */\n      lt\n        /* \"EventOrganization/EventOrganization.sol\":509:579  require(block.timestamp<date, \"you cannot create event for past date\") */\n      tag_75\n      jumpi\n      mload(0x40)\n      0x08c379a000000000000000000000000000000000000000000000000000000000\n      dup2\n      mstore\n      0x04\n      add\n      tag_76\n      swap1\n      tag_77\n      jump\t// in\n    tag_76:\n      mload(0x40)\n      dup1\n      swap2\n      sub\n      swap1\n      revert\n    tag_75:\n        /* \"EventOrganization/EventOrganization.sol\":610:611  0 */\n      0x00\n        /* \"EventOrganization/EventOrganization.sol\":598:609  ticketCount */\n      dup2\n        /* \"EventOrganization/EventOrganization.sol\":598:611  ticketCount>0 */\n      gt\n        /* \"EventOrganization/EventOrganization.sol\":590:640  require(ticketCount>0,\"invalid number of tickets\") */\n      tag_78\n      jumpi\n      mload(0x40)\n      0x08c379a000000000000000000000000000000000000000000000000000000000\n      dup2\n      mstore\n      0x04\n      add\n      tag_79\n      swap1\n      tag_80\n      jump\t// in\n    tag_79:\n      mload(0x40)\n      dup1\n      swap2\n      sub\n      swap1\n      revert\n    tag_78:\n        /* \"EventOrganization/EventOrganization.sol\":668:725  Event(msg.sender,name,date,price,ticketCount,ticketCount) */\n      mload(0x40)\n      dup1\n      0xc0\n      add\n      0x40\n      mstore\n      dup1\n        /* \"EventOrganization/EventOrganization.sol\":674:684  msg.sender */\n      caller\n        /* \"EventOrganization/EventOrganization.sol\":668:725  Event(msg.sender,name,date,price,ticketCount,ticketCount) */\n      0xffffffffffffffffffffffffffffffffffffffff\n      and\n      dup2\n      mstore\n      0x20\n      add\n        /* \"EventOrganization/EventOrganization.sol\":685:689  name */\n      dup7\n      dup7\n        /* \"EventOrganization/EventOrganization.sol\":668:725  Event(msg.sender,name,date,price,ticketCount,ticketCount) */\n      dup1\n      dup1\n      0x1f\n      add\n      0x20\n      dup1\n      swap2\n      div\n      mul\n      0x20\n      add\n      mload(0x40)\n      swap1\n      dup2\n      add\n      0x40\n      mstore\n      dup1\n      swap4\n      swap3\n      swap2\n      swap1\n      dup2\n      dup2\n      mstore\n      0x20\n      add\n      dup4\n      dup4\n      dup1\n      dup3\n      dup5\n      calldatacopy\n      0x00\n      dup2\n      dup5\n      add\n      mstore\n      not(0x1f)\n      0x1f\n      dup3\n      add\n      and\n      swap1\n      pop\n      dup1\n      dup4\n      add\n      swap3\n      pop\n      pop\n      pop\n      pop\n      pop\n      pop\n      pop\n      dup2\n      mstore\n      0x20\n      add\n        /* \"EventOrganization/EventOrganization.sol\":690:694  date */\n      dup5\n        /* \"EventOrganization/EventOrganization.sol\":668:725  Event(msg.sender,name,date,price,ticketCount,ticketCount) */\n      dup2\n      mstore\n      0x20\n      add\n        /* \"EventOrganization/EventOrganization.sol\":695:700  price */\n      dup4\n        /* \"EventOrganization/EventOrganization.sol\":668:725  Event(msg.sender,name,date,price,ticketCount,ticketCount) */\n      dup2\n      mstore\n      0x20\n      add\n        /* \"EventOrganization/EventOrganization.sol\":701:712  ticketCount */\n      dup3\n        /* \"EventOrganization/EventOrganization.sol\":668:725  Event(msg.sender,name,date,price,ticketCount,ticketCount) */\n      dup2\n      mstore\n      0x20\n      add\n        /* \"EventOrganization/EventOrganization.sol\":713:724  ticketCount */\n      dup3\n        /* \"EventOrganization/EventOrganization.sol\":668:725  Event(msg.sender,name,date,price,ticketCount,ticketCount) */\n      dup2\n      mstore\n      pop\n        /* \"EventOrganization/EventOrganization.sol\":651:657  events */\n      0x00\n        /* \"EventOrganization/EventOrganization.sol\":651:665  events[nextId] */\n      dup1\n        /* \"EventOrganization/EventOrganization.sol\":658:664  nextId */\n      sload(0x02)\n        /* \"EventOrganization/EventOrganization.sol\":651:665  events[nextId] */\n      dup2\n      mstore\n      0x20\n      add\n      swap1\n      dup2\n      mstore\n      0x20\n      add\n      0x00\n      keccak256\n        /* \"EventOrganization/EventOrganization.sol\":651:725  events[nextId] = Event(msg.sender,name,date,price,ticketCount,ticketCount) */\n      0x00\n      dup3\n      add\n      mload\n      dup2\n      0x00\n      add\n      exp(0x0100, 0x00)\n      dup2\n      sload\n      dup2\n      0xffffffffffffffffffffffffffffffffffffffff\n      mul\n      not\n      and\n      swap1\n      dup4\n      0xffffffffffffffffffffffffffffffffffffffff\n      and\n      mul\n      or\n      swap1\n      sstore\n      pop\n      0x20\n      dup3\n      add\n      mload\n      dup2\n      0x01\n      add\n      swap1\n      dup2\n      tag_81\n      swap2\n      swap1\n      tag_82\n      jump\t// in\n    tag_81:\n      pop\n      0x40\n      dup3\n      add\n      mload\n      dup2\n      0x02\n      add\n      sstore\n      0x60\n      dup3\n      add\n      mload\n      dup2\n      0x03\n      add\n      sstore\n      0x80\n      dup3\n      add\n      mload\n      dup2\n      0x04\n      add\n      sstore\n      0xa0\n      dup3\n      add\n      mload\n      dup2\n      0x05\n      add\n      sstore\n      swap1\n      pop\n      pop\n        /* \"EventOrganization/EventOrganization.sol\":736:742  nextId */\n      0x02\n      0x00\n        /* \"EventOrganization/EventOrganization.sol\":736:744  nextId++ */\n      dup2\n      sload\n      dup1\n      swap3\n      swap2\n      swap1\n      tag_83\n      swap1\n      tag_84\n      jump\t// in\n    tag_83:\n      swap2\n      swap1\n      pop\n      sstore\n      pop\n        /* \"EventOrganization/EventOrganization.sol\":408:752  function CreateEvent(string calldata name, uint date, uint price, uint ticketCount) public{... */\n      pop\n      pop\n      pop\n      pop\n      pop\n      jump\t// out\n        /* \"#utility.yul\":88:205   */\n    tag_86:\n        /* \"#utility.yul\":197:198   */\n      0x00\n        /* \"#utility.yul\":194:195   */\n      dup1\n        /* \"#utility.yul\":187:199   */\n      revert\n        /* \"#utility.yul\":211:328   */\n    tag_87:\n        /* \"#utility.yul\":320:321   */\n      0x00\n        /* \"#utility.yul\":317:318   */\n      dup1\n        /* \"#utility.yul\":310:322   */\n      revert\n        /* \"#utility.yul\":334:411   */\n    tag_88:\n        /* \"#utility.yul\":371:378   */\n      0x00\n        /* \"#utility.yul\":400:405   */\n      dup2\n        /* \"#utility.yul\":389:405   */\n      swap1\n      pop\n        /* \"#utility.yul\":334:411   */\n      swap2\n      swap1\n      pop\n      jump\t// out\n        /* \"#utility.yul\":417:539   */\n    tag_89:\n        /* \"#utility.yul\":490:514   */\n      tag_142\n        /* \"#utility.yul\":508:513   */\n      dup2\n        /* \"#utility.yul\":490:514   */\n      tag_88\n      jump\t// in\n    tag_142:\n        /* \"#utility.yul\":483:488   */\n      dup2\n        /* \"#utility.yul\":480:515   */\n      eq\n        /* \"#utility.yul\":470:533   */\n      tag_143\n      jumpi\n        /* \"#utility.yul\":529:530   */\n      0x00\n        /* \"#utility.yul\":526:527   */\n      dup1\n        /* \"#utility.yul\":519:531   */\n      revert\n        /* \"#utility.yul\":470:533   */\n    tag_143:\n        /* \"#utility.yul\":417:539   */\n      pop\n      jump\t// out\n        /* \"#utility.yul\":545:684   */\n    tag_90:\n        /* \"#utility.yul\":591:596   */\n      0x00\n        /* \"#utility.yul\":629:635   */\n      dup2\n        /* \"#utility.yul\":616:636   */\n      calldataload\n        /* \"#utility.yul\":607:636   */\n      swap1\n      pop\n        /* \"#utility.yul\":645:678   */\n      tag_145\n        /* \"#utility.yul\":672:677   */\n      dup2\n        /* \"#utility.yul\":645:678   */\n      tag_89\n      jump\t// in\n    tag_145:\n        /* \"#utility.yul\":545:684   */\n      swap3\n      swap2\n      pop\n      pop\n      jump\t// out\n        /* \"#utility.yul\":690:1019   */\n    tag_11:\n        /* \"#utility.yul\":749:755   */\n      0x00\n        /* \"#utility.yul\":798:800   */\n      0x20\n        /* \"#utility.yul\":786:795   */\n      dup3\n        /* \"#utility.yul\":777:784   */\n      dup5\n        /* \"#utility.yul\":773:796   */\n      sub\n        /* \"#utility.yul\":769:801   */\n      slt\n        /* \"#utility.yul\":766:885   */\n      iszero\n      tag_147\n      jumpi\n        /* \"#utility.yul\":804:883   */\n      tag_148\n      tag_86\n      jump\t// in\n    tag_148:\n        /* \"#utility.yul\":766:885   */\n    tag_147:\n        /* \"#utility.yul\":924:925   */\n      0x00\n        /* \"#utility.yul\":949:1002   */\n      tag_149\n        /* \"#utility.yul\":994:1001   */\n      dup5\n        /* \"#utility.yul\":985:991   */\n      dup3\n        /* \"#utility.yul\":974:983   */\n      dup6\n        /* \"#utility.yul\":970:992   */\n      add\n        /* \"#utility.yul\":949:1002   */\n      tag_90\n      jump\t// in\n    tag_149:\n        /* \"#utility.yul\":939:1002   */\n      swap2\n      pop\n        /* \"#utility.yul\":895:1012   */\n      pop\n        /* \"#utility.yul\":690:1019   */\n      swap3\n      swap2\n      pop\n      pop\n      jump\t// out\n        /* \"#utility.yul\":1025:1151   */\n    tag_91:\n        /* \"#utility.yul\":1062:1069   */\n      0x00\n        /* \"#utility.yul\":1102:1144   */\n      0xffffffffffffffffffffffffffffffffffffffff\n        /* \"#utility.yul\":1095:1100   */\n      dup3\n        /* \"#utility.yul\":1091:1145   */\n      and\n        /* \"#utility.yul\":1080:1145   */\n      swap1\n      pop\n        /* \"#utility.yul\":1025:1151   */\n      swap2\n      swap1\n      pop\n      jump\t// out\n        /* \"#utility.yul\":1157:1253   */\n    tag_92:\n        /* \"#utility.yul\":1194:1201   */\n      0x00\n        /* \"#utility.yul\":1223:1247   */\n      tag_152\n        /* \"#utility.yul\":1241:1246   */\n      dup3\n        /* \"#utility.yul\":1223:1247   */\n      tag_91\n      jump\t// in\n    tag_152:\n        /* \"#utility.yul\":1212:1247   */\n      swap1\n      pop\n        /* \"#utility.yul\":1157:1253   */\n      swap2\n      swap1\n      pop\n      jump\t// out\n        /* \"#utility.yul\":1259:1377   */\n    tag_93:\n        /* \"#utility.yul\":1346:1370   */\n      tag_154\n        /* \"#utility.yul\":1364:1369   */\n      dup2\n        /* \"#utility.yul\":1346:1370   */\n      tag_92\n      jump\t// in\n    tag_154:\n        /* \"#utility.yul\":1341:1344   */\n      dup3\n        /* \"#utility.yul\":1334:1371   */\n      mstore\n        /* \"#utility.yul\":1259:1377   */\n      pop\n      pop\n      jump\t// out\n        /* \"#utility.yul\":1383:1482   */\n    tag_94:\n        /* \"#utility.yul\":1435:1441   */\n      0x00\n        /* \"#utility.yul\":1469:1474   */\n      dup2\n        /* \"#utility.yul\":1463:1475   */\n      mload\n        /* \"#utility.yul\":1453:1475   */\n      swap1\n      pop\n        /* \"#utility.yul\":1383:1482   */\n      swap2\n      swap1\n      pop\n      jump\t// out\n        /* \"#utility.yul\":1488:1657   */\n    tag_95:\n        /* \"#utility.yul\":1572:1583   */\n      0x00\n        /* \"#utility.yul\":1606:1612   */\n      dup3\n        /* \"#utility.yul\":1601:1604   */\n      dup3\n        /* \"#utility.yul\":1594:1613   */\n      mstore\n        /* \"#utility.yul\":1646:1650   */\n      0x20\n        /* \"#utility.yul\":1641:1644   */\n      dup3\n        /* \"#utility.yul\":1637:1651   */\n      add\n        /* \"#utility.yul\":1622:1651   */\n      swap1\n      pop\n        /* \"#utility.yul\":1488:1657   */\n      swap3\n      swap2\n      pop\n      pop\n      jump\t// out\n        /* \"#utility.yul\":1663:1802   */\n    tag_96:\n        /* \"#utility.yul\":1752:1758   */\n      dup3\n        /* \"#utility.yul\":1747:1750   */\n      dup2\n        /* \"#utility.yul\":1742:1745   */\n      dup4\n        /* \"#utility.yul\":1736:1759   */\n      mcopy\n        /* \"#utility.yul\":1793:1794   */\n      0x00\n        /* \"#utility.yul\":1784:1790   */\n      dup4\n        /* \"#utility.yul\":1779:1782   */\n      dup4\n        /* \"#utility.yul\":1775:1791   */\n      add\n        /* \"#utility.yul\":1768:1795   */\n      mstore\n        /* \"#utility.yul\":1663:1802   */\n      pop\n      pop\n      pop\n      jump\t// out\n        /* \"#utility.yul\":1808:1910   */\n    tag_97:\n        /* \"#utility.yul\":1849:1855   */\n      0x00\n        /* \"#utility.yul\":1900:1902   */\n      0x1f\n        /* \"#utility.yul\":1896:1903   */\n      not\n        /* \"#utility.yul\":1891:1893   */\n      0x1f\n        /* \"#utility.yul\":1884:1889   */\n      dup4\n        /* \"#utility.yul\":1880:1894   */\n      add\n        /* \"#utility.yul\":1876:1904   */\n      and\n        /* \"#utility.yul\":1866:1904   */\n      swap1\n      pop\n        /* \"#utility.yul\":1808:1910   */\n      swap2\n      swap1\n      pop\n      jump\t// out\n        /* \"#utility.yul\":1916:2293   */\n    tag_98:\n        /* \"#utility.yul\":2004:2007   */\n      0x00\n        /* \"#utility.yul\":2032:2071   */\n      tag_160\n        /* \"#utility.yul\":2065:2070   */\n      dup3\n        /* \"#utility.yul\":2032:2071   */\n      tag_94\n      jump\t// in\n    tag_160:\n        /* \"#utility.yul\":2087:2158   */\n      tag_161\n        /* \"#utility.yul\":2151:2157   */\n      dup2\n        /* \"#utility.yul\":2146:2149   */\n      dup6\n        /* \"#utility.yul\":2087:2158   */\n      tag_95\n      jump\t// in\n    tag_161:\n        /* \"#utility.yul\":2080:2158   */\n      swap4\n      pop\n        /* \"#utility.yul\":2167:2232   */\n      tag_162\n        /* \"#utility.yul\":2225:2231   */\n      dup2\n        /* \"#utility.yul\":2220:2223   */\n      dup6\n        /* \"#utility.yul\":2213:2217   */\n      0x20\n        /* \"#utility.yul\":2206:2211   */\n      dup7\n        /* \"#utility.yul\":2202:2218   */\n      add\n        /* \"#utility.yul\":2167:2232   */\n      tag_96\n      jump\t// in\n    tag_162:\n        /* \"#utility.yul\":2257:2286   */\n      tag_163\n        /* \"#utility.yul\":2279:2285   */\n      dup2\n        /* \"#utility.yul\":2257:2286   */\n      tag_97\n      jump\t// in\n    tag_163:\n        /* \"#utility.yul\":2252:2255   */\n      dup5\n        /* \"#utility.yul\":2248:2287   */\n      add\n        /* \"#utility.yul\":2241:2287   */\n      swap2\n      pop\n        /* \"#utility.yul\":2008:2293   */\n      pop\n        /* \"#utility.yul\":1916:2293   */\n      swap3\n      swap2\n      pop\n      pop\n      jump\t// out\n        /* \"#utility.yul\":2299:2417   */\n    tag_99:\n        /* \"#utility.yul\":2386:2410   */\n      tag_165\n        /* \"#utility.yul\":2404:2409   */\n      dup2\n        /* \"#utility.yul\":2386:2410   */\n      tag_88\n      jump\t// in\n    tag_165:\n        /* \"#utility.yul\":2381:2384   */\n      dup3\n        /* \"#utility.yul\":2374:2411   */\n      mstore\n        /* \"#utility.yul\":2299:2417   */\n      pop\n      pop\n      jump\t// out\n        /* \"#utility.yul\":2423:3289   */\n    tag_14:\n        /* \"#utility.yul\":2676:2680   */\n      0x00\n        /* \"#utility.yul\":2714:2717   */\n      0xc0\n        /* \"#utility.yul\":2703:2712   */\n      dup3\n        /* \"#utility.yul\":2699:2718   */\n      add\n        /* \"#utility.yul\":2691:2718   */\n      swap1\n      pop\n        /* \"#utility.yul\":2728:2799   */\n      tag_167\n        /* \"#utility.yul\":2796:2797   */\n      0x00\n        /* \"#utility.yul\":2785:2794   */\n      dup4\n        /* \"#utility.yul\":2781:2798   */\n      add\n        /* \"#utility.yul\":2772:2778   */\n      dup10\n        /* \"#utility.yul\":2728:2799   */\n      tag_93\n      jump\t// in\n    tag_167:\n        /* \"#utility.yul\":2846:2855   */\n      dup2\n        /* \"#utility.yul\":2840:2844   */\n      dup2\n        /* \"#utility.yul\":2836:2856   */\n      sub\n        /* \"#utility.yul\":2831:2833   */\n      0x20\n        /* \"#utility.yul\":2820:2829   */\n      dup4\n        /* \"#utility.yul\":2816:2834   */\n      add\n        /* \"#utility.yul\":2809:2857   */\n      mstore\n        /* \"#utility.yul\":2874:2952   */\n      tag_168\n        /* \"#utility.yul\":2947:2951   */\n      dup2\n        /* \"#utility.yul\":2938:2944   */\n      dup9\n        /* \"#utility.yul\":2874:2952   */\n      tag_98\n      jump\t// in\n    tag_168:\n        /* \"#utility.yul\":2866:2952   */\n      swap1\n      pop\n        /* \"#utility.yul\":2962:3034   */\n      tag_169\n        /* \"#utility.yul\":3030:3032   */\n      0x40\n        /* \"#utility.yul\":3019:3028   */\n      dup4\n        /* \"#utility.yul\":3015:3033   */\n      add\n        /* \"#utility.yul\":3006:3012   */\n      dup8\n        /* \"#utility.yul\":2962:3034   */\n      tag_99\n      jump\t// in\n    tag_169:\n        /* \"#utility.yul\":3044:3116   */\n      tag_170\n        /* \"#utility.yul\":3112:3114   */\n      0x60\n        /* \"#utility.yul\":3101:3110   */\n      dup4\n        /* \"#utility.yul\":3097:3115   */\n      add\n        /* \"#utility.yul\":3088:3094   */\n      dup7\n        /* \"#utility.yul\":3044:3116   */\n      tag_99\n      jump\t// in\n    tag_170:\n        /* \"#utility.yul\":3126:3199   */\n      tag_171\n        /* \"#utility.yul\":3194:3197   */\n      0x80\n        /* \"#utility.yul\":3183:3192   */\n      dup4\n        /* \"#utility.yul\":3179:3198   */\n      add\n        /* \"#utility.yul\":3170:3176   */\n      dup6\n        /* \"#utility.yul\":3126:3199   */\n      tag_99\n      jump\t// in\n    tag_171:\n        /* \"#utility.yul\":3209:3282   */\n      tag_172\n        /* \"#utility.yul\":3277:3280   */\n      0xa0\n        /* \"#utility.yul\":3266:3275   */\n      dup4\n        /* \"#utility.yul\":3262:3281   */\n      add\n        /* \"#utility.yul\":3253:3259   */\n      dup5\n        /* \"#utility.yul\":3209:3282   */\n      tag_99\n      jump\t// in\n    tag_172:\n        /* \"#utility.yul\":2423:3289   */\n      swap8\n      swap7\n      pop\n      pop\n      pop\n      pop\n      pop\n      pop\n      pop\n      jump\t// out\n        /* \"#utility.yul\":3295:3417   */\n    tag_100:\n        /* \"#utility.yul\":3368:3392   */\n      tag_174\n        /* \"#utility.yul\":3386:3391   */\n      dup2\n        /* \"#utility.yul\":3368:3392   */\n      tag_92\n      jump\t// in\n    tag_174:\n        /* \"#utility.yul\":3361:3366   */\n      dup2\n        /* \"#utility.yul\":3358:3393   */\n      eq\n        /* \"#utility.yul\":3348:3411   */\n      tag_175\n      jumpi\n        /* \"#utility.yul\":3407:3408   */\n      0x00\n        /* \"#utility.yul\":3404:3405   */\n      dup1\n        /* \"#utility.yul\":3397:3409   */\n      revert\n        /* \"#utility.yul\":3348:3411   */\n    tag_175:\n        /* \"#utility.yul\":3295:3417   */\n      pop\n      jump\t// out\n        /* \"#utility.yul\":3423:3562   */\n    tag_101:\n        /* \"#utility.yul\":3469:3474   */\n      0x00\n        /* \"#utility.yul\":3507:3513   */\n      dup2\n        /* \"#utility.yul\":3494:3514   */\n      calldataload\n        /* \"#utility.yul\":3485:3514   */\n      swap1\n      pop\n        /* \"#utility.yul\":3523:3556   */\n      tag_177\n        /* \"#utility.yul\":3550:3555   */\n      dup2\n        /* \"#utility.yul\":3523:3556   */\n      tag_100\n      jump\t// in\n    tag_177:\n        /* \"#utility.yul\":3423:3562   */\n      swap3\n      swap2\n      pop\n      pop\n      jump\t// out\n        /* \"#utility.yul\":3568:4187   */\n    tag_18:\n        /* \"#utility.yul\":3645:3651   */\n      0x00\n        /* \"#utility.yul\":3653:3659   */\n      dup1\n        /* \"#utility.yul\":3661:3667   */\n      0x00\n        /* \"#utility.yul\":3710:3712   */\n      0x60\n        /* \"#utility.yul\":3698:3707   */\n      dup5\n        /* \"#utility.yul\":3689:3696   */\n      dup7\n        /* \"#utility.yul\":3685:3708   */\n      sub\n        /* \"#utility.yul\":3681:3713   */\n      slt\n        /* \"#utility.yul\":3678:3797   */\n      iszero\n      tag_179\n      jumpi\n        /* \"#utility.yul\":3716:3795   */\n      tag_180\n      tag_86\n      jump\t// in\n    tag_180:\n        /* \"#utility.yul\":3678:3797   */\n    tag_179:\n        /* \"#utility.yul\":3836:3837   */\n      0x00\n        /* \"#utility.yul\":3861:3914   */\n      tag_181\n        /* \"#utility.yul\":3906:3913   */\n      dup7\n        /* \"#utility.yul\":3897:3903   */\n      dup3\n        /* \"#utility.yul\":3886:3895   */\n      dup8\n        /* \"#utility.yul\":3882:3904   */\n      add\n        /* \"#utility.yul\":3861:3914   */\n      tag_90\n      jump\t// in\n    tag_181:\n        /* \"#utility.yul\":3851:3914   */\n      swap4\n      pop\n        /* \"#utility.yul\":3807:3924   */\n      pop\n        /* \"#utility.yul\":3963:3965   */\n      0x20\n        /* \"#utility.yul\":3989:4042   */\n      tag_182\n        /* \"#utility.yul\":4034:4041   */\n      dup7\n        /* \"#utility.yul\":4025:4031   */\n      dup3\n        /* \"#utility.yul\":4014:4023   */\n      dup8\n        /* \"#utility.yul\":4010:4032   */\n      add\n        /* \"#utility.yul\":3989:4042   */\n      tag_90\n      jump\t// in\n    tag_182:\n        /* \"#utility.yul\":3979:4042   */\n      swap3\n      pop\n        /* \"#utility.yul\":3934:4052   */\n      pop\n        /* \"#utility.yul\":4091:4093   */\n      0x40\n        /* \"#utility.yul\":4117:4170   */\n      tag_183\n        /* \"#utility.yul\":4162:4169   */\n      dup7\n        /* \"#utility.yul\":4153:4159   */\n      dup3\n        /* \"#utility.yul\":4142:4151   */\n      dup8\n        /* \"#utility.yul\":4138:4160   */\n      add\n        /* \"#utility.yul\":4117:4170   */\n      tag_101\n      jump\t// in\n    tag_183:\n        /* \"#utility.yul\":4107:4170   */\n      swap2\n      pop\n        /* \"#utility.yul\":4062:4180   */\n      pop\n        /* \"#utility.yul\":3568:4187   */\n      swap3\n      pop\n      swap3\n      pop\n      swap3\n      jump\t// out\n        /* \"#utility.yul\":4193:4415   */\n    tag_24:\n        /* \"#utility.yul\":4286:4290   */\n      0x00\n        /* \"#utility.yul\":4324:4326   */\n      0x20\n        /* \"#utility.yul\":4313:4322   */\n      dup3\n        /* \"#utility.yul\":4309:4327   */\n      add\n        /* \"#utility.yul\":4301:4327   */\n      swap1\n      pop\n        /* \"#utility.yul\":4337:4408   */\n      tag_185\n        /* \"#utility.yul\":4405:4406   */\n      0x00\n        /* \"#utility.yul\":4394:4403   */\n      dup4\n        /* \"#utility.yul\":4390:4407   */\n      add\n        /* \"#utility.yul\":4381:4387   */\n      dup5\n        /* \"#utility.yul\":4337:4408   */\n      tag_99\n      jump\t// in\n    tag_185:\n        /* \"#utility.yul\":4193:4415   */\n      swap3\n      swap2\n      pop\n      pop\n      jump\t// out\n        /* \"#utility.yul\":4421:4895   */\n    tag_27:\n        /* \"#utility.yul\":4489:4495   */\n      0x00\n        /* \"#utility.yul\":4497:4503   */\n      dup1\n        /* \"#utility.yul\":4546:4548   */\n      0x40\n        /* \"#utility.yul\":4534:4543   */\n      dup4\n        /* \"#utility.yul\":4525:4532   */\n      dup6\n        /* \"#utility.yul\":4521:4544   */\n      sub\n        /* \"#utility.yul\":4517:4549   */\n      slt\n        /* \"#utility.yul\":4514:4633   */\n      iszero\n      tag_187\n      jumpi\n        /* \"#utility.yul\":4552:4631   */\n      tag_188\n      tag_86\n      jump\t// in\n    tag_188:\n        /* \"#utility.yul\":4514:4633   */\n    tag_187:\n        /* \"#utility.yul\":4672:4673   */\n      0x00\n        /* \"#utility.yul\":4697:4750   */\n      tag_189\n        /* \"#utility.yul\":4742:4749   */\n      dup6\n        /* \"#utility.yul\":4733:4739   */\n      dup3\n        /* \"#utility.yul\":4722:4731   */\n      dup7\n        /* \"#utility.yul\":4718:4740   */\n      add\n        /* \"#utility.yul\":4697:4750   */\n      tag_90\n      jump\t// in\n    tag_189:\n        /* \"#utility.yul\":4687:4750   */\n      swap3\n      pop\n        /* \"#utility.yul\":4643:4760   */\n      pop\n        /* \"#utility.yul\":4799:4801   */\n      0x20\n        /* \"#utility.yul\":4825:4878   */\n      tag_190\n        /* \"#utility.yul\":4870:4877   */\n      dup6\n        /* \"#utility.yul\":4861:4867   */\n      dup3\n        /* \"#utility.yul\":4850:4859   */\n      dup7\n        /* \"#utility.yul\":4846:4868   */\n      add\n        /* \"#utility.yul\":4825:4878   */\n      tag_90\n      jump\t// in\n    tag_190:\n        /* \"#utility.yul\":4815:4878   */\n      swap2\n      pop\n        /* \"#utility.yul\":4770:4888   */\n      pop\n        /* \"#utility.yul\":4421:4895   */\n      swap3\n      pop\n      swap3\n      swap1\n      pop\n      jump\t// out\n        /* \"#utility.yul\":4901:5375   */\n    tag_32:\n        /* \"#utility.yul\":4969:4975   */\n      0x00\n        /* \"#utility.yul\":4977:4983   */\n      dup1\n        /* \"#utility.yul\":5026:5028   */\n      0x40\n        /* \"#utility.yul\":5014:5023   */\n      dup4\n        /* \"#utility.yul\":5005:5012   */\n      dup6\n        /* \"#utility.yul\":5001:5024   */\n      sub\n        /* \"#utility.yul\":4997:5029   */\n      slt\n        /* \"#utility.yul\":4994:5113   */\n      iszero\n      tag_192\n      jumpi\n        /* \"#utility.yul\":5032:5111   */\n      tag_193\n      tag_86\n      jump\t// in\n    tag_193:\n        /* \"#utility.yul\":4994:5113   */\n    tag_192:\n        /* \"#utility.yul\":5152:5153   */\n      0x00\n        /* \"#utility.yul\":5177:5230   */\n      tag_194\n        /* \"#utility.yul\":5222:5229   */\n      dup6\n        /* \"#utility.yul\":5213:5219   */\n      dup3\n        /* \"#utility.yul\":5202:5211   */\n      dup7\n        /* \"#utility.yul\":5198:5220   */\n      add\n        /* \"#utility.yul\":5177:5230   */\n      tag_101\n      jump\t// in\n    tag_194:\n        /* \"#utility.yul\":5167:5230   */\n      swap3\n      pop\n        /* \"#utility.yul\":5123:5240   */\n      pop\n        /* \"#utility.yul\":5279:5281   */\n      0x20\n        /* \"#utility.yul\":5305:5358   */\n      tag_195\n        /* \"#utility.yul\":5350:5357   */\n      dup6\n        /* \"#utility.yul\":5341:5347   */\n      dup3\n        /* \"#utility.yul\":5330:5339   */\n      dup7\n        /* \"#utility.yul\":5326:5348   */\n      add\n        /* \"#utility.yul\":5305:5358   */\n      tag_90\n      jump\t// in\n    tag_195:\n        /* \"#utility.yul\":5295:5358   */\n      swap2\n      pop\n        /* \"#utility.yul\":5250:5368   */\n      pop\n        /* \"#utility.yul\":4901:5375   */\n      swap3\n      pop\n      swap3\n      swap1\n      pop\n      jump\t// out\n        /* \"#utility.yul\":5381:5498   */\n    tag_102:\n        /* \"#utility.yul\":5490:5491   */\n      0x00\n        /* \"#utility.yul\":5487:5488   */\n      dup1\n        /* \"#utility.yul\":5480:5492   */\n      revert\n        /* \"#utility.yul\":5504:5621   */\n    tag_103:\n        /* \"#utility.yul\":5613:5614   */\n      0x00\n        /* \"#utility.yul\":5610:5611   */\n      dup1\n        /* \"#utility.yul\":5603:5615   */\n      revert\n        /* \"#utility.yul\":5627:5744   */\n    tag_104:\n        /* \"#utility.yul\":5736:5737   */\n      0x00\n        /* \"#utility.yul\":5733:5734   */\n      dup1\n        /* \"#utility.yul\":5726:5738   */\n      revert\n        /* \"#utility.yul\":5764:6317   */\n    tag_105:\n        /* \"#utility.yul\":5822:5830   */\n      0x00\n        /* \"#utility.yul\":5832:5838   */\n      dup1\n        /* \"#utility.yul\":5882:5885   */\n      dup4\n        /* \"#utility.yul\":5875:5879   */\n      0x1f\n        /* \"#utility.yul\":5867:5873   */\n      dup5\n        /* \"#utility.yul\":5863:5880   */\n      add\n        /* \"#utility.yul\":5859:5886   */\n      slt\n        /* \"#utility.yul\":5849:5971   */\n      tag_200\n      jumpi\n        /* \"#utility.yul\":5890:5969   */\n      tag_201\n      tag_102\n      jump\t// in\n    tag_201:\n        /* \"#utility.yul\":5849:5971   */\n    tag_200:\n        /* \"#utility.yul\":6003:6009   */\n      dup3\n        /* \"#utility.yul\":5990:6010   */\n      calldataload\n        /* \"#utility.yul\":5980:6010   */\n      swap1\n      pop\n        /* \"#utility.yul\":6033:6051   */\n      0xffffffffffffffff\n        /* \"#utility.yul\":6025:6031   */\n      dup2\n        /* \"#utility.yul\":6022:6052   */\n      gt\n        /* \"#utility.yul\":6019:6136   */\n      iszero\n      tag_202\n      jumpi\n        /* \"#utility.yul\":6055:6134   */\n      tag_203\n      tag_103\n      jump\t// in\n    tag_203:\n        /* \"#utility.yul\":6019:6136   */\n    tag_202:\n        /* \"#utility.yul\":6169:6173   */\n      0x20\n        /* \"#utility.yul\":6161:6167   */\n      dup4\n        /* \"#utility.yul\":6157:6174   */\n      add\n        /* \"#utility.yul\":6145:6174   */\n      swap2\n      pop\n        /* \"#utility.yul\":6223:6226   */\n      dup4\n        /* \"#utility.yul\":6215:6219   */\n      0x01\n        /* \"#utility.yul\":6207:6213   */\n      dup3\n        /* \"#utility.yul\":6203:6220   */\n      mul\n        /* \"#utility.yul\":6193:6201   */\n      dup4\n        /* \"#utility.yul\":6189:6221   */\n      add\n        /* \"#utility.yul\":6186:6227   */\n      gt\n        /* \"#utility.yul\":6183:6311   */\n      iszero\n      tag_204\n      jumpi\n        /* \"#utility.yul\":6230:6309   */\n      tag_205\n      tag_104\n      jump\t// in\n    tag_205:\n        /* \"#utility.yul\":6183:6311   */\n    tag_204:\n        /* \"#utility.yul\":5764:6317   */\n      swap3\n      pop\n      swap3\n      swap1\n      pop\n      jump\t// out\n        /* \"#utility.yul\":6323:7288   */\n    tag_38:\n        /* \"#utility.yul\":6421:6427   */\n      0x00\n        /* \"#utility.yul\":6429:6435   */\n      dup1\n        /* \"#utility.yul\":6437:6443   */\n      0x00\n        /* \"#utility.yul\":6445:6451   */\n      dup1\n        /* \"#utility.yul\":6453:6459   */\n      0x00\n        /* \"#utility.yul\":6502:6505   */\n      0x80\n        /* \"#utility.yul\":6490:6499   */\n      dup7\n        /* \"#utility.yul\":6481:6488   */\n      dup9\n        /* \"#utility.yul\":6477:6500   */\n      sub\n        /* \"#utility.yul\":6473:6506   */\n      slt\n        /* \"#utility.yul\":6470:6590   */\n      iszero\n      tag_207\n      jumpi\n        /* \"#utility.yul\":6509:6588   */\n      tag_208\n      tag_86\n      jump\t// in\n    tag_208:\n        /* \"#utility.yul\":6470:6590   */\n    tag_207:\n        /* \"#utility.yul\":6657:6658   */\n      0x00\n        /* \"#utility.yul\":6646:6655   */\n      dup7\n        /* \"#utility.yul\":6642:6659   */\n      add\n        /* \"#utility.yul\":6629:6660   */\n      calldataload\n        /* \"#utility.yul\":6687:6705   */\n      0xffffffffffffffff\n        /* \"#utility.yul\":6679:6685   */\n      dup2\n        /* \"#utility.yul\":6676:6706   */\n      gt\n        /* \"#utility.yul\":6673:6790   */\n      iszero\n      tag_209\n      jumpi\n        /* \"#utility.yul\":6709:6788   */\n      tag_210\n      tag_87\n      jump\t// in\n    tag_210:\n        /* \"#utility.yul\":6673:6790   */\n    tag_209:\n        /* \"#utility.yul\":6822:6887   */\n      tag_211\n        /* \"#utility.yul\":6879:6886   */\n      dup9\n        /* \"#utility.yul\":6870:6876   */\n      dup3\n        /* \"#utility.yul\":6859:6868   */\n      dup10\n        /* \"#utility.yul\":6855:6877   */\n      add\n        /* \"#utility.yul\":6822:6887   */\n      tag_105\n      jump\t// in\n    tag_211:\n        /* \"#utility.yul\":6804:6887   */\n      swap6\n      pop\n      swap6\n      pop\n        /* \"#utility.yul\":6600:6897   */\n      pop\n        /* \"#utility.yul\":6936:6938   */\n      0x20\n        /* \"#utility.yul\":6962:7015   */\n      tag_212\n        /* \"#utility.yul\":7007:7014   */\n      dup9\n        /* \"#utility.yul\":6998:7004   */\n      dup3\n        /* \"#utility.yul\":6987:6996   */\n      dup10\n        /* \"#utility.yul\":6983:7005   */\n      add\n        /* \"#utility.yul\":6962:7015   */\n      tag_90\n      jump\t// in\n    tag_212:\n        /* \"#utility.yul\":6952:7015   */\n      swap4\n      pop\n        /* \"#utility.yul\":6907:7025   */\n      pop\n        /* \"#utility.yul\":7064:7066   */\n      0x40\n        /* \"#utility.yul\":7090:7143   */\n      tag_213\n        /* \"#utility.yul\":7135:7142   */\n      dup9\n        /* \"#utility.yul\":7126:7132   */\n      dup3\n        /* \"#utility.yul\":7115:7124   */\n      dup10\n        /* \"#utility.yul\":7111:7133   */\n      add\n        /* \"#utility.yul\":7090:7143   */\n      tag_90\n      jump\t// in\n    tag_213:\n        /* \"#utility.yul\":7080:7143   */\n      swap3\n      pop\n        /* \"#utility.yul\":7035:7153   */\n      pop\n        /* \"#utility.yul\":7192:7194   */\n      0x60\n        /* \"#utility.yul\":7218:7271   */\n      tag_214\n        /* \"#utility.yul\":7263:7270   */\n      dup9\n        /* \"#utility.yul\":7254:7260   */\n      dup3\n        /* \"#utility.yul\":7243:7252   */\n      dup10\n        /* \"#utility.yul\":7239:7261   */\n      add\n        /* \"#utility.yul\":7218:7271   */\n      tag_90\n      jump\t// in\n    tag_214:\n        /* \"#utility.yul\":7208:7271   */\n      swap2\n      pop\n        /* \"#utility.yul\":7163:7281   */\n      pop\n        /* \"#utility.yul\":6323:7288   */\n      swap3\n      swap6\n      pop\n      swap3\n      swap6\n      swap1\n      swap4\n      pop\n      jump\t// out\n        /* \"#utility.yul\":7294:7474   */\n    tag_106:\n        /* \"#utility.yul\":7342:7419   */\n      0x4e487b7100000000000000000000000000000000000000000000000000000000\n        /* \"#utility.yul\":7339:7340   */\n      0x00\n        /* \"#utility.yul\":7332:7420   */\n      mstore\n        /* \"#utility.yul\":7439:7443   */\n      0x22\n        /* \"#utility.yul\":7436:7437   */\n      0x04\n        /* \"#utility.yul\":7429:7444   */\n      mstore\n        /* \"#utility.yul\":7463:7467   */\n      0x24\n        /* \"#utility.yul\":7460:7461   */\n      0x00\n        /* \"#utility.yul\":7453:7468   */\n      revert\n        /* \"#utility.yul\":7480:7800   */\n    tag_41:\n        /* \"#utility.yul\":7524:7530   */\n      0x00\n        /* \"#utility.yul\":7561:7562   */\n      0x02\n        /* \"#utility.yul\":7555:7559   */\n      dup3\n        /* \"#utility.yul\":7551:7563   */\n      div\n        /* \"#utility.yul\":7541:7563   */\n      swap1\n      pop\n        /* \"#utility.yul\":7608:7609   */\n      0x01\n        /* \"#utility.yul\":7602:7606   */\n      dup3\n        /* \"#utility.yul\":7598:7610   */\n      and\n        /* \"#utility.yul\":7629:7647   */\n      dup1\n        /* \"#utility.yul\":7619:7700   */\n      tag_217\n      jumpi\n        /* \"#utility.yul\":7685:7689   */\n      0x7f\n        /* \"#utility.yul\":7677:7683   */\n      dup3\n        /* \"#utility.yul\":7673:7690   */\n      and\n        /* \"#utility.yul\":7663:7690   */\n      swap2\n      pop\n        /* \"#utility.yul\":7619:7700   */\n    tag_217:\n        /* \"#utility.yul\":7747:7749   */\n      0x20\n        /* \"#utility.yul\":7739:7745   */\n      dup3\n        /* \"#utility.yul\":7736:7750   */\n      lt\n        /* \"#utility.yul\":7716:7734   */\n      dup2\n        /* \"#utility.yul\":7713:7751   */\n      sub\n        /* \"#utility.yul\":7710:7794   */\n      tag_218\n      jumpi\n        /* \"#utility.yul\":7766:7784   */\n      tag_219\n      tag_106\n      jump\t// in\n    tag_219:\n        /* \"#utility.yul\":7710:7794   */\n    tag_218:\n        /* \"#utility.yul\":7531:7800   */\n      pop\n        /* \"#utility.yul\":7480:7800   */\n      swap2\n      swap1\n      pop\n      jump\t// out\n        /* \"#utility.yul\":7806:7969   */\n    tag_107:\n        /* \"#utility.yul\":7946:7961   */\n      0x696e76616c6964206576656e7400000000000000000000000000000000000000\n        /* \"#utility.yul\":7942:7943   */\n      0x00\n        /* \"#utility.yul\":7934:7940   */\n      dup3\n        /* \"#utility.yul\":7930:7944   */\n      add\n        /* \"#utility.yul\":7923:7962   */\n      mstore\n        /* \"#utility.yul\":7806:7969   */\n      pop\n      jump\t// out\n        /* \"#utility.yul\":7975:8341   */\n    tag_108:\n        /* \"#utility.yul\":8117:8120   */\n      0x00\n        /* \"#utility.yul\":8138:8205   */\n      tag_222\n        /* \"#utility.yul\":8202:8204   */\n      0x0d\n        /* \"#utility.yul\":8197:8200   */\n      dup4\n        /* \"#utility.yul\":8138:8205   */\n      tag_95\n      jump\t// in\n    tag_222:\n        /* \"#utility.yul\":8131:8205   */\n      swap2\n      pop\n        /* \"#utility.yul\":8214:8307   */\n      tag_223\n        /* \"#utility.yul\":8303:8306   */\n      dup3\n        /* \"#utility.yul\":8214:8307   */\n      tag_107\n      jump\t// in\n    tag_223:\n        /* \"#utility.yul\":8332:8334   */\n      0x20\n        /* \"#utility.yul\":8327:8330   */\n      dup3\n        /* \"#utility.yul\":8323:8335   */\n      add\n        /* \"#utility.yul\":8316:8335   */\n      swap1\n      pop\n        /* \"#utility.yul\":7975:8341   */\n      swap2\n      swap1\n      pop\n      jump\t// out\n        /* \"#utility.yul\":8347:8766   */\n    tag_49:\n        /* \"#utility.yul\":8513:8517   */\n      0x00\n        /* \"#utility.yul\":8551:8553   */\n      0x20\n        /* \"#utility.yul\":8540:8549   */\n      dup3\n        /* \"#utility.yul\":8536:8554   */\n      add\n        /* \"#utility.yul\":8528:8554   */\n      swap1\n      pop\n        /* \"#utility.yul\":8600:8609   */\n      dup2\n        /* \"#utility.yul\":8594:8598   */\n      dup2\n        /* \"#utility.yul\":8590:8610   */\n      sub\n        /* \"#utility.yul\":8586:8587   */\n      0x00\n        /* \"#utility.yul\":8575:8584   */\n      dup4\n        /* \"#utility.yul\":8571:8588   */\n      add\n        /* \"#utility.yul\":8564:8611   */\n      mstore\n        /* \"#utility.yul\":8628:8759   */\n      tag_225\n        /* \"#utility.yul\":8754:8758   */\n      dup2\n        /* \"#utility.yul\":8628:8759   */\n      tag_108\n      jump\t// in\n    tag_225:\n        /* \"#utility.yul\":8620:8759   */\n      swap1\n      pop\n        /* \"#utility.yul\":8347:8766   */\n      swap2\n      swap1\n      pop\n      jump\t// out\n        /* \"#utility.yul\":8772:8951   */\n    tag_109:\n        /* \"#utility.yul\":8912:8943   */\n      0x746865206576656e742068617320616c72656164792070617373656421000000\n        /* \"#utility.yul\":8908:8909   */\n      0x00\n        /* \"#utility.yul\":8900:8906   */\n      dup3\n        /* \"#utility.yul\":8896:8910   */\n      add\n        /* \"#utility.yul\":8889:8944   */\n      mstore\n        /* \"#utility.yul\":8772:8951   */\n      pop\n      jump\t// out\n        /* \"#utility.yul\":8957:9323   */\n    tag_110:\n        /* \"#utility.yul\":9099:9102   */\n      0x00\n        /* \"#utility.yul\":9120:9187   */\n      tag_228\n        /* \"#utility.yul\":9184:9186   */\n      0x1d\n        /* \"#utility.yul\":9179:9182   */\n      dup4\n        /* \"#utility.yul\":9120:9187   */\n      tag_95\n      jump\t// in\n    tag_228:\n        /* \"#utility.yul\":9113:9187   */\n      swap2\n      pop\n        /* \"#utility.yul\":9196:9289   */\n      tag_229\n        /* \"#utility.yul\":9285:9288   */\n      dup3\n        /* \"#utility.yul\":9196:9289   */\n      tag_109\n      jump\t// in\n    tag_229:\n        /* \"#utility.yul\":9314:9316   */\n      0x20\n        /* \"#utility.yul\":9309:9312   */\n      dup3\n        /* \"#utility.yul\":9305:9317   */\n      add\n        /* \"#utility.yul\":9298:9317   */\n      swap1\n      pop\n        /* \"#utility.yul\":8957:9323   */\n      swap2\n      swap1\n      pop\n      jump\t// out\n        /* \"#utility.yul\":9329:9748   */\n    tag_52:\n        /* \"#utility.yul\":9495:9499   */\n      0x00\n        /* \"#utility.yul\":9533:9535   */\n      0x20\n        /* \"#utility.yul\":9522:9531   */\n      dup3\n        /* \"#utility.yul\":9518:9536   */\n      add\n        /* \"#utility.yul\":9510:9536   */\n      swap1\n      pop\n        /* \"#utility.yul\":9582:9591   */\n      dup2\n        /* \"#utility.yul\":9576:9580   */\n      dup2\n        /* \"#utility.yul\":9572:9592   */\n      sub\n        /* \"#utility.yul\":9568:9569   */\n      0x00\n        /* \"#utility.yul\":9557:9566   */\n      dup4\n        /* \"#utility.yul\":9553:9570   */\n      add\n        /* \"#utility.yul\":9546:9593   */\n      mstore\n        /* \"#utility.yul\":9610:9741   */\n      tag_231\n        /* \"#utility.yul\":9736:9740   */\n      dup2\n        /* \"#utility.yul\":9610:9741   */\n      tag_110\n      jump\t// in\n    tag_231:\n        /* \"#utility.yul\":9602:9741   */\n      swap1\n      pop\n        /* \"#utility.yul\":9329:9748   */\n      swap2\n      swap1\n      pop\n      jump\t// out\n        /* \"#utility.yul\":9754:9935   */\n    tag_111:\n        /* \"#utility.yul\":9894:9927   */\n      0x796f7520646f206e6f74206861766520656e6f756768207469636b6574732100\n        /* \"#utility.yul\":9890:9891   */\n      0x00\n        /* \"#utility.yul\":9882:9888   */\n      dup3\n        /* \"#utility.yul\":9878:9892   */\n      add\n        /* \"#utility.yul\":9871:9928   */\n      mstore\n        /* \"#utility.yul\":9754:9935   */\n      pop\n      jump\t// out\n        /* \"#utility.yul\":9941:10307   */\n    tag_112:\n        /* \"#utility.yul\":10083:10086   */\n      0x00\n        /* \"#utility.yul\":10104:10171   */\n      tag_234\n        /* \"#utility.yul\":10168:10170   */\n      0x1f\n        /* \"#utility.yul\":10163:10166   */\n      dup4\n        /* \"#utility.yul\":10104:10171   */\n      tag_95\n      jump\t// in\n    tag_234:\n        /* \"#utility.yul\":10097:10171   */\n      swap2\n      pop\n        /* \"#utility.yul\":10180:10273   */\n      tag_235\n        /* \"#utility.yul\":10269:10272   */\n      dup3\n        /* \"#utility.yul\":10180:10273   */\n      tag_111\n      jump\t// in\n    tag_235:\n        /* \"#utility.yul\":10298:10300   */\n      0x20\n        /* \"#utility.yul\":10293:10296   */\n      dup3\n        /* \"#utility.yul\":10289:10301   */\n      add\n        /* \"#utility.yul\":10282:10301   */\n      swap1\n      pop\n        /* \"#utility.yul\":9941:10307   */\n      swap2\n      swap1\n      pop\n      jump\t// out\n        /* \"#utility.yul\":10313:10732   */\n    tag_55:\n        /* \"#utility.yul\":10479:10483   */\n      0x00\n        /* \"#utility.yul\":10517:10519   */\n      0x20\n        /* \"#utility.yul\":10506:10515   */\n      dup3\n        /* \"#utility.yul\":10502:10520   */\n      add\n        /* \"#utility.yul\":10494:10520   */\n      swap1\n      pop\n        /* \"#utility.yul\":10566:10575   */\n      dup2\n        /* \"#utility.yul\":10560:10564   */\n      dup2\n        /* \"#utility.yul\":10556:10576   */\n      sub\n        /* \"#utility.yul\":10552:10553   */\n      0x00\n        /* \"#utility.yul\":10541:10550   */\n      dup4\n        /* \"#utility.yul\":10537:10554   */\n      add\n        /* \"#utility.yul\":10530:10577   */\n      mstore\n        /* \"#utility.yul\":10594:10725   */\n      tag_237\n        /* \"#utility.yul\":10720:10724   */\n      dup2\n        /* \"#utility.yul\":10594:10725   */\n      tag_112\n      jump\t// in\n    tag_237:\n        /* \"#utility.yul\":10586:10725   */\n      swap1\n      pop\n        /* \"#utility.yul\":10313:10732   */\n      swap2\n      swap1\n      pop\n      jump\t// out\n        /* \"#utility.yul\":10738:10918   */\n    tag_113:\n        /* \"#utility.yul\":10786:10863   */\n      0x4e487b7100000000000000000000000000000000000000000000000000000000\n        /* \"#utility.yul\":10783:10784   */\n      0x00\n        /* \"#utility.yul\":10776:10864   */\n      mstore\n        /* \"#utility.yul\":10883:10887   */\n      0x11\n        /* \"#utility.yul\":10880:10881   */\n      0x04\n        /* \"#utility.yul\":10873:10888   */\n      mstore\n        /* \"#utility.yul\":10907:10911   */\n      0x24\n        /* \"#utility.yul\":10904:10905   */\n      0x00\n        /* \"#utility.yul\":10897:10912   */\n      revert\n        /* \"#utility.yul\":10924:11118   */\n    tag_57:\n        /* \"#utility.yul\":10964:10968   */\n      0x00\n        /* \"#utility.yul\":10984:11004   */\n      tag_240\n        /* \"#utility.yul\":11002:11003   */\n      dup3\n        /* \"#utility.yul\":10984:11004   */\n      tag_88\n      jump\t// in\n    tag_240:\n        /* \"#utility.yul\":10979:11004   */\n      swap2\n      pop\n        /* \"#utility.yul\":11018:11038   */\n      tag_241\n        /* \"#utility.yul\":11036:11037   */\n      dup4\n        /* \"#utility.yul\":11018:11038   */\n      tag_88\n      jump\t// in\n    tag_241:\n        /* \"#utility.yul\":11013:11038   */\n      swap3\n      pop\n        /* \"#utility.yul\":11062:11063   */\n      dup3\n        /* \"#utility.yul\":11059:11060   */\n      dup3\n        /* \"#utility.yul\":11055:11064   */\n      sub\n        /* \"#utility.yul\":11047:11064   */\n      swap1\n      pop\n        /* \"#utility.yul\":11086:11087   */\n      dup2\n        /* \"#utility.yul\":11080:11084   */\n      dup2\n        /* \"#utility.yul\":11077:11088   */\n      gt\n        /* \"#utility.yul\":11074:11111   */\n      iszero\n      tag_242\n      jumpi\n        /* \"#utility.yul\":11091:11109   */\n      tag_243\n      tag_113\n      jump\t// in\n    tag_243:\n        /* \"#utility.yul\":11074:11111   */\n    tag_242:\n        /* \"#utility.yul\":10924:11118   */\n      swap3\n      swap2\n      pop\n      pop\n      jump\t// out\n        /* \"#utility.yul\":11124:11315   */\n    tag_59:\n        /* \"#utility.yul\":11164:11167   */\n      0x00\n        /* \"#utility.yul\":11183:11203   */\n      tag_245\n        /* \"#utility.yul\":11201:11202   */\n      dup3\n        /* \"#utility.yul\":11183:11203   */\n      tag_88\n      jump\t// in\n    tag_245:\n        /* \"#utility.yul\":11178:11203   */\n      swap2\n      pop\n        /* \"#utility.yul\":11217:11237   */\n      tag_246\n        /* \"#utility.yul\":11235:11236   */\n      dup4\n        /* \"#utility.yul\":11217:11237   */\n      tag_88\n      jump\t// in\n    tag_246:\n        /* \"#utility.yul\":11212:11237   */\n      swap3\n      pop\n        /* \"#utility.yul\":11260:11261   */\n      dup3\n        /* \"#utility.yul\":11257:11258   */\n      dup3\n        /* \"#utility.yul\":11253:11262   */\n      add\n        /* \"#utility.yul\":11246:11262   */\n      swap1\n      pop\n        /* \"#utility.yul\":11281:11284   */\n      dup1\n        /* \"#utility.yul\":11278:11279   */\n      dup3\n        /* \"#utility.yul\":11275:11285   */\n      gt\n        /* \"#utility.yul\":11272:11308   */\n      iszero\n      tag_247\n      jumpi\n        /* \"#utility.yul\":11288:11306   */\n      tag_248\n      tag_113\n      jump\t// in\n    tag_248:\n        /* \"#utility.yul\":11272:11308   */\n    tag_247:\n        /* \"#utility.yul\":11124:11315   */\n      swap3\n      swap2\n      pop\n      pop\n      jump\t// out\n        /* \"#utility.yul\":11321:11731   */\n    tag_66:\n        /* \"#utility.yul\":11361:11368   */\n      0x00\n        /* \"#utility.yul\":11384:11404   */\n      tag_250\n        /* \"#utility.yul\":11402:11403   */\n      dup3\n        /* \"#utility.yul\":11384:11404   */\n      tag_88\n      jump\t// in\n    tag_250:\n        /* \"#utility.yul\":11379:11404   */\n      swap2\n      pop\n        /* \"#utility.yul\":11418:11438   */\n      tag_251\n        /* \"#utility.yul\":11436:11437   */\n      dup4\n        /* \"#utility.yul\":11418:11438   */\n      tag_88\n      jump\t// in\n    tag_251:\n        /* \"#utility.yul\":11413:11438   */\n      swap3\n      pop\n        /* \"#utility.yul\":11473:11474   */\n      dup3\n        /* \"#utility.yul\":11470:11471   */\n      dup3\n        /* \"#utility.yul\":11466:11475   */\n      mul\n        /* \"#utility.yul\":11495:11525   */\n      tag_252\n        /* \"#utility.yul\":11513:11524   */\n      dup2\n        /* \"#utility.yul\":11495:11525   */\n      tag_88\n      jump\t// in\n    tag_252:\n        /* \"#utility.yul\":11484:11525   */\n      swap2\n      pop\n        /* \"#utility.yul\":11674:11675   */\n      dup3\n        /* \"#utility.yul\":11665:11672   */\n      dup3\n        /* \"#utility.yul\":11661:11676   */\n      div\n        /* \"#utility.yul\":11658:11659   */\n      dup5\n        /* \"#utility.yul\":11655:11677   */\n      eq\n        /* \"#utility.yul\":11635:11636   */\n      dup4\n        /* \"#utility.yul\":11628:11637   */\n      iszero\n        /* \"#utility.yul\":11608:11691   */\n      or\n        /* \"#utility.yul\":11585:11724   */\n      tag_253\n      jumpi\n        /* \"#utility.yul\":11704:11722   */\n      tag_254\n      tag_113\n      jump\t// in\n    tag_254:\n        /* \"#utility.yul\":11585:11724   */\n    tag_253:\n        /* \"#utility.yul\":11369:11731   */\n      pop\n        /* \"#utility.yul\":11321:11731   */\n      swap3\n      swap2\n      pop\n      pop\n      jump\t// out\n        /* \"#utility.yul\":11737:11898   */\n    tag_114:\n        /* \"#utility.yul\":11877:11890   */\n      0x77726f6e672076616c7565000000000000000000000000000000000000000000\n        /* \"#utility.yul\":11873:11874   */\n      0x00\n        /* \"#utility.yul\":11865:11871   */\n      dup3\n        /* \"#utility.yul\":11861:11875   */\n      add\n        /* \"#utility.yul\":11854:11891   */\n      mstore\n        /* \"#utility.yul\":11737:11898   */\n      pop\n      jump\t// out\n        /* \"#utility.yul\":11904:12270   */\n    tag_115:\n        /* \"#utility.yul\":12046:12049   */\n      0x00\n        /* \"#utility.yul\":12067:12134   */\n      tag_257\n        /* \"#utility.yul\":12131:12133   */\n      0x0b\n        /* \"#utility.yul\":12126:12129   */\n      dup4\n        /* \"#utility.yul\":12067:12134   */\n      tag_95\n      jump\t// in\n    tag_257:\n        /* \"#utility.yul\":12060:12134   */\n      swap2\n      pop\n        /* \"#utility.yul\":12143:12236   */\n      tag_258\n        /* \"#utility.yul\":12232:12235   */\n      dup3\n        /* \"#utility.yul\":12143:12236   */\n      tag_114\n      jump\t// in\n    tag_258:\n        /* \"#utility.yul\":12261:12263   */\n      0x20\n        /* \"#utility.yul\":12256:12259   */\n      dup3\n        /* \"#utility.yul\":12252:12264   */\n      add\n        /* \"#utility.yul\":12245:12264   */\n      swap1\n      pop\n        /* \"#utility.yul\":11904:12270   */\n      swap2\n      swap1\n      pop\n      jump\t// out\n        /* \"#utility.yul\":12276:12695   */\n    tag_69:\n        /* \"#utility.yul\":12442:12446   */\n      0x00\n        /* \"#utility.yul\":12480:12482   */\n      0x20\n        /* \"#utility.yul\":12469:12478   */\n      dup3\n        /* \"#utility.yul\":12465:12483   */\n      add\n        /* \"#utility.yul\":12457:12483   */\n      swap1\n      pop\n        /* \"#utility.yul\":12529:12538   */\n      dup2\n        /* \"#utility.yul\":12523:12527   */\n      dup2\n        /* \"#utility.yul\":12519:12539   */\n      sub\n        /* \"#utility.yul\":12515:12516   */\n      0x00\n        /* \"#utility.yul\":12504:12513   */\n      dup4\n        /* \"#utility.yul\":12500:12517   */\n      add\n        /* \"#utility.yul\":12493:12540   */\n      mstore\n        /* \"#utility.yul\":12557:12688   */\n      tag_260\n        /* \"#utility.yul\":12683:12687   */\n      dup2\n        /* \"#utility.yul\":12557:12688   */\n      tag_115\n      jump\t// in\n    tag_260:\n        /* \"#utility.yul\":12549:12688   */\n      swap1\n      pop\n        /* \"#utility.yul\":12276:12695   */\n      swap2\n      swap1\n      pop\n      jump\t// out\n        /* \"#utility.yul\":12701:12925   */\n    tag_116:\n        /* \"#utility.yul\":12841:12875   */\n      0x796f752063616e6e6f7420637265617465206576656e7420666f722070617374\n        /* \"#utility.yul\":12837:12838   */\n      0x00\n        /* \"#utility.yul\":12829:12835   */\n      dup3\n        /* \"#utility.yul\":12825:12839   */\n      add\n        /* \"#utility.yul\":12818:12876   */\n      mstore\n        /* \"#utility.yul\":12910:12917   */\n      0x2064617465000000000000000000000000000000000000000000000000000000\n        /* \"#utility.yul\":12905:12907   */\n      0x20\n        /* \"#utility.yul\":12897:12903   */\n      dup3\n        /* \"#utility.yul\":12893:12908   */\n      add\n        /* \"#utility.yul\":12886:12918   */\n      mstore\n        /* \"#utility.yul\":12701:12925   */\n      pop\n      jump\t// out\n        /* \"#utility.yul\":12931:13297   */\n    tag_117:\n        /* \"#utility.yul\":13073:13076   */\n      0x00\n        /* \"#utility.yul\":13094:13161   */\n      tag_263\n        /* \"#utility.yul\":13158:13160   */\n      0x25\n        /* \"#utility.yul\":13153:13156   */\n      dup4\n        /* \"#utility.yul\":13094:13161   */\n      tag_95\n      jump\t// in\n    tag_263:\n        /* \"#utility.yul\":13087:13161   */\n      swap2\n      pop\n        /* \"#utility.yul\":13170:13263   */\n      tag_264\n        /* \"#utility.yul\":13259:13262   */\n      dup3\n        /* \"#utility.yul\":13170:13263   */\n      tag_116\n      jump\t// in\n    tag_264:\n        /* \"#utility.yul\":13288:13290   */\n      0x40\n        /* \"#utility.yul\":13283:13286   */\n      dup3\n        /* \"#utility.yul\":13279:13291   */\n      add\n        /* \"#utility.yul\":13272:13291   */\n      swap1\n      pop\n        /* \"#utility.yul\":12931:13297   */\n      swap2\n      swap1\n      pop\n      jump\t// out\n        /* \"#utility.yul\":13303:13722   */\n    tag_77:\n        /* \"#utility.yul\":13469:13473   */\n      0x00\n        /* \"#utility.yul\":13507:13509   */\n      0x20\n        /* \"#utility.yul\":13496:13505   */\n      dup3\n        /* \"#utility.yul\":13492:13510   */\n      add\n        /* \"#utility.yul\":13484:13510   */\n      swap1\n      pop\n        /* \"#utility.yul\":13556:13565   */\n      dup2\n        /* \"#utility.yul\":13550:13554   */\n      dup2\n        /* \"#utility.yul\":13546:13566   */\n      sub\n        /* \"#utility.yul\":13542:13543   */\n      0x00\n        /* \"#utility.yul\":13531:13540   */\n      dup4\n        /* \"#utility.yul\":13527:13544   */\n      add\n        /* \"#utility.yul\":13520:13567   */\n      mstore\n        /* \"#utility.yul\":13584:13715   */\n      tag_266\n        /* \"#utility.yul\":13710:13714   */\n      dup2\n        /* \"#utility.yul\":13584:13715   */\n      tag_117\n      jump\t// in\n    tag_266:\n        /* \"#utility.yul\":13576:13715   */\n      swap1\n      pop\n        /* \"#utility.yul\":13303:13722   */\n      swap2\n      swap1\n      pop\n      jump\t// out\n        /* \"#utility.yul\":13728:13903   */\n    tag_118:\n        /* \"#utility.yul\":13868:13895   */\n      0x696e76616c6964206e756d626572206f66207469636b65747300000000000000\n        /* \"#utility.yul\":13864:13865   */\n      0x00\n        /* \"#utility.yul\":13856:13862   */\n      dup3\n        /* \"#utility.yul\":13852:13866   */\n      add\n        /* \"#utility.yul\":13845:13896   */\n      mstore\n        /* \"#utility.yul\":13728:13903   */\n      pop\n      jump\t// out\n        /* \"#utility.yul\":13909:14275   */\n    tag_119:\n        /* \"#utility.yul\":14051:14054   */\n      0x00\n        /* \"#utility.yul\":14072:14139   */\n      tag_269\n        /* \"#utility.yul\":14136:14138   */\n      0x19\n        /* \"#utility.yul\":14131:14134   */\n      dup4\n        /* \"#utility.yul\":14072:14139   */\n      tag_95\n      jump\t// in\n    tag_269:\n        /* \"#utility.yul\":14065:14139   */\n      swap2\n      pop\n        /* \"#utility.yul\":14148:14241   */\n      tag_270\n        /* \"#utility.yul\":14237:14240   */\n      dup3\n        /* \"#utility.yul\":14148:14241   */\n      tag_118\n      jump\t// in\n    tag_270:\n        /* \"#utility.yul\":14266:14268   */\n      0x20\n        /* \"#utility.yul\":14261:14264   */\n      dup3\n        /* \"#utility.yul\":14257:14269   */\n      add\n        /* \"#utility.yul\":14250:14269   */\n      swap1\n      pop\n        /* \"#utility.yul\":13909:14275   */\n      swap2\n      swap1\n      pop\n      jump\t// out\n        /* \"#utility.yul\":14281:14700   */\n    tag_80:\n        /* \"#utility.yul\":14447:14451   */\n      0x00\n        /* \"#utility.yul\":14485:14487   */\n      0x20\n        /* \"#utility.yul\":14474:14483   */\n      dup3\n        /* \"#utility.yul\":14470:14488   */\n      add\n        /* \"#utility.yul\":14462:14488   */\n      swap1\n      pop\n        /* \"#utility.yul\":14534:14543   */\n      dup2\n        /* \"#utility.yul\":14528:14532   */\n      dup2\n        /* \"#utility.yul\":14524:14544   */\n      sub\n        /* \"#utility.yul\":14520:14521   */\n      0x00\n        /* \"#utility.yul\":14509:14518   */\n      dup4\n        /* \"#utility.yul\":14505:14522   */\n      add\n        /* \"#utility.yul\":14498:14545   */\n      mstore\n        /* \"#utility.yul\":14562:14693   */\n      tag_272\n        /* \"#utility.yul\":14688:14692   */\n      dup2\n        /* \"#utility.yul\":14562:14693   */\n      tag_119\n      jump\t// in\n    tag_272:\n        /* \"#utility.yul\":14554:14693   */\n      swap1\n      pop\n        /* \"#utility.yul\":14281:14700   */\n      swap2\n      swap1\n      pop\n      jump\t// out\n        /* \"#utility.yul\":14706:14886   */\n    tag_120:\n        /* \"#utility.yul\":14754:14831   */\n      0x4e487b7100000000000000000000000000000000000000000000000000000000\n        /* \"#utility.yul\":14751:14752   */\n      0x00\n        /* \"#utility.yul\":14744:14832   */\n      mstore\n        /* \"#utility.yul\":14851:14855   */\n      0x41\n        /* \"#utility.yul\":14848:14849   */\n      0x04\n        /* \"#utility.yul\":14841:14856   */\n      mstore\n        /* \"#utility.yul\":14875:14879   */\n      0x24\n        /* \"#utility.yul\":14872:14873   */\n      0x00\n        /* \"#utility.yul\":14865:14880   */\n      revert\n        /* \"#utility.yul\":14892:15033   */\n    tag_121:\n        /* \"#utility.yul\":14941:14945   */\n      0x00\n        /* \"#utility.yul\":14964:14967   */\n      dup2\n        /* \"#utility.yul\":14956:14967   */\n      swap1\n      pop\n        /* \"#utility.yul\":14987:14990   */\n      dup2\n        /* \"#utility.yul\":14984:14985   */\n      0x00\n        /* \"#utility.yul\":14977:14991   */\n      mstore\n        /* \"#utility.yul\":15021:15025   */\n      0x20\n        /* \"#utility.yul\":15018:15019   */\n      0x00\n        /* \"#utility.yul\":15008:15026   */\n      keccak256\n        /* \"#utility.yul\":15000:15026   */\n      swap1\n      pop\n        /* \"#utility.yul\":14892:15033   */\n      swap2\n      swap1\n      pop\n      jump\t// out\n        /* \"#utility.yul\":15039:15132   */\n    tag_122:\n        /* \"#utility.yul\":15076:15082   */\n      0x00\n        /* \"#utility.yul\":15123:15125   */\n      0x20\n        /* \"#utility.yul\":15118:15120   */\n      0x1f\n        /* \"#utility.yul\":15111:15116   */\n      dup4\n        /* \"#utility.yul\":15107:15121   */\n      add\n        /* \"#utility.yul\":15103:15126   */\n      div\n        /* \"#utility.yul\":15093:15126   */\n      swap1\n      pop\n        /* \"#utility.yul\":15039:15132   */\n      swap2\n      swap1\n      pop\n      jump\t// out\n        /* \"#utility.yul\":15138:15245   */\n    tag_123:\n        /* \"#utility.yul\":15182:15190   */\n      0x00\n        /* \"#utility.yul\":15232:15237   */\n      dup3\n        /* \"#utility.yul\":15226:15230   */\n      dup3\n        /* \"#utility.yul\":15222:15238   */\n      shl\n        /* \"#utility.yul\":15201:15238   */\n      swap1\n      pop\n        /* \"#utility.yul\":15138:15245   */\n      swap3\n      swap2\n      pop\n      pop\n      jump\t// out\n        /* \"#utility.yul\":15251:15644   */\n    tag_124:\n        /* \"#utility.yul\":15320:15326   */\n      0x00\n        /* \"#utility.yul\":15370:15371   */\n      0x08\n        /* \"#utility.yul\":15358:15368   */\n      dup4\n        /* \"#utility.yul\":15354:15372   */\n      mul\n        /* \"#utility.yul\":15393:15490   */\n      tag_278\n        /* \"#utility.yul\":15423:15489   */\n      0xffffffffffffffffffffffffffffffffffffffffffffffffffffffffffffffff\n        /* \"#utility.yul\":15412:15421   */\n      dup3\n        /* \"#utility.yul\":15393:15490   */\n      tag_123\n      jump\t// in\n    tag_278:\n        /* \"#utility.yul\":15511:15550   */\n      tag_279\n        /* \"#utility.yul\":15541:15549   */\n      dup7\n        /* \"#utility.yul\":15530:15539   */\n      dup4\n        /* \"#utility.yul\":15511:15550   */\n      tag_123\n      jump\t// in\n    tag_279:\n        /* \"#utility.yul\":15499:15550   */\n      swap6\n      pop\n        /* \"#utility.yul\":15583:15587   */\n      dup1\n        /* \"#utility.yul\":15579:15588   */\n      not\n        /* \"#utility.yul\":15572:15577   */\n      dup5\n        /* \"#utility.yul\":15568:15589   */\n      and\n        /* \"#utility.yul\":15559:15589   */\n      swap4\n      pop\n        /* \"#utility.yul\":15632:15636   */\n      dup1\n        /* \"#utility.yul\":15622:15630   */\n      dup7\n        /* \"#utility.yul\":15618:15637   */\n      and\n        /* \"#utility.yul\":15611:15616   */\n      dup5\n        /* \"#utility.yul\":15608:15638   */\n      or\n        /* \"#utility.yul\":15598:15638   */\n      swap3\n      pop\n        /* \"#utility.yul\":15327:15644   */\n      pop\n      pop\n        /* \"#utility.yul\":15251:15644   */\n      swap4\n      swap3\n      pop\n      pop\n      pop\n      jump\t// out\n        /* \"#utility.yul\":15650:15710   */\n    tag_125:\n        /* \"#utility.yul\":15678:15681   */\n      0x00\n        /* \"#utility.yul\":15699:15704   */\n      dup2\n        /* \"#utility.yul\":15692:15704   */\n      swap1\n      pop\n        /* \"#utility.yul\":15650:15710   */\n      swap2\n      swap1\n      pop\n      jump\t// out\n        /* \"#utility.yul\":15716:15858   */\n    tag_126:\n        /* \"#utility.yul\":15766:15775   */\n      0x00\n        /* \"#utility.yul\":15799:15852   */\n      tag_282\n        /* \"#utility.yul\":15817:15851   */\n      tag_283\n        /* \"#utility.yul\":15826:15850   */\n      tag_284\n        /* \"#utility.yul\":15844:15849   */\n      dup5\n        /* \"#utility.yul\":15826:15850   */\n      tag_88\n      jump\t// in\n    tag_284:\n        /* \"#utility.yul\":15817:15851   */\n      tag_125\n      jump\t// in\n    tag_283:\n        /* \"#utility.yul\":15799:15852   */\n      tag_88\n      jump\t// in\n    tag_282:\n        /* \"#utility.yul\":15786:15852   */\n      swap1\n      pop\n        /* \"#utility.yul\":15716:15858   */\n      swap2\n      swap1\n      pop\n      jump\t// out\n        /* \"#utility.yul\":15864:15939   */\n    tag_127:\n        /* \"#utility.yul\":15907:15910   */\n      0x00\n        /* \"#utility.yul\":15928:15933   */\n      dup2\n        /* \"#utility.yul\":15921:15933   */\n      swap1\n      pop\n        /* \"#utility.yul\":15864:15939   */\n      swap2\n      swap1\n      pop\n      jump\t// out\n        /* \"#utility.yul\":15945:16214   */\n    tag_128:\n        /* \"#utility.yul\":16055:16094   */\n      tag_287\n        /* \"#utility.yul\":16086:16093   */\n      dup4\n        /* \"#utility.yul\":16055:16094   */\n      tag_126\n      jump\t// in\n    tag_287:\n        /* \"#utility.yul\":16116:16207   */\n      tag_288\n        /* \"#utility.yul\":16165:16206   */\n      tag_289\n        /* \"#utility.yul\":16189:16205   */\n      dup3\n        /* \"#utility.yul\":16165:16206   */\n      tag_127\n      jump\t// in\n    tag_289:\n        /* \"#utility.yul\":16157:16163   */\n      dup5\n        /* \"#utility.yul\":16150:16154   */\n      dup5\n        /* \"#utility.yul\":16144:16155   */\n      sload\n        /* \"#utility.yul\":16116:16207   */\n      tag_124\n      jump\t// in\n    tag_288:\n        /* \"#utility.yul\":16110:16114   */\n      dup3\n        /* \"#utility.yul\":16103:16208   */\n      sstore\n        /* \"#utility.yul\":16021:16214   */\n      pop\n        /* \"#utility.yul\":15945:16214   */\n      pop\n      pop\n      pop\n      jump\t// out\n        /* \"#utility.yul\":16220:16293   */\n    tag_129:\n        /* \"#utility.yul\":16265:16268   */\n      0x00\n        /* \"#utility.yul\":16220:16293   */\n      swap1\n      jump\t// out\n        /* \"#utility.yul\":16299:16488   */\n    tag_130:\n        /* \"#utility.yul\":16376:16408   */\n      tag_292\n      tag_129\n      jump\t// in\n    tag_292:\n        /* \"#utility.yul\":16417:16482   */\n      tag_293\n        /* \"#utility.yul\":16475:16481   */\n      dup2\n        /* \"#utility.yul\":16467:16473   */\n      dup5\n        /* \"#utility.yul\":16461:16465   */\n      dup5\n        /* \"#utility.yul\":16417:16482   */\n      tag_128\n      jump\t// in\n    tag_293:\n        /* \"#utility.yul\":16352:16488   */\n      pop\n        /* \"#utility.yul\":16299:16488   */\n      pop\n      pop\n      jump\t// out\n        /* \"#utility.yul\":16494:16680   */\n    tag_131:\n        /* \"#utility.yul\":16554:16674   */\n    tag_295:\n        /* \"#utility.yul\":16571:16574   */\n      dup2\n        /* \"#utility.yul\":16564:16569   */\n      dup2\n        /* \"#utility.yul\":16561:16575   */\n      lt\n        /* \"#utility.yul\":16554:16674   */\n      iszero\n      tag_297\n      jumpi\n        /* \"#utility.yul\":16625:16664   */\n      tag_298\n        /* \"#utility.yul\":16662:16663   */\n      0x00\n        /* \"#utility.yul\":16655:16660   */\n      dup3\n        /* \"#utility.yul\":16625:16664   */\n      tag_130\n      jump\t// in\n    tag_298:\n        /* \"#utility.yul\":16598:16599   */\n      0x01\n        /* \"#utility.yul\":16591:16596   */\n      dup2\n        /* \"#utility.yul\":16587:16600   */\n      add\n        /* \"#utility.yul\":16578:16600   */\n      swap1\n      pop\n        /* \"#utility.yul\":16554:16674   */\n      jump(tag_295)\n    tag_297:\n        /* \"#utility.yul\":16494:16680   */\n      pop\n      pop\n      jump\t// out\n        /* \"#utility.yul\":16686:17229   */\n    tag_132:\n        /* \"#utility.yul\":16787:16789   */\n      0x1f\n        /* \"#utility.yul\":16782:16785   */\n      dup3\n        /* \"#utility.yul\":16779:16790   */\n      gt\n        /* \"#utility.yul\":16776:17222   */\n      iszero\n      tag_300\n      jumpi\n        /* \"#utility.yul\":16821:16859   */\n      tag_301\n        /* \"#utility.yul\":16853:16858   */\n      dup2\n        /* \"#utility.yul\":16821:16859   */\n      tag_121\n      jump\t// in\n    tag_301:\n        /* \"#utility.yul\":16905:16934   */\n      tag_302\n        /* \"#utility.yul\":16923:16933   */\n      dup5\n        /* \"#utility.yul\":16905:16934   */\n      tag_122\n      jump\t// in\n    tag_302:\n        /* \"#utility.yul\":16895:16903   */\n      dup2\n        /* \"#utility.yul\":16891:16935   */\n      add\n        /* \"#utility.yul\":17088:17090   */\n      0x20\n        /* \"#utility.yul\":17076:17086   */\n      dup6\n        /* \"#utility.yul\":17073:17091   */\n      lt\n        /* \"#utility.yul\":17070:17119   */\n      iszero\n      tag_303\n      jumpi\n        /* \"#utility.yul\":17109:17117   */\n      dup2\n        /* \"#utility.yul\":17094:17117   */\n      swap1\n      pop\n        /* \"#utility.yul\":17070:17119   */\n    tag_303:\n        /* \"#utility.yul\":17132:17212   */\n      tag_304\n        /* \"#utility.yul\":17188:17210   */\n      tag_305\n        /* \"#utility.yul\":17206:17209   */\n      dup6\n        /* \"#utility.yul\":17188:17210   */\n      tag_122\n      jump\t// in\n    tag_305:\n        /* \"#utility.yul\":17178:17186   */\n      dup4\n        /* \"#utility.yul\":17174:17211   */\n      add\n        /* \"#utility.yul\":17161:17172   */\n      dup3\n        /* \"#utility.yul\":17132:17212   */\n      tag_131\n      jump\t// in\n    tag_304:\n        /* \"#utility.yul\":16791:17222   */\n      pop\n      pop\n        /* \"#utility.yul\":16776:17222   */\n    tag_300:\n        /* \"#utility.yul\":16686:17229   */\n      pop\n      pop\n      pop\n      jump\t// out\n        /* \"#utility.yul\":17235:17352   */\n    tag_133:\n        /* \"#utility.yul\":17289:17297   */\n      0x00\n        /* \"#utility.yul\":17339:17344   */\n      dup3\n        /* \"#utility.yul\":17333:17337   */\n      dup3\n        /* \"#utility.yul\":17329:17345   */\n      shr\n        /* \"#utility.yul\":17308:17345   */\n      swap1\n      pop\n        /* \"#utility.yul\":17235:17352   */\n      swap3\n      swap2\n      pop\n      pop\n      jump\t// out\n        /* \"#utility.yul\":17358:17527   */\n    tag_134:\n        /* \"#utility.yul\":17402:17408   */\n      0x00\n        /* \"#utility.yul\":17435:17486   */\n      tag_308\n        /* \"#utility.yul\":17483:17484   */\n      0x00\n        /* \"#utility.yul\":17479:17485   */\n      not\n        /* \"#utility.yul\":17471:17476   */\n      dup5\n        /* \"#utility.yul\":17468:17469   */\n      0x08\n        /* \"#utility.yul\":17464:17477   */\n      mul\n        /* \"#utility.yul\":17435:17486   */\n      tag_133\n      jump\t// in\n    tag_308:\n        /* \"#utility.yul\":17431:17487   */\n      not\n        /* \"#utility.yul\":17516:17520   */\n      dup1\n        /* \"#utility.yul\":17510:17514   */\n      dup4\n        /* \"#utility.yul\":17506:17521   */\n      and\n        /* \"#utility.yul\":17496:17521   */\n      swap2\n      pop\n        /* \"#utility.yul\":17409:17527   */\n      pop\n        /* \"#utility.yul\":17358:17527   */\n      swap3\n      swap2\n      pop\n      pop\n      jump\t// out\n        /* \"#utility.yul\":17532:17827   */\n    tag_135:\n        /* \"#utility.yul\":17608:17612   */\n      0x00\n        /* \"#utility.yul\":17754:17783   */\n      tag_310\n        /* \"#utility.yul\":17779:17782   */\n      dup4\n        /* \"#utility.yul\":17773:17777   */\n      dup4\n        /* \"#utility.yul\":17754:17783   */\n      tag_134\n      jump\t// in\n    tag_310:\n        /* \"#utility.yul\":17746:17783   */\n      swap2\n      pop\n        /* \"#utility.yul\":17816:17819   */\n      dup3\n        /* \"#utility.yul\":17813:17814   */\n      0x02\n        /* \"#utility.yul\":17809:17820   */\n      mul\n        /* \"#utility.yul\":17803:17807   */\n      dup3\n        /* \"#utility.yul\":17800:17821   */\n      or\n        /* \"#utility.yul\":17792:17821   */\n      swap1\n      pop\n        /* \"#utility.yul\":17532:17827   */\n      swap3\n      swap2\n      pop\n      pop\n      jump\t// out\n        /* \"#utility.yul\":17832:19227   */\n    tag_82:\n        /* \"#utility.yul\":17949:17986   */\n      tag_312\n        /* \"#utility.yul\":17982:17985   */\n      dup3\n        /* \"#utility.yul\":17949:17986   */\n      tag_94\n      jump\t// in\n    tag_312:\n        /* \"#utility.yul\":18051:18069   */\n      0xffffffffffffffff\n        /* \"#utility.yul\":18043:18049   */\n      dup2\n        /* \"#utility.yul\":18040:18070   */\n      gt\n        /* \"#utility.yul\":18037:18093   */\n      iszero\n      tag_313\n      jumpi\n        /* \"#utility.yul\":18073:18091   */\n      tag_314\n      tag_120\n      jump\t// in\n    tag_314:\n        /* \"#utility.yul\":18037:18093   */\n    tag_313:\n        /* \"#utility.yul\":18117:18155   */\n      tag_315\n        /* \"#utility.yul\":18149:18153   */\n      dup3\n        /* \"#utility.yul\":18143:18154   */\n      sload\n        /* \"#utility.yul\":18117:18155   */\n      tag_41\n      jump\t// in\n    tag_315:\n        /* \"#utility.yul\":18202:18269   */\n      tag_316\n        /* \"#utility.yul\":18262:18268   */\n      dup3\n        /* \"#utility.yul\":18254:18260   */\n      dup3\n        /* \"#utility.yul\":18248:18252   */\n      dup6\n        /* \"#utility.yul\":18202:18269   */\n      tag_132\n      jump\t// in\n    tag_316:\n        /* \"#utility.yul\":18296:18297   */\n      0x00\n        /* \"#utility.yul\":18320:18324   */\n      0x20\n        /* \"#utility.yul\":18307:18324   */\n      swap1\n      pop\n        /* \"#utility.yul\":18352:18354   */\n      0x1f\n        /* \"#utility.yul\":18344:18350   */\n      dup4\n        /* \"#utility.yul\":18341:18355   */\n      gt\n        /* \"#utility.yul\":18369:18370   */\n      0x01\n        /* \"#utility.yul\":18364:18982   */\n      dup2\n      eq\n      tag_318\n      jumpi\n        /* \"#utility.yul\":19026:19027   */\n      0x00\n        /* \"#utility.yul\":19043:19049   */\n      dup5\n        /* \"#utility.yul\":19040:19117   */\n      iszero\n      tag_319\n      jumpi\n        /* \"#utility.yul\":19092:19101   */\n      dup3\n        /* \"#utility.yul\":19087:19090   */\n      dup8\n        /* \"#utility.yul\":19083:19102   */\n      add\n        /* \"#utility.yul\":19077:19103   */\n      mload\n        /* \"#utility.yul\":19068:19103   */\n      swap1\n      pop\n        /* \"#utility.yul\":19040:19117   */\n    tag_319:\n        /* \"#utility.yul\":19143:19210   */\n      tag_320\n        /* \"#utility.yul\":19203:19209   */\n      dup6\n        /* \"#utility.yul\":19196:19201   */\n      dup3\n        /* \"#utility.yul\":19143:19210   */\n      tag_135\n      jump\t// in\n    tag_320:\n        /* \"#utility.yul\":19137:19141   */\n      dup7\n        /* \"#utility.yul\":19130:19211   */\n      sstore\n        /* \"#utility.yul\":18999:19221   */\n      pop\n        /* \"#utility.yul\":18334:19221   */\n      jump(tag_317)\n        /* \"#utility.yul\":18364:18982   */\n    tag_318:\n        /* \"#utility.yul\":18416:18420   */\n      0x1f\n        /* \"#utility.yul\":18412:18421   */\n      not\n        /* \"#utility.yul\":18404:18410   */\n      dup5\n        /* \"#utility.yul\":18400:18422   */\n      and\n        /* \"#utility.yul\":18450:18487   */\n      tag_321\n        /* \"#utility.yul\":18482:18486   */\n      dup7\n        /* \"#utility.yul\":18450:18487   */\n      tag_121\n      jump\t// in\n    tag_321:\n        /* \"#utility.yul\":18509:18510   */\n      0x00\n        /* \"#utility.yul\":18523:18731   */\n    tag_322:\n        /* \"#utility.yul\":18537:18544   */\n      dup3\n        /* \"#utility.yul\":18534:18535   */\n      dup2\n        /* \"#utility.yul\":18531:18545   */\n      lt\n        /* \"#utility.yul\":18523:18731   */\n      iszero\n      tag_324\n      jumpi\n        /* \"#utility.yul\":18616:18625   */\n      dup5\n        /* \"#utility.yul\":18611:18614   */\n      dup10\n        /* \"#utility.yul\":18607:18626   */\n      add\n        /* \"#utility.yul\":18601:18627   */\n      mload\n        /* \"#utility.yul\":18593:18599   */\n      dup3\n        /* \"#utility.yul\":18586:18628   */\n      sstore\n        /* \"#utility.yul\":18667:18668   */\n      0x01\n        /* \"#utility.yul\":18659:18665   */\n      dup3\n        /* \"#utility.yul\":18655:18669   */\n      add\n        /* \"#utility.yul\":18645:18669   */\n      swap2\n      pop\n        /* \"#utility.yul\":18714:18716   */\n      0x20\n        /* \"#utility.yul\":18703:18712   */\n      dup6\n        /* \"#utility.yul\":18699:18717   */\n      add\n        /* \"#utility.yul\":18686:18717   */\n      swap5\n      pop\n        /* \"#utility.yul\":18560:18564   */\n      0x20\n        /* \"#utility.yul\":18557:18558   */\n      dup2\n        /* \"#utility.yul\":18553:18565   */\n      add\n        /* \"#utility.yul\":18548:18565   */\n      swap1\n      pop\n        /* \"#utility.yul\":18523:18731   */\n      jump(tag_322)\n    tag_324:\n        /* \"#utility.yul\":18759:18765   */\n      dup7\n        /* \"#utility.yul\":18750:18757   */\n      dup4\n        /* \"#utility.yul\":18747:18766   */\n      lt\n        /* \"#utility.yul\":18744:18923   */\n      iszero\n      tag_325\n      jumpi\n        /* \"#utility.yul\":18817:18826   */\n      dup5\n        /* \"#utility.yul\":18812:18815   */\n      dup10\n        /* \"#utility.yul\":18808:18827   */\n      add\n        /* \"#utility.yul\":18802:18828   */\n      mload\n        /* \"#utility.yul\":18860:18908   */\n      tag_326\n        /* \"#utility.yul\":18902:18906   */\n      0x1f\n        /* \"#utility.yul\":18894:18900   */\n      dup10\n        /* \"#utility.yul\":18890:18907   */\n      and\n        /* \"#utility.yul\":18879:18888   */\n      dup3\n        /* \"#utility.yul\":18860:18908   */\n      tag_134\n      jump\t// in\n    tag_326:\n        /* \"#utility.yul\":18852:18858   */\n      dup4\n        /* \"#utility.yul\":18845:18909   */\n      sstore\n        /* \"#utility.yul\":18767:18923   */\n      pop\n        /* \"#utility.yul\":18744:18923   */\n    tag_325:\n        /* \"#utility.yul\":18969:18970   */\n      0x01\n        /* \"#utility.yul\":18965:18966   */\n      0x02\n        /* \"#utility.yul\":18957:18963   */\n      dup9\n        /* \"#utility.yul\":18953:18967   */\n      mul\n        /* \"#utility.yul\":18949:18971   */\n      add\n        /* \"#utility.yul\":18943:18947   */\n      dup9\n        /* \"#utility.yul\":18936:18972   */\n      sstore\n        /* \"#utility.yul\":18371:18982   */\n      pop\n      pop\n      pop\n        /* \"#utility.yul\":18334:19221   */\n    tag_317:\n      pop\n        /* \"#utility.yul\":17924:19227   */\n      pop\n      pop\n      pop\n        /* \"#utility.yul\":17832:19227   */\n      pop\n      pop\n      jump\t// out\n        /* \"#utility.yul\":19233:19466   */\n    tag_84:\n        /* \"#utility.yul\":19272:19275   */\n      0x00\n        /* \"#utility.yul\":19295:19319   */\n      tag_328\n        /* \"#utility.yul\":19313:19318   */\n      dup3\n        /* \"#utility.yul\":19295:19319   */\n      tag_88\n      jump\t// in\n    tag_328:\n        /* \"#utility.yul\":19286:19319   */\n      swap2\n      pop\n        /* \"#utility.yul\":19341:19407   */\n      0xffffffffffffffffffffffffffffffffffffffffffffffffffffffffffffffff\n        /* \"#utility.yul\":19334:19339   */\n      dup3\n        /* \"#utility.yul\":19331:19408   */\n      sub\n        /* \"#utility.yul\":19328:19431   */\n      tag_329\n      jumpi\n        /* \"#utility.yul\":19411:19429   */\n      tag_330\n      tag_113\n      jump\t// in\n    tag_330:\n        /* \"#utility.yul\":19328:19431   */\n    tag_329:\n        /* \"#utility.yul\":19458:19459   */\n      0x01\n        /* \"#utility.yul\":19451:19456   */\n      dup3\n        /* \"#utility.yul\":19447:19460   */\n      add\n        /* \"#utility.yul\":19440:19460   */\n      swap1\n      pop\n        /* \"#utility.yul\":19233:19466   */\n      swap2\n      swap1\n      pop\n      jump\t// out\n\n    auxdata: 0xa264697066735822122002b5285b39568c9fe4f5f8602a26c44fd3c2ee00c7c4ffc03c684af1f81cc14c64736f6c634300081a0033\n}\n",
				"bytecode": {
					"linkReferences": {},
					"object": "6080604052348015600e575f80fd5b5061125f8061001c5f395ff3fe608060405260043610610054575f3560e01c80630b791430146100585780633d23eed91461009957806361b8ce8c146100c1578063a8445a1e146100eb578063dae7a13c14610107578063e41bd06c14610143575b5f80fd5b348015610063575f80fd5b5061007e6004803603810190610079919061083f565b61016b565b60405161009096959493929190610928565b60405180910390f35b3480156100a4575f80fd5b506100bf60048036038101906100ba91906109b8565b610247565b005b3480156100cc575f80fd5b506100d5610449565b6040516100e29190610a08565b60405180910390f35b61010560048036038101906101009190610a21565b61044f565b005b348015610112575f80fd5b5061012d60048036038101906101289190610a5f565b610625565b60405161013a9190610a08565b60405180910390f35b34801561014e575f80fd5b5061016960048036038101906101649190610afe565b610645565b005b5f602052805f5260405f205f91509050805f015f9054906101000a900473ffffffffffffffffffffffffffffffffffffffff16908060010180546101ae90610baf565b80601f01602080910402602001604051908101604052809291908181526020018280546101da90610baf565b80156102255780601f106101fc57610100808354040283529160200191610225565b820191905f5260205f20905b81548152906001019060200180831161020857829003601f168201915b5050505050908060020154908060030154908060040154908060050154905086565b5f805f8581526020019081526020015f20600201540361029c576040517f08c379a000000000000000000000000000000000000000000000000000000000815260040161029390610c29565b60405180910390fd5b425f808581526020019081526020015f2060020154116102f1576040517f08c379a00000000000000000000000000000000000000000000000000000000081526004016102e890610c91565b60405180910390fd5b8160015f3373ffffffffffffffffffffffffffffffffffffffff1673ffffffffffffffffffffffffffffffffffffffff1681526020019081526020015f205f8581526020019081526020015f20541015610380576040517f08c379a000000000000000000000000000000000000000000000000000000000815260040161037790610cf9565b60405180910390fd5b8160015f3373ffffffffffffffffffffffffffffffffffffffff1673ffffffffffffffffffffffffffffffffffffffff1681526020019081526020015f205f8581526020019081526020015f205f8282546103db9190610d44565b925050819055508160015f8373ffffffffffffffffffffffffffffffffffffffff1673ffffffffffffffffffffffffffffffffffffffff1681526020019081526020015f205f8581526020019081526020015f205f82825461043d9190610d77565b92505081905550505050565b60025481565b5f805f8481526020019081526020015f2060020154036104a4576040517f08c379a000000000000000000000000000000000000000000000000000000000815260040161049b90610c29565b60405180910390fd5b425f808481526020019081526020015f2060020154116104f9576040517f08c379a00000000000000000000000000000000000000000000000000000000081526004016104f090610c91565b60405180910390fd5b5f805f8481526020019081526020015f20905081816003015461051c9190610daa565b341461055d576040517f08c379a000000000000000000000000000000000000000000000000000000000815260040161055490610e35565b60405180910390fd5b81816005015410156105a4576040517f08c379a000000000000000000000000000000000000000000000000000000000815260040161059b90610cf9565b60405180910390fd5b81816005015f8282546105b79190610d44565b925050819055508160015f3373ffffffffffffffffffffffffffffffffffffffff1673ffffffffffffffffffffffffffffffffffffffff1681526020019081526020015f205f8581526020019081526020015f205f8282546106199190610d77565b92505081905550505050565b6001602052815f5260405f20602052805f5260405f205f91509150505481565b824210610687576040517f08c379a000000000000000000000000000000000000000000000000000000000815260040161067e90610ec3565b60405180910390fd5b5f81116106c9576040517f08c379a00000000000000000000000000000000000000000000000000000000081526004016106c090610f2b565b60405180910390fd5b6040518060c001604052803373ffffffffffffffffffffffffffffffffffffffff16815260200186868080601f0160208091040260200160405190810160405280939291908181526020018383808284375f81840152601f19601f820116905080830192505050505050508152602001848152602001838152602001828152602001828152505f8060025481526020019081526020015f205f820151815f015f6101000a81548173ffffffffffffffffffffffffffffffffffffffff021916908373ffffffffffffffffffffffffffffffffffffffff16021790555060208201518160010190816107ba9190611113565b5060408201518160020155606082015181600301556080820151816004015560a0820151816005015590505060025f8154809291906107f8906111e2565b91905055505050505050565b5f80fd5b5f80fd5b5f819050919050565b61081e8161080c565b8114610828575f80fd5b50565b5f8135905061083981610815565b92915050565b5f6020828403121561085457610853610804565b5b5f6108618482850161082b565b91505092915050565b5f73ffffffffffffffffffffffffffffffffffffffff82169050919050565b5f6108938261086a565b9050919050565b6108a381610889565b82525050565b5f81519050919050565b5f82825260208201905092915050565b8281835e5f83830152505050565b5f601f19601f8301169050919050565b5f6108eb826108a9565b6108f581856108b3565b93506109058185602086016108c3565b61090e816108d1565b840191505092915050565b6109228161080c565b82525050565b5f60c08201905061093b5f83018961089a565b818103602083015261094d81886108e1565b905061095c6040830187610919565b6109696060830186610919565b6109766080830185610919565b61098360a0830184610919565b979650505050505050565b61099781610889565b81146109a1575f80fd5b50565b5f813590506109b28161098e565b92915050565b5f805f606084860312156109cf576109ce610804565b5b5f6109dc8682870161082b565b93505060206109ed8682870161082b565b92505060406109fe868287016109a4565b9150509250925092565b5f602082019050610a1b5f830184610919565b92915050565b5f8060408385031215610a3757610a36610804565b5b5f610a448582860161082b565b9250506020610a558582860161082b565b9150509250929050565b5f8060408385031215610a7557610a74610804565b5b5f610a82858286016109a4565b9250506020610a938582860161082b565b9150509250929050565b5f80fd5b5f80fd5b5f80fd5b5f8083601f840112610abe57610abd610a9d565b5b8235905067ffffffffffffffff811115610adb57610ada610aa1565b5b602083019150836001820283011115610af757610af6610aa5565b5b9250929050565b5f805f805f60808688031215610b1757610b16610804565b5b5f86013567ffffffffffffffff811115610b3457610b33610808565b5b610b4088828901610aa9565b95509550506020610b538882890161082b565b9350506040610b648882890161082b565b9250506060610b758882890161082b565b9150509295509295909350565b7f4e487b71000000000000000000000000000000000000000000000000000000005f52602260045260245ffd5b5f6002820490506001821680610bc657607f821691505b602082108103610bd957610bd8610b82565b5b50919050565b7f696e76616c6964206576656e74000000000000000000000000000000000000005f82015250565b5f610c13600d836108b3565b9150610c1e82610bdf565b602082019050919050565b5f6020820190508181035f830152610c4081610c07565b9050919050565b7f746865206576656e742068617320616c726561647920706173736564210000005f82015250565b5f610c7b601d836108b3565b9150610c8682610c47565b602082019050919050565b5f6020820190508181035f830152610ca881610c6f565b9050919050565b7f796f7520646f206e6f74206861766520656e6f756768207469636b65747321005f82015250565b5f610ce3601f836108b3565b9150610cee82610caf565b602082019050919050565b5f6020820190508181035f830152610d1081610cd7565b9050919050565b7f4e487b71000000000000000000000000000000000000000000000000000000005f52601160045260245ffd5b5f610d4e8261080c565b9150610d598361080c565b9250828203905081811115610d7157610d70610d17565b5b92915050565b5f610d818261080c565b9150610d8c8361080c565b9250828201905080821115610da457610da3610d17565b5b92915050565b5f610db48261080c565b9150610dbf8361080c565b9250828202610dcd8161080c565b91508282048414831517610de457610de3610d17565b5b5092915050565b7f77726f6e672076616c75650000000000000000000000000000000000000000005f82015250565b5f610e1f600b836108b3565b9150610e2a82610deb565b602082019050919050565b5f6020820190508181035f830152610e4c81610e13565b9050919050565b7f796f752063616e6e6f7420637265617465206576656e7420666f7220706173745f8201527f2064617465000000000000000000000000000000000000000000000000000000602082015250565b5f610ead6025836108b3565b9150610eb882610e53565b604082019050919050565b5f6020820190508181035f830152610eda81610ea1565b9050919050565b7f696e76616c6964206e756d626572206f66207469636b657473000000000000005f82015250565b5f610f156019836108b3565b9150610f2082610ee1565b602082019050919050565b5f6020820190508181035f830152610f4281610f09565b9050919050565b7f4e487b71000000000000000000000000000000000000000000000000000000005f52604160045260245ffd5b5f819050815f5260205f209050919050565b5f6020601f8301049050919050565b5f82821b905092915050565b5f60088302610fd27fffffffffffffffffffffffffffffffffffffffffffffffffffffffffffffffff82610f97565b610fdc8683610f97565b95508019841693508086168417925050509392505050565b5f819050919050565b5f61101761101261100d8461080c565b610ff4565b61080c565b9050919050565b5f819050919050565b61103083610ffd565b61104461103c8261101e565b848454610fa3565b825550505050565b5f90565b61105861104c565b611063818484611027565b505050565b5b818110156110865761107b5f82611050565b600181019050611069565b5050565b601f8211156110cb5761109c81610f76565b6110a584610f88565b810160208510156110b4578190505b6110c86110c085610f88565b830182611068565b50505b505050565b5f82821c905092915050565b5f6110eb5f19846008026110d0565b1980831691505092915050565b5f61110383836110dc565b9150826002028217905092915050565b61111c826108a9565b67ffffffffffffffff81111561113557611134610f49565b5b61113f8254610baf565b61114a82828561108a565b5f60209050601f83116001811461117b575f8415611169578287015190505b61117385826110f8565b8655506111da565b601f19841661118986610f76565b5f5b828110156111b05784890151825560018201915060208501945060208101905061118b565b868310156111cd57848901516111c9601f8916826110dc565b8355505b6001600288020188555050505b505050505050565b5f6111ec8261080c565b91507fffffffffffffffffffffffffffffffffffffffffffffffffffffffffffffffff820361121e5761121d610d17565b5b60018201905091905056fea264697066735822122002b5285b39568c9fe4f5f8602a26c44fd3c2ee00c7c4ffc03c684af1f81cc14c64736f6c634300081a0033",
					"opcodes": "PUSH1 0x80 PUSH1 0x40 MSTORE CALLVALUE DUP1 ISZERO PUSH1 0xE JUMPI PUSH0 DUP1 REVERT JUMPDEST POP PUSH2 0x125F DUP1 PUSH2 0x1C PUSH0 CODECOPY PUSH0 RETURN INVALID PUSH1 0x80 PUSH1 0x40 MSTORE PUSH1 0x4 CALLDATASIZE LT PUSH2 0x54 JUMPI PUSH0 CALLDATALOAD PUSH1 0xE0 SHR DUP1 PUSH4 0xB791430 EQ PUSH2 0x58 JUMPI DUP1 PUSH4 0x3D23EED9 EQ PUSH2 0x99 JUMPI DUP1 PUSH4 0x61B8CE8C EQ PUSH2 0xC1 JUMPI DUP1 PUSH4 0xA8445A1E EQ PUSH2 0xEB JUMPI DUP1 PUSH4 0xDAE7A13C EQ PUSH2 0x107 JUMPI DUP1 PUSH4 0xE41BD06C EQ PUSH2 0x143 JUMPI JUMPDEST PUSH0 DUP1 REVERT JUMPDEST CALLVALUE DUP1 ISZERO PUSH2 0x63 JUMPI PUSH0 DUP1 REVERT JUMPDEST POP PUSH2 0x7E PUSH1 0x4 DUP1 CALLDATASIZE SUB DUP2 ADD SWAP1 PUSH2 0x79 SWAP2 SWAP1 PUSH2 0x83F JUMP JUMPDEST PUSH2 0x16B JUMP JUMPDEST PUSH1 0x40 MLOAD PUSH2 0x90 SWAP7 SWAP6 SWAP5 SWAP4 SWAP3 SWAP2 SWAP1 PUSH2 0x928 JUMP JUMPDEST PUSH1 0x40 MLOAD DUP1 SWAP2 SUB SWAP1 RETURN JUMPDEST CALLVALUE DUP1 ISZERO PUSH2 0xA4 JUMPI PUSH0 DUP1 REVERT JUMPDEST POP PUSH2 0xBF PUSH1 0x4 DUP1 CALLDATASIZE SUB DUP2 ADD SWAP1 PUSH2 0xBA SWAP2 SWAP1 PUSH2 0x9B8 JUMP JUMPDEST PUSH2 0x247 JUMP JUMPDEST STOP JUMPDEST CALLVALUE DUP1 ISZERO PUSH2 0xCC JUMPI PUSH0 DUP1 REVERT JUMPDEST POP PUSH2 0xD5 PUSH2 0x449 JUMP JUMPDEST PUSH1 0x40 MLOAD PUSH2 0xE2 SWAP2 SWAP1 PUSH2 0xA08 JUMP JUMPDEST PUSH1 0x40 MLOAD DUP1 SWAP2 SUB SWAP1 RETURN JUMPDEST PUSH2 0x105 PUSH1 0x4 DUP1 CALLDATASIZE SUB DUP2 ADD SWAP1 PUSH2 0x100 SWAP2 SWAP1 PUSH2 0xA21 JUMP JUMPDEST PUSH2 0x44F JUMP JUMPDEST STOP JUMPDEST CALLVALUE DUP1 ISZERO PUSH2 0x112 JUMPI PUSH0 DUP1 REVERT JUMPDEST POP PUSH2 0x12D PUSH1 0x4 DUP1 CALLDATASIZE SUB DUP2 ADD SWAP1 PUSH2 0x128 SWAP2 SWAP1 PUSH2 0xA5F JUMP JUMPDEST PUSH2 0x625 JUMP JUMPDEST PUSH1 0x40 MLOAD PUSH2 0x13A SWAP2 SWAP1 PUSH2 0xA08 JUMP JUMPDEST PUSH1 0x40 MLOAD DUP1 SWAP2 SUB SWAP1 RETURN JUMPDEST CALLVALUE DUP1 ISZERO PUSH2 0x14E JUMPI PUSH0 DUP1 REVERT JUMPDEST POP PUSH2 0x169 PUSH1 0x4 DUP1 CALLDATASIZE SUB DUP2 ADD SWAP1 PUSH2 0x164 SWAP2 SWAP1 PUSH2 0xAFE JUMP JUMPDEST PUSH2 0x645 JUMP JUMPDEST STOP JUMPDEST PUSH0 PUSH1 0x20 MSTORE DUP1 PUSH0 MSTORE PUSH1 0x40 PUSH0 KECCAK256 PUSH0 SWAP2 POP SWAP1 POP DUP1 PUSH0 ADD PUSH0 SWAP1 SLOAD SWAP1 PUSH2 0x100 EXP SWAP1 DIV PUSH20 0xFFFFFFFFFFFFFFFFFFFFFFFFFFFFFFFFFFFFFFFF AND SWAP1 DUP1 PUSH1 0x1 ADD DUP1 SLOAD PUSH2 0x1AE SWAP1 PUSH2 0xBAF JUMP JUMPDEST DUP1 PUSH1 0x1F ADD PUSH1 0x20 DUP1 SWAP2 DIV MUL PUSH1 0x20 ADD PUSH1 0x40 MLOAD SWAP1 DUP2 ADD PUSH1 0x40 MSTORE DUP1 SWAP3 SWAP2 SWAP1 DUP2 DUP2 MSTORE PUSH1 0x20 ADD DUP3 DUP1 SLOAD PUSH2 0x1DA SWAP1 PUSH2 0xBAF JUMP JUMPDEST DUP1 ISZERO PUSH2 0x225 JUMPI DUP1 PUSH1 0x1F LT PUSH2 0x1FC JUMPI PUSH2 0x100 DUP1 DUP4 SLOAD DIV MUL DUP4 MSTORE SWAP2 PUSH1 0x20 ADD SWAP2 PUSH2 0x225 JUMP JUMPDEST DUP3 ADD SWAP2 SWAP1 PUSH0 MSTORE PUSH1 0x20 PUSH0 KECCAK256 SWAP1 JUMPDEST DUP2 SLOAD DUP2 MSTORE SWAP1 PUSH1 0x1 ADD SWAP1 PUSH1 0x20 ADD DUP1 DUP4 GT PUSH2 0x208 JUMPI DUP3 SWAP1 SUB PUSH1 0x1F AND DUP3 ADD SWAP2 JUMPDEST POP POP POP POP POP SWAP1 DUP1 PUSH1 0x2 ADD SLOAD SWAP1 DUP1 PUSH1 0x3 ADD SLOAD SWAP1 DUP1 PUSH1 0x4 ADD SLOAD SWAP1 DUP1 PUSH1 0x5 ADD SLOAD SWAP1 POP DUP7 JUMP JUMPDEST PUSH0 DUP1 PUSH0 DUP6 DUP2 MSTORE PUSH1 0x20 ADD SWAP1 DUP2 MSTORE PUSH1 0x20 ADD PUSH0 KECCAK256 PUSH1 0x2 ADD SLOAD SUB PUSH2 0x29C JUMPI PUSH1 0x40 MLOAD PUSH32 0x8C379A000000000000000000000000000000000000000000000000000000000 DUP2 MSTORE PUSH1 0x4 ADD PUSH2 0x293 SWAP1 PUSH2 0xC29 JUMP JUMPDEST PUSH1 0x40 MLOAD DUP1 SWAP2 SUB SWAP1 REVERT JUMPDEST TIMESTAMP PUSH0 DUP1 DUP6 DUP2 MSTORE PUSH1 0x20 ADD SWAP1 DUP2 MSTORE PUSH1 0x20 ADD PUSH0 KECCAK256 PUSH1 0x2 ADD SLOAD GT PUSH2 0x2F1 JUMPI PUSH1 0x40 MLOAD PUSH32 0x8C379A000000000000000000000000000000000000000000000000000000000 DUP2 MSTORE PUSH1 0x4 ADD PUSH2 0x2E8 SWAP1 PUSH2 0xC91 JUMP JUMPDEST PUSH1 0x40 MLOAD DUP1 SWAP2 SUB SWAP1 REVERT JUMPDEST DUP2 PUSH1 0x1 PUSH0 CALLER PUSH20 0xFFFFFFFFFFFFFFFFFFFFFFFFFFFFFFFFFFFFFFFF AND PUSH20 0xFFFFFFFFFFFFFFFFFFFFFFFFFFFFFFFFFFFFFFFF AND DUP2 MSTORE PUSH1 0x20 ADD SWAP1 DUP2 MSTORE PUSH1 0x20 ADD PUSH0 KECCAK256 PUSH0 DUP6 DUP2 MSTORE PUSH1 0x20 ADD SWAP1 DUP2 MSTORE PUSH1 0x20 ADD PUSH0 KECCAK256 SLOAD LT ISZERO PUSH2 0x380 JUMPI PUSH1 0x40 MLOAD PUSH32 0x8C379A000000000000000000000000000000000000000000000000000000000 DUP2 MSTORE PUSH1 0x4 ADD PUSH2 0x377 SWAP1 PUSH2 0xCF9 JUMP JUMPDEST PUSH1 0x40 MLOAD DUP1 SWAP2 SUB SWAP1 REVERT JUMPDEST DUP2 PUSH1 0x1 PUSH0 CALLER PUSH20 0xFFFFFFFFFFFFFFFFFFFFFFFFFFFFFFFFFFFFFFFF AND PUSH20 0xFFFFFFFFFFFFFFFFFFFFFFFFFFFFFFFFFFFFFFFF AND DUP2 MSTORE PUSH1 0x20 ADD SWAP1 DUP2 MSTORE PUSH1 0x20 ADD PUSH0 KECCAK256 PUSH0 DUP6 DUP2 MSTORE PUSH1 0x20 ADD SWAP1 DUP2 MSTORE PUSH1 0x20 ADD PUSH0 KECCAK256 PUSH0 DUP3 DUP3 SLOAD PUSH2 0x3DB SWAP2 SWAP1 PUSH2 0xD44 JUMP JUMPDEST SWAP3 POP POP DUP2 SWAP1 SSTORE POP DUP2 PUSH1 0x1 PUSH0 DUP4 PUSH20 0xFFFFFFFFFFFFFFFFFFFFFFFFFFFFFFFFFFFFFFFF AND PUSH20 0xFFFFFFFFFFFFFFFFFFFFFFFFFFFFFFFFFFFFFFFF AND DUP2 MSTORE PUSH1 0x20 ADD SWAP1 DUP2 MSTORE PUSH1 0x20 ADD PUSH0 KECCAK256 PUSH0 DUP6 DUP2 MSTORE PUSH1 0x20 ADD SWAP1 DUP2 MSTORE PUSH1 0x20 ADD PUSH0 KECCAK256 PUSH0 DUP3 DUP3 SLOAD PUSH2 0x43D SWAP2 SWAP1 PUSH2 0xD77 JUMP JUMPDEST SWAP3 POP POP DUP2 SWAP1 SSTORE POP POP POP POP JUMP JUMPDEST PUSH1 0x2 SLOAD DUP2 JUMP JUMPDEST PUSH0 DUP1 PUSH0 DUP5 DUP2 MSTORE PUSH1 0x20 ADD SWAP1 DUP2 MSTORE PUSH1 0x20 ADD PUSH0 KECCAK256 PUSH1 0x2 ADD SLOAD SUB PUSH2 0x4A4 JUMPI PUSH1 0x40 MLOAD PUSH32 0x8C379A000000000000000000000000000000000000000000000000000000000 DUP2 MSTORE PUSH1 0x4 ADD PUSH2 0x49B SWAP1 PUSH2 0xC29 JUMP JUMPDEST PUSH1 0x40 MLOAD DUP1 SWAP2 SUB SWAP1 REVERT JUMPDEST TIMESTAMP PUSH0 DUP1 DUP5 DUP2 MSTORE PUSH1 0x20 ADD SWAP1 DUP2 MSTORE PUSH1 0x20 ADD PUSH0 KECCAK256 PUSH1 0x2 ADD SLOAD GT PUSH2 0x4F9 JUMPI PUSH1 0x40 MLOAD PUSH32 0x8C379A000000000000000000000000000000000000000000000000000000000 DUP2 MSTORE PUSH1 0x4 ADD PUSH2 0x4F0 SWAP1 PUSH2 0xC91 JUMP JUMPDEST PUSH1 0x40 MLOAD DUP1 SWAP2 SUB SWAP1 REVERT JUMPDEST PUSH0 DUP1 PUSH0 DUP5 DUP2 MSTORE PUSH1 0x20 ADD SWAP1 DUP2 MSTORE PUSH1 0x20 ADD PUSH0 KECCAK256 SWAP1 POP DUP2 DUP2 PUSH1 0x3 ADD SLOAD PUSH2 0x51C SWAP2 SWAP1 PUSH2 0xDAA JUMP JUMPDEST CALLVALUE EQ PUSH2 0x55D JUMPI PUSH1 0x40 MLOAD PUSH32 0x8C379A000000000000000000000000000000000000000000000000000000000 DUP2 MSTORE PUSH1 0x4 ADD PUSH2 0x554 SWAP1 PUSH2 0xE35 JUMP JUMPDEST PUSH1 0x40 MLOAD DUP1 SWAP2 SUB SWAP1 REVERT JUMPDEST DUP2 DUP2 PUSH1 0x5 ADD SLOAD LT ISZERO PUSH2 0x5A4 JUMPI PUSH1 0x40 MLOAD PUSH32 0x8C379A000000000000000000000000000000000000000000000000000000000 DUP2 MSTORE PUSH1 0x4 ADD PUSH2 0x59B SWAP1 PUSH2 0xCF9 JUMP JUMPDEST PUSH1 0x40 MLOAD DUP1 SWAP2 SUB SWAP1 REVERT JUMPDEST DUP2 DUP2 PUSH1 0x5 ADD PUSH0 DUP3 DUP3 SLOAD PUSH2 0x5B7 SWAP2 SWAP1 PUSH2 0xD44 JUMP JUMPDEST SWAP3 POP POP DUP2 SWAP1 SSTORE POP DUP2 PUSH1 0x1 PUSH0 CALLER PUSH20 0xFFFFFFFFFFFFFFFFFFFFFFFFFFFFFFFFFFFFFFFF AND PUSH20 0xFFFFFFFFFFFFFFFFFFFFFFFFFFFFFFFFFFFFFFFF AND DUP2 MSTORE PUSH1 0x20 ADD SWAP1 DUP2 MSTORE PUSH1 0x20 ADD PUSH0 KECCAK256 PUSH0 DUP6 DUP2 MSTORE PUSH1 0x20 ADD SWAP1 DUP2 MSTORE PUSH1 0x20 ADD PUSH0 KECCAK256 PUSH0 DUP3 DUP3 SLOAD PUSH2 0x619 SWAP2 SWAP1 PUSH2 0xD77 JUMP JUMPDEST SWAP3 POP POP DUP2 SWAP1 SSTORE POP POP POP POP JUMP JUMPDEST PUSH1 0x1 PUSH1 0x20 MSTORE DUP2 PUSH0 MSTORE PUSH1 0x40 PUSH0 KECCAK256 PUSH1 0x20 MSTORE DUP1 PUSH0 MSTORE PUSH1 0x40 PUSH0 KECCAK256 PUSH0 SWAP2 POP SWAP2 POP POP SLOAD DUP2 JUMP JUMPDEST DUP3 TIMESTAMP LT PUSH2 0x687 JUMPI PUSH1 0x40 MLOAD PUSH32 0x8C379A000000000000000000000000000000000000000000000000000000000 DUP2 MSTORE PUSH1 0x4 ADD PUSH2 0x67E SWAP1 PUSH2 0xEC3 JUMP JUMPDEST PUSH1 0x40 MLOAD DUP1 SWAP2 SUB SWAP1 REVERT JUMPDEST PUSH0 DUP2 GT PUSH2 0x6C9 JUMPI PUSH1 0x40 MLOAD PUSH32 0x8C379A000000000000000000000000000000000000000000000000000000000 DUP2 MSTORE PUSH1 0x4 ADD PUSH2 0x6C0 SWAP1 PUSH2 0xF2B JUMP JUMPDEST PUSH1 0x40 MLOAD DUP1 SWAP2 SUB SWAP1 REVERT JUMPDEST PUSH1 0x40 MLOAD DUP1 PUSH1 0xC0 ADD PUSH1 0x40 MSTORE DUP1 CALLER PUSH20 0xFFFFFFFFFFFFFFFFFFFFFFFFFFFFFFFFFFFFFFFF AND DUP2 MSTORE PUSH1 0x20 ADD DUP7 DUP7 DUP1 DUP1 PUSH1 0x1F ADD PUSH1 0x20 DUP1 SWAP2 DIV MUL PUSH1 0x20 ADD PUSH1 0x40 MLOAD SWAP1 DUP2 ADD PUSH1 0x40 MSTORE DUP1 SWAP4 SWAP3 SWAP2 SWAP1 DUP2 DUP2 MSTORE PUSH1 0x20 ADD DUP4 DUP4 DUP1 DUP3 DUP5 CALLDATACOPY PUSH0 DUP2 DUP5 ADD MSTORE PUSH1 0x1F NOT PUSH1 0x1F DUP3 ADD AND SWAP1 POP DUP1 DUP4 ADD SWAP3 POP POP POP POP POP POP POP DUP2 MSTORE PUSH1 0x20 ADD DUP5 DUP2 MSTORE PUSH1 0x20 ADD DUP4 DUP2 MSTORE PUSH1 0x20 ADD DUP3 DUP2 MSTORE PUSH1 0x20 ADD DUP3 DUP2 MSTORE POP PUSH0 DUP1 PUSH1 0x2 SLOAD DUP2 MSTORE PUSH1 0x20 ADD SWAP1 DUP2 MSTORE PUSH1 0x20 ADD PUSH0 KECCAK256 PUSH0 DUP3 ADD MLOAD DUP2 PUSH0 ADD PUSH0 PUSH2 0x100 EXP DUP2 SLOAD DUP2 PUSH20 0xFFFFFFFFFFFFFFFFFFFFFFFFFFFFFFFFFFFFFFFF MUL NOT AND SWAP1 DUP4 PUSH20 0xFFFFFFFFFFFFFFFFFFFFFFFFFFFFFFFFFFFFFFFF AND MUL OR SWAP1 SSTORE POP PUSH1 0x20 DUP3 ADD MLOAD DUP2 PUSH1 0x1 ADD SWAP1 DUP2 PUSH2 0x7BA SWAP2 SWAP1 PUSH2 0x1113 JUMP JUMPDEST POP PUSH1 0x40 DUP3 ADD MLOAD DUP2 PUSH1 0x2 ADD SSTORE PUSH1 0x60 DUP3 ADD MLOAD DUP2 PUSH1 0x3 ADD SSTORE PUSH1 0x80 DUP3 ADD MLOAD DUP2 PUSH1 0x4 ADD SSTORE PUSH1 0xA0 DUP3 ADD MLOAD DUP2 PUSH1 0x5 ADD SSTORE SWAP1 POP POP PUSH1 0x2 PUSH0 DUP2 SLOAD DUP1 SWAP3 SWAP2 SWAP1 PUSH2 0x7F8 SWAP1 PUSH2 0x11E2 JUMP JUMPDEST SWAP2 SWAP1 POP SSTORE POP POP POP POP POP POP JUMP JUMPDEST PUSH0 DUP1 REVERT JUMPDEST PUSH0 DUP1 REVERT JUMPDEST PUSH0 DUP2 SWAP1 POP SWAP2 SWAP1 POP JUMP JUMPDEST PUSH2 0x81E DUP2 PUSH2 0x80C JUMP JUMPDEST DUP2 EQ PUSH2 0x828 JUMPI PUSH0 DUP1 REVERT JUMPDEST POP JUMP JUMPDEST PUSH0 DUP2 CALLDATALOAD SWAP1 POP PUSH2 0x839 DUP2 PUSH2 0x815 JUMP JUMPDEST SWAP3 SWAP2 POP POP JUMP JUMPDEST PUSH0 PUSH1 0x20 DUP3 DUP5 SUB SLT ISZERO PUSH2 0x854 JUMPI PUSH2 0x853 PUSH2 0x804 JUMP JUMPDEST JUMPDEST PUSH0 PUSH2 0x861 DUP5 DUP3 DUP6 ADD PUSH2 0x82B JUMP JUMPDEST SWAP2 POP POP SWAP3 SWAP2 POP POP JUMP JUMPDEST PUSH0 PUSH20 0xFFFFFFFFFFFFFFFFFFFFFFFFFFFFFFFFFFFFFFFF DUP3 AND SWAP1 POP SWAP2 SWAP1 POP JUMP JUMPDEST PUSH0 PUSH2 0x893 DUP3 PUSH2 0x86A JUMP JUMPDEST SWAP1 POP SWAP2 SWAP1 POP JUMP JUMPDEST PUSH2 0x8A3 DUP2 PUSH2 0x889 JUMP JUMPDEST DUP3 MSTORE POP POP JUMP JUMPDEST PUSH0 DUP2 MLOAD SWAP1 POP SWAP2 SWAP1 POP JUMP JUMPDEST PUSH0 DUP3 DUP3 MSTORE PUSH1 0x20 DUP3 ADD SWAP1 POP SWAP3 SWAP2 POP POP JUMP JUMPDEST DUP3 DUP2 DUP4 MCOPY PUSH0 DUP4 DUP4 ADD MSTORE POP POP POP JUMP JUMPDEST PUSH0 PUSH1 0x1F NOT PUSH1 0x1F DUP4 ADD AND SWAP1 POP SWAP2 SWAP1 POP JUMP JUMPDEST PUSH0 PUSH2 0x8EB DUP3 PUSH2 0x8A9 JUMP JUMPDEST PUSH2 0x8F5 DUP2 DUP6 PUSH2 0x8B3 JUMP JUMPDEST SWAP4 POP PUSH2 0x905 DUP2 DUP6 PUSH1 0x20 DUP7 ADD PUSH2 0x8C3 JUMP JUMPDEST PUSH2 0x90E DUP2 PUSH2 0x8D1 JUMP JUMPDEST DUP5 ADD SWAP2 POP POP SWAP3 SWAP2 POP POP JUMP JUMPDEST PUSH2 0x922 DUP2 PUSH2 0x80C JUMP JUMPDEST DUP3 MSTORE POP POP JUMP JUMPDEST PUSH0 PUSH1 0xC0 DUP3 ADD SWAP1 POP PUSH2 0x93B PUSH0 DUP4 ADD DUP10 PUSH2 0x89A JUMP JUMPDEST DUP2 DUP2 SUB PUSH1 0x20 DUP4 ADD MSTORE PUSH2 0x94D DUP2 DUP9 PUSH2 0x8E1 JUMP JUMPDEST SWAP1 POP PUSH2 0x95C PUSH1 0x40 DUP4 ADD DUP8 PUSH2 0x919 JUMP JUMPDEST PUSH2 0x969 PUSH1 0x60 DUP4 ADD DUP7 PUSH2 0x919 JUMP JUMPDEST PUSH2 0x976 PUSH1 0x80 DUP4 ADD DUP6 PUSH2 0x919 JUMP JUMPDEST PUSH2 0x983 PUSH1 0xA0 DUP4 ADD DUP5 PUSH2 0x919 JUMP JUMPDEST SWAP8 SWAP7 POP POP POP POP POP POP POP JUMP JUMPDEST PUSH2 0x997 DUP2 PUSH2 0x889 JUMP JUMPDEST DUP2 EQ PUSH2 0x9A1 JUMPI PUSH0 DUP1 REVERT JUMPDEST POP JUMP JUMPDEST PUSH0 DUP2 CALLDATALOAD SWAP1 POP PUSH2 0x9B2 DUP2 PUSH2 0x98E JUMP JUMPDEST SWAP3 SWAP2 POP POP JUMP JUMPDEST PUSH0 DUP1 PUSH0 PUSH1 0x60 DUP5 DUP7 SUB SLT ISZERO PUSH2 0x9CF JUMPI PUSH2 0x9CE PUSH2 0x804 JUMP JUMPDEST JUMPDEST PUSH0 PUSH2 0x9DC DUP7 DUP3 DUP8 ADD PUSH2 0x82B JUMP JUMPDEST SWAP4 POP POP PUSH1 0x20 PUSH2 0x9ED DUP7 DUP3 DUP8 ADD PUSH2 0x82B JUMP JUMPDEST SWAP3 POP POP PUSH1 0x40 PUSH2 0x9FE DUP7 DUP3 DUP8 ADD PUSH2 0x9A4 JUMP JUMPDEST SWAP2 POP POP SWAP3 POP SWAP3 POP SWAP3 JUMP JUMPDEST PUSH0 PUSH1 0x20 DUP3 ADD SWAP1 POP PUSH2 0xA1B PUSH0 DUP4 ADD DUP5 PUSH2 0x919 JUMP JUMPDEST SWAP3 SWAP2 POP POP JUMP JUMPDEST PUSH0 DUP1 PUSH1 0x40 DUP4 DUP6 SUB SLT ISZERO PUSH2 0xA37 JUMPI PUSH2 0xA36 PUSH2 0x804 JUMP JUMPDEST JUMPDEST PUSH0 PUSH2 0xA44 DUP6 DUP3 DUP7 ADD PUSH2 0x82B JUMP JUMPDEST SWAP3 POP POP PUSH1 0x20 PUSH2 0xA55 DUP6 DUP3 DUP7 ADD PUSH2 0x82B JUMP JUMPDEST SWAP2 POP POP SWAP3 POP SWAP3 SWAP1 POP JUMP JUMPDEST PUSH0 DUP1 PUSH1 0x40 DUP4 DUP6 SUB SLT ISZERO PUSH2 0xA75 JUMPI PUSH2 0xA74 PUSH2 0x804 JUMP JUMPDEST JUMPDEST PUSH0 PUSH2 0xA82 DUP6 DUP3 DUP7 ADD PUSH2 0x9A4 JUMP JUMPDEST SWAP3 POP POP PUSH1 0x20 PUSH2 0xA93 DUP6 DUP3 DUP7 ADD PUSH2 0x82B JUMP JUMPDEST SWAP2 POP POP SWAP3 POP SWAP3 SWAP1 POP JUMP JUMPDEST PUSH0 DUP1 REVERT JUMPDEST PUSH0 DUP1 REVERT JUMPDEST PUSH0 DUP1 REVERT JUMPDEST PUSH0 DUP1 DUP4 PUSH1 0x1F DUP5 ADD SLT PUSH2 0xABE JUMPI PUSH2 0xABD PUSH2 0xA9D JUMP JUMPDEST JUMPDEST DUP3 CALLDATALOAD SWAP1 POP PUSH8 0xFFFFFFFFFFFFFFFF DUP2 GT ISZERO PUSH2 0xADB JUMPI PUSH2 0xADA PUSH2 0xAA1 JUMP JUMPDEST JUMPDEST PUSH1 0x20 DUP4 ADD SWAP2 POP DUP4 PUSH1 0x1 DUP3 MUL DUP4 ADD GT ISZERO PUSH2 0xAF7 JUMPI PUSH2 0xAF6 PUSH2 0xAA5 JUMP JUMPDEST JUMPDEST SWAP3 POP SWAP3 SWAP1 POP JUMP JUMPDEST PUSH0 DUP1 PUSH0 DUP1 PUSH0 PUSH1 0x80 DUP7 DUP9 SUB SLT ISZERO PUSH2 0xB17 JUMPI PUSH2 0xB16 PUSH2 0x804 JUMP JUMPDEST JUMPDEST PUSH0 DUP7 ADD CALLDATALOAD PUSH8 0xFFFFFFFFFFFFFFFF DUP2 GT ISZERO PUSH2 0xB34 JUMPI PUSH2 0xB33 PUSH2 0x808 JUMP JUMPDEST JUMPDEST PUSH2 0xB40 DUP9 DUP3 DUP10 ADD PUSH2 0xAA9 JUMP JUMPDEST SWAP6 POP SWAP6 POP POP PUSH1 0x20 PUSH2 0xB53 DUP9 DUP3 DUP10 ADD PUSH2 0x82B JUMP JUMPDEST SWAP4 POP POP PUSH1 0x40 PUSH2 0xB64 DUP9 DUP3 DUP10 ADD PUSH2 0x82B JUMP JUMPDEST SWAP3 POP POP PUSH1 0x60 PUSH2 0xB75 DUP9 DUP3 DUP10 ADD PUSH2 0x82B JUMP JUMPDEST SWAP2 POP POP SWAP3 SWAP6 POP SWAP3 SWAP6 SWAP1 SWAP4 POP JUMP JUMPDEST PUSH32 0x4E487B7100000000000000000000000000000000000000000000000000000000 PUSH0 MSTORE PUSH1 0x22 PUSH1 0x4 MSTORE PUSH1 0x24 PUSH0 REVERT JUMPDEST PUSH0 PUSH1 0x2 DUP3 DIV SWAP1 POP PUSH1 0x1 DUP3 AND DUP1 PUSH2 0xBC6 JUMPI PUSH1 0x7F DUP3 AND SWAP2 POP JUMPDEST PUSH1 0x20 DUP3 LT DUP2 SUB PUSH2 0xBD9 JUMPI PUSH2 0xBD8 PUSH2 0xB82 JUMP JUMPDEST JUMPDEST POP SWAP2 SWAP1 POP JUMP JUMPDEST PUSH32 0x696E76616C6964206576656E7400000000000000000000000000000000000000 PUSH0 DUP3 ADD MSTORE POP JUMP JUMPDEST PUSH0 PUSH2 0xC13 PUSH1 0xD DUP4 PUSH2 0x8B3 JUMP JUMPDEST SWAP2 POP PUSH2 0xC1E DUP3 PUSH2 0xBDF JUMP JUMPDEST PUSH1 0x20 DUP3 ADD SWAP1 POP SWAP2 SWAP1 POP JUMP JUMPDEST PUSH0 PUSH1 0x20 DUP3 ADD SWAP1 POP DUP2 DUP2 SUB PUSH0 DUP4 ADD MSTORE PUSH2 0xC40 DUP2 PUSH2 0xC07 JUMP JUMPDEST SWAP1 POP SWAP2 SWAP1 POP JUMP JUMPDEST PUSH32 0x746865206576656E742068617320616C72656164792070617373656421000000 PUSH0 DUP3 ADD MSTORE POP JUMP JUMPDEST PUSH0 PUSH2 0xC7B PUSH1 0x1D DUP4 PUSH2 0x8B3 JUMP JUMPDEST SWAP2 POP PUSH2 0xC86 DUP3 PUSH2 0xC47 JUMP JUMPDEST PUSH1 0x20 DUP3 ADD SWAP1 POP SWAP2 SWAP1 POP JUMP JUMPDEST PUSH0 PUSH1 0x20 DUP3 ADD SWAP1 POP DUP2 DUP2 SUB PUSH0 DUP4 ADD MSTORE PUSH2 0xCA8 DUP2 PUSH2 0xC6F JUMP JUMPDEST SWAP1 POP SWAP2 SWAP1 POP JUMP JUMPDEST PUSH32 0x796F7520646F206E6F74206861766520656E6F756768207469636B6574732100 PUSH0 DUP3 ADD MSTORE POP JUMP JUMPDEST PUSH0 PUSH2 0xCE3 PUSH1 0x1F DUP4 PUSH2 0x8B3 JUMP JUMPDEST SWAP2 POP PUSH2 0xCEE DUP3 PUSH2 0xCAF JUMP JUMPDEST PUSH1 0x20 DUP3 ADD SWAP1 POP SWAP2 SWAP1 POP JUMP JUMPDEST PUSH0 PUSH1 0x20 DUP3 ADD SWAP1 POP DUP2 DUP2 SUB PUSH0 DUP4 ADD MSTORE PUSH2 0xD10 DUP2 PUSH2 0xCD7 JUMP JUMPDEST SWAP1 POP SWAP2 SWAP1 POP JUMP JUMPDEST PUSH32 0x4E487B7100000000000000000000000000000000000000000000000000000000 PUSH0 MSTORE PUSH1 0x11 PUSH1 0x4 MSTORE PUSH1 0x24 PUSH0 REVERT JUMPDEST PUSH0 PUSH2 0xD4E DUP3 PUSH2 0x80C JUMP JUMPDEST SWAP2 POP PUSH2 0xD59 DUP4 PUSH2 0x80C JUMP JUMPDEST SWAP3 POP DUP3 DUP3 SUB SWAP1 POP DUP2 DUP2 GT ISZERO PUSH2 0xD71 JUMPI PUSH2 0xD70 PUSH2 0xD17 JUMP JUMPDEST JUMPDEST SWAP3 SWAP2 POP POP JUMP JUMPDEST PUSH0 PUSH2 0xD81 DUP3 PUSH2 0x80C JUMP JUMPDEST SWAP2 POP PUSH2 0xD8C DUP4 PUSH2 0x80C JUMP JUMPDEST SWAP3 POP DUP3 DUP3 ADD SWAP1 POP DUP1 DUP3 GT ISZERO PUSH2 0xDA4 JUMPI PUSH2 0xDA3 PUSH2 0xD17 JUMP JUMPDEST JUMPDEST SWAP3 SWAP2 POP POP JUMP JUMPDEST PUSH0 PUSH2 0xDB4 DUP3 PUSH2 0x80C JUMP JUMPDEST SWAP2 POP PUSH2 0xDBF DUP4 PUSH2 0x80C JUMP JUMPDEST SWAP3 POP DUP3 DUP3 MUL PUSH2 0xDCD DUP2 PUSH2 0x80C JUMP JUMPDEST SWAP2 POP DUP3 DUP3 DIV DUP5 EQ DUP4 ISZERO OR PUSH2 0xDE4 JUMPI PUSH2 0xDE3 PUSH2 0xD17 JUMP JUMPDEST JUMPDEST POP SWAP3 SWAP2 POP POP JUMP JUMPDEST PUSH32 0x77726F6E672076616C7565000000000000000000000000000000000000000000 PUSH0 DUP3 ADD MSTORE POP JUMP JUMPDEST PUSH0 PUSH2 0xE1F PUSH1 0xB DUP4 PUSH2 0x8B3 JUMP JUMPDEST SWAP2 POP PUSH2 0xE2A DUP3 PUSH2 0xDEB JUMP JUMPDEST PUSH1 0x20 DUP3 ADD SWAP1 POP SWAP2 SWAP1 POP JUMP JUMPDEST PUSH0 PUSH1 0x20 DUP3 ADD SWAP1 POP DUP2 DUP2 SUB PUSH0 DUP4 ADD MSTORE PUSH2 0xE4C DUP2 PUSH2 0xE13 JUMP JUMPDEST SWAP1 POP SWAP2 SWAP1 POP JUMP JUMPDEST PUSH32 0x796F752063616E6E6F7420637265617465206576656E7420666F722070617374 PUSH0 DUP3 ADD MSTORE PUSH32 0x2064617465000000000000000000000000000000000000000000000000000000 PUSH1 0x20 DUP3 ADD MSTORE POP JUMP JUMPDEST PUSH0 PUSH2 0xEAD PUSH1 0x25 DUP4 PUSH2 0x8B3 JUMP JUMPDEST SWAP2 POP PUSH2 0xEB8 DUP3 PUSH2 0xE53 JUMP JUMPDEST PUSH1 0x40 DUP3 ADD SWAP1 POP SWAP2 SWAP1 POP JUMP JUMPDEST PUSH0 PUSH1 0x20 DUP3 ADD SWAP1 POP DUP2 DUP2 SUB PUSH0 DUP4 ADD MSTORE PUSH2 0xEDA DUP2 PUSH2 0xEA1 JUMP JUMPDEST SWAP1 POP SWAP2 SWAP1 POP JUMP JUMPDEST PUSH32 0x696E76616C6964206E756D626572206F66207469636B65747300000000000000 PUSH0 DUP3 ADD MSTORE POP JUMP JUMPDEST PUSH0 PUSH2 0xF15 PUSH1 0x19 DUP4 PUSH2 0x8B3 JUMP JUMPDEST SWAP2 POP PUSH2 0xF20 DUP3 PUSH2 0xEE1 JUMP JUMPDEST PUSH1 0x20 DUP3 ADD SWAP1 POP SWAP2 SWAP1 POP JUMP JUMPDEST PUSH0 PUSH1 0x20 DUP3 ADD SWAP1 POP DUP2 DUP2 SUB PUSH0 DUP4 ADD MSTORE PUSH2 0xF42 DUP2 PUSH2 0xF09 JUMP JUMPDEST SWAP1 POP SWAP2 SWAP1 POP JUMP JUMPDEST PUSH32 0x4E487B7100000000000000000000000000000000000000000000000000000000 PUSH0 MSTORE PUSH1 0x41 PUSH1 0x4 MSTORE PUSH1 0x24 PUSH0 REVERT JUMPDEST PUSH0 DUP2 SWAP1 POP DUP2 PUSH0 MSTORE PUSH1 0x20 PUSH0 KECCAK256 SWAP1 POP SWAP2 SWAP1 POP JUMP JUMPDEST PUSH0 PUSH1 0x20 PUSH1 0x1F DUP4 ADD DIV SWAP1 POP SWAP2 SWAP1 POP JUMP JUMPDEST PUSH0 DUP3 DUP3 SHL SWAP1 POP SWAP3 SWAP2 POP POP JUMP JUMPDEST PUSH0 PUSH1 0x8 DUP4 MUL PUSH2 0xFD2 PUSH32 0xFFFFFFFFFFFFFFFFFFFFFFFFFFFFFFFFFFFFFFFFFFFFFFFFFFFFFFFFFFFFFFFF DUP3 PUSH2 0xF97 JUMP JUMPDEST PUSH2 0xFDC DUP7 DUP4 PUSH2 0xF97 JUMP JUMPDEST SWAP6 POP DUP1 NOT DUP5 AND SWAP4 POP DUP1 DUP7 AND DUP5 OR SWAP3 POP POP POP SWAP4 SWAP3 POP POP POP JUMP JUMPDEST PUSH0 DUP2 SWAP1 POP SWAP2 SWAP1 POP JUMP JUMPDEST PUSH0 PUSH2 0x1017 PUSH2 0x1012 PUSH2 0x100D DUP5 PUSH2 0x80C JUMP JUMPDEST PUSH2 0xFF4 JUMP JUMPDEST PUSH2 0x80C JUMP JUMPDEST SWAP1 POP SWAP2 SWAP1 POP JUMP JUMPDEST PUSH0 DUP2 SWAP1 POP SWAP2 SWAP1 POP JUMP JUMPDEST PUSH2 0x1030 DUP4 PUSH2 0xFFD JUMP JUMPDEST PUSH2 0x1044 PUSH2 0x103C DUP3 PUSH2 0x101E JUMP JUMPDEST DUP5 DUP5 SLOAD PUSH2 0xFA3 JUMP JUMPDEST DUP3 SSTORE POP POP POP POP JUMP JUMPDEST PUSH0 SWAP1 JUMP JUMPDEST PUSH2 0x1058 PUSH2 0x104C JUMP JUMPDEST PUSH2 0x1063 DUP2 DUP5 DUP5 PUSH2 0x1027 JUMP JUMPDEST POP POP POP JUMP JUMPDEST JUMPDEST DUP2 DUP2 LT ISZERO PUSH2 0x1086 JUMPI PUSH2 0x107B PUSH0 DUP3 PUSH2 0x1050 JUMP JUMPDEST PUSH1 0x1 DUP2 ADD SWAP1 POP PUSH2 0x1069 JUMP JUMPDEST POP POP JUMP JUMPDEST PUSH1 0x1F DUP3 GT ISZERO PUSH2 0x10CB JUMPI PUSH2 0x109C DUP2 PUSH2 0xF76 JUMP JUMPDEST PUSH2 0x10A5 DUP5 PUSH2 0xF88 JUMP JUMPDEST DUP2 ADD PUSH1 0x20 DUP6 LT ISZERO PUSH2 0x10B4 JUMPI DUP2 SWAP1 POP JUMPDEST PUSH2 0x10C8 PUSH2 0x10C0 DUP6 PUSH2 0xF88 JUMP JUMPDEST DUP4 ADD DUP3 PUSH2 0x1068 JUMP JUMPDEST POP POP JUMPDEST POP POP POP JUMP JUMPDEST PUSH0 DUP3 DUP3 SHR SWAP1 POP SWAP3 SWAP2 POP POP JUMP JUMPDEST PUSH0 PUSH2 0x10EB PUSH0 NOT DUP5 PUSH1 0x8 MUL PUSH2 0x10D0 JUMP JUMPDEST NOT DUP1 DUP4 AND SWAP2 POP POP SWAP3 SWAP2 POP POP JUMP JUMPDEST PUSH0 PUSH2 0x1103 DUP4 DUP4 PUSH2 0x10DC JUMP JUMPDEST SWAP2 POP DUP3 PUSH1 0x2 MUL DUP3 OR SWAP1 POP SWAP3 SWAP2 POP POP JUMP JUMPDEST PUSH2 0x111C DUP3 PUSH2 0x8A9 JUMP JUMPDEST PUSH8 0xFFFFFFFFFFFFFFFF DUP2 GT ISZERO PUSH2 0x1135 JUMPI PUSH2 0x1134 PUSH2 0xF49 JUMP JUMPDEST JUMPDEST PUSH2 0x113F DUP3 SLOAD PUSH2 0xBAF JUMP JUMPDEST PUSH2 0x114A DUP3 DUP3 DUP6 PUSH2 0x108A JUMP JUMPDEST PUSH0 PUSH1 0x20 SWAP1 POP PUSH1 0x1F DUP4 GT PUSH1 0x1 DUP2 EQ PUSH2 0x117B JUMPI PUSH0 DUP5 ISZERO PUSH2 0x1169 JUMPI DUP3 DUP8 ADD MLOAD SWAP1 POP JUMPDEST PUSH2 0x1173 DUP6 DUP3 PUSH2 0x10F8 JUMP JUMPDEST DUP7 SSTORE POP PUSH2 0x11DA JUMP JUMPDEST PUSH1 0x1F NOT DUP5 AND PUSH2 0x1189 DUP7 PUSH2 0xF76 JUMP JUMPDEST PUSH0 JUMPDEST DUP3 DUP2 LT ISZERO PUSH2 0x11B0 JUMPI DUP5 DUP10 ADD MLOAD DUP3 SSTORE PUSH1 0x1 DUP3 ADD SWAP2 POP PUSH1 0x20 DUP6 ADD SWAP5 POP PUSH1 0x20 DUP2 ADD SWAP1 POP PUSH2 0x118B JUMP JUMPDEST DUP7 DUP4 LT ISZERO PUSH2 0x11CD JUMPI DUP5 DUP10 ADD MLOAD PUSH2 0x11C9 PUSH1 0x1F DUP10 AND DUP3 PUSH2 0x10DC JUMP JUMPDEST DUP4 SSTORE POP JUMPDEST PUSH1 0x1 PUSH1 0x2 DUP9 MUL ADD DUP9 SSTORE POP POP POP JUMPDEST POP POP POP POP POP POP JUMP JUMPDEST PUSH0 PUSH2 0x11EC DUP3 PUSH2 0x80C JUMP JUMPDEST SWAP2 POP PUSH32 0xFFFFFFFFFFFFFFFFFFFFFFFFFFFFFFFFFFFFFFFFFFFFFFFFFFFFFFFFFFFFFFFF DUP3 SUB PUSH2 0x121E JUMPI PUSH2 0x121D PUSH2 0xD17 JUMP JUMPDEST JUMPDEST PUSH1 0x1 DUP3 ADD SWAP1 POP SWAP2 SWAP1 POP JUMP INVALID LOG2 PUSH5 0x6970667358 0x22 SLT KECCAK256 MUL 0xB5 0x28 JUMPDEST CODECOPY JUMP DUP13 SWAP16 0xE4 CREATE2 0xF8 PUSH1 0x2A 0x26 0xC4 0x4F 0xD3 0xC2 0xEE STOP 0xC7 0xC4 SELFDESTRUCT 0xC0 EXTCODECOPY PUSH9 0x4AF1F81CC14C64736F PUSH13 0x634300081A0033000000000000 "
				},
				"gasEstimates": {
					"creation": {
						"codeDepositCost": "940600",
						"executionCost": "973",
						"totalCost": "941573"
					},
					"external": {
						"BuyTicket(uint256,uint256)": "infinite",
						"CreateEvent(string,uint256,uint256,uint256)": "infinite",
						"events(uint256)": "infinite",
						"nextId()": "2447",
						"tickets(address,uint256)": "infinite",
						"transferTickets(uint256,uint256,address)": "infinite"
					}
				},
				"methodIdentifiers": {
					"BuyTicket(uint256,uint256)": "a8445a1e",
					"CreateEvent(string,uint256,uint256,uint256)": "e41bd06c",
					"events(uint256)": "0b791430",
					"nextId()": "61b8ce8c",
					"tickets(address,uint256)": "dae7a13c",
					"transferTickets(uint256,uint256,address)": "3d23eed9"
				}
			},
			"storageLayout": {
				"storage": [
					{
						"astId": 19,
						"contract": "EventOrganization/EventOrganization.sol:EventOrganization",
						"label": "events",
						"offset": 0,
						"slot": "0",
						"type": "t_mapping(t_uint256,t_struct(Event)14_storage)"
					},
					{
						"astId": 25,
						"contract": "EventOrganization/EventOrganization.sol:EventOrganization",
						"label": "tickets",
						"offset": 0,
						"slot": "1",
						"type": "t_mapping(t_address,t_mapping(t_uint256,t_uint256))"
					},
					{
						"astId": 27,
						"contract": "EventOrganization/EventOrganization.sol:EventOrganization",
						"label": "nextId",
						"offset": 0,
						"slot": "2",
						"type": "t_uint256"
					}
				],
				"types": {
					"t_address": {
						"encoding": "inplace",
						"label": "address",
						"numberOfBytes": "20"
					},
					"t_mapping(t_address,t_mapping(t_uint256,t_uint256))": {
						"encoding": "mapping",
						"key": "t_address",
						"label": "mapping(address => mapping(uint256 => uint256))",
						"numberOfBytes": "32",
						"value": "t_mapping(t_uint256,t_uint256)"
					},
					"t_mapping(t_uint256,t_struct(Event)14_storage)": {
						"encoding": "mapping",
						"key": "t_uint256",
						"label": "mapping(uint256 => struct EventOrganization.Event)",
						"numberOfBytes": "32",
						"value": "t_struct(Event)14_storage"
					},
					"t_mapping(t_uint256,t_uint256)": {
						"encoding": "mapping",
						"key": "t_uint256",
						"label": "mapping(uint256 => uint256)",
						"numberOfBytes": "32",
						"value": "t_uint256"
					},
					"t_string_storage": {
						"encoding": "bytes",
						"label": "string",
						"numberOfBytes": "32"
					},
					"t_struct(Event)14_storage": {
						"encoding": "inplace",
						"label": "struct EventOrganization.Event",
						"members": [
							{
								"astId": 3,
								"contract": "EventOrganization/EventOrganization.sol:EventOrganization",
								"label": "organizer",
								"offset": 0,
								"slot": "0",
								"type": "t_address"
							},
							{
								"astId": 5,
								"contract": "EventOrganization/EventOrganization.sol:EventOrganization",
								"label": "name",
								"offset": 0,
								"slot": "1",
								"type": "t_string_storage"
							},
							{
								"astId": 7,
								"contract": "EventOrganization/EventOrganization.sol:EventOrganization",
								"label": "date",
								"offset": 0,
								"slot": "2",
								"type": "t_uint256"
							},
							{
								"astId": 9,
								"contract": "EventOrganization/EventOrganization.sol:EventOrganization",
								"label": "price",
								"offset": 0,
								"slot": "3",
								"type": "t_uint256"
							},
							{
								"astId": 11,
								"contract": "EventOrganization/EventOrganization.sol:EventOrganization",
								"label": "ticketCount",
								"offset": 0,
								"slot": "4",
								"type": "t_uint256"
							},
							{
								"astId": 13,
								"contract": "EventOrganization/EventOrganization.sol:EventOrganization",
								"label": "ticketRemaining",
								"offset": 0,
								"slot": "5",
								"type": "t_uint256"
							}
						],
						"numberOfBytes": "192"
					},
					"t_uint256": {
						"encoding": "inplace",
						"label": "uint256",
						"numberOfBytes": "32"
					}
				}
			},
			"userdoc": {
				"kind": "user",
				"methods": {},
				"version": 1
			}
		}
	}
}